
Luces2.elf:     file format elf32-littlearm

Sections:
Idx Name          Size      VMA       LMA       File off  Algn
  0 .isr_vector   00000188  08000000  08000000  00010000  2**0
                  CONTENTS, ALLOC, LOAD, READONLY, DATA
  1 .text         000021f0  08000188  08000188  00010188  2**3
                  CONTENTS, ALLOC, LOAD, READONLY, CODE
  2 .rodata       00000010  08002378  08002378  00012378  2**0
                  CONTENTS, ALLOC, LOAD, READONLY, DATA
  3 .ARM.extab    00000000  08002388  08002388  0002002c  2**0
                  CONTENTS
  4 .ARM          00000008  08002388  08002388  00012388  2**2
                  CONTENTS, ALLOC, LOAD, READONLY, DATA
  5 .preinit_array 00000000  08002390  08002390  0002002c  2**0
                  CONTENTS, ALLOC, LOAD, DATA
  6 .init_array   00000004  08002390  08002390  00012390  2**2
                  CONTENTS, ALLOC, LOAD, DATA
  7 .fini_array   00000004  08002394  08002394  00012394  2**2
                  CONTENTS, ALLOC, LOAD, DATA
  8 .data         0000002c  20000000  08002398  00020000  2**2
                  CONTENTS, ALLOC, LOAD, DATA
  9 .bss          000000b0  2000002c  080023c4  0002002c  2**2
                  ALLOC
 10 ._user_heap_stack 00000604  200000dc  080023c4  000200dc  2**0
                  ALLOC
 11 .ARM.attributes 00000030  00000000  00000000  0002002c  2**0
                  CONTENTS, READONLY
 12 .comment      0000007b  00000000  00000000  0002005c  2**0
                  CONTENTS, READONLY
 13 .debug_frame  000001cc  00000000  00000000  000200d8  2**2
                  CONTENTS, READONLY, DEBUGGING

Disassembly of section .text:

08000188 <__do_global_dtors_aux>:
 8000188:	b510      	push	{r4, lr}
 800018a:	4c05      	ldr	r4, [pc, #20]	; (80001a0 <__do_global_dtors_aux+0x18>)
 800018c:	7823      	ldrb	r3, [r4, #0]
 800018e:	b933      	cbnz	r3, 800019e <__do_global_dtors_aux+0x16>
 8000190:	4b04      	ldr	r3, [pc, #16]	; (80001a4 <__do_global_dtors_aux+0x1c>)
 8000192:	b113      	cbz	r3, 800019a <__do_global_dtors_aux+0x12>
 8000194:	4804      	ldr	r0, [pc, #16]	; (80001a8 <__do_global_dtors_aux+0x20>)
 8000196:	f3af 8000 	nop.w
 800019a:	2301      	movs	r3, #1
 800019c:	7023      	strb	r3, [r4, #0]
 800019e:	bd10      	pop	{r4, pc}
 80001a0:	2000002c 	.word	0x2000002c
 80001a4:	00000000 	.word	0x00000000
 80001a8:	08002360 	.word	0x08002360

080001ac <frame_dummy>:
 80001ac:	b508      	push	{r3, lr}
 80001ae:	4b03      	ldr	r3, [pc, #12]	; (80001bc <frame_dummy+0x10>)
 80001b0:	b11b      	cbz	r3, 80001ba <frame_dummy+0xe>
 80001b2:	4903      	ldr	r1, [pc, #12]	; (80001c0 <frame_dummy+0x14>)
 80001b4:	4803      	ldr	r0, [pc, #12]	; (80001c4 <frame_dummy+0x18>)
 80001b6:	f3af 8000 	nop.w
 80001ba:	bd08      	pop	{r3, pc}
 80001bc:	00000000 	.word	0x00000000
 80001c0:	20000030 	.word	0x20000030
 80001c4:	08002360 	.word	0x08002360

080001c8 <__aeabi_drsub>:
 80001c8:	f081 4100 	eor.w	r1, r1, #2147483648	; 0x80000000
 80001cc:	e002      	b.n	80001d4 <__adddf3>
 80001ce:	bf00      	nop

080001d0 <__aeabi_dsub>:
 80001d0:	f083 4300 	eor.w	r3, r3, #2147483648	; 0x80000000

080001d4 <__adddf3>:
 80001d4:	b530      	push	{r4, r5, lr}
 80001d6:	ea4f 0441 	mov.w	r4, r1, lsl #1
 80001da:	ea4f 0543 	mov.w	r5, r3, lsl #1
 80001de:	ea94 0f05 	teq	r4, r5
 80001e2:	bf08      	it	eq
 80001e4:	ea90 0f02 	teqeq	r0, r2
 80001e8:	bf1f      	itttt	ne
 80001ea:	ea54 0c00 	orrsne.w	ip, r4, r0
 80001ee:	ea55 0c02 	orrsne.w	ip, r5, r2
 80001f2:	ea7f 5c64 	mvnsne.w	ip, r4, asr #21
 80001f6:	ea7f 5c65 	mvnsne.w	ip, r5, asr #21
 80001fa:	f000 80e2 	beq.w	80003c2 <__adddf3+0x1ee>
 80001fe:	ea4f 5454 	mov.w	r4, r4, lsr #21
 8000202:	ebd4 5555 	rsbs	r5, r4, r5, lsr #21
 8000206:	bfb8      	it	lt
 8000208:	426d      	neglt	r5, r5
 800020a:	dd0c      	ble.n	8000226 <__adddf3+0x52>
 800020c:	442c      	add	r4, r5
 800020e:	ea80 0202 	eor.w	r2, r0, r2
 8000212:	ea81 0303 	eor.w	r3, r1, r3
 8000216:	ea82 0000 	eor.w	r0, r2, r0
 800021a:	ea83 0101 	eor.w	r1, r3, r1
 800021e:	ea80 0202 	eor.w	r2, r0, r2
 8000222:	ea81 0303 	eor.w	r3, r1, r3
 8000226:	2d36      	cmp	r5, #54	; 0x36
 8000228:	bf88      	it	hi
 800022a:	bd30      	pophi	{r4, r5, pc}
 800022c:	f011 4f00 	tst.w	r1, #2147483648	; 0x80000000
 8000230:	ea4f 3101 	mov.w	r1, r1, lsl #12
 8000234:	f44f 1c80 	mov.w	ip, #1048576	; 0x100000
 8000238:	ea4c 3111 	orr.w	r1, ip, r1, lsr #12
 800023c:	d002      	beq.n	8000244 <__adddf3+0x70>
 800023e:	4240      	negs	r0, r0
 8000240:	eb61 0141 	sbc.w	r1, r1, r1, lsl #1
 8000244:	f013 4f00 	tst.w	r3, #2147483648	; 0x80000000
 8000248:	ea4f 3303 	mov.w	r3, r3, lsl #12
 800024c:	ea4c 3313 	orr.w	r3, ip, r3, lsr #12
 8000250:	d002      	beq.n	8000258 <__adddf3+0x84>
 8000252:	4252      	negs	r2, r2
 8000254:	eb63 0343 	sbc.w	r3, r3, r3, lsl #1
 8000258:	ea94 0f05 	teq	r4, r5
 800025c:	f000 80a7 	beq.w	80003ae <__adddf3+0x1da>
 8000260:	f1a4 0401 	sub.w	r4, r4, #1
 8000264:	f1d5 0e20 	rsbs	lr, r5, #32
 8000268:	db0d      	blt.n	8000286 <__adddf3+0xb2>
 800026a:	fa02 fc0e 	lsl.w	ip, r2, lr
 800026e:	fa22 f205 	lsr.w	r2, r2, r5
 8000272:	1880      	adds	r0, r0, r2
 8000274:	f141 0100 	adc.w	r1, r1, #0
 8000278:	fa03 f20e 	lsl.w	r2, r3, lr
 800027c:	1880      	adds	r0, r0, r2
 800027e:	fa43 f305 	asr.w	r3, r3, r5
 8000282:	4159      	adcs	r1, r3
 8000284:	e00e      	b.n	80002a4 <__adddf3+0xd0>
 8000286:	f1a5 0520 	sub.w	r5, r5, #32
 800028a:	f10e 0e20 	add.w	lr, lr, #32
 800028e:	2a01      	cmp	r2, #1
 8000290:	fa03 fc0e 	lsl.w	ip, r3, lr
 8000294:	bf28      	it	cs
 8000296:	f04c 0c02 	orrcs.w	ip, ip, #2
 800029a:	fa43 f305 	asr.w	r3, r3, r5
 800029e:	18c0      	adds	r0, r0, r3
 80002a0:	eb51 71e3 	adcs.w	r1, r1, r3, asr #31
 80002a4:	f001 4500 	and.w	r5, r1, #2147483648	; 0x80000000
 80002a8:	d507      	bpl.n	80002ba <__adddf3+0xe6>
 80002aa:	f04f 0e00 	mov.w	lr, #0
 80002ae:	f1dc 0c00 	rsbs	ip, ip, #0
 80002b2:	eb7e 0000 	sbcs.w	r0, lr, r0
 80002b6:	eb6e 0101 	sbc.w	r1, lr, r1
 80002ba:	f5b1 1f80 	cmp.w	r1, #1048576	; 0x100000
 80002be:	d31b      	bcc.n	80002f8 <__adddf3+0x124>
 80002c0:	f5b1 1f00 	cmp.w	r1, #2097152	; 0x200000
 80002c4:	d30c      	bcc.n	80002e0 <__adddf3+0x10c>
 80002c6:	0849      	lsrs	r1, r1, #1
 80002c8:	ea5f 0030 	movs.w	r0, r0, rrx
 80002cc:	ea4f 0c3c 	mov.w	ip, ip, rrx
 80002d0:	f104 0401 	add.w	r4, r4, #1
 80002d4:	ea4f 5244 	mov.w	r2, r4, lsl #21
 80002d8:	f512 0f80 	cmn.w	r2, #4194304	; 0x400000
 80002dc:	f080 809a 	bcs.w	8000414 <__adddf3+0x240>
 80002e0:	f1bc 4f00 	cmp.w	ip, #2147483648	; 0x80000000
 80002e4:	bf08      	it	eq
 80002e6:	ea5f 0c50 	movseq.w	ip, r0, lsr #1
 80002ea:	f150 0000 	adcs.w	r0, r0, #0
 80002ee:	eb41 5104 	adc.w	r1, r1, r4, lsl #20
 80002f2:	ea41 0105 	orr.w	r1, r1, r5
 80002f6:	bd30      	pop	{r4, r5, pc}
 80002f8:	ea5f 0c4c 	movs.w	ip, ip, lsl #1
 80002fc:	4140      	adcs	r0, r0
 80002fe:	eb41 0101 	adc.w	r1, r1, r1
 8000302:	f411 1f80 	tst.w	r1, #1048576	; 0x100000
 8000306:	f1a4 0401 	sub.w	r4, r4, #1
 800030a:	d1e9      	bne.n	80002e0 <__adddf3+0x10c>
 800030c:	f091 0f00 	teq	r1, #0
 8000310:	bf04      	itt	eq
 8000312:	4601      	moveq	r1, r0
 8000314:	2000      	moveq	r0, #0
 8000316:	fab1 f381 	clz	r3, r1
 800031a:	bf08      	it	eq
 800031c:	3320      	addeq	r3, #32
 800031e:	f1a3 030b 	sub.w	r3, r3, #11
 8000322:	f1b3 0220 	subs.w	r2, r3, #32
 8000326:	da0c      	bge.n	8000342 <__adddf3+0x16e>
 8000328:	320c      	adds	r2, #12
 800032a:	dd08      	ble.n	800033e <__adddf3+0x16a>
 800032c:	f102 0c14 	add.w	ip, r2, #20
 8000330:	f1c2 020c 	rsb	r2, r2, #12
 8000334:	fa01 f00c 	lsl.w	r0, r1, ip
 8000338:	fa21 f102 	lsr.w	r1, r1, r2
 800033c:	e00c      	b.n	8000358 <__adddf3+0x184>
 800033e:	f102 0214 	add.w	r2, r2, #20
 8000342:	bfd8      	it	le
 8000344:	f1c2 0c20 	rsble	ip, r2, #32
 8000348:	fa01 f102 	lsl.w	r1, r1, r2
 800034c:	fa20 fc0c 	lsr.w	ip, r0, ip
 8000350:	bfdc      	itt	le
 8000352:	ea41 010c 	orrle.w	r1, r1, ip
 8000356:	4090      	lslle	r0, r2
 8000358:	1ae4      	subs	r4, r4, r3
 800035a:	bfa2      	ittt	ge
 800035c:	eb01 5104 	addge.w	r1, r1, r4, lsl #20
 8000360:	4329      	orrge	r1, r5
 8000362:	bd30      	popge	{r4, r5, pc}
 8000364:	ea6f 0404 	mvn.w	r4, r4
 8000368:	3c1f      	subs	r4, #31
 800036a:	da1c      	bge.n	80003a6 <__adddf3+0x1d2>
 800036c:	340c      	adds	r4, #12
 800036e:	dc0e      	bgt.n	800038e <__adddf3+0x1ba>
 8000370:	f104 0414 	add.w	r4, r4, #20
 8000374:	f1c4 0220 	rsb	r2, r4, #32
 8000378:	fa20 f004 	lsr.w	r0, r0, r4
 800037c:	fa01 f302 	lsl.w	r3, r1, r2
 8000380:	ea40 0003 	orr.w	r0, r0, r3
 8000384:	fa21 f304 	lsr.w	r3, r1, r4
 8000388:	ea45 0103 	orr.w	r1, r5, r3
 800038c:	bd30      	pop	{r4, r5, pc}
 800038e:	f1c4 040c 	rsb	r4, r4, #12
 8000392:	f1c4 0220 	rsb	r2, r4, #32
 8000396:	fa20 f002 	lsr.w	r0, r0, r2
 800039a:	fa01 f304 	lsl.w	r3, r1, r4
 800039e:	ea40 0003 	orr.w	r0, r0, r3
 80003a2:	4629      	mov	r1, r5
 80003a4:	bd30      	pop	{r4, r5, pc}
 80003a6:	fa21 f004 	lsr.w	r0, r1, r4
 80003aa:	4629      	mov	r1, r5
 80003ac:	bd30      	pop	{r4, r5, pc}
 80003ae:	f094 0f00 	teq	r4, #0
 80003b2:	f483 1380 	eor.w	r3, r3, #1048576	; 0x100000
 80003b6:	bf06      	itte	eq
 80003b8:	f481 1180 	eoreq.w	r1, r1, #1048576	; 0x100000
 80003bc:	3401      	addeq	r4, #1
 80003be:	3d01      	subne	r5, #1
 80003c0:	e74e      	b.n	8000260 <__adddf3+0x8c>
 80003c2:	ea7f 5c64 	mvns.w	ip, r4, asr #21
 80003c6:	bf18      	it	ne
 80003c8:	ea7f 5c65 	mvnsne.w	ip, r5, asr #21
 80003cc:	d029      	beq.n	8000422 <__adddf3+0x24e>
 80003ce:	ea94 0f05 	teq	r4, r5
 80003d2:	bf08      	it	eq
 80003d4:	ea90 0f02 	teqeq	r0, r2
 80003d8:	d005      	beq.n	80003e6 <__adddf3+0x212>
 80003da:	ea54 0c00 	orrs.w	ip, r4, r0
 80003de:	bf04      	itt	eq
 80003e0:	4619      	moveq	r1, r3
 80003e2:	4610      	moveq	r0, r2
 80003e4:	bd30      	pop	{r4, r5, pc}
 80003e6:	ea91 0f03 	teq	r1, r3
 80003ea:	bf1e      	ittt	ne
 80003ec:	2100      	movne	r1, #0
 80003ee:	2000      	movne	r0, #0
 80003f0:	bd30      	popne	{r4, r5, pc}
 80003f2:	ea5f 5c54 	movs.w	ip, r4, lsr #21
 80003f6:	d105      	bne.n	8000404 <__adddf3+0x230>
 80003f8:	0040      	lsls	r0, r0, #1
 80003fa:	4149      	adcs	r1, r1
 80003fc:	bf28      	it	cs
 80003fe:	f041 4100 	orrcs.w	r1, r1, #2147483648	; 0x80000000
 8000402:	bd30      	pop	{r4, r5, pc}
 8000404:	f514 0480 	adds.w	r4, r4, #4194304	; 0x400000
 8000408:	bf3c      	itt	cc
 800040a:	f501 1180 	addcc.w	r1, r1, #1048576	; 0x100000
 800040e:	bd30      	popcc	{r4, r5, pc}
 8000410:	f001 4500 	and.w	r5, r1, #2147483648	; 0x80000000
 8000414:	f045 41fe 	orr.w	r1, r5, #2130706432	; 0x7f000000
 8000418:	f441 0170 	orr.w	r1, r1, #15728640	; 0xf00000
 800041c:	f04f 0000 	mov.w	r0, #0
 8000420:	bd30      	pop	{r4, r5, pc}
 8000422:	ea7f 5c64 	mvns.w	ip, r4, asr #21
 8000426:	bf1a      	itte	ne
 8000428:	4619      	movne	r1, r3
 800042a:	4610      	movne	r0, r2
 800042c:	ea7f 5c65 	mvnseq.w	ip, r5, asr #21
 8000430:	bf1c      	itt	ne
 8000432:	460b      	movne	r3, r1
 8000434:	4602      	movne	r2, r0
 8000436:	ea50 3401 	orrs.w	r4, r0, r1, lsl #12
 800043a:	bf06      	itte	eq
 800043c:	ea52 3503 	orrseq.w	r5, r2, r3, lsl #12
 8000440:	ea91 0f03 	teqeq	r1, r3
 8000444:	f441 2100 	orrne.w	r1, r1, #524288	; 0x80000
 8000448:	bd30      	pop	{r4, r5, pc}
 800044a:	bf00      	nop

0800044c <__aeabi_ui2d>:
 800044c:	f090 0f00 	teq	r0, #0
 8000450:	bf04      	itt	eq
 8000452:	2100      	moveq	r1, #0
 8000454:	4770      	bxeq	lr
 8000456:	b530      	push	{r4, r5, lr}
 8000458:	f44f 6480 	mov.w	r4, #1024	; 0x400
 800045c:	f104 0432 	add.w	r4, r4, #50	; 0x32
 8000460:	f04f 0500 	mov.w	r5, #0
 8000464:	f04f 0100 	mov.w	r1, #0
 8000468:	e750      	b.n	800030c <__adddf3+0x138>
 800046a:	bf00      	nop

0800046c <__aeabi_i2d>:
 800046c:	f090 0f00 	teq	r0, #0
 8000470:	bf04      	itt	eq
 8000472:	2100      	moveq	r1, #0
 8000474:	4770      	bxeq	lr
 8000476:	b530      	push	{r4, r5, lr}
 8000478:	f44f 6480 	mov.w	r4, #1024	; 0x400
 800047c:	f104 0432 	add.w	r4, r4, #50	; 0x32
 8000480:	f010 4500 	ands.w	r5, r0, #2147483648	; 0x80000000
 8000484:	bf48      	it	mi
 8000486:	4240      	negmi	r0, r0
 8000488:	f04f 0100 	mov.w	r1, #0
 800048c:	e73e      	b.n	800030c <__adddf3+0x138>
 800048e:	bf00      	nop

08000490 <__aeabi_f2d>:
 8000490:	0042      	lsls	r2, r0, #1
 8000492:	ea4f 01e2 	mov.w	r1, r2, asr #3
 8000496:	ea4f 0131 	mov.w	r1, r1, rrx
 800049a:	ea4f 7002 	mov.w	r0, r2, lsl #28
 800049e:	bf1f      	itttt	ne
 80004a0:	f012 437f 	andsne.w	r3, r2, #4278190080	; 0xff000000
 80004a4:	f093 4f7f 	teqne	r3, #4278190080	; 0xff000000
 80004a8:	f081 5160 	eorne.w	r1, r1, #939524096	; 0x38000000
 80004ac:	4770      	bxne	lr
 80004ae:	f032 427f 	bics.w	r2, r2, #4278190080	; 0xff000000
 80004b2:	bf08      	it	eq
 80004b4:	4770      	bxeq	lr
 80004b6:	f093 4f7f 	teq	r3, #4278190080	; 0xff000000
 80004ba:	bf04      	itt	eq
 80004bc:	f441 2100 	orreq.w	r1, r1, #524288	; 0x80000
 80004c0:	4770      	bxeq	lr
 80004c2:	b530      	push	{r4, r5, lr}
 80004c4:	f44f 7460 	mov.w	r4, #896	; 0x380
 80004c8:	f001 4500 	and.w	r5, r1, #2147483648	; 0x80000000
 80004cc:	f021 4100 	bic.w	r1, r1, #2147483648	; 0x80000000
 80004d0:	e71c      	b.n	800030c <__adddf3+0x138>
 80004d2:	bf00      	nop

080004d4 <__aeabi_ul2d>:
 80004d4:	ea50 0201 	orrs.w	r2, r0, r1
 80004d8:	bf08      	it	eq
 80004da:	4770      	bxeq	lr
 80004dc:	b530      	push	{r4, r5, lr}
 80004de:	f04f 0500 	mov.w	r5, #0
 80004e2:	e00a      	b.n	80004fa <__aeabi_l2d+0x16>

080004e4 <__aeabi_l2d>:
 80004e4:	ea50 0201 	orrs.w	r2, r0, r1
 80004e8:	bf08      	it	eq
 80004ea:	4770      	bxeq	lr
 80004ec:	b530      	push	{r4, r5, lr}
 80004ee:	f011 4500 	ands.w	r5, r1, #2147483648	; 0x80000000
 80004f2:	d502      	bpl.n	80004fa <__aeabi_l2d+0x16>
 80004f4:	4240      	negs	r0, r0
 80004f6:	eb61 0141 	sbc.w	r1, r1, r1, lsl #1
 80004fa:	f44f 6480 	mov.w	r4, #1024	; 0x400
 80004fe:	f104 0432 	add.w	r4, r4, #50	; 0x32
 8000502:	ea5f 5c91 	movs.w	ip, r1, lsr #22
 8000506:	f43f aed8 	beq.w	80002ba <__adddf3+0xe6>
 800050a:	f04f 0203 	mov.w	r2, #3
 800050e:	ea5f 0cdc 	movs.w	ip, ip, lsr #3
 8000512:	bf18      	it	ne
 8000514:	3203      	addne	r2, #3
 8000516:	ea5f 0cdc 	movs.w	ip, ip, lsr #3
 800051a:	bf18      	it	ne
 800051c:	3203      	addne	r2, #3
 800051e:	eb02 02dc 	add.w	r2, r2, ip, lsr #3
 8000522:	f1c2 0320 	rsb	r3, r2, #32
 8000526:	fa00 fc03 	lsl.w	ip, r0, r3
 800052a:	fa20 f002 	lsr.w	r0, r0, r2
 800052e:	fa01 fe03 	lsl.w	lr, r1, r3
 8000532:	ea40 000e 	orr.w	r0, r0, lr
 8000536:	fa21 f102 	lsr.w	r1, r1, r2
 800053a:	4414      	add	r4, r2
 800053c:	e6bd      	b.n	80002ba <__adddf3+0xe6>
 800053e:	bf00      	nop

08000540 <__aeabi_dmul>:
 8000540:	b570      	push	{r4, r5, r6, lr}
 8000542:	f04f 0cff 	mov.w	ip, #255	; 0xff
 8000546:	f44c 6ce0 	orr.w	ip, ip, #1792	; 0x700
 800054a:	ea1c 5411 	ands.w	r4, ip, r1, lsr #20
 800054e:	bf1d      	ittte	ne
 8000550:	ea1c 5513 	andsne.w	r5, ip, r3, lsr #20
 8000554:	ea94 0f0c 	teqne	r4, ip
 8000558:	ea95 0f0c 	teqne	r5, ip
 800055c:	f000 f8de 	bleq	800071c <__aeabi_dmul+0x1dc>
 8000560:	442c      	add	r4, r5
 8000562:	ea81 0603 	eor.w	r6, r1, r3
 8000566:	ea21 514c 	bic.w	r1, r1, ip, lsl #21
 800056a:	ea23 534c 	bic.w	r3, r3, ip, lsl #21
 800056e:	ea50 3501 	orrs.w	r5, r0, r1, lsl #12
 8000572:	bf18      	it	ne
 8000574:	ea52 3503 	orrsne.w	r5, r2, r3, lsl #12
 8000578:	f441 1180 	orr.w	r1, r1, #1048576	; 0x100000
 800057c:	f443 1380 	orr.w	r3, r3, #1048576	; 0x100000
 8000580:	d038      	beq.n	80005f4 <__aeabi_dmul+0xb4>
 8000582:	fba0 ce02 	umull	ip, lr, r0, r2
 8000586:	f04f 0500 	mov.w	r5, #0
 800058a:	fbe1 e502 	umlal	lr, r5, r1, r2
 800058e:	f006 4200 	and.w	r2, r6, #2147483648	; 0x80000000
 8000592:	fbe0 e503 	umlal	lr, r5, r0, r3
 8000596:	f04f 0600 	mov.w	r6, #0
 800059a:	fbe1 5603 	umlal	r5, r6, r1, r3
 800059e:	f09c 0f00 	teq	ip, #0
 80005a2:	bf18      	it	ne
 80005a4:	f04e 0e01 	orrne.w	lr, lr, #1
 80005a8:	f1a4 04ff 	sub.w	r4, r4, #255	; 0xff
 80005ac:	f5b6 7f00 	cmp.w	r6, #512	; 0x200
 80005b0:	f564 7440 	sbc.w	r4, r4, #768	; 0x300
 80005b4:	d204      	bcs.n	80005c0 <__aeabi_dmul+0x80>
 80005b6:	ea5f 0e4e 	movs.w	lr, lr, lsl #1
 80005ba:	416d      	adcs	r5, r5
 80005bc:	eb46 0606 	adc.w	r6, r6, r6
 80005c0:	ea42 21c6 	orr.w	r1, r2, r6, lsl #11
 80005c4:	ea41 5155 	orr.w	r1, r1, r5, lsr #21
 80005c8:	ea4f 20c5 	mov.w	r0, r5, lsl #11
 80005cc:	ea40 505e 	orr.w	r0, r0, lr, lsr #21
 80005d0:	ea4f 2ece 	mov.w	lr, lr, lsl #11
 80005d4:	f1b4 0cfd 	subs.w	ip, r4, #253	; 0xfd
 80005d8:	bf88      	it	hi
 80005da:	f5bc 6fe0 	cmphi.w	ip, #1792	; 0x700
 80005de:	d81e      	bhi.n	800061e <__aeabi_dmul+0xde>
 80005e0:	f1be 4f00 	cmp.w	lr, #2147483648	; 0x80000000
 80005e4:	bf08      	it	eq
 80005e6:	ea5f 0e50 	movseq.w	lr, r0, lsr #1
 80005ea:	f150 0000 	adcs.w	r0, r0, #0
 80005ee:	eb41 5104 	adc.w	r1, r1, r4, lsl #20
 80005f2:	bd70      	pop	{r4, r5, r6, pc}
 80005f4:	f006 4600 	and.w	r6, r6, #2147483648	; 0x80000000
 80005f8:	ea46 0101 	orr.w	r1, r6, r1
 80005fc:	ea40 0002 	orr.w	r0, r0, r2
 8000600:	ea81 0103 	eor.w	r1, r1, r3
 8000604:	ebb4 045c 	subs.w	r4, r4, ip, lsr #1
 8000608:	bfc2      	ittt	gt
 800060a:	ebd4 050c 	rsbsgt	r5, r4, ip
 800060e:	ea41 5104 	orrgt.w	r1, r1, r4, lsl #20
 8000612:	bd70      	popgt	{r4, r5, r6, pc}
 8000614:	f441 1180 	orr.w	r1, r1, #1048576	; 0x100000
 8000618:	f04f 0e00 	mov.w	lr, #0
 800061c:	3c01      	subs	r4, #1
 800061e:	f300 80ab 	bgt.w	8000778 <__aeabi_dmul+0x238>
 8000622:	f114 0f36 	cmn.w	r4, #54	; 0x36
 8000626:	bfde      	ittt	le
 8000628:	2000      	movle	r0, #0
 800062a:	f001 4100 	andle.w	r1, r1, #2147483648	; 0x80000000
 800062e:	bd70      	pople	{r4, r5, r6, pc}
 8000630:	f1c4 0400 	rsb	r4, r4, #0
 8000634:	3c20      	subs	r4, #32
 8000636:	da35      	bge.n	80006a4 <__aeabi_dmul+0x164>
 8000638:	340c      	adds	r4, #12
 800063a:	dc1b      	bgt.n	8000674 <__aeabi_dmul+0x134>
 800063c:	f104 0414 	add.w	r4, r4, #20
 8000640:	f1c4 0520 	rsb	r5, r4, #32
 8000644:	fa00 f305 	lsl.w	r3, r0, r5
 8000648:	fa20 f004 	lsr.w	r0, r0, r4
 800064c:	fa01 f205 	lsl.w	r2, r1, r5
 8000650:	ea40 0002 	orr.w	r0, r0, r2
 8000654:	f001 4200 	and.w	r2, r1, #2147483648	; 0x80000000
 8000658:	f021 4100 	bic.w	r1, r1, #2147483648	; 0x80000000
 800065c:	eb10 70d3 	adds.w	r0, r0, r3, lsr #31
 8000660:	fa21 f604 	lsr.w	r6, r1, r4
 8000664:	eb42 0106 	adc.w	r1, r2, r6
 8000668:	ea5e 0e43 	orrs.w	lr, lr, r3, lsl #1
 800066c:	bf08      	it	eq
 800066e:	ea20 70d3 	biceq.w	r0, r0, r3, lsr #31
 8000672:	bd70      	pop	{r4, r5, r6, pc}
 8000674:	f1c4 040c 	rsb	r4, r4, #12
 8000678:	f1c4 0520 	rsb	r5, r4, #32
 800067c:	fa00 f304 	lsl.w	r3, r0, r4
 8000680:	fa20 f005 	lsr.w	r0, r0, r5
 8000684:	fa01 f204 	lsl.w	r2, r1, r4
 8000688:	ea40 0002 	orr.w	r0, r0, r2
 800068c:	f001 4100 	and.w	r1, r1, #2147483648	; 0x80000000
 8000690:	eb10 70d3 	adds.w	r0, r0, r3, lsr #31
 8000694:	f141 0100 	adc.w	r1, r1, #0
 8000698:	ea5e 0e43 	orrs.w	lr, lr, r3, lsl #1
 800069c:	bf08      	it	eq
 800069e:	ea20 70d3 	biceq.w	r0, r0, r3, lsr #31
 80006a2:	bd70      	pop	{r4, r5, r6, pc}
 80006a4:	f1c4 0520 	rsb	r5, r4, #32
 80006a8:	fa00 f205 	lsl.w	r2, r0, r5
 80006ac:	ea4e 0e02 	orr.w	lr, lr, r2
 80006b0:	fa20 f304 	lsr.w	r3, r0, r4
 80006b4:	fa01 f205 	lsl.w	r2, r1, r5
 80006b8:	ea43 0302 	orr.w	r3, r3, r2
 80006bc:	fa21 f004 	lsr.w	r0, r1, r4
 80006c0:	f001 4100 	and.w	r1, r1, #2147483648	; 0x80000000
 80006c4:	fa21 f204 	lsr.w	r2, r1, r4
 80006c8:	ea20 0002 	bic.w	r0, r0, r2
 80006cc:	eb00 70d3 	add.w	r0, r0, r3, lsr #31
 80006d0:	ea5e 0e43 	orrs.w	lr, lr, r3, lsl #1
 80006d4:	bf08      	it	eq
 80006d6:	ea20 70d3 	biceq.w	r0, r0, r3, lsr #31
 80006da:	bd70      	pop	{r4, r5, r6, pc}
 80006dc:	f094 0f00 	teq	r4, #0
 80006e0:	d10f      	bne.n	8000702 <__aeabi_dmul+0x1c2>
 80006e2:	f001 4600 	and.w	r6, r1, #2147483648	; 0x80000000
 80006e6:	0040      	lsls	r0, r0, #1
 80006e8:	eb41 0101 	adc.w	r1, r1, r1
 80006ec:	f411 1f80 	tst.w	r1, #1048576	; 0x100000
 80006f0:	bf08      	it	eq
 80006f2:	3c01      	subeq	r4, #1
 80006f4:	d0f7      	beq.n	80006e6 <__aeabi_dmul+0x1a6>
 80006f6:	ea41 0106 	orr.w	r1, r1, r6
 80006fa:	f095 0f00 	teq	r5, #0
 80006fe:	bf18      	it	ne
 8000700:	4770      	bxne	lr
 8000702:	f003 4600 	and.w	r6, r3, #2147483648	; 0x80000000
 8000706:	0052      	lsls	r2, r2, #1
 8000708:	eb43 0303 	adc.w	r3, r3, r3
 800070c:	f413 1f80 	tst.w	r3, #1048576	; 0x100000
 8000710:	bf08      	it	eq
 8000712:	3d01      	subeq	r5, #1
 8000714:	d0f7      	beq.n	8000706 <__aeabi_dmul+0x1c6>
 8000716:	ea43 0306 	orr.w	r3, r3, r6
 800071a:	4770      	bx	lr
 800071c:	ea94 0f0c 	teq	r4, ip
 8000720:	ea0c 5513 	and.w	r5, ip, r3, lsr #20
 8000724:	bf18      	it	ne
 8000726:	ea95 0f0c 	teqne	r5, ip
 800072a:	d00c      	beq.n	8000746 <__aeabi_dmul+0x206>
 800072c:	ea50 0641 	orrs.w	r6, r0, r1, lsl #1
 8000730:	bf18      	it	ne
 8000732:	ea52 0643 	orrsne.w	r6, r2, r3, lsl #1
 8000736:	d1d1      	bne.n	80006dc <__aeabi_dmul+0x19c>
 8000738:	ea81 0103 	eor.w	r1, r1, r3
 800073c:	f001 4100 	and.w	r1, r1, #2147483648	; 0x80000000
 8000740:	f04f 0000 	mov.w	r0, #0
 8000744:	bd70      	pop	{r4, r5, r6, pc}
 8000746:	ea50 0641 	orrs.w	r6, r0, r1, lsl #1
 800074a:	bf06      	itte	eq
 800074c:	4610      	moveq	r0, r2
 800074e:	4619      	moveq	r1, r3
 8000750:	ea52 0643 	orrsne.w	r6, r2, r3, lsl #1
 8000754:	d019      	beq.n	800078a <__aeabi_dmul+0x24a>
 8000756:	ea94 0f0c 	teq	r4, ip
 800075a:	d102      	bne.n	8000762 <__aeabi_dmul+0x222>
 800075c:	ea50 3601 	orrs.w	r6, r0, r1, lsl #12
 8000760:	d113      	bne.n	800078a <__aeabi_dmul+0x24a>
 8000762:	ea95 0f0c 	teq	r5, ip
 8000766:	d105      	bne.n	8000774 <__aeabi_dmul+0x234>
 8000768:	ea52 3603 	orrs.w	r6, r2, r3, lsl #12
 800076c:	bf1c      	itt	ne
 800076e:	4610      	movne	r0, r2
 8000770:	4619      	movne	r1, r3
 8000772:	d10a      	bne.n	800078a <__aeabi_dmul+0x24a>
 8000774:	ea81 0103 	eor.w	r1, r1, r3
 8000778:	f001 4100 	and.w	r1, r1, #2147483648	; 0x80000000
 800077c:	f041 41fe 	orr.w	r1, r1, #2130706432	; 0x7f000000
 8000780:	f441 0170 	orr.w	r1, r1, #15728640	; 0xf00000
 8000784:	f04f 0000 	mov.w	r0, #0
 8000788:	bd70      	pop	{r4, r5, r6, pc}
 800078a:	f041 41fe 	orr.w	r1, r1, #2130706432	; 0x7f000000
 800078e:	f441 0178 	orr.w	r1, r1, #16252928	; 0xf80000
 8000792:	bd70      	pop	{r4, r5, r6, pc}

08000794 <__aeabi_ddiv>:
 8000794:	b570      	push	{r4, r5, r6, lr}
 8000796:	f04f 0cff 	mov.w	ip, #255	; 0xff
 800079a:	f44c 6ce0 	orr.w	ip, ip, #1792	; 0x700
 800079e:	ea1c 5411 	ands.w	r4, ip, r1, lsr #20
 80007a2:	bf1d      	ittte	ne
 80007a4:	ea1c 5513 	andsne.w	r5, ip, r3, lsr #20
 80007a8:	ea94 0f0c 	teqne	r4, ip
 80007ac:	ea95 0f0c 	teqne	r5, ip
 80007b0:	f000 f8a7 	bleq	8000902 <__aeabi_ddiv+0x16e>
 80007b4:	eba4 0405 	sub.w	r4, r4, r5
 80007b8:	ea81 0e03 	eor.w	lr, r1, r3
 80007bc:	ea52 3503 	orrs.w	r5, r2, r3, lsl #12
 80007c0:	ea4f 3101 	mov.w	r1, r1, lsl #12
 80007c4:	f000 8088 	beq.w	80008d8 <__aeabi_ddiv+0x144>
 80007c8:	ea4f 3303 	mov.w	r3, r3, lsl #12
 80007cc:	f04f 5580 	mov.w	r5, #268435456	; 0x10000000
 80007d0:	ea45 1313 	orr.w	r3, r5, r3, lsr #4
 80007d4:	ea43 6312 	orr.w	r3, r3, r2, lsr #24
 80007d8:	ea4f 2202 	mov.w	r2, r2, lsl #8
 80007dc:	ea45 1511 	orr.w	r5, r5, r1, lsr #4
 80007e0:	ea45 6510 	orr.w	r5, r5, r0, lsr #24
 80007e4:	ea4f 2600 	mov.w	r6, r0, lsl #8
 80007e8:	f00e 4100 	and.w	r1, lr, #2147483648	; 0x80000000
 80007ec:	429d      	cmp	r5, r3
 80007ee:	bf08      	it	eq
 80007f0:	4296      	cmpeq	r6, r2
 80007f2:	f144 04fd 	adc.w	r4, r4, #253	; 0xfd
 80007f6:	f504 7440 	add.w	r4, r4, #768	; 0x300
 80007fa:	d202      	bcs.n	8000802 <__aeabi_ddiv+0x6e>
 80007fc:	085b      	lsrs	r3, r3, #1
 80007fe:	ea4f 0232 	mov.w	r2, r2, rrx
 8000802:	1ab6      	subs	r6, r6, r2
 8000804:	eb65 0503 	sbc.w	r5, r5, r3
 8000808:	085b      	lsrs	r3, r3, #1
 800080a:	ea4f 0232 	mov.w	r2, r2, rrx
 800080e:	f44f 1080 	mov.w	r0, #1048576	; 0x100000
 8000812:	f44f 2c00 	mov.w	ip, #524288	; 0x80000
 8000816:	ebb6 0e02 	subs.w	lr, r6, r2
 800081a:	eb75 0e03 	sbcs.w	lr, r5, r3
 800081e:	bf22      	ittt	cs
 8000820:	1ab6      	subcs	r6, r6, r2
 8000822:	4675      	movcs	r5, lr
 8000824:	ea40 000c 	orrcs.w	r0, r0, ip
 8000828:	085b      	lsrs	r3, r3, #1
 800082a:	ea4f 0232 	mov.w	r2, r2, rrx
 800082e:	ebb6 0e02 	subs.w	lr, r6, r2
 8000832:	eb75 0e03 	sbcs.w	lr, r5, r3
 8000836:	bf22      	ittt	cs
 8000838:	1ab6      	subcs	r6, r6, r2
 800083a:	4675      	movcs	r5, lr
 800083c:	ea40 005c 	orrcs.w	r0, r0, ip, lsr #1
 8000840:	085b      	lsrs	r3, r3, #1
 8000842:	ea4f 0232 	mov.w	r2, r2, rrx
 8000846:	ebb6 0e02 	subs.w	lr, r6, r2
 800084a:	eb75 0e03 	sbcs.w	lr, r5, r3
 800084e:	bf22      	ittt	cs
 8000850:	1ab6      	subcs	r6, r6, r2
 8000852:	4675      	movcs	r5, lr
 8000854:	ea40 009c 	orrcs.w	r0, r0, ip, lsr #2
 8000858:	085b      	lsrs	r3, r3, #1
 800085a:	ea4f 0232 	mov.w	r2, r2, rrx
 800085e:	ebb6 0e02 	subs.w	lr, r6, r2
 8000862:	eb75 0e03 	sbcs.w	lr, r5, r3
 8000866:	bf22      	ittt	cs
 8000868:	1ab6      	subcs	r6, r6, r2
 800086a:	4675      	movcs	r5, lr
 800086c:	ea40 00dc 	orrcs.w	r0, r0, ip, lsr #3
 8000870:	ea55 0e06 	orrs.w	lr, r5, r6
 8000874:	d018      	beq.n	80008a8 <__aeabi_ddiv+0x114>
 8000876:	ea4f 1505 	mov.w	r5, r5, lsl #4
 800087a:	ea45 7516 	orr.w	r5, r5, r6, lsr #28
 800087e:	ea4f 1606 	mov.w	r6, r6, lsl #4
 8000882:	ea4f 03c3 	mov.w	r3, r3, lsl #3
 8000886:	ea43 7352 	orr.w	r3, r3, r2, lsr #29
 800088a:	ea4f 02c2 	mov.w	r2, r2, lsl #3
 800088e:	ea5f 1c1c 	movs.w	ip, ip, lsr #4
 8000892:	d1c0      	bne.n	8000816 <__aeabi_ddiv+0x82>
 8000894:	f411 1f80 	tst.w	r1, #1048576	; 0x100000
 8000898:	d10b      	bne.n	80008b2 <__aeabi_ddiv+0x11e>
 800089a:	ea41 0100 	orr.w	r1, r1, r0
 800089e:	f04f 0000 	mov.w	r0, #0
 80008a2:	f04f 4c00 	mov.w	ip, #2147483648	; 0x80000000
 80008a6:	e7b6      	b.n	8000816 <__aeabi_ddiv+0x82>
 80008a8:	f411 1f80 	tst.w	r1, #1048576	; 0x100000
 80008ac:	bf04      	itt	eq
 80008ae:	4301      	orreq	r1, r0
 80008b0:	2000      	moveq	r0, #0
 80008b2:	f1b4 0cfd 	subs.w	ip, r4, #253	; 0xfd
 80008b6:	bf88      	it	hi
 80008b8:	f5bc 6fe0 	cmphi.w	ip, #1792	; 0x700
 80008bc:	f63f aeaf 	bhi.w	800061e <__aeabi_dmul+0xde>
 80008c0:	ebb5 0c03 	subs.w	ip, r5, r3
 80008c4:	bf04      	itt	eq
 80008c6:	ebb6 0c02 	subseq.w	ip, r6, r2
 80008ca:	ea5f 0c50 	movseq.w	ip, r0, lsr #1
 80008ce:	f150 0000 	adcs.w	r0, r0, #0
 80008d2:	eb41 5104 	adc.w	r1, r1, r4, lsl #20
 80008d6:	bd70      	pop	{r4, r5, r6, pc}
 80008d8:	f00e 4e00 	and.w	lr, lr, #2147483648	; 0x80000000
 80008dc:	ea4e 3111 	orr.w	r1, lr, r1, lsr #12
 80008e0:	eb14 045c 	adds.w	r4, r4, ip, lsr #1
 80008e4:	bfc2      	ittt	gt
 80008e6:	ebd4 050c 	rsbsgt	r5, r4, ip
 80008ea:	ea41 5104 	orrgt.w	r1, r1, r4, lsl #20
 80008ee:	bd70      	popgt	{r4, r5, r6, pc}
 80008f0:	f441 1180 	orr.w	r1, r1, #1048576	; 0x100000
 80008f4:	f04f 0e00 	mov.w	lr, #0
 80008f8:	3c01      	subs	r4, #1
 80008fa:	e690      	b.n	800061e <__aeabi_dmul+0xde>
 80008fc:	ea45 0e06 	orr.w	lr, r5, r6
 8000900:	e68d      	b.n	800061e <__aeabi_dmul+0xde>
 8000902:	ea0c 5513 	and.w	r5, ip, r3, lsr #20
 8000906:	ea94 0f0c 	teq	r4, ip
 800090a:	bf08      	it	eq
 800090c:	ea95 0f0c 	teqeq	r5, ip
 8000910:	f43f af3b 	beq.w	800078a <__aeabi_dmul+0x24a>
 8000914:	ea94 0f0c 	teq	r4, ip
 8000918:	d10a      	bne.n	8000930 <__aeabi_ddiv+0x19c>
 800091a:	ea50 3401 	orrs.w	r4, r0, r1, lsl #12
 800091e:	f47f af34 	bne.w	800078a <__aeabi_dmul+0x24a>
 8000922:	ea95 0f0c 	teq	r5, ip
 8000926:	f47f af25 	bne.w	8000774 <__aeabi_dmul+0x234>
 800092a:	4610      	mov	r0, r2
 800092c:	4619      	mov	r1, r3
 800092e:	e72c      	b.n	800078a <__aeabi_dmul+0x24a>
 8000930:	ea95 0f0c 	teq	r5, ip
 8000934:	d106      	bne.n	8000944 <__aeabi_ddiv+0x1b0>
 8000936:	ea52 3503 	orrs.w	r5, r2, r3, lsl #12
 800093a:	f43f aefd 	beq.w	8000738 <__aeabi_dmul+0x1f8>
 800093e:	4610      	mov	r0, r2
 8000940:	4619      	mov	r1, r3
 8000942:	e722      	b.n	800078a <__aeabi_dmul+0x24a>
 8000944:	ea50 0641 	orrs.w	r6, r0, r1, lsl #1
 8000948:	bf18      	it	ne
 800094a:	ea52 0643 	orrsne.w	r6, r2, r3, lsl #1
 800094e:	f47f aec5 	bne.w	80006dc <__aeabi_dmul+0x19c>
 8000952:	ea50 0441 	orrs.w	r4, r0, r1, lsl #1
 8000956:	f47f af0d 	bne.w	8000774 <__aeabi_dmul+0x234>
 800095a:	ea52 0543 	orrs.w	r5, r2, r3, lsl #1
 800095e:	f47f aeeb 	bne.w	8000738 <__aeabi_dmul+0x1f8>
 8000962:	e712      	b.n	800078a <__aeabi_dmul+0x24a>

08000964 <__aeabi_d2iz>:
 8000964:	ea4f 0241 	mov.w	r2, r1, lsl #1
 8000968:	f512 1200 	adds.w	r2, r2, #2097152	; 0x200000
 800096c:	d215      	bcs.n	800099a <__aeabi_d2iz+0x36>
 800096e:	d511      	bpl.n	8000994 <__aeabi_d2iz+0x30>
 8000970:	f46f 7378 	mvn.w	r3, #992	; 0x3e0
 8000974:	ebb3 5262 	subs.w	r2, r3, r2, asr #21
 8000978:	d912      	bls.n	80009a0 <__aeabi_d2iz+0x3c>
 800097a:	ea4f 23c1 	mov.w	r3, r1, lsl #11
 800097e:	f043 4300 	orr.w	r3, r3, #2147483648	; 0x80000000
 8000982:	ea43 5350 	orr.w	r3, r3, r0, lsr #21
 8000986:	f011 4f00 	tst.w	r1, #2147483648	; 0x80000000
 800098a:	fa23 f002 	lsr.w	r0, r3, r2
 800098e:	bf18      	it	ne
 8000990:	4240      	negne	r0, r0
 8000992:	4770      	bx	lr
 8000994:	f04f 0000 	mov.w	r0, #0
 8000998:	4770      	bx	lr
 800099a:	ea50 3001 	orrs.w	r0, r0, r1, lsl #12
 800099e:	d105      	bne.n	80009ac <__aeabi_d2iz+0x48>
 80009a0:	f011 4000 	ands.w	r0, r1, #2147483648	; 0x80000000
 80009a4:	bf08      	it	eq
 80009a6:	f06f 4000 	mvneq.w	r0, #2147483648	; 0x80000000
 80009aa:	4770      	bx	lr
 80009ac:	f04f 0000 	mov.w	r0, #0
 80009b0:	4770      	bx	lr
 80009b2:	bf00      	nop

080009b4 <__aeabi_uldivmod>:
 80009b4:	b953      	cbnz	r3, 80009cc <__aeabi_uldivmod+0x18>
 80009b6:	b94a      	cbnz	r2, 80009cc <__aeabi_uldivmod+0x18>
 80009b8:	2900      	cmp	r1, #0
 80009ba:	bf08      	it	eq
 80009bc:	2800      	cmpeq	r0, #0
 80009be:	bf1c      	itt	ne
 80009c0:	f04f 31ff 	movne.w	r1, #4294967295
 80009c4:	f04f 30ff 	movne.w	r0, #4294967295
 80009c8:	f000 b972 	b.w	8000cb0 <__aeabi_idiv0>
 80009cc:	f1ad 0c08 	sub.w	ip, sp, #8
 80009d0:	e96d ce04 	strd	ip, lr, [sp, #-16]!
 80009d4:	f000 f806 	bl	80009e4 <__udivmoddi4>
 80009d8:	f8dd e004 	ldr.w	lr, [sp, #4]
 80009dc:	e9dd 2302 	ldrd	r2, r3, [sp, #8]
 80009e0:	b004      	add	sp, #16
 80009e2:	4770      	bx	lr

080009e4 <__udivmoddi4>:
 80009e4:	e92d 47f0 	stmdb	sp!, {r4, r5, r6, r7, r8, r9, sl, lr}
 80009e8:	9e08      	ldr	r6, [sp, #32]
 80009ea:	4604      	mov	r4, r0
 80009ec:	4688      	mov	r8, r1
 80009ee:	2b00      	cmp	r3, #0
 80009f0:	d14b      	bne.n	8000a8a <__udivmoddi4+0xa6>
 80009f2:	428a      	cmp	r2, r1
 80009f4:	4615      	mov	r5, r2
 80009f6:	d967      	bls.n	8000ac8 <__udivmoddi4+0xe4>
 80009f8:	fab2 f282 	clz	r2, r2
 80009fc:	b14a      	cbz	r2, 8000a12 <__udivmoddi4+0x2e>
 80009fe:	f1c2 0720 	rsb	r7, r2, #32
 8000a02:	fa01 f302 	lsl.w	r3, r1, r2
 8000a06:	fa20 f707 	lsr.w	r7, r0, r7
 8000a0a:	4095      	lsls	r5, r2
 8000a0c:	ea47 0803 	orr.w	r8, r7, r3
 8000a10:	4094      	lsls	r4, r2
 8000a12:	ea4f 4e15 	mov.w	lr, r5, lsr #16
 8000a16:	0c23      	lsrs	r3, r4, #16
 8000a18:	fbb8 f7fe 	udiv	r7, r8, lr
 8000a1c:	fa1f fc85 	uxth.w	ip, r5
 8000a20:	fb0e 8817 	mls	r8, lr, r7, r8
 8000a24:	ea43 4308 	orr.w	r3, r3, r8, lsl #16
 8000a28:	fb07 f10c 	mul.w	r1, r7, ip
 8000a2c:	4299      	cmp	r1, r3
 8000a2e:	d909      	bls.n	8000a44 <__udivmoddi4+0x60>
 8000a30:	18eb      	adds	r3, r5, r3
 8000a32:	f107 30ff 	add.w	r0, r7, #4294967295
 8000a36:	f080 811b 	bcs.w	8000c70 <__udivmoddi4+0x28c>
 8000a3a:	4299      	cmp	r1, r3
 8000a3c:	f240 8118 	bls.w	8000c70 <__udivmoddi4+0x28c>
 8000a40:	3f02      	subs	r7, #2
 8000a42:	442b      	add	r3, r5
 8000a44:	1a5b      	subs	r3, r3, r1
 8000a46:	b2a4      	uxth	r4, r4
 8000a48:	fbb3 f0fe 	udiv	r0, r3, lr
 8000a4c:	fb0e 3310 	mls	r3, lr, r0, r3
 8000a50:	ea44 4403 	orr.w	r4, r4, r3, lsl #16
 8000a54:	fb00 fc0c 	mul.w	ip, r0, ip
 8000a58:	45a4      	cmp	ip, r4
 8000a5a:	d909      	bls.n	8000a70 <__udivmoddi4+0x8c>
 8000a5c:	192c      	adds	r4, r5, r4
 8000a5e:	f100 33ff 	add.w	r3, r0, #4294967295
 8000a62:	f080 8107 	bcs.w	8000c74 <__udivmoddi4+0x290>
 8000a66:	45a4      	cmp	ip, r4
 8000a68:	f240 8104 	bls.w	8000c74 <__udivmoddi4+0x290>
 8000a6c:	3802      	subs	r0, #2
 8000a6e:	442c      	add	r4, r5
 8000a70:	ea40 4007 	orr.w	r0, r0, r7, lsl #16
 8000a74:	eba4 040c 	sub.w	r4, r4, ip
 8000a78:	2700      	movs	r7, #0
 8000a7a:	b11e      	cbz	r6, 8000a84 <__udivmoddi4+0xa0>
 8000a7c:	40d4      	lsrs	r4, r2
 8000a7e:	2300      	movs	r3, #0
 8000a80:	e9c6 4300 	strd	r4, r3, [r6]
 8000a84:	4639      	mov	r1, r7
 8000a86:	e8bd 87f0 	ldmia.w	sp!, {r4, r5, r6, r7, r8, r9, sl, pc}
 8000a8a:	428b      	cmp	r3, r1
 8000a8c:	d909      	bls.n	8000aa2 <__udivmoddi4+0xbe>
 8000a8e:	2e00      	cmp	r6, #0
 8000a90:	f000 80eb 	beq.w	8000c6a <__udivmoddi4+0x286>
 8000a94:	2700      	movs	r7, #0
 8000a96:	e9c6 0100 	strd	r0, r1, [r6]
 8000a9a:	4638      	mov	r0, r7
 8000a9c:	4639      	mov	r1, r7
 8000a9e:	e8bd 87f0 	ldmia.w	sp!, {r4, r5, r6, r7, r8, r9, sl, pc}
 8000aa2:	fab3 f783 	clz	r7, r3
 8000aa6:	2f00      	cmp	r7, #0
 8000aa8:	d147      	bne.n	8000b3a <__udivmoddi4+0x156>
 8000aaa:	428b      	cmp	r3, r1
 8000aac:	d302      	bcc.n	8000ab4 <__udivmoddi4+0xd0>
 8000aae:	4282      	cmp	r2, r0
 8000ab0:	f200 80fa 	bhi.w	8000ca8 <__udivmoddi4+0x2c4>
 8000ab4:	1a84      	subs	r4, r0, r2
 8000ab6:	eb61 0303 	sbc.w	r3, r1, r3
 8000aba:	2001      	movs	r0, #1
 8000abc:	4698      	mov	r8, r3
 8000abe:	2e00      	cmp	r6, #0
 8000ac0:	d0e0      	beq.n	8000a84 <__udivmoddi4+0xa0>
 8000ac2:	e9c6 4800 	strd	r4, r8, [r6]
 8000ac6:	e7dd      	b.n	8000a84 <__udivmoddi4+0xa0>
 8000ac8:	b902      	cbnz	r2, 8000acc <__udivmoddi4+0xe8>
 8000aca:	deff      	udf	#255	; 0xff
 8000acc:	fab2 f282 	clz	r2, r2
 8000ad0:	2a00      	cmp	r2, #0
 8000ad2:	f040 808f 	bne.w	8000bf4 <__udivmoddi4+0x210>
 8000ad6:	1b49      	subs	r1, r1, r5
 8000ad8:	ea4f 4e15 	mov.w	lr, r5, lsr #16
 8000adc:	fa1f f885 	uxth.w	r8, r5
 8000ae0:	2701      	movs	r7, #1
 8000ae2:	fbb1 fcfe 	udiv	ip, r1, lr
 8000ae6:	0c23      	lsrs	r3, r4, #16
 8000ae8:	fb0e 111c 	mls	r1, lr, ip, r1
 8000aec:	ea43 4301 	orr.w	r3, r3, r1, lsl #16
 8000af0:	fb08 f10c 	mul.w	r1, r8, ip
 8000af4:	4299      	cmp	r1, r3
 8000af6:	d907      	bls.n	8000b08 <__udivmoddi4+0x124>
 8000af8:	18eb      	adds	r3, r5, r3
 8000afa:	f10c 30ff 	add.w	r0, ip, #4294967295
 8000afe:	d202      	bcs.n	8000b06 <__udivmoddi4+0x122>
 8000b00:	4299      	cmp	r1, r3
 8000b02:	f200 80cd 	bhi.w	8000ca0 <__udivmoddi4+0x2bc>
 8000b06:	4684      	mov	ip, r0
 8000b08:	1a59      	subs	r1, r3, r1
 8000b0a:	b2a3      	uxth	r3, r4
 8000b0c:	fbb1 f0fe 	udiv	r0, r1, lr
 8000b10:	fb0e 1410 	mls	r4, lr, r0, r1
 8000b14:	ea43 4404 	orr.w	r4, r3, r4, lsl #16
 8000b18:	fb08 f800 	mul.w	r8, r8, r0
 8000b1c:	45a0      	cmp	r8, r4
 8000b1e:	d907      	bls.n	8000b30 <__udivmoddi4+0x14c>
 8000b20:	192c      	adds	r4, r5, r4
 8000b22:	f100 33ff 	add.w	r3, r0, #4294967295
 8000b26:	d202      	bcs.n	8000b2e <__udivmoddi4+0x14a>
 8000b28:	45a0      	cmp	r8, r4
 8000b2a:	f200 80b6 	bhi.w	8000c9a <__udivmoddi4+0x2b6>
 8000b2e:	4618      	mov	r0, r3
 8000b30:	eba4 0408 	sub.w	r4, r4, r8
 8000b34:	ea40 400c 	orr.w	r0, r0, ip, lsl #16
 8000b38:	e79f      	b.n	8000a7a <__udivmoddi4+0x96>
 8000b3a:	f1c7 0c20 	rsb	ip, r7, #32
 8000b3e:	40bb      	lsls	r3, r7
 8000b40:	fa22 fe0c 	lsr.w	lr, r2, ip
 8000b44:	ea4e 0e03 	orr.w	lr, lr, r3
 8000b48:	fa01 f407 	lsl.w	r4, r1, r7
 8000b4c:	fa20 f50c 	lsr.w	r5, r0, ip
 8000b50:	fa21 f30c 	lsr.w	r3, r1, ip
 8000b54:	ea4f 481e 	mov.w	r8, lr, lsr #16
 8000b58:	4325      	orrs	r5, r4
 8000b5a:	fbb3 f9f8 	udiv	r9, r3, r8
 8000b5e:	0c2c      	lsrs	r4, r5, #16
 8000b60:	fb08 3319 	mls	r3, r8, r9, r3
 8000b64:	fa1f fa8e 	uxth.w	sl, lr
 8000b68:	ea44 4303 	orr.w	r3, r4, r3, lsl #16
 8000b6c:	fb09 f40a 	mul.w	r4, r9, sl
 8000b70:	429c      	cmp	r4, r3
 8000b72:	fa02 f207 	lsl.w	r2, r2, r7
 8000b76:	fa00 f107 	lsl.w	r1, r0, r7
 8000b7a:	d90b      	bls.n	8000b94 <__udivmoddi4+0x1b0>
 8000b7c:	eb1e 0303 	adds.w	r3, lr, r3
 8000b80:	f109 30ff 	add.w	r0, r9, #4294967295
 8000b84:	f080 8087 	bcs.w	8000c96 <__udivmoddi4+0x2b2>
 8000b88:	429c      	cmp	r4, r3
 8000b8a:	f240 8084 	bls.w	8000c96 <__udivmoddi4+0x2b2>
 8000b8e:	f1a9 0902 	sub.w	r9, r9, #2
 8000b92:	4473      	add	r3, lr
 8000b94:	1b1b      	subs	r3, r3, r4
 8000b96:	b2ad      	uxth	r5, r5
 8000b98:	fbb3 f0f8 	udiv	r0, r3, r8
 8000b9c:	fb08 3310 	mls	r3, r8, r0, r3
 8000ba0:	ea45 4403 	orr.w	r4, r5, r3, lsl #16
 8000ba4:	fb00 fa0a 	mul.w	sl, r0, sl
 8000ba8:	45a2      	cmp	sl, r4
 8000baa:	d908      	bls.n	8000bbe <__udivmoddi4+0x1da>
 8000bac:	eb1e 0404 	adds.w	r4, lr, r4
 8000bb0:	f100 33ff 	add.w	r3, r0, #4294967295
 8000bb4:	d26b      	bcs.n	8000c8e <__udivmoddi4+0x2aa>
 8000bb6:	45a2      	cmp	sl, r4
 8000bb8:	d969      	bls.n	8000c8e <__udivmoddi4+0x2aa>
 8000bba:	3802      	subs	r0, #2
 8000bbc:	4474      	add	r4, lr
 8000bbe:	ea40 4009 	orr.w	r0, r0, r9, lsl #16
 8000bc2:	fba0 8902 	umull	r8, r9, r0, r2
 8000bc6:	eba4 040a 	sub.w	r4, r4, sl
 8000bca:	454c      	cmp	r4, r9
 8000bcc:	46c2      	mov	sl, r8
 8000bce:	464b      	mov	r3, r9
 8000bd0:	d354      	bcc.n	8000c7c <__udivmoddi4+0x298>
 8000bd2:	d051      	beq.n	8000c78 <__udivmoddi4+0x294>
 8000bd4:	2e00      	cmp	r6, #0
 8000bd6:	d069      	beq.n	8000cac <__udivmoddi4+0x2c8>
 8000bd8:	ebb1 050a 	subs.w	r5, r1, sl
 8000bdc:	eb64 0403 	sbc.w	r4, r4, r3
 8000be0:	fa04 fc0c 	lsl.w	ip, r4, ip
 8000be4:	40fd      	lsrs	r5, r7
 8000be6:	40fc      	lsrs	r4, r7
 8000be8:	ea4c 0505 	orr.w	r5, ip, r5
 8000bec:	e9c6 5400 	strd	r5, r4, [r6]
 8000bf0:	2700      	movs	r7, #0
 8000bf2:	e747      	b.n	8000a84 <__udivmoddi4+0xa0>
 8000bf4:	f1c2 0320 	rsb	r3, r2, #32
 8000bf8:	fa20 f703 	lsr.w	r7, r0, r3
 8000bfc:	4095      	lsls	r5, r2
 8000bfe:	fa01 f002 	lsl.w	r0, r1, r2
 8000c02:	fa21 f303 	lsr.w	r3, r1, r3
 8000c06:	ea4f 4e15 	mov.w	lr, r5, lsr #16
 8000c0a:	4338      	orrs	r0, r7
 8000c0c:	0c01      	lsrs	r1, r0, #16
 8000c0e:	fbb3 f7fe 	udiv	r7, r3, lr
 8000c12:	fa1f f885 	uxth.w	r8, r5
 8000c16:	fb0e 3317 	mls	r3, lr, r7, r3
 8000c1a:	ea41 4103 	orr.w	r1, r1, r3, lsl #16
 8000c1e:	fb07 f308 	mul.w	r3, r7, r8
 8000c22:	428b      	cmp	r3, r1
 8000c24:	fa04 f402 	lsl.w	r4, r4, r2
 8000c28:	d907      	bls.n	8000c3a <__udivmoddi4+0x256>
 8000c2a:	1869      	adds	r1, r5, r1
 8000c2c:	f107 3cff 	add.w	ip, r7, #4294967295
 8000c30:	d22f      	bcs.n	8000c92 <__udivmoddi4+0x2ae>
 8000c32:	428b      	cmp	r3, r1
 8000c34:	d92d      	bls.n	8000c92 <__udivmoddi4+0x2ae>
 8000c36:	3f02      	subs	r7, #2
 8000c38:	4429      	add	r1, r5
 8000c3a:	1acb      	subs	r3, r1, r3
 8000c3c:	b281      	uxth	r1, r0
 8000c3e:	fbb3 f0fe 	udiv	r0, r3, lr
 8000c42:	fb0e 3310 	mls	r3, lr, r0, r3
 8000c46:	ea41 4103 	orr.w	r1, r1, r3, lsl #16
 8000c4a:	fb00 f308 	mul.w	r3, r0, r8
 8000c4e:	428b      	cmp	r3, r1
 8000c50:	d907      	bls.n	8000c62 <__udivmoddi4+0x27e>
 8000c52:	1869      	adds	r1, r5, r1
 8000c54:	f100 3cff 	add.w	ip, r0, #4294967295
 8000c58:	d217      	bcs.n	8000c8a <__udivmoddi4+0x2a6>
 8000c5a:	428b      	cmp	r3, r1
 8000c5c:	d915      	bls.n	8000c8a <__udivmoddi4+0x2a6>
 8000c5e:	3802      	subs	r0, #2
 8000c60:	4429      	add	r1, r5
 8000c62:	1ac9      	subs	r1, r1, r3
 8000c64:	ea40 4707 	orr.w	r7, r0, r7, lsl #16
 8000c68:	e73b      	b.n	8000ae2 <__udivmoddi4+0xfe>
 8000c6a:	4637      	mov	r7, r6
 8000c6c:	4630      	mov	r0, r6
 8000c6e:	e709      	b.n	8000a84 <__udivmoddi4+0xa0>
 8000c70:	4607      	mov	r7, r0
 8000c72:	e6e7      	b.n	8000a44 <__udivmoddi4+0x60>
 8000c74:	4618      	mov	r0, r3
 8000c76:	e6fb      	b.n	8000a70 <__udivmoddi4+0x8c>
 8000c78:	4541      	cmp	r1, r8
 8000c7a:	d2ab      	bcs.n	8000bd4 <__udivmoddi4+0x1f0>
 8000c7c:	ebb8 0a02 	subs.w	sl, r8, r2
 8000c80:	eb69 020e 	sbc.w	r2, r9, lr
 8000c84:	3801      	subs	r0, #1
 8000c86:	4613      	mov	r3, r2
 8000c88:	e7a4      	b.n	8000bd4 <__udivmoddi4+0x1f0>
 8000c8a:	4660      	mov	r0, ip
 8000c8c:	e7e9      	b.n	8000c62 <__udivmoddi4+0x27e>
 8000c8e:	4618      	mov	r0, r3
 8000c90:	e795      	b.n	8000bbe <__udivmoddi4+0x1da>
 8000c92:	4667      	mov	r7, ip
 8000c94:	e7d1      	b.n	8000c3a <__udivmoddi4+0x256>
 8000c96:	4681      	mov	r9, r0
 8000c98:	e77c      	b.n	8000b94 <__udivmoddi4+0x1b0>
 8000c9a:	3802      	subs	r0, #2
 8000c9c:	442c      	add	r4, r5
 8000c9e:	e747      	b.n	8000b30 <__udivmoddi4+0x14c>
 8000ca0:	f1ac 0c02 	sub.w	ip, ip, #2
 8000ca4:	442b      	add	r3, r5
 8000ca6:	e72f      	b.n	8000b08 <__udivmoddi4+0x124>
 8000ca8:	4638      	mov	r0, r7
 8000caa:	e708      	b.n	8000abe <__udivmoddi4+0xda>
 8000cac:	4637      	mov	r7, r6
 8000cae:	e6e9      	b.n	8000a84 <__udivmoddi4+0xa0>

08000cb0 <__aeabi_idiv0>:
 8000cb0:	4770      	bx	lr
 8000cb2:	bf00      	nop

08000cb4 <HAL_ADC_ConvCpltCallback>:
 8000cb4:	b508      	push	{r3, lr}
 8000cb6:	6802      	ldr	r2, [r0, #0]
 8000cb8:	4b04      	ldr	r3, [pc, #16]	; (8000ccc <HAL_ADC_ConvCpltCallback+0x18>)
 8000cba:	429a      	cmp	r2, r3
 8000cbc:	d104      	bne.n	8000cc8 <HAL_ADC_ConvCpltCallback+0x14>
 8000cbe:	4804      	ldr	r0, [pc, #16]	; (8000cd0 <HAL_ADC_ConvCpltCallback+0x1c>)
 8000cc0:	f000 fdbe 	bl	8001840 <HAL_ADC_GetValue>
 8000cc4:	4b03      	ldr	r3, [pc, #12]	; (8000cd4 <HAL_ADC_ConvCpltCallback+0x20>)
 8000cc6:	8018      	strh	r0, [r3, #0]
 8000cc8:	bd08      	pop	{r3, pc}
 8000cca:	bf00      	nop
 8000ccc:	40012000 	.word	0x40012000
 8000cd0:	20000070 	.word	0x20000070
 8000cd4:	20000058 	.word	0x20000058

08000cd8 <HAL_GPIO_EXTI_Callback>:
 8000cd8:	4b06      	ldr	r3, [pc, #24]	; (8000cf4 <HAL_GPIO_EXTI_Callback+0x1c>)
 8000cda:	881b      	ldrh	r3, [r3, #0]
 8000cdc:	4283      	cmp	r3, r0
 8000cde:	d103      	bne.n	8000ce8 <HAL_GPIO_EXTI_Callback+0x10>
 8000ce0:	4b05      	ldr	r3, [pc, #20]	; (8000cf8 <HAL_GPIO_EXTI_Callback+0x20>)
 8000ce2:	2201      	movs	r2, #1
 8000ce4:	601a      	str	r2, [r3, #0]
 8000ce6:	4770      	bx	lr
 8000ce8:	4b04      	ldr	r3, [pc, #16]	; (8000cfc <HAL_GPIO_EXTI_Callback+0x24>)
 8000cea:	881b      	ldrh	r3, [r3, #0]
 8000cec:	4283      	cmp	r3, r0
 8000cee:	d1fa      	bne.n	8000ce6 <HAL_GPIO_EXTI_Callback+0xe>
 8000cf0:	4b03      	ldr	r3, [pc, #12]	; (8000d00 <HAL_GPIO_EXTI_Callback+0x28>)
 8000cf2:	e7f6      	b.n	8000ce2 <HAL_GPIO_EXTI_Callback+0xa>
 8000cf4:	20000000 	.word	0x20000000
 8000cf8:	20000048 	.word	0x20000048
 8000cfc:	20000002 	.word	0x20000002
 8000d00:	2000004c 	.word	0x2000004c

08000d04 <debouncer>:
 8000d04:	6803      	ldr	r3, [r0, #0]
 8000d06:	2b01      	cmp	r3, #1
 8000d08:	e92d 41f0 	stmdb	sp!, {r4, r5, r6, r7, r8, lr}
 8000d0c:	4606      	mov	r6, r0
 8000d0e:	460f      	mov	r7, r1
 8000d10:	4690      	mov	r8, r2
 8000d12:	d002      	beq.n	8000d1a <debouncer+0x16>
 8000d14:	2000      	movs	r0, #0
 8000d16:	e8bd 81f0 	ldmia.w	sp!, {r4, r5, r6, r7, r8, pc}
 8000d1a:	4c12      	ldr	r4, [pc, #72]	; (8000d64 <debouncer+0x60>)
 8000d1c:	4d12      	ldr	r5, [pc, #72]	; (8000d68 <debouncer+0x64>)
 8000d1e:	7823      	ldrb	r3, [r4, #0]
 8000d20:	b92b      	cbnz	r3, 8000d2e <debouncer+0x2a>
 8000d22:	f000 fc51 	bl	80015c8 <HAL_GetTick>
 8000d26:	7823      	ldrb	r3, [r4, #0]
 8000d28:	6028      	str	r0, [r5, #0]
 8000d2a:	3301      	adds	r3, #1
 8000d2c:	7023      	strb	r3, [r4, #0]
 8000d2e:	f000 fc4b 	bl	80015c8 <HAL_GetTick>
 8000d32:	682b      	ldr	r3, [r5, #0]
 8000d34:	1ac0      	subs	r0, r0, r3
 8000d36:	2813      	cmp	r0, #19
 8000d38:	d9ec      	bls.n	8000d14 <debouncer+0x10>
 8000d3a:	f000 fc45 	bl	80015c8 <HAL_GetTick>
 8000d3e:	4641      	mov	r1, r8
 8000d40:	6028      	str	r0, [r5, #0]
 8000d42:	4638      	mov	r0, r7
 8000d44:	f001 f84a 	bl	8001ddc <HAL_GPIO_ReadPin>
 8000d48:	2801      	cmp	r0, #1
 8000d4a:	bf0a      	itet	eq
 8000d4c:	7823      	ldrbeq	r3, [r4, #0]
 8000d4e:	2301      	movne	r3, #1
 8000d50:	3301      	addeq	r3, #1
 8000d52:	7023      	strb	r3, [r4, #0]
 8000d54:	7823      	ldrb	r3, [r4, #0]
 8000d56:	2b04      	cmp	r3, #4
 8000d58:	d1dc      	bne.n	8000d14 <debouncer+0x10>
 8000d5a:	2300      	movs	r3, #0
 8000d5c:	7023      	strb	r3, [r4, #0]
 8000d5e:	6033      	str	r3, [r6, #0]
 8000d60:	2001      	movs	r0, #1
 8000d62:	e7d8      	b.n	8000d16 <debouncer+0x12>
 8000d64:	20000064 	.word	0x20000064
 8000d68:	20000068 	.word	0x20000068
 8000d6c:	00000000 	.word	0x00000000

08000d70 <LecturaSalon>:
 8000d70:	b570      	push	{r4, r5, r6, lr}
 8000d72:	4c17      	ldr	r4, [pc, #92]	; (8000dd0 <LecturaSalon+0x60>)
 8000d74:	4817      	ldr	r0, [pc, #92]	; (8000dd4 <LecturaSalon+0x64>)
 8000d76:	8821      	ldrh	r1, [r4, #0]
 8000d78:	4e17      	ldr	r6, [pc, #92]	; (8000dd8 <LecturaSalon+0x68>)
 8000d7a:	4d16      	ldr	r5, [pc, #88]	; (8000dd4 <LecturaSalon+0x64>)
 8000d7c:	2200      	movs	r2, #0
 8000d7e:	f001 f833 	bl	8001de8 <HAL_GPIO_WritePin>
 8000d82:	2002      	movs	r0, #2
 8000d84:	f000 fc26 	bl	80015d4 <HAL_Delay>
 8000d88:	8821      	ldrh	r1, [r4, #0]
 8000d8a:	4812      	ldr	r0, [pc, #72]	; (8000dd4 <LecturaSalon+0x64>)
 8000d8c:	2201      	movs	r2, #1
 8000d8e:	f001 f82b 	bl	8001de8 <HAL_GPIO_WritePin>
 8000d92:	200a      	movs	r0, #10
 8000d94:	f000 fc1e 	bl	80015d4 <HAL_Delay>
 8000d98:	8821      	ldrh	r1, [r4, #0]
 8000d9a:	480e      	ldr	r0, [pc, #56]	; (8000dd4 <LecturaSalon+0x64>)
 8000d9c:	2200      	movs	r2, #0
 8000d9e:	f001 f823 	bl	8001de8 <HAL_GPIO_WritePin>
 8000da2:	2400      	movs	r4, #0
 8000da4:	8831      	ldrh	r1, [r6, #0]
 8000da6:	4628      	mov	r0, r5
 8000da8:	f001 f818 	bl	8001ddc <HAL_GPIO_ReadPin>
 8000dac:	b950      	cbnz	r0, 8000dc4 <LecturaSalon+0x54>
 8000dae:	4620      	mov	r0, r4
 8000db0:	f7ff fb5c 	bl	800046c <__aeabi_i2d>
 8000db4:	a304      	add	r3, pc, #16	; (adr r3, 8000dc8 <LecturaSalon+0x58>)
 8000db6:	e9d3 2300 	ldrd	r2, r3, [r3]
 8000dba:	f7ff fceb 	bl	8000794 <__aeabi_ddiv>
 8000dbe:	f7ff fdd1 	bl	8000964 <__aeabi_d2iz>
 8000dc2:	bd70      	pop	{r4, r5, r6, pc}
 8000dc4:	3401      	adds	r4, #1
 8000dc6:	e7ed      	b.n	8000da4 <LecturaSalon+0x34>
 8000dc8:	33333333 	.word	0x33333333
 8000dcc:	404d3333 	.word	0x404d3333
 8000dd0:	20000016 	.word	0x20000016
 8000dd4:	40021000 	.word	0x40021000
 8000dd8:	20000006 	.word	0x20000006
 8000ddc:	00000000 	.word	0x00000000

08000de0 <LecturaComedor>:
 8000de0:	b570      	push	{r4, r5, r6, lr}
 8000de2:	4c17      	ldr	r4, [pc, #92]	; (8000e40 <LecturaComedor+0x60>)
 8000de4:	4817      	ldr	r0, [pc, #92]	; (8000e44 <LecturaComedor+0x64>)
 8000de6:	8821      	ldrh	r1, [r4, #0]
 8000de8:	4e17      	ldr	r6, [pc, #92]	; (8000e48 <LecturaComedor+0x68>)
 8000dea:	4d16      	ldr	r5, [pc, #88]	; (8000e44 <LecturaComedor+0x64>)
 8000dec:	2200      	movs	r2, #0
 8000dee:	f000 fffb 	bl	8001de8 <HAL_GPIO_WritePin>
 8000df2:	2002      	movs	r0, #2
 8000df4:	f000 fbee 	bl	80015d4 <HAL_Delay>
 8000df8:	8821      	ldrh	r1, [r4, #0]
 8000dfa:	4812      	ldr	r0, [pc, #72]	; (8000e44 <LecturaComedor+0x64>)
 8000dfc:	2201      	movs	r2, #1
 8000dfe:	f000 fff3 	bl	8001de8 <HAL_GPIO_WritePin>
 8000e02:	200a      	movs	r0, #10
 8000e04:	f000 fbe6 	bl	80015d4 <HAL_Delay>
 8000e08:	8821      	ldrh	r1, [r4, #0]
 8000e0a:	480e      	ldr	r0, [pc, #56]	; (8000e44 <LecturaComedor+0x64>)
 8000e0c:	2200      	movs	r2, #0
 8000e0e:	f000 ffeb 	bl	8001de8 <HAL_GPIO_WritePin>
 8000e12:	2400      	movs	r4, #0
 8000e14:	8831      	ldrh	r1, [r6, #0]
 8000e16:	4628      	mov	r0, r5
 8000e18:	f000 ffe0 	bl	8001ddc <HAL_GPIO_ReadPin>
 8000e1c:	b950      	cbnz	r0, 8000e34 <LecturaComedor+0x54>
 8000e1e:	4620      	mov	r0, r4
 8000e20:	f7ff fb24 	bl	800046c <__aeabi_i2d>
 8000e24:	a304      	add	r3, pc, #16	; (adr r3, 8000e38 <LecturaComedor+0x58>)
 8000e26:	e9d3 2300 	ldrd	r2, r3, [r3]
 8000e2a:	f7ff fcb3 	bl	8000794 <__aeabi_ddiv>
 8000e2e:	f7ff fd99 	bl	8000964 <__aeabi_d2iz>
 8000e32:	bd70      	pop	{r4, r5, r6, pc}
 8000e34:	3401      	adds	r4, #1
 8000e36:	e7ed      	b.n	8000e14 <LecturaComedor+0x34>
 8000e38:	33333333 	.word	0x33333333
 8000e3c:	404d3333 	.word	0x404d3333
 8000e40:	20000014 	.word	0x20000014
 8000e44:	40021000 	.word	0x40021000
 8000e48:	20000004 	.word	0x20000004

08000e4c <LucesManualesComedor>:
 8000e4c:	b508      	push	{r3, lr}
 8000e4e:	4b14      	ldr	r3, [pc, #80]	; (8000ea0 <LucesManualesComedor+0x54>)
 8000e50:	681b      	ldr	r3, [r3, #0]
 8000e52:	2b02      	cmp	r3, #2
 8000e54:	d113      	bne.n	8000e7e <LucesManualesComedor+0x32>
 8000e56:	4b13      	ldr	r3, [pc, #76]	; (8000ea4 <LucesManualesComedor+0x58>)
 8000e58:	4813      	ldr	r0, [pc, #76]	; (8000ea8 <LucesManualesComedor+0x5c>)
 8000e5a:	8819      	ldrh	r1, [r3, #0]
 8000e5c:	2201      	movs	r2, #1
 8000e5e:	f000 ffc3 	bl	8001de8 <HAL_GPIO_WritePin>
 8000e62:	4b12      	ldr	r3, [pc, #72]	; (8000eac <LucesManualesComedor+0x60>)
 8000e64:	4810      	ldr	r0, [pc, #64]	; (8000ea8 <LucesManualesComedor+0x5c>)
 8000e66:	8819      	ldrh	r1, [r3, #0]
 8000e68:	2201      	movs	r2, #1
 8000e6a:	f000 ffbd 	bl	8001de8 <HAL_GPIO_WritePin>
 8000e6e:	2201      	movs	r2, #1
 8000e70:	4b0f      	ldr	r3, [pc, #60]	; (8000eb0 <LucesManualesComedor+0x64>)
 8000e72:	480d      	ldr	r0, [pc, #52]	; (8000ea8 <LucesManualesComedor+0x5c>)
 8000e74:	8819      	ldrh	r1, [r3, #0]
 8000e76:	e8bd 4008 	ldmia.w	sp!, {r3, lr}
 8000e7a:	f000 bfb5 	b.w	8001de8 <HAL_GPIO_WritePin>
 8000e7e:	2b01      	cmp	r3, #1
 8000e80:	d10d      	bne.n	8000e9e <LucesManualesComedor+0x52>
 8000e82:	4b08      	ldr	r3, [pc, #32]	; (8000ea4 <LucesManualesComedor+0x58>)
 8000e84:	4808      	ldr	r0, [pc, #32]	; (8000ea8 <LucesManualesComedor+0x5c>)
 8000e86:	8819      	ldrh	r1, [r3, #0]
 8000e88:	2200      	movs	r2, #0
 8000e8a:	f000 ffad 	bl	8001de8 <HAL_GPIO_WritePin>
 8000e8e:	4b07      	ldr	r3, [pc, #28]	; (8000eac <LucesManualesComedor+0x60>)
 8000e90:	4805      	ldr	r0, [pc, #20]	; (8000ea8 <LucesManualesComedor+0x5c>)
 8000e92:	8819      	ldrh	r1, [r3, #0]
 8000e94:	2200      	movs	r2, #0
 8000e96:	f000 ffa7 	bl	8001de8 <HAL_GPIO_WritePin>
 8000e9a:	2200      	movs	r2, #0
 8000e9c:	e7e8      	b.n	8000e70 <LucesManualesComedor+0x24>
 8000e9e:	bd08      	pop	{r3, pc}
 8000ea0:	2000005c 	.word	0x2000005c
 8000ea4:	20000008 	.word	0x20000008
 8000ea8:	40021000 	.word	0x40021000
 8000eac:	2000000a 	.word	0x2000000a
 8000eb0:	2000000c 	.word	0x2000000c

08000eb4 <LucesManualesSalon>:
 8000eb4:	b508      	push	{r3, lr}
 8000eb6:	4b14      	ldr	r3, [pc, #80]	; (8000f08 <LucesManualesSalon+0x54>)
 8000eb8:	681b      	ldr	r3, [r3, #0]
 8000eba:	2b02      	cmp	r3, #2
 8000ebc:	d113      	bne.n	8000ee6 <LucesManualesSalon+0x32>
 8000ebe:	4b13      	ldr	r3, [pc, #76]	; (8000f0c <LucesManualesSalon+0x58>)
 8000ec0:	4813      	ldr	r0, [pc, #76]	; (8000f10 <LucesManualesSalon+0x5c>)
 8000ec2:	8819      	ldrh	r1, [r3, #0]
 8000ec4:	2201      	movs	r2, #1
 8000ec6:	f000 ff8f 	bl	8001de8 <HAL_GPIO_WritePin>
 8000eca:	4b12      	ldr	r3, [pc, #72]	; (8000f14 <LucesManualesSalon+0x60>)
 8000ecc:	4810      	ldr	r0, [pc, #64]	; (8000f10 <LucesManualesSalon+0x5c>)
 8000ece:	8819      	ldrh	r1, [r3, #0]
 8000ed0:	2201      	movs	r2, #1
 8000ed2:	f000 ff89 	bl	8001de8 <HAL_GPIO_WritePin>
 8000ed6:	2201      	movs	r2, #1
 8000ed8:	4b0f      	ldr	r3, [pc, #60]	; (8000f18 <LucesManualesSalon+0x64>)
 8000eda:	480d      	ldr	r0, [pc, #52]	; (8000f10 <LucesManualesSalon+0x5c>)
 8000edc:	8819      	ldrh	r1, [r3, #0]
 8000ede:	e8bd 4008 	ldmia.w	sp!, {r3, lr}
 8000ee2:	f000 bf81 	b.w	8001de8 <HAL_GPIO_WritePin>
 8000ee6:	2b01      	cmp	r3, #1
 8000ee8:	d10d      	bne.n	8000f06 <LucesManualesSalon+0x52>
 8000eea:	4b08      	ldr	r3, [pc, #32]	; (8000f0c <LucesManualesSalon+0x58>)
 8000eec:	4808      	ldr	r0, [pc, #32]	; (8000f10 <LucesManualesSalon+0x5c>)
 8000eee:	8819      	ldrh	r1, [r3, #0]
 8000ef0:	2200      	movs	r2, #0
 8000ef2:	f000 ff79 	bl	8001de8 <HAL_GPIO_WritePin>
 8000ef6:	4b07      	ldr	r3, [pc, #28]	; (8000f14 <LucesManualesSalon+0x60>)
 8000ef8:	4805      	ldr	r0, [pc, #20]	; (8000f10 <LucesManualesSalon+0x5c>)
 8000efa:	8819      	ldrh	r1, [r3, #0]
 8000efc:	2200      	movs	r2, #0
 8000efe:	f000 ff73 	bl	8001de8 <HAL_GPIO_WritePin>
 8000f02:	2200      	movs	r2, #0
 8000f04:	e7e8      	b.n	8000ed8 <LucesManualesSalon+0x24>
 8000f06:	bd08      	pop	{r3, pc}
 8000f08:	20000060 	.word	0x20000060
 8000f0c:	2000000e 	.word	0x2000000e
 8000f10:	40021000 	.word	0x40021000
 8000f14:	20000010 	.word	0x20000010
 8000f18:	20000012 	.word	0x20000012

08000f1c <LucesAutomaticasSalon>:
 8000f1c:	b508      	push	{r3, lr}
 8000f1e:	4b21      	ldr	r3, [pc, #132]	; (8000fa4 <LucesAutomaticasSalon+0x88>)
 8000f20:	681a      	ldr	r2, [r3, #0]
 8000f22:	4b21      	ldr	r3, [pc, #132]	; (8000fa8 <LucesAutomaticasSalon+0x8c>)
 8000f24:	681b      	ldr	r3, [r3, #0]
 8000f26:	429a      	cmp	r2, r3
 8000f28:	da39      	bge.n	8000f9e <LucesAutomaticasSalon+0x82>
 8000f2a:	4b20      	ldr	r3, [pc, #128]	; (8000fac <LucesAutomaticasSalon+0x90>)
 8000f2c:	881b      	ldrh	r3, [r3, #0]
 8000f2e:	1e5a      	subs	r2, r3, #1
 8000f30:	2a3e      	cmp	r2, #62	; 0x3e
 8000f32:	d813      	bhi.n	8000f5c <LucesAutomaticasSalon+0x40>
 8000f34:	4b1e      	ldr	r3, [pc, #120]	; (8000fb0 <LucesAutomaticasSalon+0x94>)
 8000f36:	481f      	ldr	r0, [pc, #124]	; (8000fb4 <LucesAutomaticasSalon+0x98>)
 8000f38:	8819      	ldrh	r1, [r3, #0]
 8000f3a:	2201      	movs	r2, #1
 8000f3c:	f000 ff54 	bl	8001de8 <HAL_GPIO_WritePin>
 8000f40:	4b1d      	ldr	r3, [pc, #116]	; (8000fb8 <LucesAutomaticasSalon+0x9c>)
 8000f42:	481c      	ldr	r0, [pc, #112]	; (8000fb4 <LucesAutomaticasSalon+0x98>)
 8000f44:	8819      	ldrh	r1, [r3, #0]
 8000f46:	2201      	movs	r2, #1
 8000f48:	f000 ff4e 	bl	8001de8 <HAL_GPIO_WritePin>
 8000f4c:	2201      	movs	r2, #1
 8000f4e:	4b1b      	ldr	r3, [pc, #108]	; (8000fbc <LucesAutomaticasSalon+0xa0>)
 8000f50:	4818      	ldr	r0, [pc, #96]	; (8000fb4 <LucesAutomaticasSalon+0x98>)
 8000f52:	8819      	ldrh	r1, [r3, #0]
 8000f54:	e8bd 4008 	ldmia.w	sp!, {r3, lr}
 8000f58:	f000 bf46 	b.w	8001de8 <HAL_GPIO_WritePin>
 8000f5c:	f1a3 0241 	sub.w	r2, r3, #65	; 0x41
 8000f60:	2a3e      	cmp	r2, #62	; 0x3e
 8000f62:	d80d      	bhi.n	8000f80 <LucesAutomaticasSalon+0x64>
 8000f64:	4b12      	ldr	r3, [pc, #72]	; (8000fb0 <LucesAutomaticasSalon+0x94>)
 8000f66:	4813      	ldr	r0, [pc, #76]	; (8000fb4 <LucesAutomaticasSalon+0x98>)
 8000f68:	8819      	ldrh	r1, [r3, #0]
 8000f6a:	2201      	movs	r2, #1
 8000f6c:	f000 ff3c 	bl	8001de8 <HAL_GPIO_WritePin>
 8000f70:	2201      	movs	r2, #1
 8000f72:	4b11      	ldr	r3, [pc, #68]	; (8000fb8 <LucesAutomaticasSalon+0x9c>)
 8000f74:	480f      	ldr	r0, [pc, #60]	; (8000fb4 <LucesAutomaticasSalon+0x98>)
 8000f76:	8819      	ldrh	r1, [r3, #0]
 8000f78:	f000 ff36 	bl	8001de8 <HAL_GPIO_WritePin>
 8000f7c:	2200      	movs	r2, #0
 8000f7e:	e7e6      	b.n	8000f4e <LucesAutomaticasSalon+0x32>
 8000f80:	f1a3 0281 	sub.w	r2, r3, #129	; 0x81
 8000f84:	2a3e      	cmp	r2, #62	; 0x3e
 8000f86:	d807      	bhi.n	8000f98 <LucesAutomaticasSalon+0x7c>
 8000f88:	2201      	movs	r2, #1
 8000f8a:	4b09      	ldr	r3, [pc, #36]	; (8000fb0 <LucesAutomaticasSalon+0x94>)
 8000f8c:	4809      	ldr	r0, [pc, #36]	; (8000fb4 <LucesAutomaticasSalon+0x98>)
 8000f8e:	8819      	ldrh	r1, [r3, #0]
 8000f90:	f000 ff2a 	bl	8001de8 <HAL_GPIO_WritePin>
 8000f94:	2200      	movs	r2, #0
 8000f96:	e7ec      	b.n	8000f72 <LucesAutomaticasSalon+0x56>
 8000f98:	3bc1      	subs	r3, #193	; 0xc1
 8000f9a:	2b3d      	cmp	r3, #61	; 0x3d
 8000f9c:	d801      	bhi.n	8000fa2 <LucesAutomaticasSalon+0x86>
 8000f9e:	2200      	movs	r2, #0
 8000fa0:	e7f3      	b.n	8000f8a <LucesAutomaticasSalon+0x6e>
 8000fa2:	bd08      	pop	{r3, pc}
 8000fa4:	20000054 	.word	0x20000054
 8000fa8:	2000001c 	.word	0x2000001c
 8000fac:	20000058 	.word	0x20000058
 8000fb0:	2000000e 	.word	0x2000000e
 8000fb4:	40021000 	.word	0x40021000
 8000fb8:	20000010 	.word	0x20000010
 8000fbc:	20000012 	.word	0x20000012

08000fc0 <LucesAutomaticasComedor>:
 8000fc0:	b508      	push	{r3, lr}
 8000fc2:	4b21      	ldr	r3, [pc, #132]	; (8001048 <LucesAutomaticasComedor+0x88>)
 8000fc4:	681a      	ldr	r2, [r3, #0]
 8000fc6:	4b21      	ldr	r3, [pc, #132]	; (800104c <LucesAutomaticasComedor+0x8c>)
 8000fc8:	681b      	ldr	r3, [r3, #0]
 8000fca:	429a      	cmp	r2, r3
 8000fcc:	da39      	bge.n	8001042 <LucesAutomaticasComedor+0x82>
 8000fce:	4b20      	ldr	r3, [pc, #128]	; (8001050 <LucesAutomaticasComedor+0x90>)
 8000fd0:	881b      	ldrh	r3, [r3, #0]
 8000fd2:	1e5a      	subs	r2, r3, #1
 8000fd4:	2a3e      	cmp	r2, #62	; 0x3e
 8000fd6:	d813      	bhi.n	8001000 <LucesAutomaticasComedor+0x40>
 8000fd8:	4b1e      	ldr	r3, [pc, #120]	; (8001054 <LucesAutomaticasComedor+0x94>)
 8000fda:	481f      	ldr	r0, [pc, #124]	; (8001058 <LucesAutomaticasComedor+0x98>)
 8000fdc:	8819      	ldrh	r1, [r3, #0]
 8000fde:	2201      	movs	r2, #1
 8000fe0:	f000 ff02 	bl	8001de8 <HAL_GPIO_WritePin>
 8000fe4:	4b1d      	ldr	r3, [pc, #116]	; (800105c <LucesAutomaticasComedor+0x9c>)
 8000fe6:	481c      	ldr	r0, [pc, #112]	; (8001058 <LucesAutomaticasComedor+0x98>)
 8000fe8:	8819      	ldrh	r1, [r3, #0]
 8000fea:	2201      	movs	r2, #1
 8000fec:	f000 fefc 	bl	8001de8 <HAL_GPIO_WritePin>
 8000ff0:	2201      	movs	r2, #1
 8000ff2:	4b1b      	ldr	r3, [pc, #108]	; (8001060 <LucesAutomaticasComedor+0xa0>)
 8000ff4:	4818      	ldr	r0, [pc, #96]	; (8001058 <LucesAutomaticasComedor+0x98>)
 8000ff6:	8819      	ldrh	r1, [r3, #0]
 8000ff8:	e8bd 4008 	ldmia.w	sp!, {r3, lr}
 8000ffc:	f000 bef4 	b.w	8001de8 <HAL_GPIO_WritePin>
 8001000:	f1a3 0241 	sub.w	r2, r3, #65	; 0x41
 8001004:	2a3e      	cmp	r2, #62	; 0x3e
 8001006:	d80d      	bhi.n	8001024 <LucesAutomaticasComedor+0x64>
 8001008:	4b12      	ldr	r3, [pc, #72]	; (8001054 <LucesAutomaticasComedor+0x94>)
 800100a:	4813      	ldr	r0, [pc, #76]	; (8001058 <LucesAutomaticasComedor+0x98>)
 800100c:	8819      	ldrh	r1, [r3, #0]
 800100e:	2201      	movs	r2, #1
 8001010:	f000 feea 	bl	8001de8 <HAL_GPIO_WritePin>
 8001014:	2201      	movs	r2, #1
 8001016:	4b11      	ldr	r3, [pc, #68]	; (800105c <LucesAutomaticasComedor+0x9c>)
 8001018:	480f      	ldr	r0, [pc, #60]	; (8001058 <LucesAutomaticasComedor+0x98>)
 800101a:	8819      	ldrh	r1, [r3, #0]
 800101c:	f000 fee4 	bl	8001de8 <HAL_GPIO_WritePin>
 8001020:	2200      	movs	r2, #0
 8001022:	e7e6      	b.n	8000ff2 <LucesAutomaticasComedor+0x32>
 8001024:	f1a3 0281 	sub.w	r2, r3, #129	; 0x81
 8001028:	2a3e      	cmp	r2, #62	; 0x3e
 800102a:	d807      	bhi.n	800103c <LucesAutomaticasComedor+0x7c>
 800102c:	2201      	movs	r2, #1
 800102e:	4b09      	ldr	r3, [pc, #36]	; (8001054 <LucesAutomaticasComedor+0x94>)
 8001030:	4809      	ldr	r0, [pc, #36]	; (8001058 <LucesAutomaticasComedor+0x98>)
 8001032:	8819      	ldrh	r1, [r3, #0]
 8001034:	f000 fed8 	bl	8001de8 <HAL_GPIO_WritePin>
 8001038:	2200      	movs	r2, #0
 800103a:	e7ec      	b.n	8001016 <LucesAutomaticasComedor+0x56>
 800103c:	3bc1      	subs	r3, #193	; 0xc1
 800103e:	2b3d      	cmp	r3, #61	; 0x3d
 8001040:	d801      	bhi.n	8001046 <LucesAutomaticasComedor+0x86>
 8001042:	2200      	movs	r2, #0
 8001044:	e7f3      	b.n	800102e <LucesAutomaticasComedor+0x6e>
 8001046:	bd08      	pop	{r3, pc}
 8001048:	20000050 	.word	0x20000050
 800104c:	20000018 	.word	0x20000018
 8001050:	20000058 	.word	0x20000058
 8001054:	20000008 	.word	0x20000008
 8001058:	40021000 	.word	0x40021000
 800105c:	2000000a 	.word	0x2000000a
 8001060:	2000000c 	.word	0x2000000c

08001064 <SystemClock_Config>:
 8001064:	b570      	push	{r4, r5, r6, lr}
 8001066:	2414      	movs	r4, #20
 8001068:	b094      	sub	sp, #80	; 0x50
 800106a:	4622      	mov	r2, r4
 800106c:	2100      	movs	r1, #0
 800106e:	a809      	add	r0, sp, #36	; 0x24
 8001070:	f001 f96e 	bl	8002350 <memset>
 8001074:	4622      	mov	r2, r4
 8001076:	2100      	movs	r1, #0
 8001078:	a803      	add	r0, sp, #12
 800107a:	f001 f969 	bl	8002350 <memset>
 800107e:	2400      	movs	r4, #0
 8001080:	4b1a      	ldr	r3, [pc, #104]	; (80010ec <SystemClock_Config+0x88>)
 8001082:	9401      	str	r4, [sp, #4]
 8001084:	6c1a      	ldr	r2, [r3, #64]	; 0x40
 8001086:	f042 5280 	orr.w	r2, r2, #268435456	; 0x10000000
 800108a:	641a      	str	r2, [r3, #64]	; 0x40
 800108c:	6c1b      	ldr	r3, [r3, #64]	; 0x40
 800108e:	f003 5380 	and.w	r3, r3, #268435456	; 0x10000000
 8001092:	9301      	str	r3, [sp, #4]
 8001094:	9b01      	ldr	r3, [sp, #4]
 8001096:	4b16      	ldr	r3, [pc, #88]	; (80010f0 <SystemClock_Config+0x8c>)
 8001098:	9402      	str	r4, [sp, #8]
 800109a:	681a      	ldr	r2, [r3, #0]
 800109c:	f442 4280 	orr.w	r2, r2, #16384	; 0x4000
 80010a0:	601a      	str	r2, [r3, #0]
 80010a2:	681b      	ldr	r3, [r3, #0]
 80010a4:	f403 4380 	and.w	r3, r3, #16384	; 0x4000
 80010a8:	9302      	str	r3, [sp, #8]
 80010aa:	9b02      	ldr	r3, [sp, #8]
 80010ac:	2601      	movs	r6, #1
 80010ae:	2310      	movs	r3, #16
 80010b0:	2208      	movs	r2, #8
 80010b2:	e9cd 630b 	strd	r6, r3, [sp, #44]	; 0x2c
 80010b6:	2332      	movs	r3, #50	; 0x32
 80010b8:	2502      	movs	r5, #2
 80010ba:	e9cd 2310 	strd	r2, r3, [sp, #64]	; 0x40
 80010be:	a808      	add	r0, sp, #32
 80010c0:	2304      	movs	r3, #4
 80010c2:	9313      	str	r3, [sp, #76]	; 0x4c
 80010c4:	9508      	str	r5, [sp, #32]
 80010c6:	e9cd 540e 	strd	r5, r4, [sp, #56]	; 0x38
 80010ca:	9512      	str	r5, [sp, #72]	; 0x48
 80010cc:	f000 feae 	bl	8001e2c <HAL_RCC_OscConfig>
 80010d0:	230f      	movs	r3, #15
 80010d2:	e9cd 3503 	strd	r3, r5, [sp, #12]
 80010d6:	4631      	mov	r1, r6
 80010d8:	f44f 5380 	mov.w	r3, #4096	; 0x1000
 80010dc:	a803      	add	r0, sp, #12
 80010de:	9405      	str	r4, [sp, #20]
 80010e0:	e9cd 3406 	strd	r3, r4, [sp, #24]
 80010e4:	f001 f876 	bl	80021d4 <HAL_RCC_ClockConfig>
 80010e8:	b014      	add	sp, #80	; 0x50
 80010ea:	bd70      	pop	{r4, r5, r6, pc}
 80010ec:	40023800 	.word	0x40023800
 80010f0:	40007000 	.word	0x40007000

080010f4 <main>:
 80010f4:	b580      	push	{r7, lr}
 80010f6:	b08a      	sub	sp, #40	; 0x28
 80010f8:	f000 fa40 	bl	800157c <HAL_Init>
 80010fc:	f7ff ffb2 	bl	8001064 <SystemClock_Config>
 8001100:	2214      	movs	r2, #20
 8001102:	2100      	movs	r1, #0
 8001104:	eb0d 0002 	add.w	r0, sp, r2
 8001108:	f001 f922 	bl	8002350 <memset>
 800110c:	2400      	movs	r4, #0
 800110e:	4b9b      	ldr	r3, [pc, #620]	; (800137c <main+0x288>)
 8001110:	9401      	str	r4, [sp, #4]
 8001112:	6b1a      	ldr	r2, [r3, #48]	; 0x30
 8001114:	489a      	ldr	r0, [pc, #616]	; (8001380 <main+0x28c>)
 8001116:	4d9b      	ldr	r5, [pc, #620]	; (8001384 <main+0x290>)
 8001118:	4f9b      	ldr	r7, [pc, #620]	; (8001388 <main+0x294>)
 800111a:	f042 0210 	orr.w	r2, r2, #16
 800111e:	631a      	str	r2, [r3, #48]	; 0x30
 8001120:	6b1a      	ldr	r2, [r3, #48]	; 0x30
 8001122:	f002 0210 	and.w	r2, r2, #16
 8001126:	9201      	str	r2, [sp, #4]
 8001128:	9a01      	ldr	r2, [sp, #4]
 800112a:	9402      	str	r4, [sp, #8]
 800112c:	6b1a      	ldr	r2, [r3, #48]	; 0x30
 800112e:	f042 0280 	orr.w	r2, r2, #128	; 0x80
 8001132:	631a      	str	r2, [r3, #48]	; 0x30
 8001134:	6b1a      	ldr	r2, [r3, #48]	; 0x30
 8001136:	f002 0280 	and.w	r2, r2, #128	; 0x80
 800113a:	9202      	str	r2, [sp, #8]
 800113c:	9a02      	ldr	r2, [sp, #8]
 800113e:	9403      	str	r4, [sp, #12]
 8001140:	6b1a      	ldr	r2, [r3, #48]	; 0x30
 8001142:	f042 0201 	orr.w	r2, r2, #1
 8001146:	631a      	str	r2, [r3, #48]	; 0x30
 8001148:	6b1a      	ldr	r2, [r3, #48]	; 0x30
 800114a:	f002 0201 	and.w	r2, r2, #1
 800114e:	9203      	str	r2, [sp, #12]
 8001150:	9a03      	ldr	r2, [sp, #12]
 8001152:	9404      	str	r4, [sp, #16]
 8001154:	6b1a      	ldr	r2, [r3, #48]	; 0x30
 8001156:	f042 0208 	orr.w	r2, r2, #8
 800115a:	631a      	str	r2, [r3, #48]	; 0x30
 800115c:	6b1b      	ldr	r3, [r3, #48]	; 0x30
 800115e:	f003 0308 	and.w	r3, r3, #8
 8001162:	9304      	str	r3, [sp, #16]
 8001164:	4622      	mov	r2, r4
 8001166:	f64f 4190 	movw	r1, #64656	; 0xfc90
 800116a:	9b04      	ldr	r3, [sp, #16]
 800116c:	f000 fe3c 	bl	8001de8 <HAL_GPIO_WritePin>
 8001170:	4622      	mov	r2, r4
 8001172:	f44f 4170 	mov.w	r1, #61440	; 0xf000
 8001176:	4885      	ldr	r0, [pc, #532]	; (800138c <main+0x298>)
 8001178:	f000 fe36 	bl	8001de8 <HAL_GPIO_WritePin>
 800117c:	4b84      	ldr	r3, [pc, #528]	; (8001390 <main+0x29c>)
 800117e:	4880      	ldr	r0, [pc, #512]	; (8001380 <main+0x28c>)
 8001180:	9407      	str	r4, [sp, #28]
 8001182:	220c      	movs	r2, #12
 8001184:	a905      	add	r1, sp, #20
 8001186:	e9cd 2305 	strd	r2, r3, [sp, #20]
 800118a:	2601      	movs	r6, #1
 800118c:	f000 fd46 	bl	8001c1c <HAL_GPIO_Init>
 8001190:	f64f 4390 	movw	r3, #64656	; 0xfc90
 8001194:	a905      	add	r1, sp, #20
 8001196:	487a      	ldr	r0, [pc, #488]	; (8001380 <main+0x28c>)
 8001198:	e9cd 3605 	strd	r3, r6, [sp, #20]
 800119c:	e9cd 4407 	strd	r4, r4, [sp, #28]
 80011a0:	f000 fd3c 	bl	8001c1c <HAL_GPIO_Init>
 80011a4:	f44f 7390 	mov.w	r3, #288	; 0x120
 80011a8:	a905      	add	r1, sp, #20
 80011aa:	4875      	ldr	r0, [pc, #468]	; (8001380 <main+0x28c>)
 80011ac:	9407      	str	r4, [sp, #28]
 80011ae:	e9cd 3405 	strd	r3, r4, [sp, #20]
 80011b2:	f000 fd33 	bl	8001c1c <HAL_GPIO_Init>
 80011b6:	f44f 4370 	mov.w	r3, #61440	; 0xf000
 80011ba:	a905      	add	r1, sp, #20
 80011bc:	4873      	ldr	r0, [pc, #460]	; (800138c <main+0x298>)
 80011be:	e9cd 3605 	strd	r3, r6, [sp, #20]
 80011c2:	e9cd 4407 	strd	r4, r4, [sp, #28]
 80011c6:	f000 fd29 	bl	8001c1c <HAL_GPIO_Init>
 80011ca:	4622      	mov	r2, r4
 80011cc:	4621      	mov	r1, r4
 80011ce:	2008      	movs	r0, #8
 80011d0:	f000 fbdc 	bl	800198c <HAL_NVIC_SetPriority>
 80011d4:	2008      	movs	r0, #8
 80011d6:	f000 fc0d 	bl	80019f4 <HAL_NVIC_EnableIRQ>
 80011da:	4622      	mov	r2, r4
 80011dc:	4621      	mov	r1, r4
 80011de:	2009      	movs	r0, #9
 80011e0:	f000 fbd4 	bl	800198c <HAL_NVIC_SetPriority>
 80011e4:	2009      	movs	r0, #9
 80011e6:	f000 fc05 	bl	80019f4 <HAL_NVIC_EnableIRQ>
 80011ea:	2210      	movs	r2, #16
 80011ec:	4621      	mov	r1, r4
 80011ee:	a805      	add	r0, sp, #20
 80011f0:	f001 f8ae 	bl	8002350 <memset>
 80011f4:	4b67      	ldr	r3, [pc, #412]	; (8001394 <main+0x2a0>)
 80011f6:	61ee      	str	r6, [r5, #28]
 80011f8:	e9c5 3400 	strd	r3, r4, [r5]
 80011fc:	f04f 7300 	mov.w	r3, #33554432	; 0x2000000
 8001200:	60ab      	str	r3, [r5, #8]
 8001202:	4628      	mov	r0, r5
 8001204:	4b64      	ldr	r3, [pc, #400]	; (8001398 <main+0x2a4>)
 8001206:	62ab      	str	r3, [r5, #40]	; 0x28
 8001208:	616e      	str	r6, [r5, #20]
 800120a:	612c      	str	r4, [r5, #16]
 800120c:	762c      	strb	r4, [r5, #24]
 800120e:	f885 4020 	strb.w	r4, [r5, #32]
 8001212:	62ec      	str	r4, [r5, #44]	; 0x2c
 8001214:	60ec      	str	r4, [r5, #12]
 8001216:	f885 4030 	strb.w	r4, [r5, #48]	; 0x30
 800121a:	f000 f9ef 	bl	80015fc <HAL_ADC_Init>
 800121e:	a905      	add	r1, sp, #20
 8001220:	4628      	mov	r0, r5
 8001222:	e9cd 6605 	strd	r6, r6, [sp, #20]
 8001226:	9407      	str	r4, [sp, #28]
 8001228:	f000 fb0e 	bl	8001848 <HAL_ADC_ConfigChannel>
 800122c:	4e54      	ldr	r6, [pc, #336]	; (8001380 <main+0x28c>)
 800122e:	4c5b      	ldr	r4, [pc, #364]	; (800139c <main+0x2a8>)
 8001230:	4628      	mov	r0, r5
 8001232:	f000 fa89 	bl	8001748 <HAL_ADC_Start_IT>
 8001236:	4628      	mov	r0, r5
 8001238:	f7ff fd3c 	bl	8000cb4 <HAL_ADC_ConvCpltCallback>
 800123c:	f7ff fd98 	bl	8000d70 <LecturaSalon>
 8001240:	6038      	str	r0, [r7, #0]
 8001242:	f7ff fdcd 	bl	8000de0 <LecturaComedor>
 8001246:	4b56      	ldr	r3, [pc, #344]	; (80013a0 <main+0x2ac>)
 8001248:	6018      	str	r0, [r3, #0]
 800124a:	4b56      	ldr	r3, [pc, #344]	; (80013a4 <main+0x2b0>)
 800124c:	4856      	ldr	r0, [pc, #344]	; (80013a8 <main+0x2b4>)
 800124e:	881a      	ldrh	r2, [r3, #0]
 8001250:	4631      	mov	r1, r6
 8001252:	f7ff fd57 	bl	8000d04 <debouncer>
 8001256:	b190      	cbz	r0, 800127e <main+0x18a>
 8001258:	6823      	ldr	r3, [r4, #0]
 800125a:	b93b      	cbnz	r3, 800126c <main+0x178>
 800125c:	4b53      	ldr	r3, [pc, #332]	; (80013ac <main+0x2b8>)
 800125e:	681a      	ldr	r2, [r3, #0]
 8001260:	b922      	cbnz	r2, 800126c <main+0x178>
 8001262:	2201      	movs	r2, #1
 8001264:	6022      	str	r2, [r4, #0]
 8001266:	2202      	movs	r2, #2
 8001268:	601a      	str	r2, [r3, #0]
 800126a:	e008      	b.n	800127e <main+0x18a>
 800126c:	6823      	ldr	r3, [r4, #0]
 800126e:	2b01      	cmp	r3, #1
 8001270:	d11d      	bne.n	80012ae <main+0x1ba>
 8001272:	4a4e      	ldr	r2, [pc, #312]	; (80013ac <main+0x2b8>)
 8001274:	6811      	ldr	r1, [r2, #0]
 8001276:	2902      	cmp	r1, #2
 8001278:	d119      	bne.n	80012ae <main+0x1ba>
 800127a:	6023      	str	r3, [r4, #0]
 800127c:	6013      	str	r3, [r2, #0]
 800127e:	4b4c      	ldr	r3, [pc, #304]	; (80013b0 <main+0x2bc>)
 8001280:	484c      	ldr	r0, [pc, #304]	; (80013b4 <main+0x2c0>)
 8001282:	881a      	ldrh	r2, [r3, #0]
 8001284:	4631      	mov	r1, r6
 8001286:	f7ff fd3d 	bl	8000d04 <debouncer>
 800128a:	b148      	cbz	r0, 80012a0 <main+0x1ac>
 800128c:	6823      	ldr	r3, [r4, #0]
 800128e:	2b00      	cmp	r3, #0
 8001290:	d135      	bne.n	80012fe <main+0x20a>
 8001292:	4b49      	ldr	r3, [pc, #292]	; (80013b8 <main+0x2c4>)
 8001294:	681a      	ldr	r2, [r3, #0]
 8001296:	2a00      	cmp	r2, #0
 8001298:	d131      	bne.n	80012fe <main+0x20a>
 800129a:	2202      	movs	r2, #2
 800129c:	6022      	str	r2, [r4, #0]
 800129e:	601a      	str	r2, [r3, #0]
 80012a0:	6823      	ldr	r3, [r4, #0]
 80012a2:	2b03      	cmp	r3, #3
 80012a4:	d8c3      	bhi.n	800122e <main+0x13a>
 80012a6:	e8df f003 	tbb	[pc, r3]
 80012aa:	5d58      	.short	0x5d58
 80012ac:	6562      	.short	0x6562
 80012ae:	6823      	ldr	r3, [r4, #0]
 80012b0:	2b01      	cmp	r3, #1
 80012b2:	d106      	bne.n	80012c2 <main+0x1ce>
 80012b4:	4b3d      	ldr	r3, [pc, #244]	; (80013ac <main+0x2b8>)
 80012b6:	681a      	ldr	r2, [r3, #0]
 80012b8:	2a01      	cmp	r2, #1
 80012ba:	d102      	bne.n	80012c2 <main+0x1ce>
 80012bc:	2200      	movs	r2, #0
 80012be:	6022      	str	r2, [r4, #0]
 80012c0:	e7d2      	b.n	8001268 <main+0x174>
 80012c2:	6822      	ldr	r2, [r4, #0]
 80012c4:	2a02      	cmp	r2, #2
 80012c6:	d105      	bne.n	80012d4 <main+0x1e0>
 80012c8:	4b38      	ldr	r3, [pc, #224]	; (80013ac <main+0x2b8>)
 80012ca:	6819      	ldr	r1, [r3, #0]
 80012cc:	b911      	cbnz	r1, 80012d4 <main+0x1e0>
 80012ce:	2103      	movs	r1, #3
 80012d0:	6021      	str	r1, [r4, #0]
 80012d2:	e7c9      	b.n	8001268 <main+0x174>
 80012d4:	6822      	ldr	r2, [r4, #0]
 80012d6:	2a03      	cmp	r2, #3
 80012d8:	d106      	bne.n	80012e8 <main+0x1f4>
 80012da:	4b34      	ldr	r3, [pc, #208]	; (80013ac <main+0x2b8>)
 80012dc:	6819      	ldr	r1, [r3, #0]
 80012de:	2902      	cmp	r1, #2
 80012e0:	d102      	bne.n	80012e8 <main+0x1f4>
 80012e2:	6022      	str	r2, [r4, #0]
 80012e4:	2201      	movs	r2, #1
 80012e6:	e7bf      	b.n	8001268 <main+0x174>
 80012e8:	6823      	ldr	r3, [r4, #0]
 80012ea:	2b03      	cmp	r3, #3
 80012ec:	d1c7      	bne.n	800127e <main+0x18a>
 80012ee:	4b2f      	ldr	r3, [pc, #188]	; (80013ac <main+0x2b8>)
 80012f0:	681a      	ldr	r2, [r3, #0]
 80012f2:	2a01      	cmp	r2, #1
 80012f4:	d1c3      	bne.n	800127e <main+0x18a>
 80012f6:	2202      	movs	r2, #2
 80012f8:	6022      	str	r2, [r4, #0]
 80012fa:	2200      	movs	r2, #0
 80012fc:	e7b4      	b.n	8001268 <main+0x174>
 80012fe:	6823      	ldr	r3, [r4, #0]
 8001300:	2b02      	cmp	r3, #2
 8001302:	d106      	bne.n	8001312 <main+0x21e>
 8001304:	4b2c      	ldr	r3, [pc, #176]	; (80013b8 <main+0x2c4>)
 8001306:	681a      	ldr	r2, [r3, #0]
 8001308:	2a02      	cmp	r2, #2
 800130a:	d102      	bne.n	8001312 <main+0x21e>
 800130c:	6022      	str	r2, [r4, #0]
 800130e:	2201      	movs	r2, #1
 8001310:	e7c5      	b.n	800129e <main+0x1aa>
 8001312:	6823      	ldr	r3, [r4, #0]
 8001314:	2b02      	cmp	r3, #2
 8001316:	d105      	bne.n	8001324 <main+0x230>
 8001318:	4b27      	ldr	r3, [pc, #156]	; (80013b8 <main+0x2c4>)
 800131a:	681a      	ldr	r2, [r3, #0]
 800131c:	2a01      	cmp	r2, #1
 800131e:	d101      	bne.n	8001324 <main+0x230>
 8001320:	2200      	movs	r2, #0
 8001322:	e7bb      	b.n	800129c <main+0x1a8>
 8001324:	6823      	ldr	r3, [r4, #0]
 8001326:	2b01      	cmp	r3, #1
 8001328:	d106      	bne.n	8001338 <main+0x244>
 800132a:	4b23      	ldr	r3, [pc, #140]	; (80013b8 <main+0x2c4>)
 800132c:	681a      	ldr	r2, [r3, #0]
 800132e:	b91a      	cbnz	r2, 8001338 <main+0x244>
 8001330:	2203      	movs	r2, #3
 8001332:	6022      	str	r2, [r4, #0]
 8001334:	2202      	movs	r2, #2
 8001336:	e7b2      	b.n	800129e <main+0x1aa>
 8001338:	6822      	ldr	r2, [r4, #0]
 800133a:	2a03      	cmp	r2, #3
 800133c:	d103      	bne.n	8001346 <main+0x252>
 800133e:	4b1e      	ldr	r3, [pc, #120]	; (80013b8 <main+0x2c4>)
 8001340:	6819      	ldr	r1, [r3, #0]
 8001342:	2902      	cmp	r1, #2
 8001344:	d0e2      	beq.n	800130c <main+0x218>
 8001346:	6823      	ldr	r3, [r4, #0]
 8001348:	2b03      	cmp	r3, #3
 800134a:	d1a9      	bne.n	80012a0 <main+0x1ac>
 800134c:	4b1a      	ldr	r3, [pc, #104]	; (80013b8 <main+0x2c4>)
 800134e:	681a      	ldr	r2, [r3, #0]
 8001350:	2a01      	cmp	r2, #1
 8001352:	d1a5      	bne.n	80012a0 <main+0x1ac>
 8001354:	6022      	str	r2, [r4, #0]
 8001356:	2200      	movs	r2, #0
 8001358:	e7a1      	b.n	800129e <main+0x1aa>
 800135a:	f7ff fddf 	bl	8000f1c <LucesAutomaticasSalon>
 800135e:	f7ff fe2f 	bl	8000fc0 <LucesAutomaticasComedor>
 8001362:	e764      	b.n	800122e <main+0x13a>
 8001364:	f7ff fdda 	bl	8000f1c <LucesAutomaticasSalon>
 8001368:	f7ff fd70 	bl	8000e4c <LucesManualesComedor>
 800136c:	e75f      	b.n	800122e <main+0x13a>
 800136e:	f7ff fda1 	bl	8000eb4 <LucesManualesSalon>
 8001372:	e7f4      	b.n	800135e <main+0x26a>
 8001374:	f7ff fd9e 	bl	8000eb4 <LucesManualesSalon>
 8001378:	e7f6      	b.n	8001368 <main+0x274>
 800137a:	bf00      	nop
 800137c:	40023800 	.word	0x40023800
 8001380:	40021000 	.word	0x40021000
 8001384:	20000070 	.word	0x20000070
 8001388:	20000054 	.word	0x20000054
 800138c:	40020c00 	.word	0x40020c00
 8001390:	10110000 	.word	0x10110000
 8001394:	40012000 	.word	0x40012000
 8001398:	0f000001 	.word	0x0f000001
 800139c:	2000006c 	.word	0x2000006c
 80013a0:	20000050 	.word	0x20000050
 80013a4:	20000000 	.word	0x20000000
 80013a8:	20000048 	.word	0x20000048
 80013ac:	2000005c 	.word	0x2000005c
 80013b0:	20000002 	.word	0x20000002
 80013b4:	2000004c 	.word	0x2000004c
 80013b8:	20000060 	.word	0x20000060

080013bc <HAL_MspInit>:
 80013bc:	b513      	push	{r0, r1, r4, lr}
 80013be:	4b1c      	ldr	r3, [pc, #112]	; (8001430 <HAL_MspInit+0x74>)
 80013c0:	2400      	movs	r4, #0
 80013c2:	9400      	str	r4, [sp, #0]
 80013c4:	6c5a      	ldr	r2, [r3, #68]	; 0x44
 80013c6:	f442 4280 	orr.w	r2, r2, #16384	; 0x4000
 80013ca:	645a      	str	r2, [r3, #68]	; 0x44
 80013cc:	6c5a      	ldr	r2, [r3, #68]	; 0x44
 80013ce:	f402 4280 	and.w	r2, r2, #16384	; 0x4000
 80013d2:	9200      	str	r2, [sp, #0]
 80013d4:	9a00      	ldr	r2, [sp, #0]
 80013d6:	9401      	str	r4, [sp, #4]
 80013d8:	6c1a      	ldr	r2, [r3, #64]	; 0x40
 80013da:	f042 5280 	orr.w	r2, r2, #268435456	; 0x10000000
 80013de:	641a      	str	r2, [r3, #64]	; 0x40
 80013e0:	6c1b      	ldr	r3, [r3, #64]	; 0x40
 80013e2:	f003 5380 	and.w	r3, r3, #268435456	; 0x10000000
 80013e6:	4622      	mov	r2, r4
 80013e8:	4621      	mov	r1, r4
 80013ea:	9301      	str	r3, [sp, #4]
 80013ec:	2001      	movs	r0, #1
 80013ee:	9b01      	ldr	r3, [sp, #4]
 80013f0:	f000 facc 	bl	800198c <HAL_NVIC_SetPriority>
 80013f4:	2001      	movs	r0, #1
 80013f6:	f000 fafd 	bl	80019f4 <HAL_NVIC_EnableIRQ>
 80013fa:	4622      	mov	r2, r4
 80013fc:	4621      	mov	r1, r4
 80013fe:	2004      	movs	r0, #4
 8001400:	f000 fac4 	bl	800198c <HAL_NVIC_SetPriority>
 8001404:	2004      	movs	r0, #4
 8001406:	f000 faf5 	bl	80019f4 <HAL_NVIC_EnableIRQ>
 800140a:	4622      	mov	r2, r4
 800140c:	4621      	mov	r1, r4
 800140e:	2005      	movs	r0, #5
 8001410:	f000 fabc 	bl	800198c <HAL_NVIC_SetPriority>
 8001414:	2005      	movs	r0, #5
 8001416:	f000 faed 	bl	80019f4 <HAL_NVIC_EnableIRQ>
 800141a:	4622      	mov	r2, r4
 800141c:	4621      	mov	r1, r4
 800141e:	2051      	movs	r0, #81	; 0x51
 8001420:	f000 fab4 	bl	800198c <HAL_NVIC_SetPriority>
 8001424:	2051      	movs	r0, #81	; 0x51
 8001426:	b002      	add	sp, #8
 8001428:	e8bd 4010 	ldmia.w	sp!, {r4, lr}
 800142c:	f000 bae2 	b.w	80019f4 <HAL_NVIC_EnableIRQ>
 8001430:	40023800 	.word	0x40023800

08001434 <HAL_ADC_MspInit>:
 8001434:	b510      	push	{r4, lr}
 8001436:	4604      	mov	r4, r0
 8001438:	b088      	sub	sp, #32
 800143a:	2214      	movs	r2, #20
 800143c:	2100      	movs	r1, #0
 800143e:	a803      	add	r0, sp, #12
 8001440:	f000 ff86 	bl	8002350 <memset>
 8001444:	6822      	ldr	r2, [r4, #0]
 8001446:	4b12      	ldr	r3, [pc, #72]	; (8001490 <HAL_ADC_MspInit+0x5c>)
 8001448:	429a      	cmp	r2, r3
 800144a:	d11e      	bne.n	800148a <HAL_ADC_MspInit+0x56>
 800144c:	f503 338c 	add.w	r3, r3, #71680	; 0x11800
 8001450:	2100      	movs	r1, #0
 8001452:	9101      	str	r1, [sp, #4]
 8001454:	6c5a      	ldr	r2, [r3, #68]	; 0x44
 8001456:	480f      	ldr	r0, [pc, #60]	; (8001494 <HAL_ADC_MspInit+0x60>)
 8001458:	f442 7280 	orr.w	r2, r2, #256	; 0x100
 800145c:	645a      	str	r2, [r3, #68]	; 0x44
 800145e:	6c5a      	ldr	r2, [r3, #68]	; 0x44
 8001460:	f402 7280 	and.w	r2, r2, #256	; 0x100
 8001464:	9201      	str	r2, [sp, #4]
 8001466:	9a01      	ldr	r2, [sp, #4]
 8001468:	9102      	str	r1, [sp, #8]
 800146a:	6b1a      	ldr	r2, [r3, #48]	; 0x30
 800146c:	f042 0201 	orr.w	r2, r2, #1
 8001470:	631a      	str	r2, [r3, #48]	; 0x30
 8001472:	6b1b      	ldr	r3, [r3, #48]	; 0x30
 8001474:	f003 0301 	and.w	r3, r3, #1
 8001478:	9302      	str	r3, [sp, #8]
 800147a:	9b02      	ldr	r3, [sp, #8]
 800147c:	2202      	movs	r2, #2
 800147e:	2303      	movs	r3, #3
 8001480:	a903      	add	r1, sp, #12
 8001482:	e9cd 2303 	strd	r2, r3, [sp, #12]
 8001486:	f000 fbc9 	bl	8001c1c <HAL_GPIO_Init>
 800148a:	b008      	add	sp, #32
 800148c:	bd10      	pop	{r4, pc}
 800148e:	bf00      	nop
 8001490:	40012000 	.word	0x40012000
 8001494:	40020000 	.word	0x40020000

08001498 <NMI_Handler>:
 8001498:	4770      	bx	lr

0800149a <HardFault_Handler>:
 800149a:	e7fe      	b.n	800149a <HardFault_Handler>

0800149c <MemManage_Handler>:
 800149c:	e7fe      	b.n	800149c <MemManage_Handler>

0800149e <BusFault_Handler>:
 800149e:	e7fe      	b.n	800149e <BusFault_Handler>

080014a0 <UsageFault_Handler>:
 80014a0:	e7fe      	b.n	80014a0 <UsageFault_Handler>

080014a2 <SVC_Handler>:
 80014a2:	4770      	bx	lr

080014a4 <DebugMon_Handler>:
 80014a4:	4770      	bx	lr

080014a6 <PendSV_Handler>:
 80014a6:	4770      	bx	lr

080014a8 <SysTick_Handler>:
 80014a8:	f000 b882 	b.w	80015b0 <HAL_IncTick>

080014ac <PVD_IRQHandler>:
 80014ac:	f000 bcb0 	b.w	8001e10 <HAL_PWR_PVD_IRQHandler>

080014b0 <FLASH_IRQHandler>:
 80014b0:	f000 bb00 	b.w	8001ab4 <HAL_FLASH_IRQHandler>

080014b4 <RCC_IRQHandler>:
 80014b4:	4770      	bx	lr

080014b6 <EXTI2_IRQHandler>:
 80014b6:	2004      	movs	r0, #4
 80014b8:	f000 bc9c 	b.w	8001df4 <HAL_GPIO_EXTI_IRQHandler>

080014bc <EXTI3_IRQHandler>:
 80014bc:	2008      	movs	r0, #8
 80014be:	f000 bc99 	b.w	8001df4 <HAL_GPIO_EXTI_IRQHandler>

080014c2 <FPU_IRQHandler>:
 80014c2:	4770      	bx	lr

080014c4 <SystemInit>:
 80014c4:	4b05      	ldr	r3, [pc, #20]	; (80014dc <SystemInit+0x18>)
 80014c6:	f8d3 2088 	ldr.w	r2, [r3, #136]	; 0x88
 80014ca:	f442 0270 	orr.w	r2, r2, #15728640	; 0xf00000
 80014ce:	f8c3 2088 	str.w	r2, [r3, #136]	; 0x88
 80014d2:	f04f 6200 	mov.w	r2, #134217728	; 0x8000000
 80014d6:	609a      	str	r2, [r3, #8]
 80014d8:	4770      	bx	lr
 80014da:	bf00      	nop
 80014dc:	e000ed00 	.word	0xe000ed00

080014e0 <Reset_Handler>:
 80014e0:	f8df d034 	ldr.w	sp, [pc, #52]	; 8001518 <LoopFillZerobss+0x14>
 80014e4:	2100      	movs	r1, #0
 80014e6:	e003      	b.n	80014f0 <LoopCopyDataInit>

080014e8 <CopyDataInit>:
 80014e8:	4b0c      	ldr	r3, [pc, #48]	; (800151c <LoopFillZerobss+0x18>)
 80014ea:	585b      	ldr	r3, [r3, r1]
 80014ec:	5043      	str	r3, [r0, r1]
 80014ee:	3104      	adds	r1, #4

080014f0 <LoopCopyDataInit>:
 80014f0:	480b      	ldr	r0, [pc, #44]	; (8001520 <LoopFillZerobss+0x1c>)
 80014f2:	4b0c      	ldr	r3, [pc, #48]	; (8001524 <LoopFillZerobss+0x20>)
 80014f4:	1842      	adds	r2, r0, r1
 80014f6:	429a      	cmp	r2, r3
 80014f8:	d3f6      	bcc.n	80014e8 <CopyDataInit>
 80014fa:	4a0b      	ldr	r2, [pc, #44]	; (8001528 <LoopFillZerobss+0x24>)
 80014fc:	e002      	b.n	8001504 <LoopFillZerobss>

080014fe <FillZerobss>:
 80014fe:	2300      	movs	r3, #0
 8001500:	f842 3b04 	str.w	r3, [r2], #4

08001504 <LoopFillZerobss>:
 8001504:	4b09      	ldr	r3, [pc, #36]	; (800152c <LoopFillZerobss+0x28>)
 8001506:	429a      	cmp	r2, r3
 8001508:	d3f9      	bcc.n	80014fe <FillZerobss>
 800150a:	f7ff ffdb 	bl	80014c4 <SystemInit>
 800150e:	f000 fefb 	bl	8002308 <__libc_init_array>
 8001512:	f7ff fdef 	bl	80010f4 <main>
 8001516:	4770      	bx	lr
 8001518:	20020000 	.word	0x20020000
 800151c:	08002398 	.word	0x08002398
 8001520:	20000000 	.word	0x20000000
 8001524:	2000002c 	.word	0x2000002c
 8001528:	2000002c 	.word	0x2000002c
 800152c:	200000dc 	.word	0x200000dc

08001530 <ADC_IRQHandler>:
 8001530:	e7fe      	b.n	8001530 <ADC_IRQHandler>
	...

08001534 <HAL_InitTick>:
 8001534:	b538      	push	{r3, r4, r5, lr}
 8001536:	4a0e      	ldr	r2, [pc, #56]	; (8001570 <HAL_InitTick+0x3c>)
 8001538:	4b0e      	ldr	r3, [pc, #56]	; (8001574 <HAL_InitTick+0x40>)
 800153a:	4605      	mov	r5, r0
 800153c:	7818      	ldrb	r0, [r3, #0]
 800153e:	f44f 737a 	mov.w	r3, #1000	; 0x3e8
 8001542:	fbb3 f3f0 	udiv	r3, r3, r0
 8001546:	6810      	ldr	r0, [r2, #0]
 8001548:	fbb0 f0f3 	udiv	r0, r0, r3
 800154c:	f000 fa60 	bl	8001a10 <HAL_SYSTICK_Config>
 8001550:	4604      	mov	r4, r0
 8001552:	b958      	cbnz	r0, 800156c <HAL_InitTick+0x38>
 8001554:	2d0f      	cmp	r5, #15
 8001556:	d809      	bhi.n	800156c <HAL_InitTick+0x38>
 8001558:	4602      	mov	r2, r0
 800155a:	4629      	mov	r1, r5
 800155c:	f04f 30ff 	mov.w	r0, #4294967295
 8001560:	f000 fa14 	bl	800198c <HAL_NVIC_SetPriority>
 8001564:	4b04      	ldr	r3, [pc, #16]	; (8001578 <HAL_InitTick+0x44>)
 8001566:	4620      	mov	r0, r4
 8001568:	601d      	str	r5, [r3, #0]
 800156a:	bd38      	pop	{r3, r4, r5, pc}
 800156c:	2001      	movs	r0, #1
 800156e:	e7fc      	b.n	800156a <HAL_InitTick+0x36>
 8001570:	20000020 	.word	0x20000020
 8001574:	20000024 	.word	0x20000024
 8001578:	20000028 	.word	0x20000028

0800157c <HAL_Init>:
 800157c:	b508      	push	{r3, lr}
 800157e:	4b0b      	ldr	r3, [pc, #44]	; (80015ac <HAL_Init+0x30>)
 8001580:	681a      	ldr	r2, [r3, #0]
 8001582:	f442 7200 	orr.w	r2, r2, #512	; 0x200
 8001586:	601a      	str	r2, [r3, #0]
 8001588:	681a      	ldr	r2, [r3, #0]
 800158a:	f442 6280 	orr.w	r2, r2, #1024	; 0x400
 800158e:	601a      	str	r2, [r3, #0]
 8001590:	681a      	ldr	r2, [r3, #0]
 8001592:	f442 7280 	orr.w	r2, r2, #256	; 0x100
 8001596:	601a      	str	r2, [r3, #0]
 8001598:	2003      	movs	r0, #3
 800159a:	f000 f9e5 	bl	8001968 <HAL_NVIC_SetPriorityGrouping>
 800159e:	2000      	movs	r0, #0
 80015a0:	f7ff ffc8 	bl	8001534 <HAL_InitTick>
 80015a4:	f7ff ff0a 	bl	80013bc <HAL_MspInit>
 80015a8:	2000      	movs	r0, #0
 80015aa:	bd08      	pop	{r3, pc}
 80015ac:	40023c00 	.word	0x40023c00

080015b0 <HAL_IncTick>:
 80015b0:	4a03      	ldr	r2, [pc, #12]	; (80015c0 <HAL_IncTick+0x10>)
 80015b2:	4b04      	ldr	r3, [pc, #16]	; (80015c4 <HAL_IncTick+0x14>)
 80015b4:	6811      	ldr	r1, [r2, #0]
 80015b6:	781b      	ldrb	r3, [r3, #0]
 80015b8:	440b      	add	r3, r1
 80015ba:	6013      	str	r3, [r2, #0]
 80015bc:	4770      	bx	lr
 80015be:	bf00      	nop
 80015c0:	200000b8 	.word	0x200000b8
 80015c4:	20000024 	.word	0x20000024

080015c8 <HAL_GetTick>:
 80015c8:	4b01      	ldr	r3, [pc, #4]	; (80015d0 <HAL_GetTick+0x8>)
 80015ca:	6818      	ldr	r0, [r3, #0]
 80015cc:	4770      	bx	lr
 80015ce:	bf00      	nop
 80015d0:	200000b8 	.word	0x200000b8

080015d4 <HAL_Delay>:
 80015d4:	b538      	push	{r3, r4, r5, lr}
 80015d6:	4604      	mov	r4, r0
 80015d8:	f7ff fff6 	bl	80015c8 <HAL_GetTick>
 80015dc:	1c63      	adds	r3, r4, #1
 80015de:	bf1c      	itt	ne
 80015e0:	4b05      	ldrne	r3, [pc, #20]	; (80015f8 <HAL_Delay+0x24>)
 80015e2:	781b      	ldrbne	r3, [r3, #0]
 80015e4:	4605      	mov	r5, r0
 80015e6:	bf18      	it	ne
 80015e8:	18e4      	addne	r4, r4, r3
 80015ea:	f7ff ffed 	bl	80015c8 <HAL_GetTick>
 80015ee:	1b40      	subs	r0, r0, r5
 80015f0:	42a0      	cmp	r0, r4
 80015f2:	d3fa      	bcc.n	80015ea <HAL_Delay+0x16>
 80015f4:	bd38      	pop	{r3, r4, r5, pc}
 80015f6:	bf00      	nop
 80015f8:	20000024 	.word	0x20000024

080015fc <HAL_ADC_Init>:
 80015fc:	b538      	push	{r3, r4, r5, lr}
 80015fe:	4604      	mov	r4, r0
 8001600:	2800      	cmp	r0, #0
 8001602:	f000 809b 	beq.w	800173c <HAL_ADC_Init+0x140>
 8001606:	6c05      	ldr	r5, [r0, #64]	; 0x40
 8001608:	b925      	cbnz	r5, 8001614 <HAL_ADC_Init+0x18>
 800160a:	f7ff ff13 	bl	8001434 <HAL_ADC_MspInit>
 800160e:	6465      	str	r5, [r4, #68]	; 0x44
 8001610:	f884 503c 	strb.w	r5, [r4, #60]	; 0x3c
 8001614:	6c23      	ldr	r3, [r4, #64]	; 0x40
 8001616:	06db      	lsls	r3, r3, #27
 8001618:	f100 808e 	bmi.w	8001738 <HAL_ADC_Init+0x13c>
 800161c:	6c23      	ldr	r3, [r4, #64]	; 0x40
 800161e:	f423 5388 	bic.w	r3, r3, #4352	; 0x1100
 8001622:	f023 0302 	bic.w	r3, r3, #2
 8001626:	f043 0302 	orr.w	r3, r3, #2
 800162a:	6423      	str	r3, [r4, #64]	; 0x40
 800162c:	4b44      	ldr	r3, [pc, #272]	; (8001740 <HAL_ADC_Init+0x144>)
 800162e:	685a      	ldr	r2, [r3, #4]
 8001630:	f422 3240 	bic.w	r2, r2, #196608	; 0x30000
 8001634:	605a      	str	r2, [r3, #4]
 8001636:	685a      	ldr	r2, [r3, #4]
 8001638:	6861      	ldr	r1, [r4, #4]
 800163a:	430a      	orrs	r2, r1
 800163c:	605a      	str	r2, [r3, #4]
 800163e:	6823      	ldr	r3, [r4, #0]
 8001640:	6921      	ldr	r1, [r4, #16]
 8001642:	685a      	ldr	r2, [r3, #4]
 8001644:	f422 7280 	bic.w	r2, r2, #256	; 0x100
 8001648:	605a      	str	r2, [r3, #4]
 800164a:	685a      	ldr	r2, [r3, #4]
 800164c:	ea42 2201 	orr.w	r2, r2, r1, lsl #8
 8001650:	605a      	str	r2, [r3, #4]
 8001652:	685a      	ldr	r2, [r3, #4]
 8001654:	68a1      	ldr	r1, [r4, #8]
 8001656:	f022 7240 	bic.w	r2, r2, #50331648	; 0x3000000
 800165a:	605a      	str	r2, [r3, #4]
 800165c:	685a      	ldr	r2, [r3, #4]
 800165e:	430a      	orrs	r2, r1
 8001660:	605a      	str	r2, [r3, #4]
 8001662:	689a      	ldr	r2, [r3, #8]
 8001664:	68e1      	ldr	r1, [r4, #12]
 8001666:	f422 6200 	bic.w	r2, r2, #2048	; 0x800
 800166a:	609a      	str	r2, [r3, #8]
 800166c:	689a      	ldr	r2, [r3, #8]
 800166e:	430a      	orrs	r2, r1
 8001670:	609a      	str	r2, [r3, #8]
 8001672:	4934      	ldr	r1, [pc, #208]	; (8001744 <HAL_ADC_Init+0x148>)
 8001674:	6aa2      	ldr	r2, [r4, #40]	; 0x28
 8001676:	428a      	cmp	r2, r1
 8001678:	d052      	beq.n	8001720 <HAL_ADC_Init+0x124>
 800167a:	6899      	ldr	r1, [r3, #8]
 800167c:	f021 6170 	bic.w	r1, r1, #251658240	; 0xf000000
 8001680:	6099      	str	r1, [r3, #8]
 8001682:	6899      	ldr	r1, [r3, #8]
 8001684:	430a      	orrs	r2, r1
 8001686:	609a      	str	r2, [r3, #8]
 8001688:	689a      	ldr	r2, [r3, #8]
 800168a:	6ae1      	ldr	r1, [r4, #44]	; 0x2c
 800168c:	f022 5240 	bic.w	r2, r2, #805306368	; 0x30000000
 8001690:	609a      	str	r2, [r3, #8]
 8001692:	689a      	ldr	r2, [r3, #8]
 8001694:	430a      	orrs	r2, r1
 8001696:	609a      	str	r2, [r3, #8]
 8001698:	689a      	ldr	r2, [r3, #8]
 800169a:	7e21      	ldrb	r1, [r4, #24]
 800169c:	f022 0202 	bic.w	r2, r2, #2
 80016a0:	609a      	str	r2, [r3, #8]
 80016a2:	689a      	ldr	r2, [r3, #8]
 80016a4:	ea42 0241 	orr.w	r2, r2, r1, lsl #1
 80016a8:	609a      	str	r2, [r3, #8]
 80016aa:	f894 2020 	ldrb.w	r2, [r4, #32]
 80016ae:	2a00      	cmp	r2, #0
 80016b0:	d03e      	beq.n	8001730 <HAL_ADC_Init+0x134>
 80016b2:	685a      	ldr	r2, [r3, #4]
 80016b4:	6a61      	ldr	r1, [r4, #36]	; 0x24
 80016b6:	f442 6200 	orr.w	r2, r2, #2048	; 0x800
 80016ba:	605a      	str	r2, [r3, #4]
 80016bc:	685a      	ldr	r2, [r3, #4]
 80016be:	f422 4260 	bic.w	r2, r2, #57344	; 0xe000
 80016c2:	605a      	str	r2, [r3, #4]
 80016c4:	685a      	ldr	r2, [r3, #4]
 80016c6:	3901      	subs	r1, #1
 80016c8:	ea42 3241 	orr.w	r2, r2, r1, lsl #13
 80016cc:	605a      	str	r2, [r3, #4]
 80016ce:	6ada      	ldr	r2, [r3, #44]	; 0x2c
 80016d0:	69e1      	ldr	r1, [r4, #28]
 80016d2:	f422 0270 	bic.w	r2, r2, #15728640	; 0xf00000
 80016d6:	62da      	str	r2, [r3, #44]	; 0x2c
 80016d8:	6ada      	ldr	r2, [r3, #44]	; 0x2c
 80016da:	3901      	subs	r1, #1
 80016dc:	ea42 5201 	orr.w	r2, r2, r1, lsl #20
 80016e0:	62da      	str	r2, [r3, #44]	; 0x2c
 80016e2:	689a      	ldr	r2, [r3, #8]
 80016e4:	f894 1030 	ldrb.w	r1, [r4, #48]	; 0x30
 80016e8:	f422 7200 	bic.w	r2, r2, #512	; 0x200
 80016ec:	609a      	str	r2, [r3, #8]
 80016ee:	689a      	ldr	r2, [r3, #8]
 80016f0:	ea42 2241 	orr.w	r2, r2, r1, lsl #9
 80016f4:	609a      	str	r2, [r3, #8]
 80016f6:	689a      	ldr	r2, [r3, #8]
 80016f8:	6961      	ldr	r1, [r4, #20]
 80016fa:	f422 6280 	bic.w	r2, r2, #1024	; 0x400
 80016fe:	609a      	str	r2, [r3, #8]
 8001700:	689a      	ldr	r2, [r3, #8]
 8001702:	2000      	movs	r0, #0
 8001704:	ea42 2281 	orr.w	r2, r2, r1, lsl #10
 8001708:	609a      	str	r2, [r3, #8]
 800170a:	6460      	str	r0, [r4, #68]	; 0x44
 800170c:	6c23      	ldr	r3, [r4, #64]	; 0x40
 800170e:	f023 0303 	bic.w	r3, r3, #3
 8001712:	f043 0301 	orr.w	r3, r3, #1
 8001716:	6423      	str	r3, [r4, #64]	; 0x40
 8001718:	2300      	movs	r3, #0
 800171a:	f884 303c 	strb.w	r3, [r4, #60]	; 0x3c
 800171e:	bd38      	pop	{r3, r4, r5, pc}
 8001720:	689a      	ldr	r2, [r3, #8]
 8001722:	f022 6270 	bic.w	r2, r2, #251658240	; 0xf000000
 8001726:	609a      	str	r2, [r3, #8]
 8001728:	689a      	ldr	r2, [r3, #8]
 800172a:	f022 5240 	bic.w	r2, r2, #805306368	; 0x30000000
 800172e:	e7b2      	b.n	8001696 <HAL_ADC_Init+0x9a>
 8001730:	685a      	ldr	r2, [r3, #4]
 8001732:	f422 6200 	bic.w	r2, r2, #2048	; 0x800
 8001736:	e7c9      	b.n	80016cc <HAL_ADC_Init+0xd0>
 8001738:	2001      	movs	r0, #1
 800173a:	e7ed      	b.n	8001718 <HAL_ADC_Init+0x11c>
 800173c:	2001      	movs	r0, #1
 800173e:	e7ee      	b.n	800171e <HAL_ADC_Init+0x122>
 8001740:	40012300 	.word	0x40012300
 8001744:	0f000001 	.word	0x0f000001

08001748 <HAL_ADC_Start_IT>:
 8001748:	b082      	sub	sp, #8
 800174a:	2300      	movs	r3, #0
 800174c:	9301      	str	r3, [sp, #4]
 800174e:	f890 303c 	ldrb.w	r3, [r0, #60]	; 0x3c
 8001752:	2b01      	cmp	r3, #1
 8001754:	d067      	beq.n	8001826 <HAL_ADC_Start_IT+0xde>
 8001756:	2301      	movs	r3, #1
 8001758:	f880 303c 	strb.w	r3, [r0, #60]	; 0x3c
 800175c:	6803      	ldr	r3, [r0, #0]
 800175e:	689a      	ldr	r2, [r3, #8]
 8001760:	07d1      	lsls	r1, r2, #31
 8001762:	d505      	bpl.n	8001770 <HAL_ADC_Start_IT+0x28>
 8001764:	689a      	ldr	r2, [r3, #8]
 8001766:	07d2      	lsls	r2, r2, #31
 8001768:	d414      	bmi.n	8001794 <HAL_ADC_Start_IT+0x4c>
 800176a:	2000      	movs	r0, #0
 800176c:	b002      	add	sp, #8
 800176e:	4770      	bx	lr
 8001770:	689a      	ldr	r2, [r3, #8]
 8001772:	492e      	ldr	r1, [pc, #184]	; (800182c <HAL_ADC_Start_IT+0xe4>)
 8001774:	f042 0201 	orr.w	r2, r2, #1
 8001778:	609a      	str	r2, [r3, #8]
 800177a:	4a2d      	ldr	r2, [pc, #180]	; (8001830 <HAL_ADC_Start_IT+0xe8>)
 800177c:	6812      	ldr	r2, [r2, #0]
 800177e:	fbb2 f2f1 	udiv	r2, r2, r1
 8001782:	eb02 0242 	add.w	r2, r2, r2, lsl #1
 8001786:	9201      	str	r2, [sp, #4]
 8001788:	9a01      	ldr	r2, [sp, #4]
 800178a:	2a00      	cmp	r2, #0
 800178c:	d0ea      	beq.n	8001764 <HAL_ADC_Start_IT+0x1c>
 800178e:	9a01      	ldr	r2, [sp, #4]
 8001790:	3a01      	subs	r2, #1
 8001792:	e7f8      	b.n	8001786 <HAL_ADC_Start_IT+0x3e>
 8001794:	6c02      	ldr	r2, [r0, #64]	; 0x40
 8001796:	f422 62e0 	bic.w	r2, r2, #1792	; 0x700
 800179a:	f022 0201 	bic.w	r2, r2, #1
 800179e:	f442 7280 	orr.w	r2, r2, #256	; 0x100
 80017a2:	6402      	str	r2, [r0, #64]	; 0x40
 80017a4:	685a      	ldr	r2, [r3, #4]
 80017a6:	0551      	lsls	r1, r2, #21
 80017a8:	bf41      	itttt	mi
 80017aa:	6c02      	ldrmi	r2, [r0, #64]	; 0x40
 80017ac:	f422 5240 	bicmi.w	r2, r2, #12288	; 0x3000
 80017b0:	f442 5280 	orrmi.w	r2, r2, #4096	; 0x1000
 80017b4:	6402      	strmi	r2, [r0, #64]	; 0x40
 80017b6:	6c02      	ldr	r2, [r0, #64]	; 0x40
 80017b8:	f412 5280 	ands.w	r2, r2, #4096	; 0x1000
 80017bc:	bf1c      	itt	ne
 80017be:	6c42      	ldrne	r2, [r0, #68]	; 0x44
 80017c0:	f022 0206 	bicne.w	r2, r2, #6
 80017c4:	6442      	str	r2, [r0, #68]	; 0x44
 80017c6:	2200      	movs	r2, #0
 80017c8:	f880 203c 	strb.w	r2, [r0, #60]	; 0x3c
 80017cc:	f06f 0222 	mvn.w	r2, #34	; 0x22
 80017d0:	601a      	str	r2, [r3, #0]
 80017d2:	685a      	ldr	r2, [r3, #4]
 80017d4:	f042 6280 	orr.w	r2, r2, #67108864	; 0x4000000
 80017d8:	f042 0220 	orr.w	r2, r2, #32
 80017dc:	605a      	str	r2, [r3, #4]
 80017de:	4a15      	ldr	r2, [pc, #84]	; (8001834 <HAL_ADC_Start_IT+0xec>)
 80017e0:	6851      	ldr	r1, [r2, #4]
 80017e2:	f011 0f1f 	tst.w	r1, #31
 80017e6:	4914      	ldr	r1, [pc, #80]	; (8001838 <HAL_ADC_Start_IT+0xf0>)
 80017e8:	d11a      	bne.n	8001820 <HAL_ADC_Start_IT+0xd8>
 80017ea:	428b      	cmp	r3, r1
 80017ec:	d006      	beq.n	80017fc <HAL_ADC_Start_IT+0xb4>
 80017ee:	f501 7180 	add.w	r1, r1, #256	; 0x100
 80017f2:	428b      	cmp	r3, r1
 80017f4:	d10b      	bne.n	800180e <HAL_ADC_Start_IT+0xc6>
 80017f6:	6852      	ldr	r2, [r2, #4]
 80017f8:	06d2      	lsls	r2, r2, #27
 80017fa:	d1b6      	bne.n	800176a <HAL_ADC_Start_IT+0x22>
 80017fc:	6898      	ldr	r0, [r3, #8]
 80017fe:	f010 5040 	ands.w	r0, r0, #805306368	; 0x30000000
 8001802:	d1b2      	bne.n	800176a <HAL_ADC_Start_IT+0x22>
 8001804:	689a      	ldr	r2, [r3, #8]
 8001806:	f042 4280 	orr.w	r2, r2, #1073741824	; 0x40000000
 800180a:	609a      	str	r2, [r3, #8]
 800180c:	e7ae      	b.n	800176c <HAL_ADC_Start_IT+0x24>
 800180e:	490b      	ldr	r1, [pc, #44]	; (800183c <HAL_ADC_Start_IT+0xf4>)
 8001810:	428b      	cmp	r3, r1
 8001812:	d1aa      	bne.n	800176a <HAL_ADC_Start_IT+0x22>
 8001814:	6852      	ldr	r2, [r2, #4]
 8001816:	f002 021f 	and.w	r2, r2, #31
 800181a:	2a0f      	cmp	r2, #15
 800181c:	d9ee      	bls.n	80017fc <HAL_ADC_Start_IT+0xb4>
 800181e:	e7a4      	b.n	800176a <HAL_ADC_Start_IT+0x22>
 8001820:	428b      	cmp	r3, r1
 8001822:	d1a2      	bne.n	800176a <HAL_ADC_Start_IT+0x22>
 8001824:	e7ea      	b.n	80017fc <HAL_ADC_Start_IT+0xb4>
 8001826:	2002      	movs	r0, #2
 8001828:	e7a0      	b.n	800176c <HAL_ADC_Start_IT+0x24>
 800182a:	bf00      	nop
 800182c:	000f4240 	.word	0x000f4240
 8001830:	20000020 	.word	0x20000020
 8001834:	40012300 	.word	0x40012300
 8001838:	40012000 	.word	0x40012000
 800183c:	40012200 	.word	0x40012200

08001840 <HAL_ADC_GetValue>:
 8001840:	6803      	ldr	r3, [r0, #0]
 8001842:	6cd8      	ldr	r0, [r3, #76]	; 0x4c
 8001844:	4770      	bx	lr
	...

08001848 <HAL_ADC_ConfigChannel>:
 8001848:	b5f7      	push	{r0, r1, r2, r4, r5, r6, r7, lr}
 800184a:	2300      	movs	r3, #0
 800184c:	9301      	str	r3, [sp, #4]
 800184e:	f890 303c 	ldrb.w	r3, [r0, #60]	; 0x3c
 8001852:	2b01      	cmp	r3, #1
 8001854:	d07e      	beq.n	8001954 <HAL_ADC_ConfigChannel+0x10c>
 8001856:	680d      	ldr	r5, [r1, #0]
 8001858:	688e      	ldr	r6, [r1, #8]
 800185a:	2301      	movs	r3, #1
 800185c:	2d09      	cmp	r5, #9
 800185e:	f880 303c 	strb.w	r3, [r0, #60]	; 0x3c
 8001862:	b2ac      	uxth	r4, r5
 8001864:	6803      	ldr	r3, [r0, #0]
 8001866:	d929      	bls.n	80018bc <HAL_ADC_ConfigChannel+0x74>
 8001868:	eb04 0244 	add.w	r2, r4, r4, lsl #1
 800186c:	68df      	ldr	r7, [r3, #12]
 800186e:	3a1e      	subs	r2, #30
 8001870:	f04f 0c07 	mov.w	ip, #7
 8001874:	fa0c fc02 	lsl.w	ip, ip, r2
 8001878:	ea27 070c 	bic.w	r7, r7, ip
 800187c:	60df      	str	r7, [r3, #12]
 800187e:	68df      	ldr	r7, [r3, #12]
 8001880:	fa06 f202 	lsl.w	r2, r6, r2
 8001884:	433a      	orrs	r2, r7
 8001886:	60da      	str	r2, [r3, #12]
 8001888:	6849      	ldr	r1, [r1, #4]
 800188a:	2906      	cmp	r1, #6
 800188c:	eb01 0281 	add.w	r2, r1, r1, lsl #2
 8001890:	d824      	bhi.n	80018dc <HAL_ADC_ConfigChannel+0x94>
 8001892:	6b59      	ldr	r1, [r3, #52]	; 0x34
 8001894:	3a05      	subs	r2, #5
 8001896:	261f      	movs	r6, #31
 8001898:	4096      	lsls	r6, r2
 800189a:	ea21 0106 	bic.w	r1, r1, r6
 800189e:	6359      	str	r1, [r3, #52]	; 0x34
 80018a0:	6b59      	ldr	r1, [r3, #52]	; 0x34
 80018a2:	fa04 f202 	lsl.w	r2, r4, r2
 80018a6:	430a      	orrs	r2, r1
 80018a8:	635a      	str	r2, [r3, #52]	; 0x34
 80018aa:	4a2b      	ldr	r2, [pc, #172]	; (8001958 <HAL_ADC_ConfigChannel+0x110>)
 80018ac:	4293      	cmp	r3, r2
 80018ae:	d031      	beq.n	8001914 <HAL_ADC_ConfigChannel+0xcc>
 80018b0:	2300      	movs	r3, #0
 80018b2:	f880 303c 	strb.w	r3, [r0, #60]	; 0x3c
 80018b6:	4618      	mov	r0, r3
 80018b8:	b003      	add	sp, #12
 80018ba:	bdf0      	pop	{r4, r5, r6, r7, pc}
 80018bc:	691f      	ldr	r7, [r3, #16]
 80018be:	eb05 0245 	add.w	r2, r5, r5, lsl #1
 80018c2:	f04f 0c07 	mov.w	ip, #7
 80018c6:	fa0c fc02 	lsl.w	ip, ip, r2
 80018ca:	ea27 070c 	bic.w	r7, r7, ip
 80018ce:	611f      	str	r7, [r3, #16]
 80018d0:	691f      	ldr	r7, [r3, #16]
 80018d2:	fa06 f202 	lsl.w	r2, r6, r2
 80018d6:	433a      	orrs	r2, r7
 80018d8:	611a      	str	r2, [r3, #16]
 80018da:	e7d5      	b.n	8001888 <HAL_ADC_ConfigChannel+0x40>
 80018dc:	290c      	cmp	r1, #12
 80018de:	f04f 011f 	mov.w	r1, #31
 80018e2:	d80b      	bhi.n	80018fc <HAL_ADC_ConfigChannel+0xb4>
 80018e4:	6b1e      	ldr	r6, [r3, #48]	; 0x30
 80018e6:	3a23      	subs	r2, #35	; 0x23
 80018e8:	4091      	lsls	r1, r2
 80018ea:	ea26 0101 	bic.w	r1, r6, r1
 80018ee:	6319      	str	r1, [r3, #48]	; 0x30
 80018f0:	6b19      	ldr	r1, [r3, #48]	; 0x30
 80018f2:	fa04 f202 	lsl.w	r2, r4, r2
 80018f6:	430a      	orrs	r2, r1
 80018f8:	631a      	str	r2, [r3, #48]	; 0x30
 80018fa:	e7d6      	b.n	80018aa <HAL_ADC_ConfigChannel+0x62>
 80018fc:	6ade      	ldr	r6, [r3, #44]	; 0x2c
 80018fe:	3a41      	subs	r2, #65	; 0x41
 8001900:	4091      	lsls	r1, r2
 8001902:	ea26 0101 	bic.w	r1, r6, r1
 8001906:	62d9      	str	r1, [r3, #44]	; 0x2c
 8001908:	6ad9      	ldr	r1, [r3, #44]	; 0x2c
 800190a:	fa04 f202 	lsl.w	r2, r4, r2
 800190e:	430a      	orrs	r2, r1
 8001910:	62da      	str	r2, [r3, #44]	; 0x2c
 8001912:	e7ca      	b.n	80018aa <HAL_ADC_ConfigChannel+0x62>
 8001914:	2d12      	cmp	r5, #18
 8001916:	d104      	bne.n	8001922 <HAL_ADC_ConfigChannel+0xda>
 8001918:	4a10      	ldr	r2, [pc, #64]	; (800195c <HAL_ADC_ConfigChannel+0x114>)
 800191a:	6853      	ldr	r3, [r2, #4]
 800191c:	f443 0380 	orr.w	r3, r3, #4194304	; 0x400000
 8001920:	6053      	str	r3, [r2, #4]
 8001922:	f1a5 0310 	sub.w	r3, r5, #16
 8001926:	2b01      	cmp	r3, #1
 8001928:	d8c2      	bhi.n	80018b0 <HAL_ADC_ConfigChannel+0x68>
 800192a:	4a0c      	ldr	r2, [pc, #48]	; (800195c <HAL_ADC_ConfigChannel+0x114>)
 800192c:	6853      	ldr	r3, [r2, #4]
 800192e:	2d10      	cmp	r5, #16
 8001930:	f443 0300 	orr.w	r3, r3, #8388608	; 0x800000
 8001934:	6053      	str	r3, [r2, #4]
 8001936:	d1bb      	bne.n	80018b0 <HAL_ADC_ConfigChannel+0x68>
 8001938:	4b09      	ldr	r3, [pc, #36]	; (8001960 <HAL_ADC_ConfigChannel+0x118>)
 800193a:	4a0a      	ldr	r2, [pc, #40]	; (8001964 <HAL_ADC_ConfigChannel+0x11c>)
 800193c:	681b      	ldr	r3, [r3, #0]
 800193e:	fbb3 f2f2 	udiv	r2, r3, r2
 8001942:	230a      	movs	r3, #10
 8001944:	4353      	muls	r3, r2
 8001946:	9301      	str	r3, [sp, #4]
 8001948:	9b01      	ldr	r3, [sp, #4]
 800194a:	2b00      	cmp	r3, #0
 800194c:	d0b0      	beq.n	80018b0 <HAL_ADC_ConfigChannel+0x68>
 800194e:	9b01      	ldr	r3, [sp, #4]
 8001950:	3b01      	subs	r3, #1
 8001952:	e7f8      	b.n	8001946 <HAL_ADC_ConfigChannel+0xfe>
 8001954:	2002      	movs	r0, #2
 8001956:	e7af      	b.n	80018b8 <HAL_ADC_ConfigChannel+0x70>
 8001958:	40012000 	.word	0x40012000
 800195c:	40012300 	.word	0x40012300
 8001960:	20000020 	.word	0x20000020
 8001964:	000f4240 	.word	0x000f4240

08001968 <HAL_NVIC_SetPriorityGrouping>:
 8001968:	4a07      	ldr	r2, [pc, #28]	; (8001988 <HAL_NVIC_SetPriorityGrouping+0x20>)
 800196a:	68d3      	ldr	r3, [r2, #12]
 800196c:	f423 63e0 	bic.w	r3, r3, #1792	; 0x700
 8001970:	041b      	lsls	r3, r3, #16
 8001972:	0c1b      	lsrs	r3, r3, #16
 8001974:	f043 63bf 	orr.w	r3, r3, #100139008	; 0x5f80000
 8001978:	0200      	lsls	r0, r0, #8
 800197a:	f443 3300 	orr.w	r3, r3, #131072	; 0x20000
 800197e:	f400 60e0 	and.w	r0, r0, #1792	; 0x700
 8001982:	4303      	orrs	r3, r0
 8001984:	60d3      	str	r3, [r2, #12]
 8001986:	4770      	bx	lr
 8001988:	e000ed00 	.word	0xe000ed00

0800198c <HAL_NVIC_SetPriority>:
 800198c:	4b17      	ldr	r3, [pc, #92]	; (80019ec <HAL_NVIC_SetPriority+0x60>)
 800198e:	b570      	push	{r4, r5, r6, lr}
 8001990:	68dc      	ldr	r4, [r3, #12]
 8001992:	f3c4 2402 	ubfx	r4, r4, #8, #3
 8001996:	f1c4 0507 	rsb	r5, r4, #7
 800199a:	2d04      	cmp	r5, #4
 800199c:	f104 0304 	add.w	r3, r4, #4
 80019a0:	bf28      	it	cs
 80019a2:	2504      	movcs	r5, #4
 80019a4:	f04f 36ff 	mov.w	r6, #4294967295
 80019a8:	2b06      	cmp	r3, #6
 80019aa:	fa06 f305 	lsl.w	r3, r6, r5
 80019ae:	bf8c      	ite	hi
 80019b0:	3c03      	subhi	r4, #3
 80019b2:	2400      	movls	r4, #0
 80019b4:	ea21 0303 	bic.w	r3, r1, r3
 80019b8:	40a3      	lsls	r3, r4
 80019ba:	fa06 f404 	lsl.w	r4, r6, r4
 80019be:	ea22 0404 	bic.w	r4, r2, r4
 80019c2:	2800      	cmp	r0, #0
 80019c4:	ea43 0304 	orr.w	r3, r3, r4
 80019c8:	bfa8      	it	ge
 80019ca:	f100 4060 	addge.w	r0, r0, #3758096384	; 0xe0000000
 80019ce:	ea4f 1303 	mov.w	r3, r3, lsl #4
 80019d2:	bfbc      	itt	lt
 80019d4:	f000 000f 	andlt.w	r0, r0, #15
 80019d8:	4a05      	ldrlt	r2, [pc, #20]	; (80019f0 <HAL_NVIC_SetPriority+0x64>)
 80019da:	b2db      	uxtb	r3, r3
 80019dc:	bfaa      	itet	ge
 80019de:	f500 4061 	addge.w	r0, r0, #57600	; 0xe100
 80019e2:	5413      	strblt	r3, [r2, r0]
 80019e4:	f880 3300 	strbge.w	r3, [r0, #768]	; 0x300
 80019e8:	bd70      	pop	{r4, r5, r6, pc}
 80019ea:	bf00      	nop
 80019ec:	e000ed00 	.word	0xe000ed00
 80019f0:	e000ed14 	.word	0xe000ed14

080019f4 <HAL_NVIC_EnableIRQ>:
 80019f4:	2800      	cmp	r0, #0
 80019f6:	db08      	blt.n	8001a0a <HAL_NVIC_EnableIRQ+0x16>
 80019f8:	0942      	lsrs	r2, r0, #5
 80019fa:	2301      	movs	r3, #1
 80019fc:	f000 001f 	and.w	r0, r0, #31
 8001a00:	fa03 f000 	lsl.w	r0, r3, r0
 8001a04:	4b01      	ldr	r3, [pc, #4]	; (8001a0c <HAL_NVIC_EnableIRQ+0x18>)
 8001a06:	f843 0022 	str.w	r0, [r3, r2, lsl #2]
 8001a0a:	4770      	bx	lr
 8001a0c:	e000e100 	.word	0xe000e100

08001a10 <HAL_SYSTICK_Config>:
 8001a10:	3801      	subs	r0, #1
 8001a12:	f1b0 7f80 	cmp.w	r0, #16777216	; 0x1000000
 8001a16:	d20a      	bcs.n	8001a2e <HAL_SYSTICK_Config+0x1e>
 8001a18:	4b06      	ldr	r3, [pc, #24]	; (8001a34 <HAL_SYSTICK_Config+0x24>)
 8001a1a:	4a07      	ldr	r2, [pc, #28]	; (8001a38 <HAL_SYSTICK_Config+0x28>)
 8001a1c:	6058      	str	r0, [r3, #4]
 8001a1e:	21f0      	movs	r1, #240	; 0xf0
 8001a20:	f882 1023 	strb.w	r1, [r2, #35]	; 0x23
 8001a24:	2000      	movs	r0, #0
 8001a26:	2207      	movs	r2, #7
 8001a28:	6098      	str	r0, [r3, #8]
 8001a2a:	601a      	str	r2, [r3, #0]
 8001a2c:	4770      	bx	lr
 8001a2e:	2001      	movs	r0, #1
 8001a30:	4770      	bx	lr
 8001a32:	bf00      	nop
 8001a34:	e000e010 	.word	0xe000e010
 8001a38:	e000ed00 	.word	0xe000ed00

08001a3c <FLASH_SetErrorCode>:
 8001a3c:	4b1a      	ldr	r3, [pc, #104]	; (8001aa8 <FLASH_SetErrorCode+0x6c>)
 8001a3e:	68da      	ldr	r2, [r3, #12]
 8001a40:	06d2      	lsls	r2, r2, #27
 8001a42:	d506      	bpl.n	8001a52 <FLASH_SetErrorCode+0x16>
 8001a44:	4919      	ldr	r1, [pc, #100]	; (8001aac <FLASH_SetErrorCode+0x70>)
 8001a46:	69ca      	ldr	r2, [r1, #28]
 8001a48:	f042 0210 	orr.w	r2, r2, #16
 8001a4c:	61ca      	str	r2, [r1, #28]
 8001a4e:	2210      	movs	r2, #16
 8001a50:	60da      	str	r2, [r3, #12]
 8001a52:	68da      	ldr	r2, [r3, #12]
 8001a54:	0690      	lsls	r0, r2, #26
 8001a56:	d506      	bpl.n	8001a66 <FLASH_SetErrorCode+0x2a>
 8001a58:	4914      	ldr	r1, [pc, #80]	; (8001aac <FLASH_SetErrorCode+0x70>)
 8001a5a:	69ca      	ldr	r2, [r1, #28]
 8001a5c:	f042 0208 	orr.w	r2, r2, #8
 8001a60:	61ca      	str	r2, [r1, #28]
 8001a62:	2220      	movs	r2, #32
 8001a64:	60da      	str	r2, [r3, #12]
 8001a66:	4b10      	ldr	r3, [pc, #64]	; (8001aa8 <FLASH_SetErrorCode+0x6c>)
 8001a68:	68da      	ldr	r2, [r3, #12]
 8001a6a:	0651      	lsls	r1, r2, #25
 8001a6c:	d506      	bpl.n	8001a7c <FLASH_SetErrorCode+0x40>
 8001a6e:	490f      	ldr	r1, [pc, #60]	; (8001aac <FLASH_SetErrorCode+0x70>)
 8001a70:	69ca      	ldr	r2, [r1, #28]
 8001a72:	f042 0204 	orr.w	r2, r2, #4
 8001a76:	61ca      	str	r2, [r1, #28]
 8001a78:	2240      	movs	r2, #64	; 0x40
 8001a7a:	60da      	str	r2, [r3, #12]
 8001a7c:	68da      	ldr	r2, [r3, #12]
 8001a7e:	0612      	lsls	r2, r2, #24
 8001a80:	d506      	bpl.n	8001a90 <FLASH_SetErrorCode+0x54>
 8001a82:	490a      	ldr	r1, [pc, #40]	; (8001aac <FLASH_SetErrorCode+0x70>)
 8001a84:	69ca      	ldr	r2, [r1, #28]
 8001a86:	f042 0202 	orr.w	r2, r2, #2
 8001a8a:	61ca      	str	r2, [r1, #28]
 8001a8c:	2280      	movs	r2, #128	; 0x80
 8001a8e:	60da      	str	r2, [r3, #12]
 8001a90:	4a05      	ldr	r2, [pc, #20]	; (8001aa8 <FLASH_SetErrorCode+0x6c>)
 8001a92:	68d3      	ldr	r3, [r2, #12]
 8001a94:	079b      	lsls	r3, r3, #30
 8001a96:	d506      	bpl.n	8001aa6 <FLASH_SetErrorCode+0x6a>
 8001a98:	4904      	ldr	r1, [pc, #16]	; (8001aac <FLASH_SetErrorCode+0x70>)
 8001a9a:	69cb      	ldr	r3, [r1, #28]
 8001a9c:	f043 0320 	orr.w	r3, r3, #32
 8001aa0:	61cb      	str	r3, [r1, #28]
 8001aa2:	2302      	movs	r3, #2
 8001aa4:	60d3      	str	r3, [r2, #12]
 8001aa6:	4770      	bx	lr
 8001aa8:	40023c00 	.word	0x40023c00
 8001aac:	200000bc 	.word	0x200000bc

08001ab0 <HAL_FLASH_EndOfOperationCallback>:
 8001ab0:	4770      	bx	lr

08001ab2 <HAL_FLASH_OperationErrorCallback>:
 8001ab2:	4770      	bx	lr

08001ab4 <HAL_FLASH_IRQHandler>:
 8001ab4:	b538      	push	{r3, r4, r5, lr}
 8001ab6:	4b2e      	ldr	r3, [pc, #184]	; (8001b70 <HAL_FLASH_IRQHandler+0xbc>)
 8001ab8:	4c2e      	ldr	r4, [pc, #184]	; (8001b74 <HAL_FLASH_IRQHandler+0xc0>)
 8001aba:	68db      	ldr	r3, [r3, #12]
 8001abc:	f013 0ff2 	tst.w	r3, #242	; 0xf2
 8001ac0:	d00d      	beq.n	8001ade <HAL_FLASH_IRQHandler+0x2a>
 8001ac2:	7823      	ldrb	r3, [r4, #0]
 8001ac4:	2b01      	cmp	r3, #1
 8001ac6:	d135      	bne.n	8001b34 <HAL_FLASH_IRQHandler+0x80>
 8001ac8:	f04f 33ff 	mov.w	r3, #4294967295
 8001acc:	68e5      	ldr	r5, [r4, #12]
 8001ace:	60e3      	str	r3, [r4, #12]
 8001ad0:	f7ff ffb4 	bl	8001a3c <FLASH_SetErrorCode>
 8001ad4:	4628      	mov	r0, r5
 8001ad6:	f7ff ffec 	bl	8001ab2 <HAL_FLASH_OperationErrorCallback>
 8001ada:	2300      	movs	r3, #0
 8001adc:	7023      	strb	r3, [r4, #0]
 8001ade:	4b24      	ldr	r3, [pc, #144]	; (8001b70 <HAL_FLASH_IRQHandler+0xbc>)
 8001ae0:	68da      	ldr	r2, [r3, #12]
 8001ae2:	07d2      	lsls	r2, r2, #31
 8001ae4:	d513      	bpl.n	8001b0e <HAL_FLASH_IRQHandler+0x5a>
 8001ae6:	2201      	movs	r2, #1
 8001ae8:	60da      	str	r2, [r3, #12]
 8001aea:	7823      	ldrb	r3, [r4, #0]
 8001aec:	4293      	cmp	r3, r2
 8001aee:	d131      	bne.n	8001b54 <HAL_FLASH_IRQHandler+0xa0>
 8001af0:	6863      	ldr	r3, [r4, #4]
 8001af2:	3b01      	subs	r3, #1
 8001af4:	6063      	str	r3, [r4, #4]
 8001af6:	6863      	ldr	r3, [r4, #4]
 8001af8:	b313      	cbz	r3, 8001b40 <HAL_FLASH_IRQHandler+0x8c>
 8001afa:	68e0      	ldr	r0, [r4, #12]
 8001afc:	f7ff ffd8 	bl	8001ab0 <HAL_FLASH_EndOfOperationCallback>
 8001b00:	68e3      	ldr	r3, [r4, #12]
 8001b02:	3301      	adds	r3, #1
 8001b04:	60e3      	str	r3, [r4, #12]
 8001b06:	68e0      	ldr	r0, [r4, #12]
 8001b08:	7a21      	ldrb	r1, [r4, #8]
 8001b0a:	f000 f835 	bl	8001b78 <FLASH_Erase_Sector>
 8001b0e:	7823      	ldrb	r3, [r4, #0]
 8001b10:	f003 01ff 	and.w	r1, r3, #255	; 0xff
 8001b14:	b96b      	cbnz	r3, 8001b32 <HAL_FLASH_IRQHandler+0x7e>
 8001b16:	4b16      	ldr	r3, [pc, #88]	; (8001b70 <HAL_FLASH_IRQHandler+0xbc>)
 8001b18:	691a      	ldr	r2, [r3, #16]
 8001b1a:	f022 02ff 	bic.w	r2, r2, #255	; 0xff
 8001b1e:	611a      	str	r2, [r3, #16]
 8001b20:	691a      	ldr	r2, [r3, #16]
 8001b22:	f022 7280 	bic.w	r2, r2, #16777216	; 0x1000000
 8001b26:	611a      	str	r2, [r3, #16]
 8001b28:	691a      	ldr	r2, [r3, #16]
 8001b2a:	f022 7200 	bic.w	r2, r2, #33554432	; 0x2000000
 8001b2e:	611a      	str	r2, [r3, #16]
 8001b30:	7621      	strb	r1, [r4, #24]
 8001b32:	bd38      	pop	{r3, r4, r5, pc}
 8001b34:	7823      	ldrb	r3, [r4, #0]
 8001b36:	2b02      	cmp	r3, #2
 8001b38:	bf0c      	ite	eq
 8001b3a:	6925      	ldreq	r5, [r4, #16]
 8001b3c:	6965      	ldrne	r5, [r4, #20]
 8001b3e:	e7c7      	b.n	8001ad0 <HAL_FLASH_IRQHandler+0x1c>
 8001b40:	f04f 35ff 	mov.w	r5, #4294967295
 8001b44:	60e5      	str	r5, [r4, #12]
 8001b46:	7023      	strb	r3, [r4, #0]
 8001b48:	f000 f83c 	bl	8001bc4 <FLASH_FlushCaches>
 8001b4c:	4628      	mov	r0, r5
 8001b4e:	f7ff ffaf 	bl	8001ab0 <HAL_FLASH_EndOfOperationCallback>
 8001b52:	e7dc      	b.n	8001b0e <HAL_FLASH_IRQHandler+0x5a>
 8001b54:	7823      	ldrb	r3, [r4, #0]
 8001b56:	2b02      	cmp	r3, #2
 8001b58:	d107      	bne.n	8001b6a <HAL_FLASH_IRQHandler+0xb6>
 8001b5a:	f000 f833 	bl	8001bc4 <FLASH_FlushCaches>
 8001b5e:	6920      	ldr	r0, [r4, #16]
 8001b60:	f7ff ffa6 	bl	8001ab0 <HAL_FLASH_EndOfOperationCallback>
 8001b64:	2300      	movs	r3, #0
 8001b66:	7023      	strb	r3, [r4, #0]
 8001b68:	e7d1      	b.n	8001b0e <HAL_FLASH_IRQHandler+0x5a>
 8001b6a:	6960      	ldr	r0, [r4, #20]
 8001b6c:	e7f8      	b.n	8001b60 <HAL_FLASH_IRQHandler+0xac>
 8001b6e:	bf00      	nop
 8001b70:	40023c00 	.word	0x40023c00
 8001b74:	200000bc 	.word	0x200000bc

08001b78 <FLASH_Erase_Sector>:
 8001b78:	b139      	cbz	r1, 8001b8a <FLASH_Erase_Sector+0x12>
 8001b7a:	2901      	cmp	r1, #1
 8001b7c:	d01c      	beq.n	8001bb8 <FLASH_Erase_Sector+0x40>
 8001b7e:	2902      	cmp	r1, #2
 8001b80:	bf0c      	ite	eq
 8001b82:	f44f 7100 	moveq.w	r1, #512	; 0x200
 8001b86:	f44f 7140 	movne.w	r1, #768	; 0x300
 8001b8a:	4b0d      	ldr	r3, [pc, #52]	; (8001bc0 <FLASH_Erase_Sector+0x48>)
 8001b8c:	691a      	ldr	r2, [r3, #16]
 8001b8e:	f422 7240 	bic.w	r2, r2, #768	; 0x300
 8001b92:	611a      	str	r2, [r3, #16]
 8001b94:	691a      	ldr	r2, [r3, #16]
 8001b96:	4311      	orrs	r1, r2
 8001b98:	6119      	str	r1, [r3, #16]
 8001b9a:	691a      	ldr	r2, [r3, #16]
 8001b9c:	f022 02f8 	bic.w	r2, r2, #248	; 0xf8
 8001ba0:	611a      	str	r2, [r3, #16]
 8001ba2:	691a      	ldr	r2, [r3, #16]
 8001ba4:	f042 0202 	orr.w	r2, r2, #2
 8001ba8:	ea42 00c0 	orr.w	r0, r2, r0, lsl #3
 8001bac:	6118      	str	r0, [r3, #16]
 8001bae:	691a      	ldr	r2, [r3, #16]
 8001bb0:	f442 3280 	orr.w	r2, r2, #65536	; 0x10000
 8001bb4:	611a      	str	r2, [r3, #16]
 8001bb6:	4770      	bx	lr
 8001bb8:	f44f 7180 	mov.w	r1, #256	; 0x100
 8001bbc:	e7e5      	b.n	8001b8a <FLASH_Erase_Sector+0x12>
 8001bbe:	bf00      	nop
 8001bc0:	40023c00 	.word	0x40023c00

08001bc4 <FLASH_FlushCaches>:
 8001bc4:	4b14      	ldr	r3, [pc, #80]	; (8001c18 <FLASH_FlushCaches+0x54>)
 8001bc6:	681a      	ldr	r2, [r3, #0]
 8001bc8:	0591      	lsls	r1, r2, #22
 8001bca:	d50f      	bpl.n	8001bec <FLASH_FlushCaches+0x28>
 8001bcc:	681a      	ldr	r2, [r3, #0]
 8001bce:	f422 7200 	bic.w	r2, r2, #512	; 0x200
 8001bd2:	601a      	str	r2, [r3, #0]
 8001bd4:	681a      	ldr	r2, [r3, #0]
 8001bd6:	f442 6200 	orr.w	r2, r2, #2048	; 0x800
 8001bda:	601a      	str	r2, [r3, #0]
 8001bdc:	681a      	ldr	r2, [r3, #0]
 8001bde:	f422 6200 	bic.w	r2, r2, #2048	; 0x800
 8001be2:	601a      	str	r2, [r3, #0]
 8001be4:	681a      	ldr	r2, [r3, #0]
 8001be6:	f442 7200 	orr.w	r2, r2, #512	; 0x200
 8001bea:	601a      	str	r2, [r3, #0]
 8001bec:	4b0a      	ldr	r3, [pc, #40]	; (8001c18 <FLASH_FlushCaches+0x54>)
 8001bee:	681a      	ldr	r2, [r3, #0]
 8001bf0:	0552      	lsls	r2, r2, #21
 8001bf2:	d50f      	bpl.n	8001c14 <FLASH_FlushCaches+0x50>
 8001bf4:	681a      	ldr	r2, [r3, #0]
 8001bf6:	f422 6280 	bic.w	r2, r2, #1024	; 0x400
 8001bfa:	601a      	str	r2, [r3, #0]
 8001bfc:	681a      	ldr	r2, [r3, #0]
 8001bfe:	f442 5280 	orr.w	r2, r2, #4096	; 0x1000
 8001c02:	601a      	str	r2, [r3, #0]
 8001c04:	681a      	ldr	r2, [r3, #0]
 8001c06:	f422 5280 	bic.w	r2, r2, #4096	; 0x1000
 8001c0a:	601a      	str	r2, [r3, #0]
 8001c0c:	681a      	ldr	r2, [r3, #0]
 8001c0e:	f442 6280 	orr.w	r2, r2, #1024	; 0x400
 8001c12:	601a      	str	r2, [r3, #0]
 8001c14:	4770      	bx	lr
 8001c16:	bf00      	nop
 8001c18:	40023c00 	.word	0x40023c00

08001c1c <HAL_GPIO_Init>:
 8001c1c:	e92d 4ff0 	stmdb	sp!, {r4, r5, r6, r7, r8, r9, sl, fp, lr}
 8001c20:	b085      	sub	sp, #20
 8001c22:	680b      	ldr	r3, [r1, #0]
 8001c24:	f8df 81ac 	ldr.w	r8, [pc, #428]	; 8001dd4 <HAL_GPIO_Init+0x1b8>
 8001c28:	4a68      	ldr	r2, [pc, #416]	; (8001dcc <HAL_GPIO_Init+0x1b0>)
 8001c2a:	f8df 91ac 	ldr.w	r9, [pc, #428]	; 8001dd8 <HAL_GPIO_Init+0x1bc>
 8001c2e:	9301      	str	r3, [sp, #4]
 8001c30:	2300      	movs	r3, #0
 8001c32:	2401      	movs	r4, #1
 8001c34:	9d01      	ldr	r5, [sp, #4]
 8001c36:	409c      	lsls	r4, r3
 8001c38:	4025      	ands	r5, r4
 8001c3a:	42ac      	cmp	r4, r5
 8001c3c:	f040 80b0 	bne.w	8001da0 <HAL_GPIO_Init+0x184>
 8001c40:	684c      	ldr	r4, [r1, #4]
 8001c42:	f024 0c10 	bic.w	ip, r4, #16
 8001c46:	ea4f 0e43 	mov.w	lr, r3, lsl #1
 8001c4a:	2603      	movs	r6, #3
 8001c4c:	f10c 37ff 	add.w	r7, ip, #4294967295
 8001c50:	fa06 f60e 	lsl.w	r6, r6, lr
 8001c54:	2f01      	cmp	r7, #1
 8001c56:	ea6f 0606 	mvn.w	r6, r6
 8001c5a:	d811      	bhi.n	8001c80 <HAL_GPIO_Init+0x64>
 8001c5c:	6887      	ldr	r7, [r0, #8]
 8001c5e:	ea07 0a06 	and.w	sl, r7, r6
 8001c62:	68cf      	ldr	r7, [r1, #12]
 8001c64:	fa07 f70e 	lsl.w	r7, r7, lr
 8001c68:	ea47 070a 	orr.w	r7, r7, sl
 8001c6c:	6087      	str	r7, [r0, #8]
 8001c6e:	6847      	ldr	r7, [r0, #4]
 8001c70:	ea27 0a05 	bic.w	sl, r7, r5
 8001c74:	f3c4 1700 	ubfx	r7, r4, #4, #1
 8001c78:	409f      	lsls	r7, r3
 8001c7a:	ea47 070a 	orr.w	r7, r7, sl
 8001c7e:	6047      	str	r7, [r0, #4]
 8001c80:	68c7      	ldr	r7, [r0, #12]
 8001c82:	ea07 0a06 	and.w	sl, r7, r6
 8001c86:	688f      	ldr	r7, [r1, #8]
 8001c88:	fa07 f70e 	lsl.w	r7, r7, lr
 8001c8c:	ea47 070a 	orr.w	r7, r7, sl
 8001c90:	f1bc 0f02 	cmp.w	ip, #2
 8001c94:	60c7      	str	r7, [r0, #12]
 8001c96:	d116      	bne.n	8001cc6 <HAL_GPIO_Init+0xaa>
 8001c98:	ea4f 0ad3 	mov.w	sl, r3, lsr #3
 8001c9c:	eb00 0a8a 	add.w	sl, r0, sl, lsl #2
 8001ca0:	f003 0b07 	and.w	fp, r3, #7
 8001ca4:	f8da 7020 	ldr.w	r7, [sl, #32]
 8001ca8:	ea4f 0b8b 	mov.w	fp, fp, lsl #2
 8001cac:	f04f 0c0f 	mov.w	ip, #15
 8001cb0:	fa0c fc0b 	lsl.w	ip, ip, fp
 8001cb4:	ea27 0c0c 	bic.w	ip, r7, ip
 8001cb8:	690f      	ldr	r7, [r1, #16]
 8001cba:	fa07 f70b 	lsl.w	r7, r7, fp
 8001cbe:	ea47 070c 	orr.w	r7, r7, ip
 8001cc2:	f8ca 7020 	str.w	r7, [sl, #32]
 8001cc6:	6807      	ldr	r7, [r0, #0]
 8001cc8:	403e      	ands	r6, r7
 8001cca:	f004 0703 	and.w	r7, r4, #3
 8001cce:	fa07 fe0e 	lsl.w	lr, r7, lr
 8001cd2:	ea4e 0606 	orr.w	r6, lr, r6
 8001cd6:	6006      	str	r6, [r0, #0]
 8001cd8:	00e6      	lsls	r6, r4, #3
 8001cda:	d561      	bpl.n	8001da0 <HAL_GPIO_Init+0x184>
 8001cdc:	f04f 0b00 	mov.w	fp, #0
 8001ce0:	f8cd b00c 	str.w	fp, [sp, #12]
 8001ce4:	f8d8 7044 	ldr.w	r7, [r8, #68]	; 0x44
 8001ce8:	4e39      	ldr	r6, [pc, #228]	; (8001dd0 <HAL_GPIO_Init+0x1b4>)
 8001cea:	f447 4780 	orr.w	r7, r7, #16384	; 0x4000
 8001cee:	f8c8 7044 	str.w	r7, [r8, #68]	; 0x44
 8001cf2:	f8d8 7044 	ldr.w	r7, [r8, #68]	; 0x44
 8001cf6:	f407 4780 	and.w	r7, r7, #16384	; 0x4000
 8001cfa:	9703      	str	r7, [sp, #12]
 8001cfc:	9f03      	ldr	r7, [sp, #12]
 8001cfe:	f023 0703 	bic.w	r7, r3, #3
 8001d02:	f107 4780 	add.w	r7, r7, #1073741824	; 0x40000000
 8001d06:	f507 379c 	add.w	r7, r7, #79872	; 0x13800
 8001d0a:	f003 0e03 	and.w	lr, r3, #3
 8001d0e:	f8d7 a008 	ldr.w	sl, [r7, #8]
 8001d12:	ea4f 0e8e 	mov.w	lr, lr, lsl #2
 8001d16:	f04f 0c0f 	mov.w	ip, #15
 8001d1a:	fa0c fc0e 	lsl.w	ip, ip, lr
 8001d1e:	42b0      	cmp	r0, r6
 8001d20:	ea2a 0c0c 	bic.w	ip, sl, ip
 8001d24:	d043      	beq.n	8001dae <HAL_GPIO_Init+0x192>
 8001d26:	f506 6680 	add.w	r6, r6, #1024	; 0x400
 8001d2a:	42b0      	cmp	r0, r6
 8001d2c:	d041      	beq.n	8001db2 <HAL_GPIO_Init+0x196>
 8001d2e:	f506 6680 	add.w	r6, r6, #1024	; 0x400
 8001d32:	42b0      	cmp	r0, r6
 8001d34:	d03f      	beq.n	8001db6 <HAL_GPIO_Init+0x19a>
 8001d36:	f506 6680 	add.w	r6, r6, #1024	; 0x400
 8001d3a:	42b0      	cmp	r0, r6
 8001d3c:	d03d      	beq.n	8001dba <HAL_GPIO_Init+0x19e>
 8001d3e:	f506 6680 	add.w	r6, r6, #1024	; 0x400
 8001d42:	42b0      	cmp	r0, r6
 8001d44:	d03b      	beq.n	8001dbe <HAL_GPIO_Init+0x1a2>
 8001d46:	4548      	cmp	r0, r9
 8001d48:	d03b      	beq.n	8001dc2 <HAL_GPIO_Init+0x1a6>
 8001d4a:	f506 6600 	add.w	r6, r6, #2048	; 0x800
 8001d4e:	42b0      	cmp	r0, r6
 8001d50:	d039      	beq.n	8001dc6 <HAL_GPIO_Init+0x1aa>
 8001d52:	f506 6680 	add.w	r6, r6, #1024	; 0x400
 8001d56:	42b0      	cmp	r0, r6
 8001d58:	bf14      	ite	ne
 8001d5a:	2608      	movne	r6, #8
 8001d5c:	2607      	moveq	r6, #7
 8001d5e:	fa06 f60e 	lsl.w	r6, r6, lr
 8001d62:	ea46 060c 	orr.w	r6, r6, ip
 8001d66:	60be      	str	r6, [r7, #8]
 8001d68:	6816      	ldr	r6, [r2, #0]
 8001d6a:	43ef      	mvns	r7, r5
 8001d6c:	f414 3f80 	tst.w	r4, #65536	; 0x10000
 8001d70:	bf0c      	ite	eq
 8001d72:	403e      	andeq	r6, r7
 8001d74:	432e      	orrne	r6, r5
 8001d76:	6016      	str	r6, [r2, #0]
 8001d78:	6856      	ldr	r6, [r2, #4]
 8001d7a:	f414 3f00 	tst.w	r4, #131072	; 0x20000
 8001d7e:	bf0c      	ite	eq
 8001d80:	403e      	andeq	r6, r7
 8001d82:	432e      	orrne	r6, r5
 8001d84:	6056      	str	r6, [r2, #4]
 8001d86:	6896      	ldr	r6, [r2, #8]
 8001d88:	f414 1f80 	tst.w	r4, #1048576	; 0x100000
 8001d8c:	bf0c      	ite	eq
 8001d8e:	403e      	andeq	r6, r7
 8001d90:	432e      	orrne	r6, r5
 8001d92:	6096      	str	r6, [r2, #8]
 8001d94:	68d6      	ldr	r6, [r2, #12]
 8001d96:	02a4      	lsls	r4, r4, #10
 8001d98:	bf54      	ite	pl
 8001d9a:	403e      	andpl	r6, r7
 8001d9c:	432e      	orrmi	r6, r5
 8001d9e:	60d6      	str	r6, [r2, #12]
 8001da0:	3301      	adds	r3, #1
 8001da2:	2b10      	cmp	r3, #16
 8001da4:	f47f af45 	bne.w	8001c32 <HAL_GPIO_Init+0x16>
 8001da8:	b005      	add	sp, #20
 8001daa:	e8bd 8ff0 	ldmia.w	sp!, {r4, r5, r6, r7, r8, r9, sl, fp, pc}
 8001dae:	465e      	mov	r6, fp
 8001db0:	e7d5      	b.n	8001d5e <HAL_GPIO_Init+0x142>
 8001db2:	2601      	movs	r6, #1
 8001db4:	e7d3      	b.n	8001d5e <HAL_GPIO_Init+0x142>
 8001db6:	2602      	movs	r6, #2
 8001db8:	e7d1      	b.n	8001d5e <HAL_GPIO_Init+0x142>
 8001dba:	2603      	movs	r6, #3
 8001dbc:	e7cf      	b.n	8001d5e <HAL_GPIO_Init+0x142>
 8001dbe:	2604      	movs	r6, #4
 8001dc0:	e7cd      	b.n	8001d5e <HAL_GPIO_Init+0x142>
 8001dc2:	2605      	movs	r6, #5
 8001dc4:	e7cb      	b.n	8001d5e <HAL_GPIO_Init+0x142>
 8001dc6:	2606      	movs	r6, #6
 8001dc8:	e7c9      	b.n	8001d5e <HAL_GPIO_Init+0x142>
 8001dca:	bf00      	nop
 8001dcc:	40013c00 	.word	0x40013c00
 8001dd0:	40020000 	.word	0x40020000
 8001dd4:	40023800 	.word	0x40023800
 8001dd8:	40021400 	.word	0x40021400

08001ddc <HAL_GPIO_ReadPin>:
 8001ddc:	6903      	ldr	r3, [r0, #16]
 8001dde:	4219      	tst	r1, r3
 8001de0:	bf14      	ite	ne
 8001de2:	2001      	movne	r0, #1
 8001de4:	2000      	moveq	r0, #0
 8001de6:	4770      	bx	lr

08001de8 <HAL_GPIO_WritePin>:
 8001de8:	b10a      	cbz	r2, 8001dee <HAL_GPIO_WritePin+0x6>
 8001dea:	6181      	str	r1, [r0, #24]
 8001dec:	4770      	bx	lr
 8001dee:	0409      	lsls	r1, r1, #16
 8001df0:	e7fb      	b.n	8001dea <HAL_GPIO_WritePin+0x2>
	...

08001df4 <HAL_GPIO_EXTI_IRQHandler>:
 8001df4:	b508      	push	{r3, lr}
 8001df6:	4b04      	ldr	r3, [pc, #16]	; (8001e08 <HAL_GPIO_EXTI_IRQHandler+0x14>)
 8001df8:	6959      	ldr	r1, [r3, #20]
 8001dfa:	4201      	tst	r1, r0
 8001dfc:	d002      	beq.n	8001e04 <HAL_GPIO_EXTI_IRQHandler+0x10>
 8001dfe:	6158      	str	r0, [r3, #20]
 8001e00:	f7fe ff6a 	bl	8000cd8 <HAL_GPIO_EXTI_Callback>
 8001e04:	bd08      	pop	{r3, pc}
 8001e06:	bf00      	nop
 8001e08:	40013c00 	.word	0x40013c00

08001e0c <HAL_PWR_PVDCallback>:
 8001e0c:	4770      	bx	lr
	...

08001e10 <HAL_PWR_PVD_IRQHandler>:
 8001e10:	b510      	push	{r4, lr}
 8001e12:	4c05      	ldr	r4, [pc, #20]	; (8001e28 <HAL_PWR_PVD_IRQHandler+0x18>)
 8001e14:	6963      	ldr	r3, [r4, #20]
 8001e16:	03db      	lsls	r3, r3, #15
 8001e18:	d504      	bpl.n	8001e24 <HAL_PWR_PVD_IRQHandler+0x14>
 8001e1a:	f7ff fff7 	bl	8001e0c <HAL_PWR_PVDCallback>
 8001e1e:	f44f 3380 	mov.w	r3, #65536	; 0x10000
 8001e22:	6163      	str	r3, [r4, #20]
 8001e24:	bd10      	pop	{r4, pc}
 8001e26:	bf00      	nop
 8001e28:	40013c00 	.word	0x40013c00

08001e2c <HAL_RCC_OscConfig>:
 8001e2c:	e92d 41f3 	stmdb	sp!, {r0, r1, r4, r5, r6, r7, r8, lr}
 8001e30:	4604      	mov	r4, r0
 8001e32:	b908      	cbnz	r0, 8001e38 <HAL_RCC_OscConfig+0xc>
 8001e34:	2001      	movs	r0, #1
 8001e36:	e03f      	b.n	8001eb8 <HAL_RCC_OscConfig+0x8c>
 8001e38:	6803      	ldr	r3, [r0, #0]
 8001e3a:	07dd      	lsls	r5, r3, #31
 8001e3c:	d410      	bmi.n	8001e60 <HAL_RCC_OscConfig+0x34>
 8001e3e:	6823      	ldr	r3, [r4, #0]
 8001e40:	0798      	lsls	r0, r3, #30
 8001e42:	d45a      	bmi.n	8001efa <HAL_RCC_OscConfig+0xce>
 8001e44:	6823      	ldr	r3, [r4, #0]
 8001e46:	071a      	lsls	r2, r3, #28
 8001e48:	f100 809c 	bmi.w	8001f84 <HAL_RCC_OscConfig+0x158>
 8001e4c:	6823      	ldr	r3, [r4, #0]
 8001e4e:	075b      	lsls	r3, r3, #29
 8001e50:	f100 80ba 	bmi.w	8001fc8 <HAL_RCC_OscConfig+0x19c>
 8001e54:	69a0      	ldr	r0, [r4, #24]
 8001e56:	2800      	cmp	r0, #0
 8001e58:	f040 811b 	bne.w	8002092 <HAL_RCC_OscConfig+0x266>
 8001e5c:	2000      	movs	r0, #0
 8001e5e:	e02b      	b.n	8001eb8 <HAL_RCC_OscConfig+0x8c>
 8001e60:	4ba7      	ldr	r3, [pc, #668]	; (8002100 <HAL_RCC_OscConfig+0x2d4>)
 8001e62:	689a      	ldr	r2, [r3, #8]
 8001e64:	f002 020c 	and.w	r2, r2, #12
 8001e68:	2a04      	cmp	r2, #4
 8001e6a:	d007      	beq.n	8001e7c <HAL_RCC_OscConfig+0x50>
 8001e6c:	689a      	ldr	r2, [r3, #8]
 8001e6e:	f002 020c 	and.w	r2, r2, #12
 8001e72:	2a08      	cmp	r2, #8
 8001e74:	d10a      	bne.n	8001e8c <HAL_RCC_OscConfig+0x60>
 8001e76:	685b      	ldr	r3, [r3, #4]
 8001e78:	0259      	lsls	r1, r3, #9
 8001e7a:	d507      	bpl.n	8001e8c <HAL_RCC_OscConfig+0x60>
 8001e7c:	4ba0      	ldr	r3, [pc, #640]	; (8002100 <HAL_RCC_OscConfig+0x2d4>)
 8001e7e:	681b      	ldr	r3, [r3, #0]
 8001e80:	039a      	lsls	r2, r3, #14
 8001e82:	d5dc      	bpl.n	8001e3e <HAL_RCC_OscConfig+0x12>
 8001e84:	6863      	ldr	r3, [r4, #4]
 8001e86:	2b00      	cmp	r3, #0
 8001e88:	d1d9      	bne.n	8001e3e <HAL_RCC_OscConfig+0x12>
 8001e8a:	e7d3      	b.n	8001e34 <HAL_RCC_OscConfig+0x8>
 8001e8c:	6863      	ldr	r3, [r4, #4]
 8001e8e:	4d9c      	ldr	r5, [pc, #624]	; (8002100 <HAL_RCC_OscConfig+0x2d4>)
 8001e90:	f5b3 3f80 	cmp.w	r3, #65536	; 0x10000
 8001e94:	d113      	bne.n	8001ebe <HAL_RCC_OscConfig+0x92>
 8001e96:	682b      	ldr	r3, [r5, #0]
 8001e98:	f443 3380 	orr.w	r3, r3, #65536	; 0x10000
 8001e9c:	602b      	str	r3, [r5, #0]
 8001e9e:	f7ff fb93 	bl	80015c8 <HAL_GetTick>
 8001ea2:	4d97      	ldr	r5, [pc, #604]	; (8002100 <HAL_RCC_OscConfig+0x2d4>)
 8001ea4:	4606      	mov	r6, r0
 8001ea6:	682b      	ldr	r3, [r5, #0]
 8001ea8:	039b      	lsls	r3, r3, #14
 8001eaa:	d4c8      	bmi.n	8001e3e <HAL_RCC_OscConfig+0x12>
 8001eac:	f7ff fb8c 	bl	80015c8 <HAL_GetTick>
 8001eb0:	1b80      	subs	r0, r0, r6
 8001eb2:	2864      	cmp	r0, #100	; 0x64
 8001eb4:	d9f7      	bls.n	8001ea6 <HAL_RCC_OscConfig+0x7a>
 8001eb6:	2003      	movs	r0, #3
 8001eb8:	b002      	add	sp, #8
 8001eba:	e8bd 81f0 	ldmia.w	sp!, {r4, r5, r6, r7, r8, pc}
 8001ebe:	f5b3 2fa0 	cmp.w	r3, #327680	; 0x50000
 8001ec2:	d104      	bne.n	8001ece <HAL_RCC_OscConfig+0xa2>
 8001ec4:	682b      	ldr	r3, [r5, #0]
 8001ec6:	f443 2380 	orr.w	r3, r3, #262144	; 0x40000
 8001eca:	602b      	str	r3, [r5, #0]
 8001ecc:	e7e3      	b.n	8001e96 <HAL_RCC_OscConfig+0x6a>
 8001ece:	682a      	ldr	r2, [r5, #0]
 8001ed0:	f422 3280 	bic.w	r2, r2, #65536	; 0x10000
 8001ed4:	602a      	str	r2, [r5, #0]
 8001ed6:	682a      	ldr	r2, [r5, #0]
 8001ed8:	f422 2280 	bic.w	r2, r2, #262144	; 0x40000
 8001edc:	602a      	str	r2, [r5, #0]
 8001ede:	2b00      	cmp	r3, #0
 8001ee0:	d1dd      	bne.n	8001e9e <HAL_RCC_OscConfig+0x72>
 8001ee2:	f7ff fb71 	bl	80015c8 <HAL_GetTick>
 8001ee6:	4606      	mov	r6, r0
 8001ee8:	682b      	ldr	r3, [r5, #0]
 8001eea:	039f      	lsls	r7, r3, #14
 8001eec:	d5a7      	bpl.n	8001e3e <HAL_RCC_OscConfig+0x12>
 8001eee:	f7ff fb6b 	bl	80015c8 <HAL_GetTick>
 8001ef2:	1b80      	subs	r0, r0, r6
 8001ef4:	2864      	cmp	r0, #100	; 0x64
 8001ef6:	d9f7      	bls.n	8001ee8 <HAL_RCC_OscConfig+0xbc>
 8001ef8:	e7dd      	b.n	8001eb6 <HAL_RCC_OscConfig+0x8a>
 8001efa:	4b81      	ldr	r3, [pc, #516]	; (8002100 <HAL_RCC_OscConfig+0x2d4>)
 8001efc:	689a      	ldr	r2, [r3, #8]
 8001efe:	f012 0f0c 	tst.w	r2, #12
 8001f02:	d007      	beq.n	8001f14 <HAL_RCC_OscConfig+0xe8>
 8001f04:	689a      	ldr	r2, [r3, #8]
 8001f06:	f002 020c 	and.w	r2, r2, #12
 8001f0a:	2a08      	cmp	r2, #8
 8001f0c:	d111      	bne.n	8001f32 <HAL_RCC_OscConfig+0x106>
 8001f0e:	685b      	ldr	r3, [r3, #4]
 8001f10:	025e      	lsls	r6, r3, #9
 8001f12:	d40e      	bmi.n	8001f32 <HAL_RCC_OscConfig+0x106>
 8001f14:	4b7a      	ldr	r3, [pc, #488]	; (8002100 <HAL_RCC_OscConfig+0x2d4>)
 8001f16:	681a      	ldr	r2, [r3, #0]
 8001f18:	0795      	lsls	r5, r2, #30
 8001f1a:	d502      	bpl.n	8001f22 <HAL_RCC_OscConfig+0xf6>
 8001f1c:	68e2      	ldr	r2, [r4, #12]
 8001f1e:	2a01      	cmp	r2, #1
 8001f20:	d188      	bne.n	8001e34 <HAL_RCC_OscConfig+0x8>
 8001f22:	681a      	ldr	r2, [r3, #0]
 8001f24:	6921      	ldr	r1, [r4, #16]
 8001f26:	f022 02f8 	bic.w	r2, r2, #248	; 0xf8
 8001f2a:	ea42 02c1 	orr.w	r2, r2, r1, lsl #3
 8001f2e:	601a      	str	r2, [r3, #0]
 8001f30:	e788      	b.n	8001e44 <HAL_RCC_OscConfig+0x18>
 8001f32:	68e2      	ldr	r2, [r4, #12]
 8001f34:	4b73      	ldr	r3, [pc, #460]	; (8002104 <HAL_RCC_OscConfig+0x2d8>)
 8001f36:	b1b2      	cbz	r2, 8001f66 <HAL_RCC_OscConfig+0x13a>
 8001f38:	2201      	movs	r2, #1
 8001f3a:	601a      	str	r2, [r3, #0]
 8001f3c:	f7ff fb44 	bl	80015c8 <HAL_GetTick>
 8001f40:	4d6f      	ldr	r5, [pc, #444]	; (8002100 <HAL_RCC_OscConfig+0x2d4>)
 8001f42:	4606      	mov	r6, r0
 8001f44:	682b      	ldr	r3, [r5, #0]
 8001f46:	0798      	lsls	r0, r3, #30
 8001f48:	d507      	bpl.n	8001f5a <HAL_RCC_OscConfig+0x12e>
 8001f4a:	682b      	ldr	r3, [r5, #0]
 8001f4c:	6922      	ldr	r2, [r4, #16]
 8001f4e:	f023 03f8 	bic.w	r3, r3, #248	; 0xf8
 8001f52:	ea43 03c2 	orr.w	r3, r3, r2, lsl #3
 8001f56:	602b      	str	r3, [r5, #0]
 8001f58:	e774      	b.n	8001e44 <HAL_RCC_OscConfig+0x18>
 8001f5a:	f7ff fb35 	bl	80015c8 <HAL_GetTick>
 8001f5e:	1b80      	subs	r0, r0, r6
 8001f60:	2802      	cmp	r0, #2
 8001f62:	d9ef      	bls.n	8001f44 <HAL_RCC_OscConfig+0x118>
 8001f64:	e7a7      	b.n	8001eb6 <HAL_RCC_OscConfig+0x8a>
 8001f66:	601a      	str	r2, [r3, #0]
 8001f68:	f7ff fb2e 	bl	80015c8 <HAL_GetTick>
 8001f6c:	4d64      	ldr	r5, [pc, #400]	; (8002100 <HAL_RCC_OscConfig+0x2d4>)
 8001f6e:	4606      	mov	r6, r0
 8001f70:	682b      	ldr	r3, [r5, #0]
 8001f72:	0799      	lsls	r1, r3, #30
 8001f74:	f57f af66 	bpl.w	8001e44 <HAL_RCC_OscConfig+0x18>
 8001f78:	f7ff fb26 	bl	80015c8 <HAL_GetTick>
 8001f7c:	1b80      	subs	r0, r0, r6
 8001f7e:	2802      	cmp	r0, #2
 8001f80:	d9f6      	bls.n	8001f70 <HAL_RCC_OscConfig+0x144>
 8001f82:	e798      	b.n	8001eb6 <HAL_RCC_OscConfig+0x8a>
 8001f84:	6962      	ldr	r2, [r4, #20]
 8001f86:	4b60      	ldr	r3, [pc, #384]	; (8002108 <HAL_RCC_OscConfig+0x2dc>)
 8001f88:	b17a      	cbz	r2, 8001faa <HAL_RCC_OscConfig+0x17e>
 8001f8a:	2201      	movs	r2, #1
 8001f8c:	601a      	str	r2, [r3, #0]
 8001f8e:	f7ff fb1b 	bl	80015c8 <HAL_GetTick>
 8001f92:	4d5b      	ldr	r5, [pc, #364]	; (8002100 <HAL_RCC_OscConfig+0x2d4>)
 8001f94:	4606      	mov	r6, r0
 8001f96:	6f6b      	ldr	r3, [r5, #116]	; 0x74
 8001f98:	079f      	lsls	r7, r3, #30
 8001f9a:	f53f af57 	bmi.w	8001e4c <HAL_RCC_OscConfig+0x20>
 8001f9e:	f7ff fb13 	bl	80015c8 <HAL_GetTick>
 8001fa2:	1b80      	subs	r0, r0, r6
 8001fa4:	2802      	cmp	r0, #2
 8001fa6:	d9f6      	bls.n	8001f96 <HAL_RCC_OscConfig+0x16a>
 8001fa8:	e785      	b.n	8001eb6 <HAL_RCC_OscConfig+0x8a>
 8001faa:	601a      	str	r2, [r3, #0]
 8001fac:	f7ff fb0c 	bl	80015c8 <HAL_GetTick>
 8001fb0:	4d53      	ldr	r5, [pc, #332]	; (8002100 <HAL_RCC_OscConfig+0x2d4>)
 8001fb2:	4606      	mov	r6, r0
 8001fb4:	6f6b      	ldr	r3, [r5, #116]	; 0x74
 8001fb6:	0798      	lsls	r0, r3, #30
 8001fb8:	f57f af48 	bpl.w	8001e4c <HAL_RCC_OscConfig+0x20>
 8001fbc:	f7ff fb04 	bl	80015c8 <HAL_GetTick>
 8001fc0:	1b80      	subs	r0, r0, r6
 8001fc2:	2802      	cmp	r0, #2
 8001fc4:	d9f6      	bls.n	8001fb4 <HAL_RCC_OscConfig+0x188>
 8001fc6:	e776      	b.n	8001eb6 <HAL_RCC_OscConfig+0x8a>
 8001fc8:	4b4d      	ldr	r3, [pc, #308]	; (8002100 <HAL_RCC_OscConfig+0x2d4>)
 8001fca:	6c1a      	ldr	r2, [r3, #64]	; 0x40
 8001fcc:	f012 5280 	ands.w	r2, r2, #268435456	; 0x10000000
 8001fd0:	d128      	bne.n	8002024 <HAL_RCC_OscConfig+0x1f8>
 8001fd2:	9201      	str	r2, [sp, #4]
 8001fd4:	6c1a      	ldr	r2, [r3, #64]	; 0x40
 8001fd6:	f042 5280 	orr.w	r2, r2, #268435456	; 0x10000000
 8001fda:	641a      	str	r2, [r3, #64]	; 0x40
 8001fdc:	6c1b      	ldr	r3, [r3, #64]	; 0x40
 8001fde:	f003 5380 	and.w	r3, r3, #268435456	; 0x10000000
 8001fe2:	9301      	str	r3, [sp, #4]
 8001fe4:	9b01      	ldr	r3, [sp, #4]
 8001fe6:	2601      	movs	r6, #1
 8001fe8:	4d48      	ldr	r5, [pc, #288]	; (800210c <HAL_RCC_OscConfig+0x2e0>)
 8001fea:	682b      	ldr	r3, [r5, #0]
 8001fec:	05d9      	lsls	r1, r3, #23
 8001fee:	d51b      	bpl.n	8002028 <HAL_RCC_OscConfig+0x1fc>
 8001ff0:	68a3      	ldr	r3, [r4, #8]
 8001ff2:	4d43      	ldr	r5, [pc, #268]	; (8002100 <HAL_RCC_OscConfig+0x2d4>)
 8001ff4:	2b01      	cmp	r3, #1
 8001ff6:	d127      	bne.n	8002048 <HAL_RCC_OscConfig+0x21c>
 8001ff8:	6f2b      	ldr	r3, [r5, #112]	; 0x70
 8001ffa:	f043 0301 	orr.w	r3, r3, #1
 8001ffe:	672b      	str	r3, [r5, #112]	; 0x70
 8002000:	f7ff fae2 	bl	80015c8 <HAL_GetTick>
 8002004:	4d3e      	ldr	r5, [pc, #248]	; (8002100 <HAL_RCC_OscConfig+0x2d4>)
 8002006:	4607      	mov	r7, r0
 8002008:	f241 3888 	movw	r8, #5000	; 0x1388
 800200c:	6f2b      	ldr	r3, [r5, #112]	; 0x70
 800200e:	079b      	lsls	r3, r3, #30
 8002010:	d539      	bpl.n	8002086 <HAL_RCC_OscConfig+0x25a>
 8002012:	2e00      	cmp	r6, #0
 8002014:	f43f af1e 	beq.w	8001e54 <HAL_RCC_OscConfig+0x28>
 8002018:	4a39      	ldr	r2, [pc, #228]	; (8002100 <HAL_RCC_OscConfig+0x2d4>)
 800201a:	6c13      	ldr	r3, [r2, #64]	; 0x40
 800201c:	f023 5380 	bic.w	r3, r3, #268435456	; 0x10000000
 8002020:	6413      	str	r3, [r2, #64]	; 0x40
 8002022:	e717      	b.n	8001e54 <HAL_RCC_OscConfig+0x28>
 8002024:	2600      	movs	r6, #0
 8002026:	e7df      	b.n	8001fe8 <HAL_RCC_OscConfig+0x1bc>
 8002028:	682b      	ldr	r3, [r5, #0]
 800202a:	f443 7380 	orr.w	r3, r3, #256	; 0x100
 800202e:	602b      	str	r3, [r5, #0]
 8002030:	f7ff faca 	bl	80015c8 <HAL_GetTick>
 8002034:	4607      	mov	r7, r0
 8002036:	682b      	ldr	r3, [r5, #0]
 8002038:	05da      	lsls	r2, r3, #23
 800203a:	d4d9      	bmi.n	8001ff0 <HAL_RCC_OscConfig+0x1c4>
 800203c:	f7ff fac4 	bl	80015c8 <HAL_GetTick>
 8002040:	1bc0      	subs	r0, r0, r7
 8002042:	2802      	cmp	r0, #2
 8002044:	d9f7      	bls.n	8002036 <HAL_RCC_OscConfig+0x20a>
 8002046:	e736      	b.n	8001eb6 <HAL_RCC_OscConfig+0x8a>
 8002048:	2b05      	cmp	r3, #5
 800204a:	d104      	bne.n	8002056 <HAL_RCC_OscConfig+0x22a>
 800204c:	6f2b      	ldr	r3, [r5, #112]	; 0x70
 800204e:	f043 0304 	orr.w	r3, r3, #4
 8002052:	672b      	str	r3, [r5, #112]	; 0x70
 8002054:	e7d0      	b.n	8001ff8 <HAL_RCC_OscConfig+0x1cc>
 8002056:	6f2a      	ldr	r2, [r5, #112]	; 0x70
 8002058:	f022 0201 	bic.w	r2, r2, #1
 800205c:	672a      	str	r2, [r5, #112]	; 0x70
 800205e:	6f2a      	ldr	r2, [r5, #112]	; 0x70
 8002060:	f022 0204 	bic.w	r2, r2, #4
 8002064:	672a      	str	r2, [r5, #112]	; 0x70
 8002066:	2b00      	cmp	r3, #0
 8002068:	d1ca      	bne.n	8002000 <HAL_RCC_OscConfig+0x1d4>
 800206a:	f7ff faad 	bl	80015c8 <HAL_GetTick>
 800206e:	f241 3888 	movw	r8, #5000	; 0x1388
 8002072:	4607      	mov	r7, r0
 8002074:	6f2b      	ldr	r3, [r5, #112]	; 0x70
 8002076:	0798      	lsls	r0, r3, #30
 8002078:	d5cb      	bpl.n	8002012 <HAL_RCC_OscConfig+0x1e6>
 800207a:	f7ff faa5 	bl	80015c8 <HAL_GetTick>
 800207e:	1bc0      	subs	r0, r0, r7
 8002080:	4540      	cmp	r0, r8
 8002082:	d9f7      	bls.n	8002074 <HAL_RCC_OscConfig+0x248>
 8002084:	e717      	b.n	8001eb6 <HAL_RCC_OscConfig+0x8a>
 8002086:	f7ff fa9f 	bl	80015c8 <HAL_GetTick>
 800208a:	1bc0      	subs	r0, r0, r7
 800208c:	4540      	cmp	r0, r8
 800208e:	d9bd      	bls.n	800200c <HAL_RCC_OscConfig+0x1e0>
 8002090:	e711      	b.n	8001eb6 <HAL_RCC_OscConfig+0x8a>
 8002092:	4d1b      	ldr	r5, [pc, #108]	; (8002100 <HAL_RCC_OscConfig+0x2d4>)
 8002094:	68ab      	ldr	r3, [r5, #8]
 8002096:	f003 030c 	and.w	r3, r3, #12
 800209a:	2b08      	cmp	r3, #8
 800209c:	d047      	beq.n	800212e <HAL_RCC_OscConfig+0x302>
 800209e:	4e1c      	ldr	r6, [pc, #112]	; (8002110 <HAL_RCC_OscConfig+0x2e4>)
 80020a0:	2300      	movs	r3, #0
 80020a2:	2802      	cmp	r0, #2
 80020a4:	6033      	str	r3, [r6, #0]
 80020a6:	d135      	bne.n	8002114 <HAL_RCC_OscConfig+0x2e8>
 80020a8:	f7ff fa8e 	bl	80015c8 <HAL_GetTick>
 80020ac:	4607      	mov	r7, r0
 80020ae:	682b      	ldr	r3, [r5, #0]
 80020b0:	0199      	lsls	r1, r3, #6
 80020b2:	d41e      	bmi.n	80020f2 <HAL_RCC_OscConfig+0x2c6>
 80020b4:	e9d4 3207 	ldrd	r3, r2, [r4, #28]
 80020b8:	4313      	orrs	r3, r2
 80020ba:	6a62      	ldr	r2, [r4, #36]	; 0x24
 80020bc:	ea43 1382 	orr.w	r3, r3, r2, lsl #6
 80020c0:	6ae2      	ldr	r2, [r4, #44]	; 0x2c
 80020c2:	ea43 6302 	orr.w	r3, r3, r2, lsl #24
 80020c6:	6aa2      	ldr	r2, [r4, #40]	; 0x28
 80020c8:	4c0d      	ldr	r4, [pc, #52]	; (8002100 <HAL_RCC_OscConfig+0x2d4>)
 80020ca:	0852      	lsrs	r2, r2, #1
 80020cc:	3a01      	subs	r2, #1
 80020ce:	ea43 4302 	orr.w	r3, r3, r2, lsl #16
 80020d2:	606b      	str	r3, [r5, #4]
 80020d4:	2301      	movs	r3, #1
 80020d6:	6033      	str	r3, [r6, #0]
 80020d8:	f7ff fa76 	bl	80015c8 <HAL_GetTick>
 80020dc:	4605      	mov	r5, r0
 80020de:	6823      	ldr	r3, [r4, #0]
 80020e0:	019a      	lsls	r2, r3, #6
 80020e2:	f53f aebb 	bmi.w	8001e5c <HAL_RCC_OscConfig+0x30>
 80020e6:	f7ff fa6f 	bl	80015c8 <HAL_GetTick>
 80020ea:	1b40      	subs	r0, r0, r5
 80020ec:	2802      	cmp	r0, #2
 80020ee:	d9f6      	bls.n	80020de <HAL_RCC_OscConfig+0x2b2>
 80020f0:	e6e1      	b.n	8001eb6 <HAL_RCC_OscConfig+0x8a>
 80020f2:	f7ff fa69 	bl	80015c8 <HAL_GetTick>
 80020f6:	1bc0      	subs	r0, r0, r7
 80020f8:	2802      	cmp	r0, #2
 80020fa:	d9d8      	bls.n	80020ae <HAL_RCC_OscConfig+0x282>
 80020fc:	e6db      	b.n	8001eb6 <HAL_RCC_OscConfig+0x8a>
 80020fe:	bf00      	nop
 8002100:	40023800 	.word	0x40023800
 8002104:	42470000 	.word	0x42470000
 8002108:	42470e80 	.word	0x42470e80
 800210c:	40007000 	.word	0x40007000
 8002110:	42470060 	.word	0x42470060
 8002114:	f7ff fa58 	bl	80015c8 <HAL_GetTick>
 8002118:	4604      	mov	r4, r0
 800211a:	682b      	ldr	r3, [r5, #0]
 800211c:	019b      	lsls	r3, r3, #6
 800211e:	f57f ae9d 	bpl.w	8001e5c <HAL_RCC_OscConfig+0x30>
 8002122:	f7ff fa51 	bl	80015c8 <HAL_GetTick>
 8002126:	1b00      	subs	r0, r0, r4
 8002128:	2802      	cmp	r0, #2
 800212a:	d9f6      	bls.n	800211a <HAL_RCC_OscConfig+0x2ee>
 800212c:	e6c3      	b.n	8001eb6 <HAL_RCC_OscConfig+0x8a>
 800212e:	2801      	cmp	r0, #1
 8002130:	f43f aec2 	beq.w	8001eb8 <HAL_RCC_OscConfig+0x8c>
 8002134:	6868      	ldr	r0, [r5, #4]
 8002136:	69e3      	ldr	r3, [r4, #28]
 8002138:	f400 0280 	and.w	r2, r0, #4194304	; 0x400000
 800213c:	429a      	cmp	r2, r3
 800213e:	f47f ae79 	bne.w	8001e34 <HAL_RCC_OscConfig+0x8>
 8002142:	6a22      	ldr	r2, [r4, #32]
 8002144:	f000 033f 	and.w	r3, r0, #63	; 0x3f
 8002148:	4293      	cmp	r3, r2
 800214a:	f47f ae73 	bne.w	8001e34 <HAL_RCC_OscConfig+0x8>
 800214e:	6a62      	ldr	r2, [r4, #36]	; 0x24
 8002150:	f647 73c0 	movw	r3, #32704	; 0x7fc0
 8002154:	4003      	ands	r3, r0
 8002156:	4293      	cmp	r3, r2
 8002158:	f47f ae6c 	bne.w	8001e34 <HAL_RCC_OscConfig+0x8>
 800215c:	6aa2      	ldr	r2, [r4, #40]	; 0x28
 800215e:	f400 3340 	and.w	r3, r0, #196608	; 0x30000
 8002162:	4293      	cmp	r3, r2
 8002164:	f47f ae66 	bne.w	8001e34 <HAL_RCC_OscConfig+0x8>
 8002168:	6ae3      	ldr	r3, [r4, #44]	; 0x2c
 800216a:	f000 6070 	and.w	r0, r0, #251658240	; 0xf000000
 800216e:	1ac0      	subs	r0, r0, r3
 8002170:	bf18      	it	ne
 8002172:	2001      	movne	r0, #1
 8002174:	e6a0      	b.n	8001eb8 <HAL_RCC_OscConfig+0x8c>
 8002176:	bf00      	nop

08002178 <HAL_RCC_GetSysClockFreq>:
 8002178:	4913      	ldr	r1, [pc, #76]	; (80021c8 <HAL_RCC_GetSysClockFreq+0x50>)
 800217a:	b508      	push	{r3, lr}
 800217c:	688b      	ldr	r3, [r1, #8]
 800217e:	f003 030c 	and.w	r3, r3, #12
 8002182:	2b04      	cmp	r3, #4
 8002184:	d003      	beq.n	800218e <HAL_RCC_GetSysClockFreq+0x16>
 8002186:	2b08      	cmp	r3, #8
 8002188:	d003      	beq.n	8002192 <HAL_RCC_GetSysClockFreq+0x1a>
 800218a:	4810      	ldr	r0, [pc, #64]	; (80021cc <HAL_RCC_GetSysClockFreq+0x54>)
 800218c:	e000      	b.n	8002190 <HAL_RCC_GetSysClockFreq+0x18>
 800218e:	4810      	ldr	r0, [pc, #64]	; (80021d0 <HAL_RCC_GetSysClockFreq+0x58>)
 8002190:	bd08      	pop	{r3, pc}
 8002192:	684a      	ldr	r2, [r1, #4]
 8002194:	684b      	ldr	r3, [r1, #4]
 8002196:	6849      	ldr	r1, [r1, #4]
 8002198:	f413 0380 	ands.w	r3, r3, #4194304	; 0x400000
 800219c:	bf14      	ite	ne
 800219e:	480c      	ldrne	r0, [pc, #48]	; (80021d0 <HAL_RCC_GetSysClockFreq+0x58>)
 80021a0:	480a      	ldreq	r0, [pc, #40]	; (80021cc <HAL_RCC_GetSysClockFreq+0x54>)
 80021a2:	f3c1 1188 	ubfx	r1, r1, #6, #9
 80021a6:	bf18      	it	ne
 80021a8:	2300      	movne	r3, #0
 80021aa:	f002 023f 	and.w	r2, r2, #63	; 0x3f
 80021ae:	fba1 0100 	umull	r0, r1, r1, r0
 80021b2:	f7fe fbff 	bl	80009b4 <__aeabi_uldivmod>
 80021b6:	4b04      	ldr	r3, [pc, #16]	; (80021c8 <HAL_RCC_GetSysClockFreq+0x50>)
 80021b8:	685b      	ldr	r3, [r3, #4]
 80021ba:	f3c3 4301 	ubfx	r3, r3, #16, #2
 80021be:	3301      	adds	r3, #1
 80021c0:	005b      	lsls	r3, r3, #1
 80021c2:	fbb0 f0f3 	udiv	r0, r0, r3
 80021c6:	e7e3      	b.n	8002190 <HAL_RCC_GetSysClockFreq+0x18>
 80021c8:	40023800 	.word	0x40023800
 80021cc:	00f42400 	.word	0x00f42400
 80021d0:	007a1200 	.word	0x007a1200

080021d4 <HAL_RCC_ClockConfig>:
 80021d4:	e92d 41f0 	stmdb	sp!, {r4, r5, r6, r7, r8, lr}
 80021d8:	460d      	mov	r5, r1
 80021da:	4604      	mov	r4, r0
 80021dc:	b910      	cbnz	r0, 80021e4 <HAL_RCC_ClockConfig+0x10>
 80021de:	2001      	movs	r0, #1
 80021e0:	e8bd 81f0 	ldmia.w	sp!, {r4, r5, r6, r7, r8, pc}
 80021e4:	4b43      	ldr	r3, [pc, #268]	; (80022f4 <HAL_RCC_ClockConfig+0x120>)
 80021e6:	681a      	ldr	r2, [r3, #0]
 80021e8:	f002 020f 	and.w	r2, r2, #15
 80021ec:	428a      	cmp	r2, r1
 80021ee:	d328      	bcc.n	8002242 <HAL_RCC_ClockConfig+0x6e>
 80021f0:	6821      	ldr	r1, [r4, #0]
 80021f2:	078f      	lsls	r7, r1, #30
 80021f4:	d42d      	bmi.n	8002252 <HAL_RCC_ClockConfig+0x7e>
 80021f6:	07c8      	lsls	r0, r1, #31
 80021f8:	d440      	bmi.n	800227c <HAL_RCC_ClockConfig+0xa8>
 80021fa:	4b3e      	ldr	r3, [pc, #248]	; (80022f4 <HAL_RCC_ClockConfig+0x120>)
 80021fc:	681a      	ldr	r2, [r3, #0]
 80021fe:	f002 020f 	and.w	r2, r2, #15
 8002202:	42aa      	cmp	r2, r5
 8002204:	d865      	bhi.n	80022d2 <HAL_RCC_ClockConfig+0xfe>
 8002206:	6822      	ldr	r2, [r4, #0]
 8002208:	0751      	lsls	r1, r2, #29
 800220a:	d46b      	bmi.n	80022e4 <HAL_RCC_ClockConfig+0x110>
 800220c:	0713      	lsls	r3, r2, #28
 800220e:	d507      	bpl.n	8002220 <HAL_RCC_ClockConfig+0x4c>
 8002210:	4a39      	ldr	r2, [pc, #228]	; (80022f8 <HAL_RCC_ClockConfig+0x124>)
 8002212:	6921      	ldr	r1, [r4, #16]
 8002214:	6893      	ldr	r3, [r2, #8]
 8002216:	f423 4360 	bic.w	r3, r3, #57344	; 0xe000
 800221a:	ea43 03c1 	orr.w	r3, r3, r1, lsl #3
 800221e:	6093      	str	r3, [r2, #8]
 8002220:	f7ff ffaa 	bl	8002178 <HAL_RCC_GetSysClockFreq>
 8002224:	4b34      	ldr	r3, [pc, #208]	; (80022f8 <HAL_RCC_ClockConfig+0x124>)
 8002226:	4a35      	ldr	r2, [pc, #212]	; (80022fc <HAL_RCC_ClockConfig+0x128>)
 8002228:	689b      	ldr	r3, [r3, #8]
 800222a:	f3c3 1303 	ubfx	r3, r3, #4, #4
 800222e:	5cd3      	ldrb	r3, [r2, r3]
 8002230:	40d8      	lsrs	r0, r3
 8002232:	4b33      	ldr	r3, [pc, #204]	; (8002300 <HAL_RCC_ClockConfig+0x12c>)
 8002234:	6018      	str	r0, [r3, #0]
 8002236:	4b33      	ldr	r3, [pc, #204]	; (8002304 <HAL_RCC_ClockConfig+0x130>)
 8002238:	6818      	ldr	r0, [r3, #0]
 800223a:	f7ff f97b 	bl	8001534 <HAL_InitTick>
 800223e:	2000      	movs	r0, #0
 8002240:	e7ce      	b.n	80021e0 <HAL_RCC_ClockConfig+0xc>
 8002242:	b2ca      	uxtb	r2, r1
 8002244:	701a      	strb	r2, [r3, #0]
 8002246:	681b      	ldr	r3, [r3, #0]
 8002248:	f003 030f 	and.w	r3, r3, #15
 800224c:	428b      	cmp	r3, r1
 800224e:	d1c6      	bne.n	80021de <HAL_RCC_ClockConfig+0xa>
 8002250:	e7ce      	b.n	80021f0 <HAL_RCC_ClockConfig+0x1c>
 8002252:	4b29      	ldr	r3, [pc, #164]	; (80022f8 <HAL_RCC_ClockConfig+0x124>)
 8002254:	f011 0f04 	tst.w	r1, #4
 8002258:	bf1e      	ittt	ne
 800225a:	689a      	ldrne	r2, [r3, #8]
 800225c:	f442 52e0 	orrne.w	r2, r2, #7168	; 0x1c00
 8002260:	609a      	strne	r2, [r3, #8]
 8002262:	070e      	lsls	r6, r1, #28
 8002264:	bf42      	ittt	mi
 8002266:	689a      	ldrmi	r2, [r3, #8]
 8002268:	f442 4260 	orrmi.w	r2, r2, #57344	; 0xe000
 800226c:	609a      	strmi	r2, [r3, #8]
 800226e:	689a      	ldr	r2, [r3, #8]
 8002270:	68a0      	ldr	r0, [r4, #8]
 8002272:	f022 02f0 	bic.w	r2, r2, #240	; 0xf0
 8002276:	4302      	orrs	r2, r0
 8002278:	609a      	str	r2, [r3, #8]
 800227a:	e7bc      	b.n	80021f6 <HAL_RCC_ClockConfig+0x22>
 800227c:	6862      	ldr	r2, [r4, #4]
 800227e:	4b1e      	ldr	r3, [pc, #120]	; (80022f8 <HAL_RCC_ClockConfig+0x124>)
 8002280:	2a01      	cmp	r2, #1
 8002282:	d11c      	bne.n	80022be <HAL_RCC_ClockConfig+0xea>
 8002284:	681b      	ldr	r3, [r3, #0]
 8002286:	f413 3f00 	tst.w	r3, #131072	; 0x20000
 800228a:	d0a8      	beq.n	80021de <HAL_RCC_ClockConfig+0xa>
 800228c:	4e1a      	ldr	r6, [pc, #104]	; (80022f8 <HAL_RCC_ClockConfig+0x124>)
 800228e:	68b3      	ldr	r3, [r6, #8]
 8002290:	f023 0303 	bic.w	r3, r3, #3
 8002294:	4313      	orrs	r3, r2
 8002296:	60b3      	str	r3, [r6, #8]
 8002298:	f7ff f996 	bl	80015c8 <HAL_GetTick>
 800229c:	f241 3888 	movw	r8, #5000	; 0x1388
 80022a0:	4607      	mov	r7, r0
 80022a2:	68b3      	ldr	r3, [r6, #8]
 80022a4:	6862      	ldr	r2, [r4, #4]
 80022a6:	f003 030c 	and.w	r3, r3, #12
 80022aa:	ebb3 0f82 	cmp.w	r3, r2, lsl #2
 80022ae:	d0a4      	beq.n	80021fa <HAL_RCC_ClockConfig+0x26>
 80022b0:	f7ff f98a 	bl	80015c8 <HAL_GetTick>
 80022b4:	1bc0      	subs	r0, r0, r7
 80022b6:	4540      	cmp	r0, r8
 80022b8:	d9f3      	bls.n	80022a2 <HAL_RCC_ClockConfig+0xce>
 80022ba:	2003      	movs	r0, #3
 80022bc:	e790      	b.n	80021e0 <HAL_RCC_ClockConfig+0xc>
 80022be:	1e91      	subs	r1, r2, #2
 80022c0:	2901      	cmp	r1, #1
 80022c2:	681b      	ldr	r3, [r3, #0]
 80022c4:	d802      	bhi.n	80022cc <HAL_RCC_ClockConfig+0xf8>
 80022c6:	f013 7f00 	tst.w	r3, #33554432	; 0x2000000
 80022ca:	e7de      	b.n	800228a <HAL_RCC_ClockConfig+0xb6>
 80022cc:	f013 0f02 	tst.w	r3, #2
 80022d0:	e7db      	b.n	800228a <HAL_RCC_ClockConfig+0xb6>
 80022d2:	b2ea      	uxtb	r2, r5
 80022d4:	701a      	strb	r2, [r3, #0]
 80022d6:	681b      	ldr	r3, [r3, #0]
 80022d8:	f003 030f 	and.w	r3, r3, #15
 80022dc:	42ab      	cmp	r3, r5
 80022de:	f47f af7e 	bne.w	80021de <HAL_RCC_ClockConfig+0xa>
 80022e2:	e790      	b.n	8002206 <HAL_RCC_ClockConfig+0x32>
 80022e4:	4904      	ldr	r1, [pc, #16]	; (80022f8 <HAL_RCC_ClockConfig+0x124>)
 80022e6:	68e0      	ldr	r0, [r4, #12]
 80022e8:	688b      	ldr	r3, [r1, #8]
 80022ea:	f423 53e0 	bic.w	r3, r3, #7168	; 0x1c00
 80022ee:	4303      	orrs	r3, r0
 80022f0:	608b      	str	r3, [r1, #8]
 80022f2:	e78b      	b.n	800220c <HAL_RCC_ClockConfig+0x38>
 80022f4:	40023c00 	.word	0x40023c00
 80022f8:	40023800 	.word	0x40023800
 80022fc:	08002378 	.word	0x08002378
 8002300:	20000020 	.word	0x20000020
 8002304:	20000028 	.word	0x20000028

08002308 <__libc_init_array>:
 8002308:	b570      	push	{r4, r5, r6, lr}
 800230a:	4e0d      	ldr	r6, [pc, #52]	; (8002340 <__libc_init_array+0x38>)
 800230c:	4c0d      	ldr	r4, [pc, #52]	; (8002344 <__libc_init_array+0x3c>)
 800230e:	1ba4      	subs	r4, r4, r6
 8002310:	10a4      	asrs	r4, r4, #2
 8002312:	2500      	movs	r5, #0
 8002314:	42a5      	cmp	r5, r4
 8002316:	d109      	bne.n	800232c <__libc_init_array+0x24>
 8002318:	4e0b      	ldr	r6, [pc, #44]	; (8002348 <__libc_init_array+0x40>)
 800231a:	4c0c      	ldr	r4, [pc, #48]	; (800234c <__libc_init_array+0x44>)
 800231c:	f000 f820 	bl	8002360 <_init>
 8002320:	1ba4      	subs	r4, r4, r6
 8002322:	10a4      	asrs	r4, r4, #2
 8002324:	2500      	movs	r5, #0
 8002326:	42a5      	cmp	r5, r4
 8002328:	d105      	bne.n	8002336 <__libc_init_array+0x2e>
 800232a:	bd70      	pop	{r4, r5, r6, pc}
 800232c:	f856 3025 	ldr.w	r3, [r6, r5, lsl #2]
 8002330:	4798      	blx	r3
 8002332:	3501      	adds	r5, #1
 8002334:	e7ee      	b.n	8002314 <__libc_init_array+0xc>
 8002336:	f856 3025 	ldr.w	r3, [r6, r5, lsl #2]
 800233a:	4798      	blx	r3
 800233c:	3501      	adds	r5, #1
 800233e:	e7f2      	b.n	8002326 <__libc_init_array+0x1e>
 8002340:	08002390 	.word	0x08002390
 8002344:	08002390 	.word	0x08002390
 8002348:	08002390 	.word	0x08002390
 800234c:	08002394 	.word	0x08002394

08002350 <memset>:
 8002350:	4402      	add	r2, r0
 8002352:	4603      	mov	r3, r0
 8002354:	4293      	cmp	r3, r2
 8002356:	d100      	bne.n	800235a <memset+0xa>
 8002358:	4770      	bx	lr
 800235a:	f803 1b01 	strb.w	r1, [r3], #1
 800235e:	e7f9      	b.n	8002354 <memset+0x4>

08002360 <_init>:
 8002360:	b5f8      	push	{r3, r4, r5, r6, r7, lr}
 8002362:	bf00      	nop
 8002364:	bcf8      	pop	{r3, r4, r5, r6, r7}
 8002366:	bc08      	pop	{r3}
 8002368:	469e      	mov	lr, r3
 800236a:	4770      	bx	lr

0800236c <_fini>:
 800236c:	b5f8      	push	{r3, r4, r5, r6, r7, lr}
 800236e:	bf00      	nop
 8002370:	bcf8      	pop	{r3, r4, r5, r6, r7}
 8002372:	bc08      	pop	{r3}
 8002374:	469e      	mov	lr, r3
 8002376:	4770      	bx	lr
