
Luces2.elf:     file format elf32-littlearm

Sections:
Idx Name          Size      VMA       LMA       File off  Algn
  0 .isr_vector   00000188  08000000  08000000  00010000  2**0
                  CONTENTS, ALLOC, LOAD, READONLY, DATA
  1 .text         000032a0  08000188  08000188  00010188  2**3
                  CONTENTS, ALLOC, LOAD, READONLY, CODE
  2 .rodata       00000010  08003428  08003428  00013428  2**2
                  CONTENTS, ALLOC, LOAD, READONLY, DATA
  3 .ARM.extab    00000000  08003438  08003438  0002002c  2**0
                  CONTENTS
  4 .ARM          00000008  08003438  08003438  00013438  2**2
                  CONTENTS, ALLOC, LOAD, READONLY, DATA
  5 .preinit_array 00000000  08003440  08003440  0002002c  2**0
                  CONTENTS, ALLOC, LOAD, DATA
  6 .init_array   00000004  08003440  08003440  00013440  2**2
                  CONTENTS, ALLOC, LOAD, DATA
  7 .fini_array   00000004  08003444  08003444  00013444  2**2
                  CONTENTS, ALLOC, LOAD, DATA
  8 .data         0000002c  20000000  08003448  00020000  2**2
                  CONTENTS, ALLOC, LOAD, DATA
  9 .bss          000000b0  2000002c  08003474  0002002c  2**2
                  ALLOC
 10 ._user_heap_stack 00000604  200000dc  08003474  000200dc  2**0
                  ALLOC
 11 .ARM.attributes 00000030  00000000  00000000  0002002c  2**0
                  CONTENTS, READONLY
 12 .debug_info   000076d3  00000000  00000000  0002005c  2**0
                  CONTENTS, READONLY, DEBUGGING
 13 .debug_abbrev 0000175e  00000000  00000000  0002772f  2**0
                  CONTENTS, READONLY, DEBUGGING
 14 .debug_aranges 00000740  00000000  00000000  00028e90  2**3
                  CONTENTS, READONLY, DEBUGGING
 15 .debug_ranges 00000678  00000000  00000000  000295d0  2**3
                  CONTENTS, READONLY, DEBUGGING
 16 .debug_macro  000201f9  00000000  00000000  00029c48  2**0
                  CONTENTS, READONLY, DEBUGGING
 17 .debug_line   00007eb9  00000000  00000000  00049e41  2**0
                  CONTENTS, READONLY, DEBUGGING
 18 .debug_str    000c3b4f  00000000  00000000  00051cfa  2**0
                  CONTENTS, READONLY, DEBUGGING
 19 .comment      0000007b  00000000  00000000  00115849  2**0
                  CONTENTS, READONLY
 20 .debug_frame  00001ca0  00000000  00000000  001158c4  2**2
                  CONTENTS, READONLY, DEBUGGING

Disassembly of section .text:

08000188 <__do_global_dtors_aux>:
 8000188:	b510      	push	{r4, lr}
 800018a:	4c05      	ldr	r4, [pc, #20]	; (80001a0 <__do_global_dtors_aux+0x18>)
 800018c:	7823      	ldrb	r3, [r4, #0]
 800018e:	b933      	cbnz	r3, 800019e <__do_global_dtors_aux+0x16>
 8000190:	4b04      	ldr	r3, [pc, #16]	; (80001a4 <__do_global_dtors_aux+0x1c>)
 8000192:	b113      	cbz	r3, 800019a <__do_global_dtors_aux+0x12>
 8000194:	4804      	ldr	r0, [pc, #16]	; (80001a8 <__do_global_dtors_aux+0x20>)
 8000196:	f3af 8000 	nop.w
 800019a:	2301      	movs	r3, #1
 800019c:	7023      	strb	r3, [r4, #0]
 800019e:	bd10      	pop	{r4, pc}
 80001a0:	2000002c 	.word	0x2000002c
 80001a4:	00000000 	.word	0x00000000
 80001a8:	08003410 	.word	0x08003410

080001ac <frame_dummy>:
 80001ac:	b508      	push	{r3, lr}
 80001ae:	4b03      	ldr	r3, [pc, #12]	; (80001bc <frame_dummy+0x10>)
 80001b0:	b11b      	cbz	r3, 80001ba <frame_dummy+0xe>
 80001b2:	4903      	ldr	r1, [pc, #12]	; (80001c0 <frame_dummy+0x14>)
 80001b4:	4803      	ldr	r0, [pc, #12]	; (80001c4 <frame_dummy+0x18>)
 80001b6:	f3af 8000 	nop.w
 80001ba:	bd08      	pop	{r3, pc}
 80001bc:	00000000 	.word	0x00000000
 80001c0:	20000030 	.word	0x20000030
 80001c4:	08003410 	.word	0x08003410

080001c8 <__aeabi_drsub>:
 80001c8:	f081 4100 	eor.w	r1, r1, #2147483648	; 0x80000000
 80001cc:	e002      	b.n	80001d4 <__adddf3>
 80001ce:	bf00      	nop

080001d0 <__aeabi_dsub>:
 80001d0:	f083 4300 	eor.w	r3, r3, #2147483648	; 0x80000000

080001d4 <__adddf3>:
 80001d4:	b530      	push	{r4, r5, lr}
 80001d6:	ea4f 0441 	mov.w	r4, r1, lsl #1
 80001da:	ea4f 0543 	mov.w	r5, r3, lsl #1
 80001de:	ea94 0f05 	teq	r4, r5
 80001e2:	bf08      	it	eq
 80001e4:	ea90 0f02 	teqeq	r0, r2
 80001e8:	bf1f      	itttt	ne
 80001ea:	ea54 0c00 	orrsne.w	ip, r4, r0
 80001ee:	ea55 0c02 	orrsne.w	ip, r5, r2
 80001f2:	ea7f 5c64 	mvnsne.w	ip, r4, asr #21
 80001f6:	ea7f 5c65 	mvnsne.w	ip, r5, asr #21
 80001fa:	f000 80e2 	beq.w	80003c2 <__adddf3+0x1ee>
 80001fe:	ea4f 5454 	mov.w	r4, r4, lsr #21
 8000202:	ebd4 5555 	rsbs	r5, r4, r5, lsr #21
 8000206:	bfb8      	it	lt
 8000208:	426d      	neglt	r5, r5
 800020a:	dd0c      	ble.n	8000226 <__adddf3+0x52>
 800020c:	442c      	add	r4, r5
 800020e:	ea80 0202 	eor.w	r2, r0, r2
 8000212:	ea81 0303 	eor.w	r3, r1, r3
 8000216:	ea82 0000 	eor.w	r0, r2, r0
 800021a:	ea83 0101 	eor.w	r1, r3, r1
 800021e:	ea80 0202 	eor.w	r2, r0, r2
 8000222:	ea81 0303 	eor.w	r3, r1, r3
 8000226:	2d36      	cmp	r5, #54	; 0x36
 8000228:	bf88      	it	hi
 800022a:	bd30      	pophi	{r4, r5, pc}
 800022c:	f011 4f00 	tst.w	r1, #2147483648	; 0x80000000
 8000230:	ea4f 3101 	mov.w	r1, r1, lsl #12
 8000234:	f44f 1c80 	mov.w	ip, #1048576	; 0x100000
 8000238:	ea4c 3111 	orr.w	r1, ip, r1, lsr #12
 800023c:	d002      	beq.n	8000244 <__adddf3+0x70>
 800023e:	4240      	negs	r0, r0
 8000240:	eb61 0141 	sbc.w	r1, r1, r1, lsl #1
 8000244:	f013 4f00 	tst.w	r3, #2147483648	; 0x80000000
 8000248:	ea4f 3303 	mov.w	r3, r3, lsl #12
 800024c:	ea4c 3313 	orr.w	r3, ip, r3, lsr #12
 8000250:	d002      	beq.n	8000258 <__adddf3+0x84>
 8000252:	4252      	negs	r2, r2
 8000254:	eb63 0343 	sbc.w	r3, r3, r3, lsl #1
 8000258:	ea94 0f05 	teq	r4, r5
 800025c:	f000 80a7 	beq.w	80003ae <__adddf3+0x1da>
 8000260:	f1a4 0401 	sub.w	r4, r4, #1
 8000264:	f1d5 0e20 	rsbs	lr, r5, #32
 8000268:	db0d      	blt.n	8000286 <__adddf3+0xb2>
 800026a:	fa02 fc0e 	lsl.w	ip, r2, lr
 800026e:	fa22 f205 	lsr.w	r2, r2, r5
 8000272:	1880      	adds	r0, r0, r2
 8000274:	f141 0100 	adc.w	r1, r1, #0
 8000278:	fa03 f20e 	lsl.w	r2, r3, lr
 800027c:	1880      	adds	r0, r0, r2
 800027e:	fa43 f305 	asr.w	r3, r3, r5
 8000282:	4159      	adcs	r1, r3
 8000284:	e00e      	b.n	80002a4 <__adddf3+0xd0>
 8000286:	f1a5 0520 	sub.w	r5, r5, #32
 800028a:	f10e 0e20 	add.w	lr, lr, #32
 800028e:	2a01      	cmp	r2, #1
 8000290:	fa03 fc0e 	lsl.w	ip, r3, lr
 8000294:	bf28      	it	cs
 8000296:	f04c 0c02 	orrcs.w	ip, ip, #2
 800029a:	fa43 f305 	asr.w	r3, r3, r5
 800029e:	18c0      	adds	r0, r0, r3
 80002a0:	eb51 71e3 	adcs.w	r1, r1, r3, asr #31
 80002a4:	f001 4500 	and.w	r5, r1, #2147483648	; 0x80000000
 80002a8:	d507      	bpl.n	80002ba <__adddf3+0xe6>
 80002aa:	f04f 0e00 	mov.w	lr, #0
 80002ae:	f1dc 0c00 	rsbs	ip, ip, #0
 80002b2:	eb7e 0000 	sbcs.w	r0, lr, r0
 80002b6:	eb6e 0101 	sbc.w	r1, lr, r1
 80002ba:	f5b1 1f80 	cmp.w	r1, #1048576	; 0x100000
 80002be:	d31b      	bcc.n	80002f8 <__adddf3+0x124>
 80002c0:	f5b1 1f00 	cmp.w	r1, #2097152	; 0x200000
 80002c4:	d30c      	bcc.n	80002e0 <__adddf3+0x10c>
 80002c6:	0849      	lsrs	r1, r1, #1
 80002c8:	ea5f 0030 	movs.w	r0, r0, rrx
 80002cc:	ea4f 0c3c 	mov.w	ip, ip, rrx
 80002d0:	f104 0401 	add.w	r4, r4, #1
 80002d4:	ea4f 5244 	mov.w	r2, r4, lsl #21
 80002d8:	f512 0f80 	cmn.w	r2, #4194304	; 0x400000
 80002dc:	f080 809a 	bcs.w	8000414 <__adddf3+0x240>
 80002e0:	f1bc 4f00 	cmp.w	ip, #2147483648	; 0x80000000
 80002e4:	bf08      	it	eq
 80002e6:	ea5f 0c50 	movseq.w	ip, r0, lsr #1
 80002ea:	f150 0000 	adcs.w	r0, r0, #0
 80002ee:	eb41 5104 	adc.w	r1, r1, r4, lsl #20
 80002f2:	ea41 0105 	orr.w	r1, r1, r5
 80002f6:	bd30      	pop	{r4, r5, pc}
 80002f8:	ea5f 0c4c 	movs.w	ip, ip, lsl #1
 80002fc:	4140      	adcs	r0, r0
 80002fe:	eb41 0101 	adc.w	r1, r1, r1
 8000302:	f411 1f80 	tst.w	r1, #1048576	; 0x100000
 8000306:	f1a4 0401 	sub.w	r4, r4, #1
 800030a:	d1e9      	bne.n	80002e0 <__adddf3+0x10c>
 800030c:	f091 0f00 	teq	r1, #0
 8000310:	bf04      	itt	eq
 8000312:	4601      	moveq	r1, r0
 8000314:	2000      	moveq	r0, #0
 8000316:	fab1 f381 	clz	r3, r1
 800031a:	bf08      	it	eq
 800031c:	3320      	addeq	r3, #32
 800031e:	f1a3 030b 	sub.w	r3, r3, #11
 8000322:	f1b3 0220 	subs.w	r2, r3, #32
 8000326:	da0c      	bge.n	8000342 <__adddf3+0x16e>
 8000328:	320c      	adds	r2, #12
 800032a:	dd08      	ble.n	800033e <__adddf3+0x16a>
 800032c:	f102 0c14 	add.w	ip, r2, #20
 8000330:	f1c2 020c 	rsb	r2, r2, #12
 8000334:	fa01 f00c 	lsl.w	r0, r1, ip
 8000338:	fa21 f102 	lsr.w	r1, r1, r2
 800033c:	e00c      	b.n	8000358 <__adddf3+0x184>
 800033e:	f102 0214 	add.w	r2, r2, #20
 8000342:	bfd8      	it	le
 8000344:	f1c2 0c20 	rsble	ip, r2, #32
 8000348:	fa01 f102 	lsl.w	r1, r1, r2
 800034c:	fa20 fc0c 	lsr.w	ip, r0, ip
 8000350:	bfdc      	itt	le
 8000352:	ea41 010c 	orrle.w	r1, r1, ip
 8000356:	4090      	lslle	r0, r2
 8000358:	1ae4      	subs	r4, r4, r3
 800035a:	bfa2      	ittt	ge
 800035c:	eb01 5104 	addge.w	r1, r1, r4, lsl #20
 8000360:	4329      	orrge	r1, r5
 8000362:	bd30      	popge	{r4, r5, pc}
 8000364:	ea6f 0404 	mvn.w	r4, r4
 8000368:	3c1f      	subs	r4, #31
 800036a:	da1c      	bge.n	80003a6 <__adddf3+0x1d2>
 800036c:	340c      	adds	r4, #12
 800036e:	dc0e      	bgt.n	800038e <__adddf3+0x1ba>
 8000370:	f104 0414 	add.w	r4, r4, #20
 8000374:	f1c4 0220 	rsb	r2, r4, #32
 8000378:	fa20 f004 	lsr.w	r0, r0, r4
 800037c:	fa01 f302 	lsl.w	r3, r1, r2
 8000380:	ea40 0003 	orr.w	r0, r0, r3
 8000384:	fa21 f304 	lsr.w	r3, r1, r4
 8000388:	ea45 0103 	orr.w	r1, r5, r3
 800038c:	bd30      	pop	{r4, r5, pc}
 800038e:	f1c4 040c 	rsb	r4, r4, #12
 8000392:	f1c4 0220 	rsb	r2, r4, #32
 8000396:	fa20 f002 	lsr.w	r0, r0, r2
 800039a:	fa01 f304 	lsl.w	r3, r1, r4
 800039e:	ea40 0003 	orr.w	r0, r0, r3
 80003a2:	4629      	mov	r1, r5
 80003a4:	bd30      	pop	{r4, r5, pc}
 80003a6:	fa21 f004 	lsr.w	r0, r1, r4
 80003aa:	4629      	mov	r1, r5
 80003ac:	bd30      	pop	{r4, r5, pc}
 80003ae:	f094 0f00 	teq	r4, #0
 80003b2:	f483 1380 	eor.w	r3, r3, #1048576	; 0x100000
 80003b6:	bf06      	itte	eq
 80003b8:	f481 1180 	eoreq.w	r1, r1, #1048576	; 0x100000
 80003bc:	3401      	addeq	r4, #1
 80003be:	3d01      	subne	r5, #1
 80003c0:	e74e      	b.n	8000260 <__adddf3+0x8c>
 80003c2:	ea7f 5c64 	mvns.w	ip, r4, asr #21
 80003c6:	bf18      	it	ne
 80003c8:	ea7f 5c65 	mvnsne.w	ip, r5, asr #21
 80003cc:	d029      	beq.n	8000422 <__adddf3+0x24e>
 80003ce:	ea94 0f05 	teq	r4, r5
 80003d2:	bf08      	it	eq
 80003d4:	ea90 0f02 	teqeq	r0, r2
 80003d8:	d005      	beq.n	80003e6 <__adddf3+0x212>
 80003da:	ea54 0c00 	orrs.w	ip, r4, r0
 80003de:	bf04      	itt	eq
 80003e0:	4619      	moveq	r1, r3
 80003e2:	4610      	moveq	r0, r2
 80003e4:	bd30      	pop	{r4, r5, pc}
 80003e6:	ea91 0f03 	teq	r1, r3
 80003ea:	bf1e      	ittt	ne
 80003ec:	2100      	movne	r1, #0
 80003ee:	2000      	movne	r0, #0
 80003f0:	bd30      	popne	{r4, r5, pc}
 80003f2:	ea5f 5c54 	movs.w	ip, r4, lsr #21
 80003f6:	d105      	bne.n	8000404 <__adddf3+0x230>
 80003f8:	0040      	lsls	r0, r0, #1
 80003fa:	4149      	adcs	r1, r1
 80003fc:	bf28      	it	cs
 80003fe:	f041 4100 	orrcs.w	r1, r1, #2147483648	; 0x80000000
 8000402:	bd30      	pop	{r4, r5, pc}
 8000404:	f514 0480 	adds.w	r4, r4, #4194304	; 0x400000
 8000408:	bf3c      	itt	cc
 800040a:	f501 1180 	addcc.w	r1, r1, #1048576	; 0x100000
 800040e:	bd30      	popcc	{r4, r5, pc}
 8000410:	f001 4500 	and.w	r5, r1, #2147483648	; 0x80000000
 8000414:	f045 41fe 	orr.w	r1, r5, #2130706432	; 0x7f000000
 8000418:	f441 0170 	orr.w	r1, r1, #15728640	; 0xf00000
 800041c:	f04f 0000 	mov.w	r0, #0
 8000420:	bd30      	pop	{r4, r5, pc}
 8000422:	ea7f 5c64 	mvns.w	ip, r4, asr #21
 8000426:	bf1a      	itte	ne
 8000428:	4619      	movne	r1, r3
 800042a:	4610      	movne	r0, r2
 800042c:	ea7f 5c65 	mvnseq.w	ip, r5, asr #21
 8000430:	bf1c      	itt	ne
 8000432:	460b      	movne	r3, r1
 8000434:	4602      	movne	r2, r0
 8000436:	ea50 3401 	orrs.w	r4, r0, r1, lsl #12
 800043a:	bf06      	itte	eq
 800043c:	ea52 3503 	orrseq.w	r5, r2, r3, lsl #12
 8000440:	ea91 0f03 	teqeq	r1, r3
 8000444:	f441 2100 	orrne.w	r1, r1, #524288	; 0x80000
 8000448:	bd30      	pop	{r4, r5, pc}
 800044a:	bf00      	nop

0800044c <__aeabi_ui2d>:
 800044c:	f090 0f00 	teq	r0, #0
 8000450:	bf04      	itt	eq
 8000452:	2100      	moveq	r1, #0
 8000454:	4770      	bxeq	lr
 8000456:	b530      	push	{r4, r5, lr}
 8000458:	f44f 6480 	mov.w	r4, #1024	; 0x400
 800045c:	f104 0432 	add.w	r4, r4, #50	; 0x32
 8000460:	f04f 0500 	mov.w	r5, #0
 8000464:	f04f 0100 	mov.w	r1, #0
 8000468:	e750      	b.n	800030c <__adddf3+0x138>
 800046a:	bf00      	nop

0800046c <__aeabi_i2d>:
 800046c:	f090 0f00 	teq	r0, #0
 8000470:	bf04      	itt	eq
 8000472:	2100      	moveq	r1, #0
 8000474:	4770      	bxeq	lr
 8000476:	b530      	push	{r4, r5, lr}
 8000478:	f44f 6480 	mov.w	r4, #1024	; 0x400
 800047c:	f104 0432 	add.w	r4, r4, #50	; 0x32
 8000480:	f010 4500 	ands.w	r5, r0, #2147483648	; 0x80000000
 8000484:	bf48      	it	mi
 8000486:	4240      	negmi	r0, r0
 8000488:	f04f 0100 	mov.w	r1, #0
 800048c:	e73e      	b.n	800030c <__adddf3+0x138>
 800048e:	bf00      	nop

08000490 <__aeabi_f2d>:
 8000490:	0042      	lsls	r2, r0, #1
 8000492:	ea4f 01e2 	mov.w	r1, r2, asr #3
 8000496:	ea4f 0131 	mov.w	r1, r1, rrx
 800049a:	ea4f 7002 	mov.w	r0, r2, lsl #28
 800049e:	bf1f      	itttt	ne
 80004a0:	f012 437f 	andsne.w	r3, r2, #4278190080	; 0xff000000
 80004a4:	f093 4f7f 	teqne	r3, #4278190080	; 0xff000000
 80004a8:	f081 5160 	eorne.w	r1, r1, #939524096	; 0x38000000
 80004ac:	4770      	bxne	lr
 80004ae:	f032 427f 	bics.w	r2, r2, #4278190080	; 0xff000000
 80004b2:	bf08      	it	eq
 80004b4:	4770      	bxeq	lr
 80004b6:	f093 4f7f 	teq	r3, #4278190080	; 0xff000000
 80004ba:	bf04      	itt	eq
 80004bc:	f441 2100 	orreq.w	r1, r1, #524288	; 0x80000
 80004c0:	4770      	bxeq	lr
 80004c2:	b530      	push	{r4, r5, lr}
 80004c4:	f44f 7460 	mov.w	r4, #896	; 0x380
 80004c8:	f001 4500 	and.w	r5, r1, #2147483648	; 0x80000000
 80004cc:	f021 4100 	bic.w	r1, r1, #2147483648	; 0x80000000
 80004d0:	e71c      	b.n	800030c <__adddf3+0x138>
 80004d2:	bf00      	nop

080004d4 <__aeabi_ul2d>:
 80004d4:	ea50 0201 	orrs.w	r2, r0, r1
 80004d8:	bf08      	it	eq
 80004da:	4770      	bxeq	lr
 80004dc:	b530      	push	{r4, r5, lr}
 80004de:	f04f 0500 	mov.w	r5, #0
 80004e2:	e00a      	b.n	80004fa <__aeabi_l2d+0x16>

080004e4 <__aeabi_l2d>:
 80004e4:	ea50 0201 	orrs.w	r2, r0, r1
 80004e8:	bf08      	it	eq
 80004ea:	4770      	bxeq	lr
 80004ec:	b530      	push	{r4, r5, lr}
 80004ee:	f011 4500 	ands.w	r5, r1, #2147483648	; 0x80000000
 80004f2:	d502      	bpl.n	80004fa <__aeabi_l2d+0x16>
 80004f4:	4240      	negs	r0, r0
 80004f6:	eb61 0141 	sbc.w	r1, r1, r1, lsl #1
 80004fa:	f44f 6480 	mov.w	r4, #1024	; 0x400
 80004fe:	f104 0432 	add.w	r4, r4, #50	; 0x32
 8000502:	ea5f 5c91 	movs.w	ip, r1, lsr #22
 8000506:	f43f aed8 	beq.w	80002ba <__adddf3+0xe6>
 800050a:	f04f 0203 	mov.w	r2, #3
 800050e:	ea5f 0cdc 	movs.w	ip, ip, lsr #3
 8000512:	bf18      	it	ne
 8000514:	3203      	addne	r2, #3
 8000516:	ea5f 0cdc 	movs.w	ip, ip, lsr #3
 800051a:	bf18      	it	ne
 800051c:	3203      	addne	r2, #3
 800051e:	eb02 02dc 	add.w	r2, r2, ip, lsr #3
 8000522:	f1c2 0320 	rsb	r3, r2, #32
 8000526:	fa00 fc03 	lsl.w	ip, r0, r3
 800052a:	fa20 f002 	lsr.w	r0, r0, r2
 800052e:	fa01 fe03 	lsl.w	lr, r1, r3
 8000532:	ea40 000e 	orr.w	r0, r0, lr
 8000536:	fa21 f102 	lsr.w	r1, r1, r2
 800053a:	4414      	add	r4, r2
 800053c:	e6bd      	b.n	80002ba <__adddf3+0xe6>
 800053e:	bf00      	nop

08000540 <__aeabi_dmul>:
 8000540:	b570      	push	{r4, r5, r6, lr}
 8000542:	f04f 0cff 	mov.w	ip, #255	; 0xff
 8000546:	f44c 6ce0 	orr.w	ip, ip, #1792	; 0x700
 800054a:	ea1c 5411 	ands.w	r4, ip, r1, lsr #20
 800054e:	bf1d      	ittte	ne
 8000550:	ea1c 5513 	andsne.w	r5, ip, r3, lsr #20
 8000554:	ea94 0f0c 	teqne	r4, ip
 8000558:	ea95 0f0c 	teqne	r5, ip
 800055c:	f000 f8de 	bleq	800071c <__aeabi_dmul+0x1dc>
 8000560:	442c      	add	r4, r5
 8000562:	ea81 0603 	eor.w	r6, r1, r3
 8000566:	ea21 514c 	bic.w	r1, r1, ip, lsl #21
 800056a:	ea23 534c 	bic.w	r3, r3, ip, lsl #21
 800056e:	ea50 3501 	orrs.w	r5, r0, r1, lsl #12
 8000572:	bf18      	it	ne
 8000574:	ea52 3503 	orrsne.w	r5, r2, r3, lsl #12
 8000578:	f441 1180 	orr.w	r1, r1, #1048576	; 0x100000
 800057c:	f443 1380 	orr.w	r3, r3, #1048576	; 0x100000
 8000580:	d038      	beq.n	80005f4 <__aeabi_dmul+0xb4>
 8000582:	fba0 ce02 	umull	ip, lr, r0, r2
 8000586:	f04f 0500 	mov.w	r5, #0
 800058a:	fbe1 e502 	umlal	lr, r5, r1, r2
 800058e:	f006 4200 	and.w	r2, r6, #2147483648	; 0x80000000
 8000592:	fbe0 e503 	umlal	lr, r5, r0, r3
 8000596:	f04f 0600 	mov.w	r6, #0
 800059a:	fbe1 5603 	umlal	r5, r6, r1, r3
 800059e:	f09c 0f00 	teq	ip, #0
 80005a2:	bf18      	it	ne
 80005a4:	f04e 0e01 	orrne.w	lr, lr, #1
 80005a8:	f1a4 04ff 	sub.w	r4, r4, #255	; 0xff
 80005ac:	f5b6 7f00 	cmp.w	r6, #512	; 0x200
 80005b0:	f564 7440 	sbc.w	r4, r4, #768	; 0x300
 80005b4:	d204      	bcs.n	80005c0 <__aeabi_dmul+0x80>
 80005b6:	ea5f 0e4e 	movs.w	lr, lr, lsl #1
 80005ba:	416d      	adcs	r5, r5
 80005bc:	eb46 0606 	adc.w	r6, r6, r6
 80005c0:	ea42 21c6 	orr.w	r1, r2, r6, lsl #11
 80005c4:	ea41 5155 	orr.w	r1, r1, r5, lsr #21
 80005c8:	ea4f 20c5 	mov.w	r0, r5, lsl #11
 80005cc:	ea40 505e 	orr.w	r0, r0, lr, lsr #21
 80005d0:	ea4f 2ece 	mov.w	lr, lr, lsl #11
 80005d4:	f1b4 0cfd 	subs.w	ip, r4, #253	; 0xfd
 80005d8:	bf88      	it	hi
 80005da:	f5bc 6fe0 	cmphi.w	ip, #1792	; 0x700
 80005de:	d81e      	bhi.n	800061e <__aeabi_dmul+0xde>
 80005e0:	f1be 4f00 	cmp.w	lr, #2147483648	; 0x80000000
 80005e4:	bf08      	it	eq
 80005e6:	ea5f 0e50 	movseq.w	lr, r0, lsr #1
 80005ea:	f150 0000 	adcs.w	r0, r0, #0
 80005ee:	eb41 5104 	adc.w	r1, r1, r4, lsl #20
 80005f2:	bd70      	pop	{r4, r5, r6, pc}
 80005f4:	f006 4600 	and.w	r6, r6, #2147483648	; 0x80000000
 80005f8:	ea46 0101 	orr.w	r1, r6, r1
 80005fc:	ea40 0002 	orr.w	r0, r0, r2
 8000600:	ea81 0103 	eor.w	r1, r1, r3
 8000604:	ebb4 045c 	subs.w	r4, r4, ip, lsr #1
 8000608:	bfc2      	ittt	gt
 800060a:	ebd4 050c 	rsbsgt	r5, r4, ip
 800060e:	ea41 5104 	orrgt.w	r1, r1, r4, lsl #20
 8000612:	bd70      	popgt	{r4, r5, r6, pc}
 8000614:	f441 1180 	orr.w	r1, r1, #1048576	; 0x100000
 8000618:	f04f 0e00 	mov.w	lr, #0
 800061c:	3c01      	subs	r4, #1
 800061e:	f300 80ab 	bgt.w	8000778 <__aeabi_dmul+0x238>
 8000622:	f114 0f36 	cmn.w	r4, #54	; 0x36
 8000626:	bfde      	ittt	le
 8000628:	2000      	movle	r0, #0
 800062a:	f001 4100 	andle.w	r1, r1, #2147483648	; 0x80000000
 800062e:	bd70      	pople	{r4, r5, r6, pc}
 8000630:	f1c4 0400 	rsb	r4, r4, #0
 8000634:	3c20      	subs	r4, #32
 8000636:	da35      	bge.n	80006a4 <__aeabi_dmul+0x164>
 8000638:	340c      	adds	r4, #12
 800063a:	dc1b      	bgt.n	8000674 <__aeabi_dmul+0x134>
 800063c:	f104 0414 	add.w	r4, r4, #20
 8000640:	f1c4 0520 	rsb	r5, r4, #32
 8000644:	fa00 f305 	lsl.w	r3, r0, r5
 8000648:	fa20 f004 	lsr.w	r0, r0, r4
 800064c:	fa01 f205 	lsl.w	r2, r1, r5
 8000650:	ea40 0002 	orr.w	r0, r0, r2
 8000654:	f001 4200 	and.w	r2, r1, #2147483648	; 0x80000000
 8000658:	f021 4100 	bic.w	r1, r1, #2147483648	; 0x80000000
 800065c:	eb10 70d3 	adds.w	r0, r0, r3, lsr #31
 8000660:	fa21 f604 	lsr.w	r6, r1, r4
 8000664:	eb42 0106 	adc.w	r1, r2, r6
 8000668:	ea5e 0e43 	orrs.w	lr, lr, r3, lsl #1
 800066c:	bf08      	it	eq
 800066e:	ea20 70d3 	biceq.w	r0, r0, r3, lsr #31
 8000672:	bd70      	pop	{r4, r5, r6, pc}
 8000674:	f1c4 040c 	rsb	r4, r4, #12
 8000678:	f1c4 0520 	rsb	r5, r4, #32
 800067c:	fa00 f304 	lsl.w	r3, r0, r4
 8000680:	fa20 f005 	lsr.w	r0, r0, r5
 8000684:	fa01 f204 	lsl.w	r2, r1, r4
 8000688:	ea40 0002 	orr.w	r0, r0, r2
 800068c:	f001 4100 	and.w	r1, r1, #2147483648	; 0x80000000
 8000690:	eb10 70d3 	adds.w	r0, r0, r3, lsr #31
 8000694:	f141 0100 	adc.w	r1, r1, #0
 8000698:	ea5e 0e43 	orrs.w	lr, lr, r3, lsl #1
 800069c:	bf08      	it	eq
 800069e:	ea20 70d3 	biceq.w	r0, r0, r3, lsr #31
 80006a2:	bd70      	pop	{r4, r5, r6, pc}
 80006a4:	f1c4 0520 	rsb	r5, r4, #32
 80006a8:	fa00 f205 	lsl.w	r2, r0, r5
 80006ac:	ea4e 0e02 	orr.w	lr, lr, r2
 80006b0:	fa20 f304 	lsr.w	r3, r0, r4
 80006b4:	fa01 f205 	lsl.w	r2, r1, r5
 80006b8:	ea43 0302 	orr.w	r3, r3, r2
 80006bc:	fa21 f004 	lsr.w	r0, r1, r4
 80006c0:	f001 4100 	and.w	r1, r1, #2147483648	; 0x80000000
 80006c4:	fa21 f204 	lsr.w	r2, r1, r4
 80006c8:	ea20 0002 	bic.w	r0, r0, r2
 80006cc:	eb00 70d3 	add.w	r0, r0, r3, lsr #31
 80006d0:	ea5e 0e43 	orrs.w	lr, lr, r3, lsl #1
 80006d4:	bf08      	it	eq
 80006d6:	ea20 70d3 	biceq.w	r0, r0, r3, lsr #31
 80006da:	bd70      	pop	{r4, r5, r6, pc}
 80006dc:	f094 0f00 	teq	r4, #0
 80006e0:	d10f      	bne.n	8000702 <__aeabi_dmul+0x1c2>
 80006e2:	f001 4600 	and.w	r6, r1, #2147483648	; 0x80000000
 80006e6:	0040      	lsls	r0, r0, #1
 80006e8:	eb41 0101 	adc.w	r1, r1, r1
 80006ec:	f411 1f80 	tst.w	r1, #1048576	; 0x100000
 80006f0:	bf08      	it	eq
 80006f2:	3c01      	subeq	r4, #1
 80006f4:	d0f7      	beq.n	80006e6 <__aeabi_dmul+0x1a6>
 80006f6:	ea41 0106 	orr.w	r1, r1, r6
 80006fa:	f095 0f00 	teq	r5, #0
 80006fe:	bf18      	it	ne
 8000700:	4770      	bxne	lr
 8000702:	f003 4600 	and.w	r6, r3, #2147483648	; 0x80000000
 8000706:	0052      	lsls	r2, r2, #1
 8000708:	eb43 0303 	adc.w	r3, r3, r3
 800070c:	f413 1f80 	tst.w	r3, #1048576	; 0x100000
 8000710:	bf08      	it	eq
 8000712:	3d01      	subeq	r5, #1
 8000714:	d0f7      	beq.n	8000706 <__aeabi_dmul+0x1c6>
 8000716:	ea43 0306 	orr.w	r3, r3, r6
 800071a:	4770      	bx	lr
 800071c:	ea94 0f0c 	teq	r4, ip
 8000720:	ea0c 5513 	and.w	r5, ip, r3, lsr #20
 8000724:	bf18      	it	ne
 8000726:	ea95 0f0c 	teqne	r5, ip
 800072a:	d00c      	beq.n	8000746 <__aeabi_dmul+0x206>
 800072c:	ea50 0641 	orrs.w	r6, r0, r1, lsl #1
 8000730:	bf18      	it	ne
 8000732:	ea52 0643 	orrsne.w	r6, r2, r3, lsl #1
 8000736:	d1d1      	bne.n	80006dc <__aeabi_dmul+0x19c>
 8000738:	ea81 0103 	eor.w	r1, r1, r3
 800073c:	f001 4100 	and.w	r1, r1, #2147483648	; 0x80000000
 8000740:	f04f 0000 	mov.w	r0, #0
 8000744:	bd70      	pop	{r4, r5, r6, pc}
 8000746:	ea50 0641 	orrs.w	r6, r0, r1, lsl #1
 800074a:	bf06      	itte	eq
 800074c:	4610      	moveq	r0, r2
 800074e:	4619      	moveq	r1, r3
 8000750:	ea52 0643 	orrsne.w	r6, r2, r3, lsl #1
 8000754:	d019      	beq.n	800078a <__aeabi_dmul+0x24a>
 8000756:	ea94 0f0c 	teq	r4, ip
 800075a:	d102      	bne.n	8000762 <__aeabi_dmul+0x222>
 800075c:	ea50 3601 	orrs.w	r6, r0, r1, lsl #12
 8000760:	d113      	bne.n	800078a <__aeabi_dmul+0x24a>
 8000762:	ea95 0f0c 	teq	r5, ip
 8000766:	d105      	bne.n	8000774 <__aeabi_dmul+0x234>
 8000768:	ea52 3603 	orrs.w	r6, r2, r3, lsl #12
 800076c:	bf1c      	itt	ne
 800076e:	4610      	movne	r0, r2
 8000770:	4619      	movne	r1, r3
 8000772:	d10a      	bne.n	800078a <__aeabi_dmul+0x24a>
 8000774:	ea81 0103 	eor.w	r1, r1, r3
 8000778:	f001 4100 	and.w	r1, r1, #2147483648	; 0x80000000
 800077c:	f041 41fe 	orr.w	r1, r1, #2130706432	; 0x7f000000
 8000780:	f441 0170 	orr.w	r1, r1, #15728640	; 0xf00000
 8000784:	f04f 0000 	mov.w	r0, #0
 8000788:	bd70      	pop	{r4, r5, r6, pc}
 800078a:	f041 41fe 	orr.w	r1, r1, #2130706432	; 0x7f000000
 800078e:	f441 0178 	orr.w	r1, r1, #16252928	; 0xf80000
 8000792:	bd70      	pop	{r4, r5, r6, pc}

08000794 <__aeabi_ddiv>:
 8000794:	b570      	push	{r4, r5, r6, lr}
 8000796:	f04f 0cff 	mov.w	ip, #255	; 0xff
 800079a:	f44c 6ce0 	orr.w	ip, ip, #1792	; 0x700
 800079e:	ea1c 5411 	ands.w	r4, ip, r1, lsr #20
 80007a2:	bf1d      	ittte	ne
 80007a4:	ea1c 5513 	andsne.w	r5, ip, r3, lsr #20
 80007a8:	ea94 0f0c 	teqne	r4, ip
 80007ac:	ea95 0f0c 	teqne	r5, ip
 80007b0:	f000 f8a7 	bleq	8000902 <__aeabi_ddiv+0x16e>
 80007b4:	eba4 0405 	sub.w	r4, r4, r5
 80007b8:	ea81 0e03 	eor.w	lr, r1, r3
 80007bc:	ea52 3503 	orrs.w	r5, r2, r3, lsl #12
 80007c0:	ea4f 3101 	mov.w	r1, r1, lsl #12
 80007c4:	f000 8088 	beq.w	80008d8 <__aeabi_ddiv+0x144>
 80007c8:	ea4f 3303 	mov.w	r3, r3, lsl #12
 80007cc:	f04f 5580 	mov.w	r5, #268435456	; 0x10000000
 80007d0:	ea45 1313 	orr.w	r3, r5, r3, lsr #4
 80007d4:	ea43 6312 	orr.w	r3, r3, r2, lsr #24
 80007d8:	ea4f 2202 	mov.w	r2, r2, lsl #8
 80007dc:	ea45 1511 	orr.w	r5, r5, r1, lsr #4
 80007e0:	ea45 6510 	orr.w	r5, r5, r0, lsr #24
 80007e4:	ea4f 2600 	mov.w	r6, r0, lsl #8
 80007e8:	f00e 4100 	and.w	r1, lr, #2147483648	; 0x80000000
 80007ec:	429d      	cmp	r5, r3
 80007ee:	bf08      	it	eq
 80007f0:	4296      	cmpeq	r6, r2
 80007f2:	f144 04fd 	adc.w	r4, r4, #253	; 0xfd
 80007f6:	f504 7440 	add.w	r4, r4, #768	; 0x300
 80007fa:	d202      	bcs.n	8000802 <__aeabi_ddiv+0x6e>
 80007fc:	085b      	lsrs	r3, r3, #1
 80007fe:	ea4f 0232 	mov.w	r2, r2, rrx
 8000802:	1ab6      	subs	r6, r6, r2
 8000804:	eb65 0503 	sbc.w	r5, r5, r3
 8000808:	085b      	lsrs	r3, r3, #1
 800080a:	ea4f 0232 	mov.w	r2, r2, rrx
 800080e:	f44f 1080 	mov.w	r0, #1048576	; 0x100000
 8000812:	f44f 2c00 	mov.w	ip, #524288	; 0x80000
 8000816:	ebb6 0e02 	subs.w	lr, r6, r2
 800081a:	eb75 0e03 	sbcs.w	lr, r5, r3
 800081e:	bf22      	ittt	cs
 8000820:	1ab6      	subcs	r6, r6, r2
 8000822:	4675      	movcs	r5, lr
 8000824:	ea40 000c 	orrcs.w	r0, r0, ip
 8000828:	085b      	lsrs	r3, r3, #1
 800082a:	ea4f 0232 	mov.w	r2, r2, rrx
 800082e:	ebb6 0e02 	subs.w	lr, r6, r2
 8000832:	eb75 0e03 	sbcs.w	lr, r5, r3
 8000836:	bf22      	ittt	cs
 8000838:	1ab6      	subcs	r6, r6, r2
 800083a:	4675      	movcs	r5, lr
 800083c:	ea40 005c 	orrcs.w	r0, r0, ip, lsr #1
 8000840:	085b      	lsrs	r3, r3, #1
 8000842:	ea4f 0232 	mov.w	r2, r2, rrx
 8000846:	ebb6 0e02 	subs.w	lr, r6, r2
 800084a:	eb75 0e03 	sbcs.w	lr, r5, r3
 800084e:	bf22      	ittt	cs
 8000850:	1ab6      	subcs	r6, r6, r2
 8000852:	4675      	movcs	r5, lr
 8000854:	ea40 009c 	orrcs.w	r0, r0, ip, lsr #2
 8000858:	085b      	lsrs	r3, r3, #1
 800085a:	ea4f 0232 	mov.w	r2, r2, rrx
 800085e:	ebb6 0e02 	subs.w	lr, r6, r2
 8000862:	eb75 0e03 	sbcs.w	lr, r5, r3
 8000866:	bf22      	ittt	cs
 8000868:	1ab6      	subcs	r6, r6, r2
 800086a:	4675      	movcs	r5, lr
 800086c:	ea40 00dc 	orrcs.w	r0, r0, ip, lsr #3
 8000870:	ea55 0e06 	orrs.w	lr, r5, r6
 8000874:	d018      	beq.n	80008a8 <__aeabi_ddiv+0x114>
 8000876:	ea4f 1505 	mov.w	r5, r5, lsl #4
 800087a:	ea45 7516 	orr.w	r5, r5, r6, lsr #28
 800087e:	ea4f 1606 	mov.w	r6, r6, lsl #4
 8000882:	ea4f 03c3 	mov.w	r3, r3, lsl #3
 8000886:	ea43 7352 	orr.w	r3, r3, r2, lsr #29
 800088a:	ea4f 02c2 	mov.w	r2, r2, lsl #3
 800088e:	ea5f 1c1c 	movs.w	ip, ip, lsr #4
 8000892:	d1c0      	bne.n	8000816 <__aeabi_ddiv+0x82>
 8000894:	f411 1f80 	tst.w	r1, #1048576	; 0x100000
 8000898:	d10b      	bne.n	80008b2 <__aeabi_ddiv+0x11e>
 800089a:	ea41 0100 	orr.w	r1, r1, r0
 800089e:	f04f 0000 	mov.w	r0, #0
 80008a2:	f04f 4c00 	mov.w	ip, #2147483648	; 0x80000000
 80008a6:	e7b6      	b.n	8000816 <__aeabi_ddiv+0x82>
 80008a8:	f411 1f80 	tst.w	r1, #1048576	; 0x100000
 80008ac:	bf04      	itt	eq
 80008ae:	4301      	orreq	r1, r0
 80008b0:	2000      	moveq	r0, #0
 80008b2:	f1b4 0cfd 	subs.w	ip, r4, #253	; 0xfd
 80008b6:	bf88      	it	hi
 80008b8:	f5bc 6fe0 	cmphi.w	ip, #1792	; 0x700
 80008bc:	f63f aeaf 	bhi.w	800061e <__aeabi_dmul+0xde>
 80008c0:	ebb5 0c03 	subs.w	ip, r5, r3
 80008c4:	bf04      	itt	eq
 80008c6:	ebb6 0c02 	subseq.w	ip, r6, r2
 80008ca:	ea5f 0c50 	movseq.w	ip, r0, lsr #1
 80008ce:	f150 0000 	adcs.w	r0, r0, #0
 80008d2:	eb41 5104 	adc.w	r1, r1, r4, lsl #20
 80008d6:	bd70      	pop	{r4, r5, r6, pc}
 80008d8:	f00e 4e00 	and.w	lr, lr, #2147483648	; 0x80000000
 80008dc:	ea4e 3111 	orr.w	r1, lr, r1, lsr #12
 80008e0:	eb14 045c 	adds.w	r4, r4, ip, lsr #1
 80008e4:	bfc2      	ittt	gt
 80008e6:	ebd4 050c 	rsbsgt	r5, r4, ip
 80008ea:	ea41 5104 	orrgt.w	r1, r1, r4, lsl #20
 80008ee:	bd70      	popgt	{r4, r5, r6, pc}
 80008f0:	f441 1180 	orr.w	r1, r1, #1048576	; 0x100000
 80008f4:	f04f 0e00 	mov.w	lr, #0
 80008f8:	3c01      	subs	r4, #1
 80008fa:	e690      	b.n	800061e <__aeabi_dmul+0xde>
 80008fc:	ea45 0e06 	orr.w	lr, r5, r6
 8000900:	e68d      	b.n	800061e <__aeabi_dmul+0xde>
 8000902:	ea0c 5513 	and.w	r5, ip, r3, lsr #20
 8000906:	ea94 0f0c 	teq	r4, ip
 800090a:	bf08      	it	eq
 800090c:	ea95 0f0c 	teqeq	r5, ip
 8000910:	f43f af3b 	beq.w	800078a <__aeabi_dmul+0x24a>
 8000914:	ea94 0f0c 	teq	r4, ip
 8000918:	d10a      	bne.n	8000930 <__aeabi_ddiv+0x19c>
 800091a:	ea50 3401 	orrs.w	r4, r0, r1, lsl #12
 800091e:	f47f af34 	bne.w	800078a <__aeabi_dmul+0x24a>
 8000922:	ea95 0f0c 	teq	r5, ip
 8000926:	f47f af25 	bne.w	8000774 <__aeabi_dmul+0x234>
 800092a:	4610      	mov	r0, r2
 800092c:	4619      	mov	r1, r3
 800092e:	e72c      	b.n	800078a <__aeabi_dmul+0x24a>
 8000930:	ea95 0f0c 	teq	r5, ip
 8000934:	d106      	bne.n	8000944 <__aeabi_ddiv+0x1b0>
 8000936:	ea52 3503 	orrs.w	r5, r2, r3, lsl #12
 800093a:	f43f aefd 	beq.w	8000738 <__aeabi_dmul+0x1f8>
 800093e:	4610      	mov	r0, r2
 8000940:	4619      	mov	r1, r3
 8000942:	e722      	b.n	800078a <__aeabi_dmul+0x24a>
 8000944:	ea50 0641 	orrs.w	r6, r0, r1, lsl #1
 8000948:	bf18      	it	ne
 800094a:	ea52 0643 	orrsne.w	r6, r2, r3, lsl #1
 800094e:	f47f aec5 	bne.w	80006dc <__aeabi_dmul+0x19c>
 8000952:	ea50 0441 	orrs.w	r4, r0, r1, lsl #1
 8000956:	f47f af0d 	bne.w	8000774 <__aeabi_dmul+0x234>
 800095a:	ea52 0543 	orrs.w	r5, r2, r3, lsl #1
 800095e:	f47f aeeb 	bne.w	8000738 <__aeabi_dmul+0x1f8>
 8000962:	e712      	b.n	800078a <__aeabi_dmul+0x24a>

08000964 <__aeabi_d2iz>:
 8000964:	ea4f 0241 	mov.w	r2, r1, lsl #1
 8000968:	f512 1200 	adds.w	r2, r2, #2097152	; 0x200000
 800096c:	d215      	bcs.n	800099a <__aeabi_d2iz+0x36>
 800096e:	d511      	bpl.n	8000994 <__aeabi_d2iz+0x30>
 8000970:	f46f 7378 	mvn.w	r3, #992	; 0x3e0
 8000974:	ebb3 5262 	subs.w	r2, r3, r2, asr #21
 8000978:	d912      	bls.n	80009a0 <__aeabi_d2iz+0x3c>
 800097a:	ea4f 23c1 	mov.w	r3, r1, lsl #11
 800097e:	f043 4300 	orr.w	r3, r3, #2147483648	; 0x80000000
 8000982:	ea43 5350 	orr.w	r3, r3, r0, lsr #21
 8000986:	f011 4f00 	tst.w	r1, #2147483648	; 0x80000000
 800098a:	fa23 f002 	lsr.w	r0, r3, r2
 800098e:	bf18      	it	ne
 8000990:	4240      	negne	r0, r0
 8000992:	4770      	bx	lr
 8000994:	f04f 0000 	mov.w	r0, #0
 8000998:	4770      	bx	lr
 800099a:	ea50 3001 	orrs.w	r0, r0, r1, lsl #12
 800099e:	d105      	bne.n	80009ac <__aeabi_d2iz+0x48>
 80009a0:	f011 4000 	ands.w	r0, r1, #2147483648	; 0x80000000
 80009a4:	bf08      	it	eq
 80009a6:	f06f 4000 	mvneq.w	r0, #2147483648	; 0x80000000
 80009aa:	4770      	bx	lr
 80009ac:	f04f 0000 	mov.w	r0, #0
 80009b0:	4770      	bx	lr
 80009b2:	bf00      	nop

080009b4 <__aeabi_uldivmod>:
 80009b4:	b953      	cbnz	r3, 80009cc <__aeabi_uldivmod+0x18>
 80009b6:	b94a      	cbnz	r2, 80009cc <__aeabi_uldivmod+0x18>
 80009b8:	2900      	cmp	r1, #0
 80009ba:	bf08      	it	eq
 80009bc:	2800      	cmpeq	r0, #0
 80009be:	bf1c      	itt	ne
 80009c0:	f04f 31ff 	movne.w	r1, #4294967295
 80009c4:	f04f 30ff 	movne.w	r0, #4294967295
 80009c8:	f000 b972 	b.w	8000cb0 <__aeabi_idiv0>
 80009cc:	f1ad 0c08 	sub.w	ip, sp, #8
 80009d0:	e96d ce04 	strd	ip, lr, [sp, #-16]!
 80009d4:	f000 f806 	bl	80009e4 <__udivmoddi4>
 80009d8:	f8dd e004 	ldr.w	lr, [sp, #4]
 80009dc:	e9dd 2302 	ldrd	r2, r3, [sp, #8]
 80009e0:	b004      	add	sp, #16
 80009e2:	4770      	bx	lr

080009e4 <__udivmoddi4>:
 80009e4:	e92d 47f0 	stmdb	sp!, {r4, r5, r6, r7, r8, r9, sl, lr}
 80009e8:	9e08      	ldr	r6, [sp, #32]
 80009ea:	4604      	mov	r4, r0
 80009ec:	4688      	mov	r8, r1
 80009ee:	2b00      	cmp	r3, #0
 80009f0:	d14b      	bne.n	8000a8a <__udivmoddi4+0xa6>
 80009f2:	428a      	cmp	r2, r1
 80009f4:	4615      	mov	r5, r2
 80009f6:	d967      	bls.n	8000ac8 <__udivmoddi4+0xe4>
 80009f8:	fab2 f282 	clz	r2, r2
 80009fc:	b14a      	cbz	r2, 8000a12 <__udivmoddi4+0x2e>
 80009fe:	f1c2 0720 	rsb	r7, r2, #32
 8000a02:	fa01 f302 	lsl.w	r3, r1, r2
 8000a06:	fa20 f707 	lsr.w	r7, r0, r7
 8000a0a:	4095      	lsls	r5, r2
 8000a0c:	ea47 0803 	orr.w	r8, r7, r3
 8000a10:	4094      	lsls	r4, r2
 8000a12:	ea4f 4e15 	mov.w	lr, r5, lsr #16
 8000a16:	0c23      	lsrs	r3, r4, #16
 8000a18:	fbb8 f7fe 	udiv	r7, r8, lr
 8000a1c:	fa1f fc85 	uxth.w	ip, r5
 8000a20:	fb0e 8817 	mls	r8, lr, r7, r8
 8000a24:	ea43 4308 	orr.w	r3, r3, r8, lsl #16
 8000a28:	fb07 f10c 	mul.w	r1, r7, ip
 8000a2c:	4299      	cmp	r1, r3
 8000a2e:	d909      	bls.n	8000a44 <__udivmoddi4+0x60>
 8000a30:	18eb      	adds	r3, r5, r3
 8000a32:	f107 30ff 	add.w	r0, r7, #4294967295
 8000a36:	f080 811b 	bcs.w	8000c70 <__udivmoddi4+0x28c>
 8000a3a:	4299      	cmp	r1, r3
 8000a3c:	f240 8118 	bls.w	8000c70 <__udivmoddi4+0x28c>
 8000a40:	3f02      	subs	r7, #2
 8000a42:	442b      	add	r3, r5
 8000a44:	1a5b      	subs	r3, r3, r1
 8000a46:	b2a4      	uxth	r4, r4
 8000a48:	fbb3 f0fe 	udiv	r0, r3, lr
 8000a4c:	fb0e 3310 	mls	r3, lr, r0, r3
 8000a50:	ea44 4403 	orr.w	r4, r4, r3, lsl #16
 8000a54:	fb00 fc0c 	mul.w	ip, r0, ip
 8000a58:	45a4      	cmp	ip, r4
 8000a5a:	d909      	bls.n	8000a70 <__udivmoddi4+0x8c>
 8000a5c:	192c      	adds	r4, r5, r4
 8000a5e:	f100 33ff 	add.w	r3, r0, #4294967295
 8000a62:	f080 8107 	bcs.w	8000c74 <__udivmoddi4+0x290>
 8000a66:	45a4      	cmp	ip, r4
 8000a68:	f240 8104 	bls.w	8000c74 <__udivmoddi4+0x290>
 8000a6c:	3802      	subs	r0, #2
 8000a6e:	442c      	add	r4, r5
 8000a70:	ea40 4007 	orr.w	r0, r0, r7, lsl #16
 8000a74:	eba4 040c 	sub.w	r4, r4, ip
 8000a78:	2700      	movs	r7, #0
 8000a7a:	b11e      	cbz	r6, 8000a84 <__udivmoddi4+0xa0>
 8000a7c:	40d4      	lsrs	r4, r2
 8000a7e:	2300      	movs	r3, #0
 8000a80:	e9c6 4300 	strd	r4, r3, [r6]
 8000a84:	4639      	mov	r1, r7
 8000a86:	e8bd 87f0 	ldmia.w	sp!, {r4, r5, r6, r7, r8, r9, sl, pc}
 8000a8a:	428b      	cmp	r3, r1
 8000a8c:	d909      	bls.n	8000aa2 <__udivmoddi4+0xbe>
 8000a8e:	2e00      	cmp	r6, #0
 8000a90:	f000 80eb 	beq.w	8000c6a <__udivmoddi4+0x286>
 8000a94:	2700      	movs	r7, #0
 8000a96:	e9c6 0100 	strd	r0, r1, [r6]
 8000a9a:	4638      	mov	r0, r7
 8000a9c:	4639      	mov	r1, r7
 8000a9e:	e8bd 87f0 	ldmia.w	sp!, {r4, r5, r6, r7, r8, r9, sl, pc}
 8000aa2:	fab3 f783 	clz	r7, r3
 8000aa6:	2f00      	cmp	r7, #0
 8000aa8:	d147      	bne.n	8000b3a <__udivmoddi4+0x156>
 8000aaa:	428b      	cmp	r3, r1
 8000aac:	d302      	bcc.n	8000ab4 <__udivmoddi4+0xd0>
 8000aae:	4282      	cmp	r2, r0
 8000ab0:	f200 80fa 	bhi.w	8000ca8 <__udivmoddi4+0x2c4>
 8000ab4:	1a84      	subs	r4, r0, r2
 8000ab6:	eb61 0303 	sbc.w	r3, r1, r3
 8000aba:	2001      	movs	r0, #1
 8000abc:	4698      	mov	r8, r3
 8000abe:	2e00      	cmp	r6, #0
 8000ac0:	d0e0      	beq.n	8000a84 <__udivmoddi4+0xa0>
 8000ac2:	e9c6 4800 	strd	r4, r8, [r6]
 8000ac6:	e7dd      	b.n	8000a84 <__udivmoddi4+0xa0>
 8000ac8:	b902      	cbnz	r2, 8000acc <__udivmoddi4+0xe8>
 8000aca:	deff      	udf	#255	; 0xff
 8000acc:	fab2 f282 	clz	r2, r2
 8000ad0:	2a00      	cmp	r2, #0
 8000ad2:	f040 808f 	bne.w	8000bf4 <__udivmoddi4+0x210>
 8000ad6:	1b49      	subs	r1, r1, r5
 8000ad8:	ea4f 4e15 	mov.w	lr, r5, lsr #16
 8000adc:	fa1f f885 	uxth.w	r8, r5
 8000ae0:	2701      	movs	r7, #1
 8000ae2:	fbb1 fcfe 	udiv	ip, r1, lr
 8000ae6:	0c23      	lsrs	r3, r4, #16
 8000ae8:	fb0e 111c 	mls	r1, lr, ip, r1
 8000aec:	ea43 4301 	orr.w	r3, r3, r1, lsl #16
 8000af0:	fb08 f10c 	mul.w	r1, r8, ip
 8000af4:	4299      	cmp	r1, r3
 8000af6:	d907      	bls.n	8000b08 <__udivmoddi4+0x124>
 8000af8:	18eb      	adds	r3, r5, r3
 8000afa:	f10c 30ff 	add.w	r0, ip, #4294967295
 8000afe:	d202      	bcs.n	8000b06 <__udivmoddi4+0x122>
 8000b00:	4299      	cmp	r1, r3
 8000b02:	f200 80cd 	bhi.w	8000ca0 <__udivmoddi4+0x2bc>
 8000b06:	4684      	mov	ip, r0
 8000b08:	1a59      	subs	r1, r3, r1
 8000b0a:	b2a3      	uxth	r3, r4
 8000b0c:	fbb1 f0fe 	udiv	r0, r1, lr
 8000b10:	fb0e 1410 	mls	r4, lr, r0, r1
 8000b14:	ea43 4404 	orr.w	r4, r3, r4, lsl #16
 8000b18:	fb08 f800 	mul.w	r8, r8, r0
 8000b1c:	45a0      	cmp	r8, r4
 8000b1e:	d907      	bls.n	8000b30 <__udivmoddi4+0x14c>
 8000b20:	192c      	adds	r4, r5, r4
 8000b22:	f100 33ff 	add.w	r3, r0, #4294967295
 8000b26:	d202      	bcs.n	8000b2e <__udivmoddi4+0x14a>
 8000b28:	45a0      	cmp	r8, r4
 8000b2a:	f200 80b6 	bhi.w	8000c9a <__udivmoddi4+0x2b6>
 8000b2e:	4618      	mov	r0, r3
 8000b30:	eba4 0408 	sub.w	r4, r4, r8
 8000b34:	ea40 400c 	orr.w	r0, r0, ip, lsl #16
 8000b38:	e79f      	b.n	8000a7a <__udivmoddi4+0x96>
 8000b3a:	f1c7 0c20 	rsb	ip, r7, #32
 8000b3e:	40bb      	lsls	r3, r7
 8000b40:	fa22 fe0c 	lsr.w	lr, r2, ip
 8000b44:	ea4e 0e03 	orr.w	lr, lr, r3
 8000b48:	fa01 f407 	lsl.w	r4, r1, r7
 8000b4c:	fa20 f50c 	lsr.w	r5, r0, ip
 8000b50:	fa21 f30c 	lsr.w	r3, r1, ip
 8000b54:	ea4f 481e 	mov.w	r8, lr, lsr #16
 8000b58:	4325      	orrs	r5, r4
 8000b5a:	fbb3 f9f8 	udiv	r9, r3, r8
 8000b5e:	0c2c      	lsrs	r4, r5, #16
 8000b60:	fb08 3319 	mls	r3, r8, r9, r3
 8000b64:	fa1f fa8e 	uxth.w	sl, lr
 8000b68:	ea44 4303 	orr.w	r3, r4, r3, lsl #16
 8000b6c:	fb09 f40a 	mul.w	r4, r9, sl
 8000b70:	429c      	cmp	r4, r3
 8000b72:	fa02 f207 	lsl.w	r2, r2, r7
 8000b76:	fa00 f107 	lsl.w	r1, r0, r7
 8000b7a:	d90b      	bls.n	8000b94 <__udivmoddi4+0x1b0>
 8000b7c:	eb1e 0303 	adds.w	r3, lr, r3
 8000b80:	f109 30ff 	add.w	r0, r9, #4294967295
 8000b84:	f080 8087 	bcs.w	8000c96 <__udivmoddi4+0x2b2>
 8000b88:	429c      	cmp	r4, r3
 8000b8a:	f240 8084 	bls.w	8000c96 <__udivmoddi4+0x2b2>
 8000b8e:	f1a9 0902 	sub.w	r9, r9, #2
 8000b92:	4473      	add	r3, lr
 8000b94:	1b1b      	subs	r3, r3, r4
 8000b96:	b2ad      	uxth	r5, r5
 8000b98:	fbb3 f0f8 	udiv	r0, r3, r8
 8000b9c:	fb08 3310 	mls	r3, r8, r0, r3
 8000ba0:	ea45 4403 	orr.w	r4, r5, r3, lsl #16
 8000ba4:	fb00 fa0a 	mul.w	sl, r0, sl
 8000ba8:	45a2      	cmp	sl, r4
 8000baa:	d908      	bls.n	8000bbe <__udivmoddi4+0x1da>
 8000bac:	eb1e 0404 	adds.w	r4, lr, r4
 8000bb0:	f100 33ff 	add.w	r3, r0, #4294967295
 8000bb4:	d26b      	bcs.n	8000c8e <__udivmoddi4+0x2aa>
 8000bb6:	45a2      	cmp	sl, r4
 8000bb8:	d969      	bls.n	8000c8e <__udivmoddi4+0x2aa>
 8000bba:	3802      	subs	r0, #2
 8000bbc:	4474      	add	r4, lr
 8000bbe:	ea40 4009 	orr.w	r0, r0, r9, lsl #16
 8000bc2:	fba0 8902 	umull	r8, r9, r0, r2
 8000bc6:	eba4 040a 	sub.w	r4, r4, sl
 8000bca:	454c      	cmp	r4, r9
 8000bcc:	46c2      	mov	sl, r8
 8000bce:	464b      	mov	r3, r9
 8000bd0:	d354      	bcc.n	8000c7c <__udivmoddi4+0x298>
 8000bd2:	d051      	beq.n	8000c78 <__udivmoddi4+0x294>
 8000bd4:	2e00      	cmp	r6, #0
 8000bd6:	d069      	beq.n	8000cac <__udivmoddi4+0x2c8>
 8000bd8:	ebb1 050a 	subs.w	r5, r1, sl
 8000bdc:	eb64 0403 	sbc.w	r4, r4, r3
 8000be0:	fa04 fc0c 	lsl.w	ip, r4, ip
 8000be4:	40fd      	lsrs	r5, r7
 8000be6:	40fc      	lsrs	r4, r7
 8000be8:	ea4c 0505 	orr.w	r5, ip, r5
 8000bec:	e9c6 5400 	strd	r5, r4, [r6]
 8000bf0:	2700      	movs	r7, #0
 8000bf2:	e747      	b.n	8000a84 <__udivmoddi4+0xa0>
 8000bf4:	f1c2 0320 	rsb	r3, r2, #32
 8000bf8:	fa20 f703 	lsr.w	r7, r0, r3
 8000bfc:	4095      	lsls	r5, r2
 8000bfe:	fa01 f002 	lsl.w	r0, r1, r2
 8000c02:	fa21 f303 	lsr.w	r3, r1, r3
 8000c06:	ea4f 4e15 	mov.w	lr, r5, lsr #16
 8000c0a:	4338      	orrs	r0, r7
 8000c0c:	0c01      	lsrs	r1, r0, #16
 8000c0e:	fbb3 f7fe 	udiv	r7, r3, lr
 8000c12:	fa1f f885 	uxth.w	r8, r5
 8000c16:	fb0e 3317 	mls	r3, lr, r7, r3
 8000c1a:	ea41 4103 	orr.w	r1, r1, r3, lsl #16
 8000c1e:	fb07 f308 	mul.w	r3, r7, r8
 8000c22:	428b      	cmp	r3, r1
 8000c24:	fa04 f402 	lsl.w	r4, r4, r2
 8000c28:	d907      	bls.n	8000c3a <__udivmoddi4+0x256>
 8000c2a:	1869      	adds	r1, r5, r1
 8000c2c:	f107 3cff 	add.w	ip, r7, #4294967295
 8000c30:	d22f      	bcs.n	8000c92 <__udivmoddi4+0x2ae>
 8000c32:	428b      	cmp	r3, r1
 8000c34:	d92d      	bls.n	8000c92 <__udivmoddi4+0x2ae>
 8000c36:	3f02      	subs	r7, #2
 8000c38:	4429      	add	r1, r5
 8000c3a:	1acb      	subs	r3, r1, r3
 8000c3c:	b281      	uxth	r1, r0
 8000c3e:	fbb3 f0fe 	udiv	r0, r3, lr
 8000c42:	fb0e 3310 	mls	r3, lr, r0, r3
 8000c46:	ea41 4103 	orr.w	r1, r1, r3, lsl #16
 8000c4a:	fb00 f308 	mul.w	r3, r0, r8
 8000c4e:	428b      	cmp	r3, r1
 8000c50:	d907      	bls.n	8000c62 <__udivmoddi4+0x27e>
 8000c52:	1869      	adds	r1, r5, r1
 8000c54:	f100 3cff 	add.w	ip, r0, #4294967295
 8000c58:	d217      	bcs.n	8000c8a <__udivmoddi4+0x2a6>
 8000c5a:	428b      	cmp	r3, r1
 8000c5c:	d915      	bls.n	8000c8a <__udivmoddi4+0x2a6>
 8000c5e:	3802      	subs	r0, #2
 8000c60:	4429      	add	r1, r5
 8000c62:	1ac9      	subs	r1, r1, r3
 8000c64:	ea40 4707 	orr.w	r7, r0, r7, lsl #16
 8000c68:	e73b      	b.n	8000ae2 <__udivmoddi4+0xfe>
 8000c6a:	4637      	mov	r7, r6
 8000c6c:	4630      	mov	r0, r6
 8000c6e:	e709      	b.n	8000a84 <__udivmoddi4+0xa0>
 8000c70:	4607      	mov	r7, r0
 8000c72:	e6e7      	b.n	8000a44 <__udivmoddi4+0x60>
 8000c74:	4618      	mov	r0, r3
 8000c76:	e6fb      	b.n	8000a70 <__udivmoddi4+0x8c>
 8000c78:	4541      	cmp	r1, r8
 8000c7a:	d2ab      	bcs.n	8000bd4 <__udivmoddi4+0x1f0>
 8000c7c:	ebb8 0a02 	subs.w	sl, r8, r2
 8000c80:	eb69 020e 	sbc.w	r2, r9, lr
 8000c84:	3801      	subs	r0, #1
 8000c86:	4613      	mov	r3, r2
 8000c88:	e7a4      	b.n	8000bd4 <__udivmoddi4+0x1f0>
 8000c8a:	4660      	mov	r0, ip
 8000c8c:	e7e9      	b.n	8000c62 <__udivmoddi4+0x27e>
 8000c8e:	4618      	mov	r0, r3
 8000c90:	e795      	b.n	8000bbe <__udivmoddi4+0x1da>
 8000c92:	4667      	mov	r7, ip
 8000c94:	e7d1      	b.n	8000c3a <__udivmoddi4+0x256>
 8000c96:	4681      	mov	r9, r0
 8000c98:	e77c      	b.n	8000b94 <__udivmoddi4+0x1b0>
 8000c9a:	3802      	subs	r0, #2
 8000c9c:	442c      	add	r4, r5
 8000c9e:	e747      	b.n	8000b30 <__udivmoddi4+0x14c>
 8000ca0:	f1ac 0c02 	sub.w	ip, ip, #2
 8000ca4:	442b      	add	r3, r5
 8000ca6:	e72f      	b.n	8000b08 <__udivmoddi4+0x124>
 8000ca8:	4638      	mov	r0, r7
 8000caa:	e708      	b.n	8000abe <__udivmoddi4+0xda>
 8000cac:	4637      	mov	r7, r6
 8000cae:	e6e9      	b.n	8000a84 <__udivmoddi4+0xa0>

08000cb0 <__aeabi_idiv0>:
 8000cb0:	4770      	bx	lr
 8000cb2:	bf00      	nop

08000cb4 <HAL_ADC_ConvCpltCallback>:
/* Private user code ---------------------------------------------------------*/
/* USER CODE BEGIN 0 */

//LDR
void HAL_ADC_ConvCpltCallback(ADC_HandleTypeDef* hadc)
{
 8000cb4:	b580      	push	{r7, lr}
 8000cb6:	b082      	sub	sp, #8
 8000cb8:	af00      	add	r7, sp, #0
 8000cba:	6078      	str	r0, [r7, #4]
	if (hadc->Instance == ADC1){
 8000cbc:	687b      	ldr	r3, [r7, #4]
 8000cbe:	681b      	ldr	r3, [r3, #0]
 8000cc0:	4a06      	ldr	r2, [pc, #24]	; (8000cdc <HAL_ADC_ConvCpltCallback+0x28>)
 8000cc2:	4293      	cmp	r3, r2
 8000cc4:	d106      	bne.n	8000cd4 <HAL_ADC_ConvCpltCallback+0x20>
		Valor_LDR = HAL_ADC_GetValue(&hadc1);}
 8000cc6:	4806      	ldr	r0, [pc, #24]	; (8000ce0 <HAL_ADC_ConvCpltCallback+0x2c>)
 8000cc8:	f001 f874 	bl	8001db4 <HAL_ADC_GetValue>
 8000ccc:	4603      	mov	r3, r0
 8000cce:	b29a      	uxth	r2, r3
 8000cd0:	4b04      	ldr	r3, [pc, #16]	; (8000ce4 <HAL_ADC_ConvCpltCallback+0x30>)
 8000cd2:	801a      	strh	r2, [r3, #0]
}
 8000cd4:	bf00      	nop
 8000cd6:	3708      	adds	r7, #8
 8000cd8:	46bd      	mov	sp, r7
 8000cda:	bd80      	pop	{r7, pc}
 8000cdc:	40012000 	.word	0x40012000
 8000ce0:	20000070 	.word	0x20000070
 8000ce4:	20000054 	.word	0x20000054

08000ce8 <HAL_GPIO_EXTI_Callback>:
int auxComedor=0, auxSalon=0;
int ProfundidadSalon=20, ProfundidadComedor=20;
int DistanciaSalon=0,DistanciaComedor=0;
/*----------- Control de Rebotes -----------*/
void HAL_GPIO_EXTI_Callback(uint16_t GPIO_Pin)
{
 8000ce8:	b480      	push	{r7}
 8000cea:	b083      	sub	sp, #12
 8000cec:	af00      	add	r7, sp, #0
 8000cee:	4603      	mov	r3, r0
 8000cf0:	80fb      	strh	r3, [r7, #6]
	if (GPIO_Pin==PIN_BComedor){BComedor=1;	}
 8000cf2:	4b0b      	ldr	r3, [pc, #44]	; (8000d20 <HAL_GPIO_EXTI_Callback+0x38>)
 8000cf4:	881b      	ldrh	r3, [r3, #0]
 8000cf6:	88fa      	ldrh	r2, [r7, #6]
 8000cf8:	429a      	cmp	r2, r3
 8000cfa:	d103      	bne.n	8000d04 <HAL_GPIO_EXTI_Callback+0x1c>
 8000cfc:	4b09      	ldr	r3, [pc, #36]	; (8000d24 <HAL_GPIO_EXTI_Callback+0x3c>)
 8000cfe:	2201      	movs	r2, #1
 8000d00:	601a      	str	r2, [r3, #0]
	else if (GPIO_Pin==PIN_BSalon){BSalon=1;}
}
 8000d02:	e007      	b.n	8000d14 <HAL_GPIO_EXTI_Callback+0x2c>
	else if (GPIO_Pin==PIN_BSalon){BSalon=1;}
 8000d04:	4b08      	ldr	r3, [pc, #32]	; (8000d28 <HAL_GPIO_EXTI_Callback+0x40>)
 8000d06:	881b      	ldrh	r3, [r3, #0]
 8000d08:	88fa      	ldrh	r2, [r7, #6]
 8000d0a:	429a      	cmp	r2, r3
 8000d0c:	d102      	bne.n	8000d14 <HAL_GPIO_EXTI_Callback+0x2c>
 8000d0e:	4b07      	ldr	r3, [pc, #28]	; (8000d2c <HAL_GPIO_EXTI_Callback+0x44>)
 8000d10:	2201      	movs	r2, #1
 8000d12:	601a      	str	r2, [r3, #0]
}
 8000d14:	bf00      	nop
 8000d16:	370c      	adds	r7, #12
 8000d18:	46bd      	mov	sp, r7
 8000d1a:	f85d 7b04 	ldr.w	r7, [sp], #4
 8000d1e:	4770      	bx	lr
 8000d20:	20000002 	.word	0x20000002
 8000d24:	2000004c 	.word	0x2000004c
 8000d28:	20000000 	.word	0x20000000
 8000d2c:	20000050 	.word	0x20000050

08000d30 <debouncer>:

int debouncer(volatile int* button_int, GPIO_TypeDef* GPIO_port, uint16_t GPIO_number) // Control de los rebotes
{
 8000d30:	b580      	push	{r7, lr}
 8000d32:	b084      	sub	sp, #16
 8000d34:	af00      	add	r7, sp, #0
 8000d36:	60f8      	str	r0, [r7, #12]
 8000d38:	60b9      	str	r1, [r7, #8]
 8000d3a:	4613      	mov	r3, r2
 8000d3c:	80fb      	strh	r3, [r7, #6]
	static uint8_t button_count=0;
	static int counter=0;

	if (*button_int==1)	{
 8000d3e:	68fb      	ldr	r3, [r7, #12]
 8000d40:	681b      	ldr	r3, [r3, #0]
 8000d42:	2b01      	cmp	r3, #1
 8000d44:	d13b      	bne.n	8000dbe <debouncer+0x8e>
		if (button_count==0)		{
 8000d46:	4b20      	ldr	r3, [pc, #128]	; (8000dc8 <debouncer+0x98>)
 8000d48:	781b      	ldrb	r3, [r3, #0]
 8000d4a:	2b00      	cmp	r3, #0
 8000d4c:	d10b      	bne.n	8000d66 <debouncer+0x36>
			counter=HAL_GetTick();
 8000d4e:	f000 feef 	bl	8001b30 <HAL_GetTick>
 8000d52:	4603      	mov	r3, r0
 8000d54:	461a      	mov	r2, r3
 8000d56:	4b1d      	ldr	r3, [pc, #116]	; (8000dcc <debouncer+0x9c>)
 8000d58:	601a      	str	r2, [r3, #0]
			button_count++;
 8000d5a:	4b1b      	ldr	r3, [pc, #108]	; (8000dc8 <debouncer+0x98>)
 8000d5c:	781b      	ldrb	r3, [r3, #0]
 8000d5e:	3301      	adds	r3, #1
 8000d60:	b2da      	uxtb	r2, r3
 8000d62:	4b19      	ldr	r3, [pc, #100]	; (8000dc8 <debouncer+0x98>)
 8000d64:	701a      	strb	r2, [r3, #0]
		}
		if (HAL_GetTick()-counter>=20)		{
 8000d66:	f000 fee3 	bl	8001b30 <HAL_GetTick>
 8000d6a:	4602      	mov	r2, r0
 8000d6c:	4b17      	ldr	r3, [pc, #92]	; (8000dcc <debouncer+0x9c>)
 8000d6e:	681b      	ldr	r3, [r3, #0]
 8000d70:	1ad3      	subs	r3, r2, r3
 8000d72:	2b13      	cmp	r3, #19
 8000d74:	d923      	bls.n	8000dbe <debouncer+0x8e>
			counter=HAL_GetTick();
 8000d76:	f000 fedb 	bl	8001b30 <HAL_GetTick>
 8000d7a:	4603      	mov	r3, r0
 8000d7c:	461a      	mov	r2, r3
 8000d7e:	4b13      	ldr	r3, [pc, #76]	; (8000dcc <debouncer+0x9c>)
 8000d80:	601a      	str	r2, [r3, #0]
			if (HAL_GPIO_ReadPin(GPIO_port, GPIO_number)!=1){
 8000d82:	88fb      	ldrh	r3, [r7, #6]
 8000d84:	4619      	mov	r1, r3
 8000d86:	68b8      	ldr	r0, [r7, #8]
 8000d88:	f001 fe84 	bl	8002a94 <HAL_GPIO_ReadPin>
 8000d8c:	4603      	mov	r3, r0
 8000d8e:	2b01      	cmp	r3, #1
 8000d90:	d003      	beq.n	8000d9a <debouncer+0x6a>
				button_count=1;
 8000d92:	4b0d      	ldr	r3, [pc, #52]	; (8000dc8 <debouncer+0x98>)
 8000d94:	2201      	movs	r2, #1
 8000d96:	701a      	strb	r2, [r3, #0]
 8000d98:	e005      	b.n	8000da6 <debouncer+0x76>
			}
			else{
				button_count++;
 8000d9a:	4b0b      	ldr	r3, [pc, #44]	; (8000dc8 <debouncer+0x98>)
 8000d9c:	781b      	ldrb	r3, [r3, #0]
 8000d9e:	3301      	adds	r3, #1
 8000da0:	b2da      	uxtb	r2, r3
 8000da2:	4b09      	ldr	r3, [pc, #36]	; (8000dc8 <debouncer+0x98>)
 8000da4:	701a      	strb	r2, [r3, #0]
			}
			if (button_count==4 ) // Periodo antirebotes
 8000da6:	4b08      	ldr	r3, [pc, #32]	; (8000dc8 <debouncer+0x98>)
 8000da8:	781b      	ldrb	r3, [r3, #0]
 8000daa:	2b04      	cmp	r3, #4
 8000dac:	d107      	bne.n	8000dbe <debouncer+0x8e>
			{
				button_count=0;
 8000dae:	4b06      	ldr	r3, [pc, #24]	; (8000dc8 <debouncer+0x98>)
 8000db0:	2200      	movs	r2, #0
 8000db2:	701a      	strb	r2, [r3, #0]
				*button_int=0;
 8000db4:	68fb      	ldr	r3, [r7, #12]
 8000db6:	2200      	movs	r2, #0
 8000db8:	601a      	str	r2, [r3, #0]
				return 1;
 8000dba:	2301      	movs	r3, #1
 8000dbc:	e000      	b.n	8000dc0 <debouncer+0x90>
			}
		}
	}
	return 0;
 8000dbe:	2300      	movs	r3, #0
}
 8000dc0:	4618      	mov	r0, r3
 8000dc2:	3710      	adds	r7, #16
 8000dc4:	46bd      	mov	sp, r7
 8000dc6:	bd80      	pop	{r7, pc}
 8000dc8:	20000068 	.word	0x20000068
 8000dcc:	2000006c 	.word	0x2000006c

08000dd0 <LecturaSalon>:

int LecturaSalon(void){
 8000dd0:	b590      	push	{r4, r7, lr}
 8000dd2:	b083      	sub	sp, #12
 8000dd4:	af00      	add	r7, sp, #0
	int AuxTiempoSalon=0, DisSalon=ProfundidadSalon;
 8000dd6:	2300      	movs	r3, #0
 8000dd8:	607b      	str	r3, [r7, #4]
 8000dda:	4b23      	ldr	r3, [pc, #140]	; (8000e68 <LecturaSalon+0x98>)
 8000ddc:	681b      	ldr	r3, [r3, #0]
 8000dde:	603b      	str	r3, [r7, #0]
	HAL_GPIO_WritePin(GPIOE,PIN_TrigSalon,GPIO_PIN_RESET);
 8000de0:	4b22      	ldr	r3, [pc, #136]	; (8000e6c <LecturaSalon+0x9c>)
 8000de2:	881b      	ldrh	r3, [r3, #0]
 8000de4:	2200      	movs	r2, #0
 8000de6:	4619      	mov	r1, r3
 8000de8:	4821      	ldr	r0, [pc, #132]	; (8000e70 <LecturaSalon+0xa0>)
 8000dea:	f001 fe6b 	bl	8002ac4 <HAL_GPIO_WritePin>
	HAL_Delay(2);
 8000dee:	2002      	movs	r0, #2
 8000df0:	f000 feaa 	bl	8001b48 <HAL_Delay>
	HAL_GPIO_WritePin(GPIOE,PIN_TrigSalon,GPIO_PIN_SET);
 8000df4:	4b1d      	ldr	r3, [pc, #116]	; (8000e6c <LecturaSalon+0x9c>)
 8000df6:	881b      	ldrh	r3, [r3, #0]
 8000df8:	2201      	movs	r2, #1
 8000dfa:	4619      	mov	r1, r3
 8000dfc:	481c      	ldr	r0, [pc, #112]	; (8000e70 <LecturaSalon+0xa0>)
 8000dfe:	f001 fe61 	bl	8002ac4 <HAL_GPIO_WritePin>
	HAL_Delay(10);
 8000e02:	200a      	movs	r0, #10
 8000e04:	f000 fea0 	bl	8001b48 <HAL_Delay>
	HAL_GPIO_WritePin(GPIOE,PIN_TrigSalon,GPIO_PIN_RESET);
 8000e08:	4b18      	ldr	r3, [pc, #96]	; (8000e6c <LecturaSalon+0x9c>)
 8000e0a:	881b      	ldrh	r3, [r3, #0]
 8000e0c:	2200      	movs	r2, #0
 8000e0e:	4619      	mov	r1, r3
 8000e10:	4817      	ldr	r0, [pc, #92]	; (8000e70 <LecturaSalon+0xa0>)
 8000e12:	f001 fe57 	bl	8002ac4 <HAL_GPIO_WritePin>
	while(HAL_GPIO_ReadPin(GPIOE,PIN_EchoSalon)){AuxTiempoSalon++;}
 8000e16:	e002      	b.n	8000e1e <LecturaSalon+0x4e>
 8000e18:	687b      	ldr	r3, [r7, #4]
 8000e1a:	3301      	adds	r3, #1
 8000e1c:	607b      	str	r3, [r7, #4]
 8000e1e:	4b15      	ldr	r3, [pc, #84]	; (8000e74 <LecturaSalon+0xa4>)
 8000e20:	881b      	ldrh	r3, [r3, #0]
 8000e22:	4619      	mov	r1, r3
 8000e24:	4812      	ldr	r0, [pc, #72]	; (8000e70 <LecturaSalon+0xa0>)
 8000e26:	f001 fe35 	bl	8002a94 <HAL_GPIO_ReadPin>
 8000e2a:	4603      	mov	r3, r0
 8000e2c:	2b00      	cmp	r3, #0
 8000e2e:	d1f3      	bne.n	8000e18 <LecturaSalon+0x48>
	DisSalon=AuxTiempoSalon/(29.2*2);
 8000e30:	6878      	ldr	r0, [r7, #4]
 8000e32:	f7ff fb1b 	bl	800046c <__aeabi_i2d>
 8000e36:	a30a      	add	r3, pc, #40	; (adr r3, 8000e60 <LecturaSalon+0x90>)
 8000e38:	e9d3 2300 	ldrd	r2, r3, [r3]
 8000e3c:	f7ff fcaa 	bl	8000794 <__aeabi_ddiv>
 8000e40:	4603      	mov	r3, r0
 8000e42:	460c      	mov	r4, r1
 8000e44:	4618      	mov	r0, r3
 8000e46:	4621      	mov	r1, r4
 8000e48:	f7ff fd8c 	bl	8000964 <__aeabi_d2iz>
 8000e4c:	4603      	mov	r3, r0
 8000e4e:	603b      	str	r3, [r7, #0]
	return DisSalon;
 8000e50:	683b      	ldr	r3, [r7, #0]
}
 8000e52:	4618      	mov	r0, r3
 8000e54:	370c      	adds	r7, #12
 8000e56:	46bd      	mov	sp, r7
 8000e58:	bd90      	pop	{r4, r7, pc}
 8000e5a:	bf00      	nop
 8000e5c:	f3af 8000 	nop.w
 8000e60:	33333333 	.word	0x33333333
 8000e64:	404d3333 	.word	0x404d3333
 8000e68:	20000018 	.word	0x20000018
 8000e6c:	20000010 	.word	0x20000010
 8000e70:	40021000 	.word	0x40021000
 8000e74:	20000012 	.word	0x20000012

08000e78 <LecturaComedor>:
int LecturaComedor(void){
 8000e78:	b590      	push	{r4, r7, lr}
 8000e7a:	b083      	sub	sp, #12
 8000e7c:	af00      	add	r7, sp, #0
	int AuxTiempoComedor=0, DisComedor=ProfundidadComedor;
 8000e7e:	2300      	movs	r3, #0
 8000e80:	607b      	str	r3, [r7, #4]
 8000e82:	4b23      	ldr	r3, [pc, #140]	; (8000f10 <LecturaComedor+0x98>)
 8000e84:	681b      	ldr	r3, [r3, #0]
 8000e86:	603b      	str	r3, [r7, #0]
	HAL_GPIO_WritePin(GPIOE,PIN_TrigComedor,GPIO_PIN_RESET);
 8000e88:	4b22      	ldr	r3, [pc, #136]	; (8000f14 <LecturaComedor+0x9c>)
 8000e8a:	881b      	ldrh	r3, [r3, #0]
 8000e8c:	2200      	movs	r2, #0
 8000e8e:	4619      	mov	r1, r3
 8000e90:	4821      	ldr	r0, [pc, #132]	; (8000f18 <LecturaComedor+0xa0>)
 8000e92:	f001 fe17 	bl	8002ac4 <HAL_GPIO_WritePin>
	HAL_Delay(2);
 8000e96:	2002      	movs	r0, #2
 8000e98:	f000 fe56 	bl	8001b48 <HAL_Delay>
	HAL_GPIO_WritePin(GPIOE,PIN_TrigComedor,GPIO_PIN_SET);
 8000e9c:	4b1d      	ldr	r3, [pc, #116]	; (8000f14 <LecturaComedor+0x9c>)
 8000e9e:	881b      	ldrh	r3, [r3, #0]
 8000ea0:	2201      	movs	r2, #1
 8000ea2:	4619      	mov	r1, r3
 8000ea4:	481c      	ldr	r0, [pc, #112]	; (8000f18 <LecturaComedor+0xa0>)
 8000ea6:	f001 fe0d 	bl	8002ac4 <HAL_GPIO_WritePin>
	HAL_Delay(10);
 8000eaa:	200a      	movs	r0, #10
 8000eac:	f000 fe4c 	bl	8001b48 <HAL_Delay>
	HAL_GPIO_WritePin(GPIOE,PIN_TrigComedor,GPIO_PIN_RESET);
 8000eb0:	4b18      	ldr	r3, [pc, #96]	; (8000f14 <LecturaComedor+0x9c>)
 8000eb2:	881b      	ldrh	r3, [r3, #0]
 8000eb4:	2200      	movs	r2, #0
 8000eb6:	4619      	mov	r1, r3
 8000eb8:	4817      	ldr	r0, [pc, #92]	; (8000f18 <LecturaComedor+0xa0>)
 8000eba:	f001 fe03 	bl	8002ac4 <HAL_GPIO_WritePin>
	while(HAL_GPIO_ReadPin(GPIOE,PIN_EchoComedor)){AuxTiempoComedor++;}
 8000ebe:	e002      	b.n	8000ec6 <LecturaComedor+0x4e>
 8000ec0:	687b      	ldr	r3, [r7, #4]
 8000ec2:	3301      	adds	r3, #1
 8000ec4:	607b      	str	r3, [r7, #4]
 8000ec6:	4b15      	ldr	r3, [pc, #84]	; (8000f1c <LecturaComedor+0xa4>)
 8000ec8:	881b      	ldrh	r3, [r3, #0]
 8000eca:	4619      	mov	r1, r3
 8000ecc:	4812      	ldr	r0, [pc, #72]	; (8000f18 <LecturaComedor+0xa0>)
 8000ece:	f001 fde1 	bl	8002a94 <HAL_GPIO_ReadPin>
 8000ed2:	4603      	mov	r3, r0
 8000ed4:	2b00      	cmp	r3, #0
 8000ed6:	d1f3      	bne.n	8000ec0 <LecturaComedor+0x48>
	DisComedor=AuxTiempoComedor/(29.2*2);
 8000ed8:	6878      	ldr	r0, [r7, #4]
 8000eda:	f7ff fac7 	bl	800046c <__aeabi_i2d>
 8000ede:	a30a      	add	r3, pc, #40	; (adr r3, 8000f08 <LecturaComedor+0x90>)
 8000ee0:	e9d3 2300 	ldrd	r2, r3, [r3]
 8000ee4:	f7ff fc56 	bl	8000794 <__aeabi_ddiv>
 8000ee8:	4603      	mov	r3, r0
 8000eea:	460c      	mov	r4, r1
 8000eec:	4618      	mov	r0, r3
 8000eee:	4621      	mov	r1, r4
 8000ef0:	f7ff fd38 	bl	8000964 <__aeabi_d2iz>
 8000ef4:	4603      	mov	r3, r0
 8000ef6:	603b      	str	r3, [r7, #0]
	return DisComedor;
 8000ef8:	683b      	ldr	r3, [r7, #0]
}
 8000efa:	4618      	mov	r0, r3
 8000efc:	370c      	adds	r7, #12
 8000efe:	46bd      	mov	sp, r7
 8000f00:	bd90      	pop	{r4, r7, pc}
 8000f02:	bf00      	nop
 8000f04:	f3af 8000 	nop.w
 8000f08:	33333333 	.word	0x33333333
 8000f0c:	404d3333 	.word	0x404d3333
 8000f10:	2000001c 	.word	0x2000001c
 8000f14:	20000014 	.word	0x20000014
 8000f18:	40021000 	.word	0x40021000
 8000f1c:	20000016 	.word	0x20000016

08000f20 <LucesManualesComedor>:
//----------- Funciones de los Actuadores -----------
void LucesManualesComedor(void){
 8000f20:	b580      	push	{r7, lr}
 8000f22:	af00      	add	r7, sp, #0
	 if ( auxComedor==2){
 8000f24:	4b1a      	ldr	r3, [pc, #104]	; (8000f90 <LucesManualesComedor+0x70>)
 8000f26:	681b      	ldr	r3, [r3, #0]
 8000f28:	2b02      	cmp	r3, #2
 8000f2a:	d115      	bne.n	8000f58 <LucesManualesComedor+0x38>
		HAL_GPIO_WritePin(GPIOE, PIN_LComedor1, 1);
 8000f2c:	4b19      	ldr	r3, [pc, #100]	; (8000f94 <LucesManualesComedor+0x74>)
 8000f2e:	881b      	ldrh	r3, [r3, #0]
 8000f30:	2201      	movs	r2, #1
 8000f32:	4619      	mov	r1, r3
 8000f34:	4818      	ldr	r0, [pc, #96]	; (8000f98 <LucesManualesComedor+0x78>)
 8000f36:	f001 fdc5 	bl	8002ac4 <HAL_GPIO_WritePin>
		HAL_GPIO_WritePin(GPIOE, PIN_LComedor2, 1);
 8000f3a:	4b18      	ldr	r3, [pc, #96]	; (8000f9c <LucesManualesComedor+0x7c>)
 8000f3c:	881b      	ldrh	r3, [r3, #0]
 8000f3e:	2201      	movs	r2, #1
 8000f40:	4619      	mov	r1, r3
 8000f42:	4815      	ldr	r0, [pc, #84]	; (8000f98 <LucesManualesComedor+0x78>)
 8000f44:	f001 fdbe 	bl	8002ac4 <HAL_GPIO_WritePin>
		HAL_GPIO_WritePin(GPIOE, PIN_LComedor3, 1);}
 8000f48:	4b15      	ldr	r3, [pc, #84]	; (8000fa0 <LucesManualesComedor+0x80>)
 8000f4a:	881b      	ldrh	r3, [r3, #0]
 8000f4c:	2201      	movs	r2, #1
 8000f4e:	4619      	mov	r1, r3
 8000f50:	4811      	ldr	r0, [pc, #68]	; (8000f98 <LucesManualesComedor+0x78>)
 8000f52:	f001 fdb7 	bl	8002ac4 <HAL_GPIO_WritePin>
	 else if (auxComedor==1){
		HAL_GPIO_WritePin(GPIOE, PIN_LComedor1, 0);
		HAL_GPIO_WritePin(GPIOE, PIN_LComedor2, 0);
		HAL_GPIO_WritePin(GPIOE, PIN_LComedor3, 0);}
}
 8000f56:	e018      	b.n	8000f8a <LucesManualesComedor+0x6a>
	 else if (auxComedor==1){
 8000f58:	4b0d      	ldr	r3, [pc, #52]	; (8000f90 <LucesManualesComedor+0x70>)
 8000f5a:	681b      	ldr	r3, [r3, #0]
 8000f5c:	2b01      	cmp	r3, #1
 8000f5e:	d114      	bne.n	8000f8a <LucesManualesComedor+0x6a>
		HAL_GPIO_WritePin(GPIOE, PIN_LComedor1, 0);
 8000f60:	4b0c      	ldr	r3, [pc, #48]	; (8000f94 <LucesManualesComedor+0x74>)
 8000f62:	881b      	ldrh	r3, [r3, #0]
 8000f64:	2200      	movs	r2, #0
 8000f66:	4619      	mov	r1, r3
 8000f68:	480b      	ldr	r0, [pc, #44]	; (8000f98 <LucesManualesComedor+0x78>)
 8000f6a:	f001 fdab 	bl	8002ac4 <HAL_GPIO_WritePin>
		HAL_GPIO_WritePin(GPIOE, PIN_LComedor2, 0);
 8000f6e:	4b0b      	ldr	r3, [pc, #44]	; (8000f9c <LucesManualesComedor+0x7c>)
 8000f70:	881b      	ldrh	r3, [r3, #0]
 8000f72:	2200      	movs	r2, #0
 8000f74:	4619      	mov	r1, r3
 8000f76:	4808      	ldr	r0, [pc, #32]	; (8000f98 <LucesManualesComedor+0x78>)
 8000f78:	f001 fda4 	bl	8002ac4 <HAL_GPIO_WritePin>
		HAL_GPIO_WritePin(GPIOE, PIN_LComedor3, 0);}
 8000f7c:	4b08      	ldr	r3, [pc, #32]	; (8000fa0 <LucesManualesComedor+0x80>)
 8000f7e:	881b      	ldrh	r3, [r3, #0]
 8000f80:	2200      	movs	r2, #0
 8000f82:	4619      	mov	r1, r3
 8000f84:	4804      	ldr	r0, [pc, #16]	; (8000f98 <LucesManualesComedor+0x78>)
 8000f86:	f001 fd9d 	bl	8002ac4 <HAL_GPIO_WritePin>
}
 8000f8a:	bf00      	nop
 8000f8c:	bd80      	pop	{r7, pc}
 8000f8e:	bf00      	nop
 8000f90:	20000058 	.word	0x20000058
 8000f94:	2000000a 	.word	0x2000000a
 8000f98:	40021000 	.word	0x40021000
 8000f9c:	2000000c 	.word	0x2000000c
 8000fa0:	2000000e 	.word	0x2000000e

08000fa4 <LucesManualesSalon>:

void LucesManualesSalon(void){
 8000fa4:	b580      	push	{r7, lr}
 8000fa6:	af00      	add	r7, sp, #0
	 if ( auxSalon==2) {
 8000fa8:	4b1a      	ldr	r3, [pc, #104]	; (8001014 <LucesManualesSalon+0x70>)
 8000faa:	681b      	ldr	r3, [r3, #0]
 8000fac:	2b02      	cmp	r3, #2
 8000fae:	d115      	bne.n	8000fdc <LucesManualesSalon+0x38>
		HAL_GPIO_WritePin(GPIOE, PIN_LSalon1, 1);
 8000fb0:	4b19      	ldr	r3, [pc, #100]	; (8001018 <LucesManualesSalon+0x74>)
 8000fb2:	881b      	ldrh	r3, [r3, #0]
 8000fb4:	2201      	movs	r2, #1
 8000fb6:	4619      	mov	r1, r3
 8000fb8:	4818      	ldr	r0, [pc, #96]	; (800101c <LucesManualesSalon+0x78>)
 8000fba:	f001 fd83 	bl	8002ac4 <HAL_GPIO_WritePin>
		HAL_GPIO_WritePin(GPIOE, PIN_LSalon2, 1);
 8000fbe:	4b18      	ldr	r3, [pc, #96]	; (8001020 <LucesManualesSalon+0x7c>)
 8000fc0:	881b      	ldrh	r3, [r3, #0]
 8000fc2:	2201      	movs	r2, #1
 8000fc4:	4619      	mov	r1, r3
 8000fc6:	4815      	ldr	r0, [pc, #84]	; (800101c <LucesManualesSalon+0x78>)
 8000fc8:	f001 fd7c 	bl	8002ac4 <HAL_GPIO_WritePin>
		HAL_GPIO_WritePin(GPIOE, PIN_LSalon3, 1);}
 8000fcc:	4b15      	ldr	r3, [pc, #84]	; (8001024 <LucesManualesSalon+0x80>)
 8000fce:	881b      	ldrh	r3, [r3, #0]
 8000fd0:	2201      	movs	r2, #1
 8000fd2:	4619      	mov	r1, r3
 8000fd4:	4811      	ldr	r0, [pc, #68]	; (800101c <LucesManualesSalon+0x78>)
 8000fd6:	f001 fd75 	bl	8002ac4 <HAL_GPIO_WritePin>
	 else if (auxSalon==1){
		HAL_GPIO_WritePin(GPIOE, PIN_LSalon1, 0);
		HAL_GPIO_WritePin(GPIOE, PIN_LSalon2, 0);
		HAL_GPIO_WritePin(GPIOE, PIN_LSalon3, 0);}
}
 8000fda:	e018      	b.n	800100e <LucesManualesSalon+0x6a>
	 else if (auxSalon==1){
 8000fdc:	4b0d      	ldr	r3, [pc, #52]	; (8001014 <LucesManualesSalon+0x70>)
 8000fde:	681b      	ldr	r3, [r3, #0]
 8000fe0:	2b01      	cmp	r3, #1
 8000fe2:	d114      	bne.n	800100e <LucesManualesSalon+0x6a>
		HAL_GPIO_WritePin(GPIOE, PIN_LSalon1, 0);
 8000fe4:	4b0c      	ldr	r3, [pc, #48]	; (8001018 <LucesManualesSalon+0x74>)
 8000fe6:	881b      	ldrh	r3, [r3, #0]
 8000fe8:	2200      	movs	r2, #0
 8000fea:	4619      	mov	r1, r3
 8000fec:	480b      	ldr	r0, [pc, #44]	; (800101c <LucesManualesSalon+0x78>)
 8000fee:	f001 fd69 	bl	8002ac4 <HAL_GPIO_WritePin>
		HAL_GPIO_WritePin(GPIOE, PIN_LSalon2, 0);
 8000ff2:	4b0b      	ldr	r3, [pc, #44]	; (8001020 <LucesManualesSalon+0x7c>)
 8000ff4:	881b      	ldrh	r3, [r3, #0]
 8000ff6:	2200      	movs	r2, #0
 8000ff8:	4619      	mov	r1, r3
 8000ffa:	4808      	ldr	r0, [pc, #32]	; (800101c <LucesManualesSalon+0x78>)
 8000ffc:	f001 fd62 	bl	8002ac4 <HAL_GPIO_WritePin>
		HAL_GPIO_WritePin(GPIOE, PIN_LSalon3, 0);}
 8001000:	4b08      	ldr	r3, [pc, #32]	; (8001024 <LucesManualesSalon+0x80>)
 8001002:	881b      	ldrh	r3, [r3, #0]
 8001004:	2200      	movs	r2, #0
 8001006:	4619      	mov	r1, r3
 8001008:	4804      	ldr	r0, [pc, #16]	; (800101c <LucesManualesSalon+0x78>)
 800100a:	f001 fd5b 	bl	8002ac4 <HAL_GPIO_WritePin>
}
 800100e:	bf00      	nop
 8001010:	bd80      	pop	{r7, pc}
 8001012:	bf00      	nop
 8001014:	2000005c 	.word	0x2000005c
 8001018:	20000004 	.word	0x20000004
 800101c:	40021000 	.word	0x40021000
 8001020:	20000006 	.word	0x20000006
 8001024:	20000008 	.word	0x20000008

08001028 <LucesAutomaticasSalon>:


void LucesAutomaticasSalon(void){
 8001028:	b580      	push	{r7, lr}
 800102a:	af00      	add	r7, sp, #0
 if (DistanciaSalon>0 && DistanciaSalon<ProfundidadSalon){
 800102c:	4b4d      	ldr	r3, [pc, #308]	; (8001164 <LucesAutomaticasSalon+0x13c>)
 800102e:	681b      	ldr	r3, [r3, #0]
 8001030:	2b00      	cmp	r3, #0
 8001032:	dd7e      	ble.n	8001132 <LucesAutomaticasSalon+0x10a>
 8001034:	4b4b      	ldr	r3, [pc, #300]	; (8001164 <LucesAutomaticasSalon+0x13c>)
 8001036:	681a      	ldr	r2, [r3, #0]
 8001038:	4b4b      	ldr	r3, [pc, #300]	; (8001168 <LucesAutomaticasSalon+0x140>)
 800103a:	681b      	ldr	r3, [r3, #0]
 800103c:	429a      	cmp	r2, r3
 800103e:	da78      	bge.n	8001132 <LucesAutomaticasSalon+0x10a>
	if      (Valor_LDR>0 && Valor_LDR<64){
 8001040:	4b4a      	ldr	r3, [pc, #296]	; (800116c <LucesAutomaticasSalon+0x144>)
 8001042:	881b      	ldrh	r3, [r3, #0]
 8001044:	2b00      	cmp	r3, #0
 8001046:	d019      	beq.n	800107c <LucesAutomaticasSalon+0x54>
 8001048:	4b48      	ldr	r3, [pc, #288]	; (800116c <LucesAutomaticasSalon+0x144>)
 800104a:	881b      	ldrh	r3, [r3, #0]
 800104c:	2b3f      	cmp	r3, #63	; 0x3f
 800104e:	d815      	bhi.n	800107c <LucesAutomaticasSalon+0x54>
		HAL_GPIO_WritePin(GPIOE, PIN_LSalon1, 1);
 8001050:	4b47      	ldr	r3, [pc, #284]	; (8001170 <LucesAutomaticasSalon+0x148>)
 8001052:	881b      	ldrh	r3, [r3, #0]
 8001054:	2201      	movs	r2, #1
 8001056:	4619      	mov	r1, r3
 8001058:	4846      	ldr	r0, [pc, #280]	; (8001174 <LucesAutomaticasSalon+0x14c>)
 800105a:	f001 fd33 	bl	8002ac4 <HAL_GPIO_WritePin>
		HAL_GPIO_WritePin(GPIOE, PIN_LSalon2, 1);
 800105e:	4b46      	ldr	r3, [pc, #280]	; (8001178 <LucesAutomaticasSalon+0x150>)
 8001060:	881b      	ldrh	r3, [r3, #0]
 8001062:	2201      	movs	r2, #1
 8001064:	4619      	mov	r1, r3
 8001066:	4843      	ldr	r0, [pc, #268]	; (8001174 <LucesAutomaticasSalon+0x14c>)
 8001068:	f001 fd2c 	bl	8002ac4 <HAL_GPIO_WritePin>
		HAL_GPIO_WritePin(GPIOE, PIN_LSalon3, 1);}
 800106c:	4b43      	ldr	r3, [pc, #268]	; (800117c <LucesAutomaticasSalon+0x154>)
 800106e:	881b      	ldrh	r3, [r3, #0]
 8001070:	2201      	movs	r2, #1
 8001072:	4619      	mov	r1, r3
 8001074:	483f      	ldr	r0, [pc, #252]	; (8001174 <LucesAutomaticasSalon+0x14c>)
 8001076:	f001 fd25 	bl	8002ac4 <HAL_GPIO_WritePin>
 800107a:	e059      	b.n	8001130 <LucesAutomaticasSalon+0x108>
	else if (Valor_LDR>64 && Valor_LDR<128){
 800107c:	4b3b      	ldr	r3, [pc, #236]	; (800116c <LucesAutomaticasSalon+0x144>)
 800107e:	881b      	ldrh	r3, [r3, #0]
 8001080:	2b40      	cmp	r3, #64	; 0x40
 8001082:	d919      	bls.n	80010b8 <LucesAutomaticasSalon+0x90>
 8001084:	4b39      	ldr	r3, [pc, #228]	; (800116c <LucesAutomaticasSalon+0x144>)
 8001086:	881b      	ldrh	r3, [r3, #0]
 8001088:	2b7f      	cmp	r3, #127	; 0x7f
 800108a:	d815      	bhi.n	80010b8 <LucesAutomaticasSalon+0x90>
    	HAL_GPIO_WritePin(GPIOE, PIN_LSalon1, 1);
 800108c:	4b38      	ldr	r3, [pc, #224]	; (8001170 <LucesAutomaticasSalon+0x148>)
 800108e:	881b      	ldrh	r3, [r3, #0]
 8001090:	2201      	movs	r2, #1
 8001092:	4619      	mov	r1, r3
 8001094:	4837      	ldr	r0, [pc, #220]	; (8001174 <LucesAutomaticasSalon+0x14c>)
 8001096:	f001 fd15 	bl	8002ac4 <HAL_GPIO_WritePin>
		HAL_GPIO_WritePin(GPIOE, PIN_LSalon2, 1);
 800109a:	4b37      	ldr	r3, [pc, #220]	; (8001178 <LucesAutomaticasSalon+0x150>)
 800109c:	881b      	ldrh	r3, [r3, #0]
 800109e:	2201      	movs	r2, #1
 80010a0:	4619      	mov	r1, r3
 80010a2:	4834      	ldr	r0, [pc, #208]	; (8001174 <LucesAutomaticasSalon+0x14c>)
 80010a4:	f001 fd0e 	bl	8002ac4 <HAL_GPIO_WritePin>
		HAL_GPIO_WritePin(GPIOE, PIN_LSalon3, 0);}
 80010a8:	4b34      	ldr	r3, [pc, #208]	; (800117c <LucesAutomaticasSalon+0x154>)
 80010aa:	881b      	ldrh	r3, [r3, #0]
 80010ac:	2200      	movs	r2, #0
 80010ae:	4619      	mov	r1, r3
 80010b0:	4830      	ldr	r0, [pc, #192]	; (8001174 <LucesAutomaticasSalon+0x14c>)
 80010b2:	f001 fd07 	bl	8002ac4 <HAL_GPIO_WritePin>
 80010b6:	e03b      	b.n	8001130 <LucesAutomaticasSalon+0x108>
	else if (Valor_LDR>128 && Valor_LDR<192){
 80010b8:	4b2c      	ldr	r3, [pc, #176]	; (800116c <LucesAutomaticasSalon+0x144>)
 80010ba:	881b      	ldrh	r3, [r3, #0]
 80010bc:	2b80      	cmp	r3, #128	; 0x80
 80010be:	d919      	bls.n	80010f4 <LucesAutomaticasSalon+0xcc>
 80010c0:	4b2a      	ldr	r3, [pc, #168]	; (800116c <LucesAutomaticasSalon+0x144>)
 80010c2:	881b      	ldrh	r3, [r3, #0]
 80010c4:	2bbf      	cmp	r3, #191	; 0xbf
 80010c6:	d815      	bhi.n	80010f4 <LucesAutomaticasSalon+0xcc>
		HAL_GPIO_WritePin(GPIOE, PIN_LSalon1, 1);
 80010c8:	4b29      	ldr	r3, [pc, #164]	; (8001170 <LucesAutomaticasSalon+0x148>)
 80010ca:	881b      	ldrh	r3, [r3, #0]
 80010cc:	2201      	movs	r2, #1
 80010ce:	4619      	mov	r1, r3
 80010d0:	4828      	ldr	r0, [pc, #160]	; (8001174 <LucesAutomaticasSalon+0x14c>)
 80010d2:	f001 fcf7 	bl	8002ac4 <HAL_GPIO_WritePin>
		HAL_GPIO_WritePin(GPIOE, PIN_LSalon2, 0);
 80010d6:	4b28      	ldr	r3, [pc, #160]	; (8001178 <LucesAutomaticasSalon+0x150>)
 80010d8:	881b      	ldrh	r3, [r3, #0]
 80010da:	2200      	movs	r2, #0
 80010dc:	4619      	mov	r1, r3
 80010de:	4825      	ldr	r0, [pc, #148]	; (8001174 <LucesAutomaticasSalon+0x14c>)
 80010e0:	f001 fcf0 	bl	8002ac4 <HAL_GPIO_WritePin>
		HAL_GPIO_WritePin(GPIOE, PIN_LSalon3, 0);}
 80010e4:	4b25      	ldr	r3, [pc, #148]	; (800117c <LucesAutomaticasSalon+0x154>)
 80010e6:	881b      	ldrh	r3, [r3, #0]
 80010e8:	2200      	movs	r2, #0
 80010ea:	4619      	mov	r1, r3
 80010ec:	4821      	ldr	r0, [pc, #132]	; (8001174 <LucesAutomaticasSalon+0x14c>)
 80010ee:	f001 fce9 	bl	8002ac4 <HAL_GPIO_WritePin>
 80010f2:	e01d      	b.n	8001130 <LucesAutomaticasSalon+0x108>
	else if (Valor_LDR>192 && Valor_LDR<255){
 80010f4:	4b1d      	ldr	r3, [pc, #116]	; (800116c <LucesAutomaticasSalon+0x144>)
 80010f6:	881b      	ldrh	r3, [r3, #0]
 80010f8:	2bc0      	cmp	r3, #192	; 0xc0
 80010fa:	d930      	bls.n	800115e <LucesAutomaticasSalon+0x136>
 80010fc:	4b1b      	ldr	r3, [pc, #108]	; (800116c <LucesAutomaticasSalon+0x144>)
 80010fe:	881b      	ldrh	r3, [r3, #0]
 8001100:	2bfe      	cmp	r3, #254	; 0xfe
 8001102:	d82c      	bhi.n	800115e <LucesAutomaticasSalon+0x136>
		HAL_GPIO_WritePin(GPIOE, PIN_LSalon1, 0);
 8001104:	4b1a      	ldr	r3, [pc, #104]	; (8001170 <LucesAutomaticasSalon+0x148>)
 8001106:	881b      	ldrh	r3, [r3, #0]
 8001108:	2200      	movs	r2, #0
 800110a:	4619      	mov	r1, r3
 800110c:	4819      	ldr	r0, [pc, #100]	; (8001174 <LucesAutomaticasSalon+0x14c>)
 800110e:	f001 fcd9 	bl	8002ac4 <HAL_GPIO_WritePin>
		HAL_GPIO_WritePin(GPIOE, PIN_LSalon2, 0);
 8001112:	4b19      	ldr	r3, [pc, #100]	; (8001178 <LucesAutomaticasSalon+0x150>)
 8001114:	881b      	ldrh	r3, [r3, #0]
 8001116:	2200      	movs	r2, #0
 8001118:	4619      	mov	r1, r3
 800111a:	4816      	ldr	r0, [pc, #88]	; (8001174 <LucesAutomaticasSalon+0x14c>)
 800111c:	f001 fcd2 	bl	8002ac4 <HAL_GPIO_WritePin>
		HAL_GPIO_WritePin(GPIOE, PIN_LSalon3, 0);}}
 8001120:	4b16      	ldr	r3, [pc, #88]	; (800117c <LucesAutomaticasSalon+0x154>)
 8001122:	881b      	ldrh	r3, [r3, #0]
 8001124:	2200      	movs	r2, #0
 8001126:	4619      	mov	r1, r3
 8001128:	4812      	ldr	r0, [pc, #72]	; (8001174 <LucesAutomaticasSalon+0x14c>)
 800112a:	f001 fccb 	bl	8002ac4 <HAL_GPIO_WritePin>
	if      (Valor_LDR>0 && Valor_LDR<64){
 800112e:	e016      	b.n	800115e <LucesAutomaticasSalon+0x136>
 8001130:	e015      	b.n	800115e <LucesAutomaticasSalon+0x136>
 else{ HAL_GPIO_WritePin(GPIOE, PIN_LSalon1, 0);
 8001132:	4b0f      	ldr	r3, [pc, #60]	; (8001170 <LucesAutomaticasSalon+0x148>)
 8001134:	881b      	ldrh	r3, [r3, #0]
 8001136:	2200      	movs	r2, #0
 8001138:	4619      	mov	r1, r3
 800113a:	480e      	ldr	r0, [pc, #56]	; (8001174 <LucesAutomaticasSalon+0x14c>)
 800113c:	f001 fcc2 	bl	8002ac4 <HAL_GPIO_WritePin>
	   HAL_GPIO_WritePin(GPIOE, PIN_LSalon2, 1);//PONER A 0 CUANDO FUNCIONE
 8001140:	4b0d      	ldr	r3, [pc, #52]	; (8001178 <LucesAutomaticasSalon+0x150>)
 8001142:	881b      	ldrh	r3, [r3, #0]
 8001144:	2201      	movs	r2, #1
 8001146:	4619      	mov	r1, r3
 8001148:	480a      	ldr	r0, [pc, #40]	; (8001174 <LucesAutomaticasSalon+0x14c>)
 800114a:	f001 fcbb 	bl	8002ac4 <HAL_GPIO_WritePin>
	   HAL_GPIO_WritePin(GPIOE, PIN_LSalon3, 0);}
 800114e:	4b0b      	ldr	r3, [pc, #44]	; (800117c <LucesAutomaticasSalon+0x154>)
 8001150:	881b      	ldrh	r3, [r3, #0]
 8001152:	2200      	movs	r2, #0
 8001154:	4619      	mov	r1, r3
 8001156:	4807      	ldr	r0, [pc, #28]	; (8001174 <LucesAutomaticasSalon+0x14c>)
 8001158:	f001 fcb4 	bl	8002ac4 <HAL_GPIO_WritePin>
}
 800115c:	e000      	b.n	8001160 <LucesAutomaticasSalon+0x138>
	if      (Valor_LDR>0 && Valor_LDR<64){
 800115e:	bf00      	nop
}
 8001160:	bf00      	nop
 8001162:	bd80      	pop	{r7, pc}
 8001164:	20000060 	.word	0x20000060
 8001168:	20000018 	.word	0x20000018
 800116c:	20000054 	.word	0x20000054
 8001170:	20000004 	.word	0x20000004
 8001174:	40021000 	.word	0x40021000
 8001178:	20000006 	.word	0x20000006
 800117c:	20000008 	.word	0x20000008

08001180 <LucesAutomaticasComedor>:
void LucesAutomaticasComedor(void){
 8001180:	b580      	push	{r7, lr}
 8001182:	af00      	add	r7, sp, #0
 if (DistanciaComedor>0 && DistanciaComedor<ProfundidadComedor){
 8001184:	4b4d      	ldr	r3, [pc, #308]	; (80012bc <LucesAutomaticasComedor+0x13c>)
 8001186:	681b      	ldr	r3, [r3, #0]
 8001188:	2b00      	cmp	r3, #0
 800118a:	dd7e      	ble.n	800128a <LucesAutomaticasComedor+0x10a>
 800118c:	4b4b      	ldr	r3, [pc, #300]	; (80012bc <LucesAutomaticasComedor+0x13c>)
 800118e:	681a      	ldr	r2, [r3, #0]
 8001190:	4b4b      	ldr	r3, [pc, #300]	; (80012c0 <LucesAutomaticasComedor+0x140>)
 8001192:	681b      	ldr	r3, [r3, #0]
 8001194:	429a      	cmp	r2, r3
 8001196:	da78      	bge.n	800128a <LucesAutomaticasComedor+0x10a>
	if      (Valor_LDR>0 && Valor_LDR<64){
 8001198:	4b4a      	ldr	r3, [pc, #296]	; (80012c4 <LucesAutomaticasComedor+0x144>)
 800119a:	881b      	ldrh	r3, [r3, #0]
 800119c:	2b00      	cmp	r3, #0
 800119e:	d019      	beq.n	80011d4 <LucesAutomaticasComedor+0x54>
 80011a0:	4b48      	ldr	r3, [pc, #288]	; (80012c4 <LucesAutomaticasComedor+0x144>)
 80011a2:	881b      	ldrh	r3, [r3, #0]
 80011a4:	2b3f      	cmp	r3, #63	; 0x3f
 80011a6:	d815      	bhi.n	80011d4 <LucesAutomaticasComedor+0x54>
		HAL_GPIO_WritePin(GPIOE, PIN_LComedor1, 1);
 80011a8:	4b47      	ldr	r3, [pc, #284]	; (80012c8 <LucesAutomaticasComedor+0x148>)
 80011aa:	881b      	ldrh	r3, [r3, #0]
 80011ac:	2201      	movs	r2, #1
 80011ae:	4619      	mov	r1, r3
 80011b0:	4846      	ldr	r0, [pc, #280]	; (80012cc <LucesAutomaticasComedor+0x14c>)
 80011b2:	f001 fc87 	bl	8002ac4 <HAL_GPIO_WritePin>
		HAL_GPIO_WritePin(GPIOE, PIN_LComedor2, 1);
 80011b6:	4b46      	ldr	r3, [pc, #280]	; (80012d0 <LucesAutomaticasComedor+0x150>)
 80011b8:	881b      	ldrh	r3, [r3, #0]
 80011ba:	2201      	movs	r2, #1
 80011bc:	4619      	mov	r1, r3
 80011be:	4843      	ldr	r0, [pc, #268]	; (80012cc <LucesAutomaticasComedor+0x14c>)
 80011c0:	f001 fc80 	bl	8002ac4 <HAL_GPIO_WritePin>
		HAL_GPIO_WritePin(GPIOE, PIN_LComedor3, 1);}
 80011c4:	4b43      	ldr	r3, [pc, #268]	; (80012d4 <LucesAutomaticasComedor+0x154>)
 80011c6:	881b      	ldrh	r3, [r3, #0]
 80011c8:	2201      	movs	r2, #1
 80011ca:	4619      	mov	r1, r3
 80011cc:	483f      	ldr	r0, [pc, #252]	; (80012cc <LucesAutomaticasComedor+0x14c>)
 80011ce:	f001 fc79 	bl	8002ac4 <HAL_GPIO_WritePin>
 80011d2:	e059      	b.n	8001288 <LucesAutomaticasComedor+0x108>
	else if (Valor_LDR>64 && Valor_LDR<128){
 80011d4:	4b3b      	ldr	r3, [pc, #236]	; (80012c4 <LucesAutomaticasComedor+0x144>)
 80011d6:	881b      	ldrh	r3, [r3, #0]
 80011d8:	2b40      	cmp	r3, #64	; 0x40
 80011da:	d919      	bls.n	8001210 <LucesAutomaticasComedor+0x90>
 80011dc:	4b39      	ldr	r3, [pc, #228]	; (80012c4 <LucesAutomaticasComedor+0x144>)
 80011de:	881b      	ldrh	r3, [r3, #0]
 80011e0:	2b7f      	cmp	r3, #127	; 0x7f
 80011e2:	d815      	bhi.n	8001210 <LucesAutomaticasComedor+0x90>
		HAL_GPIO_WritePin(GPIOE, PIN_LComedor1, 1);
 80011e4:	4b38      	ldr	r3, [pc, #224]	; (80012c8 <LucesAutomaticasComedor+0x148>)
 80011e6:	881b      	ldrh	r3, [r3, #0]
 80011e8:	2201      	movs	r2, #1
 80011ea:	4619      	mov	r1, r3
 80011ec:	4837      	ldr	r0, [pc, #220]	; (80012cc <LucesAutomaticasComedor+0x14c>)
 80011ee:	f001 fc69 	bl	8002ac4 <HAL_GPIO_WritePin>
		HAL_GPIO_WritePin(GPIOE, PIN_LComedor2, 1);
 80011f2:	4b37      	ldr	r3, [pc, #220]	; (80012d0 <LucesAutomaticasComedor+0x150>)
 80011f4:	881b      	ldrh	r3, [r3, #0]
 80011f6:	2201      	movs	r2, #1
 80011f8:	4619      	mov	r1, r3
 80011fa:	4834      	ldr	r0, [pc, #208]	; (80012cc <LucesAutomaticasComedor+0x14c>)
 80011fc:	f001 fc62 	bl	8002ac4 <HAL_GPIO_WritePin>
		HAL_GPIO_WritePin(GPIOE, PIN_LComedor3, 0);}
 8001200:	4b34      	ldr	r3, [pc, #208]	; (80012d4 <LucesAutomaticasComedor+0x154>)
 8001202:	881b      	ldrh	r3, [r3, #0]
 8001204:	2200      	movs	r2, #0
 8001206:	4619      	mov	r1, r3
 8001208:	4830      	ldr	r0, [pc, #192]	; (80012cc <LucesAutomaticasComedor+0x14c>)
 800120a:	f001 fc5b 	bl	8002ac4 <HAL_GPIO_WritePin>
 800120e:	e03b      	b.n	8001288 <LucesAutomaticasComedor+0x108>
	else if (Valor_LDR>128 && Valor_LDR<192){
 8001210:	4b2c      	ldr	r3, [pc, #176]	; (80012c4 <LucesAutomaticasComedor+0x144>)
 8001212:	881b      	ldrh	r3, [r3, #0]
 8001214:	2b80      	cmp	r3, #128	; 0x80
 8001216:	d919      	bls.n	800124c <LucesAutomaticasComedor+0xcc>
 8001218:	4b2a      	ldr	r3, [pc, #168]	; (80012c4 <LucesAutomaticasComedor+0x144>)
 800121a:	881b      	ldrh	r3, [r3, #0]
 800121c:	2bbf      	cmp	r3, #191	; 0xbf
 800121e:	d815      	bhi.n	800124c <LucesAutomaticasComedor+0xcc>
		HAL_GPIO_WritePin(GPIOE, PIN_LComedor1, 1);
 8001220:	4b29      	ldr	r3, [pc, #164]	; (80012c8 <LucesAutomaticasComedor+0x148>)
 8001222:	881b      	ldrh	r3, [r3, #0]
 8001224:	2201      	movs	r2, #1
 8001226:	4619      	mov	r1, r3
 8001228:	4828      	ldr	r0, [pc, #160]	; (80012cc <LucesAutomaticasComedor+0x14c>)
 800122a:	f001 fc4b 	bl	8002ac4 <HAL_GPIO_WritePin>
		HAL_GPIO_WritePin(GPIOE, PIN_LComedor2, 0);
 800122e:	4b28      	ldr	r3, [pc, #160]	; (80012d0 <LucesAutomaticasComedor+0x150>)
 8001230:	881b      	ldrh	r3, [r3, #0]
 8001232:	2200      	movs	r2, #0
 8001234:	4619      	mov	r1, r3
 8001236:	4825      	ldr	r0, [pc, #148]	; (80012cc <LucesAutomaticasComedor+0x14c>)
 8001238:	f001 fc44 	bl	8002ac4 <HAL_GPIO_WritePin>
		HAL_GPIO_WritePin(GPIOE, PIN_LComedor3, 0);}
 800123c:	4b25      	ldr	r3, [pc, #148]	; (80012d4 <LucesAutomaticasComedor+0x154>)
 800123e:	881b      	ldrh	r3, [r3, #0]
 8001240:	2200      	movs	r2, #0
 8001242:	4619      	mov	r1, r3
 8001244:	4821      	ldr	r0, [pc, #132]	; (80012cc <LucesAutomaticasComedor+0x14c>)
 8001246:	f001 fc3d 	bl	8002ac4 <HAL_GPIO_WritePin>
 800124a:	e01d      	b.n	8001288 <LucesAutomaticasComedor+0x108>
	else if (Valor_LDR>192 && Valor_LDR<255){
 800124c:	4b1d      	ldr	r3, [pc, #116]	; (80012c4 <LucesAutomaticasComedor+0x144>)
 800124e:	881b      	ldrh	r3, [r3, #0]
 8001250:	2bc0      	cmp	r3, #192	; 0xc0
 8001252:	d930      	bls.n	80012b6 <LucesAutomaticasComedor+0x136>
 8001254:	4b1b      	ldr	r3, [pc, #108]	; (80012c4 <LucesAutomaticasComedor+0x144>)
 8001256:	881b      	ldrh	r3, [r3, #0]
 8001258:	2bfe      	cmp	r3, #254	; 0xfe
 800125a:	d82c      	bhi.n	80012b6 <LucesAutomaticasComedor+0x136>
		HAL_GPIO_WritePin(GPIOE, PIN_LComedor1, 0);
 800125c:	4b1a      	ldr	r3, [pc, #104]	; (80012c8 <LucesAutomaticasComedor+0x148>)
 800125e:	881b      	ldrh	r3, [r3, #0]
 8001260:	2200      	movs	r2, #0
 8001262:	4619      	mov	r1, r3
 8001264:	4819      	ldr	r0, [pc, #100]	; (80012cc <LucesAutomaticasComedor+0x14c>)
 8001266:	f001 fc2d 	bl	8002ac4 <HAL_GPIO_WritePin>
		HAL_GPIO_WritePin(GPIOE, PIN_LComedor2, 0);
 800126a:	4b19      	ldr	r3, [pc, #100]	; (80012d0 <LucesAutomaticasComedor+0x150>)
 800126c:	881b      	ldrh	r3, [r3, #0]
 800126e:	2200      	movs	r2, #0
 8001270:	4619      	mov	r1, r3
 8001272:	4816      	ldr	r0, [pc, #88]	; (80012cc <LucesAutomaticasComedor+0x14c>)
 8001274:	f001 fc26 	bl	8002ac4 <HAL_GPIO_WritePin>
		HAL_GPIO_WritePin(GPIOE, PIN_LComedor3, 0);}}
 8001278:	4b16      	ldr	r3, [pc, #88]	; (80012d4 <LucesAutomaticasComedor+0x154>)
 800127a:	881b      	ldrh	r3, [r3, #0]
 800127c:	2200      	movs	r2, #0
 800127e:	4619      	mov	r1, r3
 8001280:	4812      	ldr	r0, [pc, #72]	; (80012cc <LucesAutomaticasComedor+0x14c>)
 8001282:	f001 fc1f 	bl	8002ac4 <HAL_GPIO_WritePin>
	if      (Valor_LDR>0 && Valor_LDR<64){
 8001286:	e016      	b.n	80012b6 <LucesAutomaticasComedor+0x136>
 8001288:	e015      	b.n	80012b6 <LucesAutomaticasComedor+0x136>
 else {HAL_GPIO_WritePin(GPIOE, PIN_LComedor1, 0);
 800128a:	4b0f      	ldr	r3, [pc, #60]	; (80012c8 <LucesAutomaticasComedor+0x148>)
 800128c:	881b      	ldrh	r3, [r3, #0]
 800128e:	2200      	movs	r2, #0
 8001290:	4619      	mov	r1, r3
 8001292:	480e      	ldr	r0, [pc, #56]	; (80012cc <LucesAutomaticasComedor+0x14c>)
 8001294:	f001 fc16 	bl	8002ac4 <HAL_GPIO_WritePin>
	   HAL_GPIO_WritePin(GPIOE, PIN_LComedor2, 1); //PONER A 0 CUANDO FUNCIONE
 8001298:	4b0d      	ldr	r3, [pc, #52]	; (80012d0 <LucesAutomaticasComedor+0x150>)
 800129a:	881b      	ldrh	r3, [r3, #0]
 800129c:	2201      	movs	r2, #1
 800129e:	4619      	mov	r1, r3
 80012a0:	480a      	ldr	r0, [pc, #40]	; (80012cc <LucesAutomaticasComedor+0x14c>)
 80012a2:	f001 fc0f 	bl	8002ac4 <HAL_GPIO_WritePin>
	   HAL_GPIO_WritePin(GPIOE, PIN_LComedor3, 0);}
 80012a6:	4b0b      	ldr	r3, [pc, #44]	; (80012d4 <LucesAutomaticasComedor+0x154>)
 80012a8:	881b      	ldrh	r3, [r3, #0]
 80012aa:	2200      	movs	r2, #0
 80012ac:	4619      	mov	r1, r3
 80012ae:	4807      	ldr	r0, [pc, #28]	; (80012cc <LucesAutomaticasComedor+0x14c>)
 80012b0:	f001 fc08 	bl	8002ac4 <HAL_GPIO_WritePin>
}
 80012b4:	e000      	b.n	80012b8 <LucesAutomaticasComedor+0x138>
	if      (Valor_LDR>0 && Valor_LDR<64){
 80012b6:	bf00      	nop
}
 80012b8:	bf00      	nop
 80012ba:	bd80      	pop	{r7, pc}
 80012bc:	20000064 	.word	0x20000064
 80012c0:	2000001c 	.word	0x2000001c
 80012c4:	20000054 	.word	0x20000054
 80012c8:	2000000a 	.word	0x2000000a
 80012cc:	40021000 	.word	0x40021000
 80012d0:	2000000c 	.word	0x2000000c
 80012d4:	2000000e 	.word	0x2000000e

080012d8 <main>:
/**
  * @brief  The application entry point.
  * @retval int
  */
int main(void)
{
 80012d8:	b580      	push	{r7, lr}
 80012da:	af00      	add	r7, sp, #0
  /* USER CODE END 1 */

  /* MCU Configuration--------------------------------------------------------*/

  /* Reset of all peripherals, Initializes the Flash interface and the Systick. */
  HAL_Init();
 80012dc:	f000 fbc2 	bl	8001a64 <HAL_Init>
  /* USER CODE BEGIN Init */

  /* USER CODE END Init */

  /* Configure the system clock */
  SystemClock_Config();
 80012e0:	f000 f916 	bl	8001510 <SystemClock_Config>
  /* USER CODE BEGIN SysInit */

  /* USER CODE END SysInit */

  /* Initialize all configured peripherals */
  MX_GPIO_Init();
 80012e4:	f000 f9ce 	bl	8001684 <MX_GPIO_Init>
  MX_ADC1_Init();
 80012e8:	f000 f97a 	bl	80015e0 <MX_ADC1_Init>
  {
    /* USER CODE END WHILE */

    /* USER CODE BEGIN 3 */
	  //LECTURA LDR
	  HAL_ADC_Start_IT(&hadc1);
 80012ec:	487d      	ldr	r0, [pc, #500]	; (80014e4 <main+0x20c>)
 80012ee:	f000 fc91 	bl	8001c14 <HAL_ADC_Start_IT>
	  HAL_ADC_ConvCpltCallback(&hadc1);
 80012f2:	487c      	ldr	r0, [pc, #496]	; (80014e4 <main+0x20c>)
 80012f4:	f7ff fcde 	bl	8000cb4 <HAL_ADC_ConvCpltCallback>

	  //LECTURA SENSORES ULTRASONIDOS
	  DistanciaSalon=LecturaSalon();
 80012f8:	f7ff fd6a 	bl	8000dd0 <LecturaSalon>
 80012fc:	4602      	mov	r2, r0
 80012fe:	4b7a      	ldr	r3, [pc, #488]	; (80014e8 <main+0x210>)
 8001300:	601a      	str	r2, [r3, #0]
	  DistanciaComedor=LecturaComedor();
 8001302:	f7ff fdb9 	bl	8000e78 <LecturaComedor>
 8001306:	4602      	mov	r2, r0
 8001308:	4b78      	ldr	r3, [pc, #480]	; (80014ec <main+0x214>)
 800130a:	601a      	str	r2, [r3, #0]

	/*-----------CAMBIO DE ESTADO----------*/
	  if (debouncer(&BComedor, GPIOE, PIN_BComedor)){
 800130c:	4b78      	ldr	r3, [pc, #480]	; (80014f0 <main+0x218>)
 800130e:	881b      	ldrh	r3, [r3, #0]
 8001310:	461a      	mov	r2, r3
 8001312:	4978      	ldr	r1, [pc, #480]	; (80014f4 <main+0x21c>)
 8001314:	4878      	ldr	r0, [pc, #480]	; (80014f8 <main+0x220>)
 8001316:	f7ff fd0b 	bl	8000d30 <debouncer>
 800131a:	4603      	mov	r3, r0
 800131c:	2b00      	cmp	r3, #0
 800131e:	d058      	beq.n	80013d2 <main+0xfa>
	  		if 			(estado == AutSalAutCom && auxComedor==0) 	{estado = AutSalManCom; auxComedor=2;}
 8001320:	4b76      	ldr	r3, [pc, #472]	; (80014fc <main+0x224>)
 8001322:	681b      	ldr	r3, [r3, #0]
 8001324:	2b00      	cmp	r3, #0
 8001326:	d10a      	bne.n	800133e <main+0x66>
 8001328:	4b75      	ldr	r3, [pc, #468]	; (8001500 <main+0x228>)
 800132a:	681b      	ldr	r3, [r3, #0]
 800132c:	2b00      	cmp	r3, #0
 800132e:	d106      	bne.n	800133e <main+0x66>
 8001330:	4b72      	ldr	r3, [pc, #456]	; (80014fc <main+0x224>)
 8001332:	2201      	movs	r2, #1
 8001334:	601a      	str	r2, [r3, #0]
 8001336:	4b72      	ldr	r3, [pc, #456]	; (8001500 <main+0x228>)
 8001338:	2202      	movs	r2, #2
 800133a:	601a      	str	r2, [r3, #0]
 800133c:	e049      	b.n	80013d2 <main+0xfa>
	  		else if 	(estado == AutSalManCom && auxComedor==2) 	{estado = AutSalManCom; auxComedor=1;}
 800133e:	4b6f      	ldr	r3, [pc, #444]	; (80014fc <main+0x224>)
 8001340:	681b      	ldr	r3, [r3, #0]
 8001342:	2b01      	cmp	r3, #1
 8001344:	d10a      	bne.n	800135c <main+0x84>
 8001346:	4b6e      	ldr	r3, [pc, #440]	; (8001500 <main+0x228>)
 8001348:	681b      	ldr	r3, [r3, #0]
 800134a:	2b02      	cmp	r3, #2
 800134c:	d106      	bne.n	800135c <main+0x84>
 800134e:	4b6b      	ldr	r3, [pc, #428]	; (80014fc <main+0x224>)
 8001350:	2201      	movs	r2, #1
 8001352:	601a      	str	r2, [r3, #0]
 8001354:	4b6a      	ldr	r3, [pc, #424]	; (8001500 <main+0x228>)
 8001356:	2201      	movs	r2, #1
 8001358:	601a      	str	r2, [r3, #0]
 800135a:	e03a      	b.n	80013d2 <main+0xfa>
	  	  	else if 	(estado == AutSalManCom && auxComedor==1) 	{estado = AutSalAutCom; auxComedor=0;}
 800135c:	4b67      	ldr	r3, [pc, #412]	; (80014fc <main+0x224>)
 800135e:	681b      	ldr	r3, [r3, #0]
 8001360:	2b01      	cmp	r3, #1
 8001362:	d10a      	bne.n	800137a <main+0xa2>
 8001364:	4b66      	ldr	r3, [pc, #408]	; (8001500 <main+0x228>)
 8001366:	681b      	ldr	r3, [r3, #0]
 8001368:	2b01      	cmp	r3, #1
 800136a:	d106      	bne.n	800137a <main+0xa2>
 800136c:	4b63      	ldr	r3, [pc, #396]	; (80014fc <main+0x224>)
 800136e:	2200      	movs	r2, #0
 8001370:	601a      	str	r2, [r3, #0]
 8001372:	4b63      	ldr	r3, [pc, #396]	; (8001500 <main+0x228>)
 8001374:	2200      	movs	r2, #0
 8001376:	601a      	str	r2, [r3, #0]
 8001378:	e02b      	b.n	80013d2 <main+0xfa>
	  	  	else if 	(estado == ManSalAutCom && auxComedor==0) 	{estado = ManSalManCom; auxComedor=2;}
 800137a:	4b60      	ldr	r3, [pc, #384]	; (80014fc <main+0x224>)
 800137c:	681b      	ldr	r3, [r3, #0]
 800137e:	2b02      	cmp	r3, #2
 8001380:	d10a      	bne.n	8001398 <main+0xc0>
 8001382:	4b5f      	ldr	r3, [pc, #380]	; (8001500 <main+0x228>)
 8001384:	681b      	ldr	r3, [r3, #0]
 8001386:	2b00      	cmp	r3, #0
 8001388:	d106      	bne.n	8001398 <main+0xc0>
 800138a:	4b5c      	ldr	r3, [pc, #368]	; (80014fc <main+0x224>)
 800138c:	2203      	movs	r2, #3
 800138e:	601a      	str	r2, [r3, #0]
 8001390:	4b5b      	ldr	r3, [pc, #364]	; (8001500 <main+0x228>)
 8001392:	2202      	movs	r2, #2
 8001394:	601a      	str	r2, [r3, #0]
 8001396:	e01c      	b.n	80013d2 <main+0xfa>
	  	    else if 	(estado == ManSalManCom && auxComedor==2) 	{estado = ManSalManCom; auxComedor=1;}
 8001398:	4b58      	ldr	r3, [pc, #352]	; (80014fc <main+0x224>)
 800139a:	681b      	ldr	r3, [r3, #0]
 800139c:	2b03      	cmp	r3, #3
 800139e:	d10a      	bne.n	80013b6 <main+0xde>
 80013a0:	4b57      	ldr	r3, [pc, #348]	; (8001500 <main+0x228>)
 80013a2:	681b      	ldr	r3, [r3, #0]
 80013a4:	2b02      	cmp	r3, #2
 80013a6:	d106      	bne.n	80013b6 <main+0xde>
 80013a8:	4b54      	ldr	r3, [pc, #336]	; (80014fc <main+0x224>)
 80013aa:	2203      	movs	r2, #3
 80013ac:	601a      	str	r2, [r3, #0]
 80013ae:	4b54      	ldr	r3, [pc, #336]	; (8001500 <main+0x228>)
 80013b0:	2201      	movs	r2, #1
 80013b2:	601a      	str	r2, [r3, #0]
 80013b4:	e00d      	b.n	80013d2 <main+0xfa>
	  		else if 	(estado == ManSalManCom && auxComedor==1) 	{estado = ManSalAutCom; auxComedor=0;}
 80013b6:	4b51      	ldr	r3, [pc, #324]	; (80014fc <main+0x224>)
 80013b8:	681b      	ldr	r3, [r3, #0]
 80013ba:	2b03      	cmp	r3, #3
 80013bc:	d109      	bne.n	80013d2 <main+0xfa>
 80013be:	4b50      	ldr	r3, [pc, #320]	; (8001500 <main+0x228>)
 80013c0:	681b      	ldr	r3, [r3, #0]
 80013c2:	2b01      	cmp	r3, #1
 80013c4:	d105      	bne.n	80013d2 <main+0xfa>
 80013c6:	4b4d      	ldr	r3, [pc, #308]	; (80014fc <main+0x224>)
 80013c8:	2202      	movs	r2, #2
 80013ca:	601a      	str	r2, [r3, #0]
 80013cc:	4b4c      	ldr	r3, [pc, #304]	; (8001500 <main+0x228>)
 80013ce:	2200      	movs	r2, #0
 80013d0:	601a      	str	r2, [r3, #0]

	  	  	}

	  if (debouncer(&BSalon, GPIOE, PIN_BSalon)){
 80013d2:	4b4c      	ldr	r3, [pc, #304]	; (8001504 <main+0x22c>)
 80013d4:	881b      	ldrh	r3, [r3, #0]
 80013d6:	461a      	mov	r2, r3
 80013d8:	4946      	ldr	r1, [pc, #280]	; (80014f4 <main+0x21c>)
 80013da:	484b      	ldr	r0, [pc, #300]	; (8001508 <main+0x230>)
 80013dc:	f7ff fca8 	bl	8000d30 <debouncer>
 80013e0:	4603      	mov	r3, r0
 80013e2:	2b00      	cmp	r3, #0
 80013e4:	d058      	beq.n	8001498 <main+0x1c0>
	  		if 		    (estado == AutSalAutCom && auxSalon==0) 	{estado = ManSalAutCom; auxSalon=2;}
 80013e6:	4b45      	ldr	r3, [pc, #276]	; (80014fc <main+0x224>)
 80013e8:	681b      	ldr	r3, [r3, #0]
 80013ea:	2b00      	cmp	r3, #0
 80013ec:	d10a      	bne.n	8001404 <main+0x12c>
 80013ee:	4b47      	ldr	r3, [pc, #284]	; (800150c <main+0x234>)
 80013f0:	681b      	ldr	r3, [r3, #0]
 80013f2:	2b00      	cmp	r3, #0
 80013f4:	d106      	bne.n	8001404 <main+0x12c>
 80013f6:	4b41      	ldr	r3, [pc, #260]	; (80014fc <main+0x224>)
 80013f8:	2202      	movs	r2, #2
 80013fa:	601a      	str	r2, [r3, #0]
 80013fc:	4b43      	ldr	r3, [pc, #268]	; (800150c <main+0x234>)
 80013fe:	2202      	movs	r2, #2
 8001400:	601a      	str	r2, [r3, #0]
 8001402:	e049      	b.n	8001498 <main+0x1c0>
	  		else if 	(estado == ManSalAutCom && auxSalon==2) 	{estado = ManSalAutCom; auxSalon=1;}
 8001404:	4b3d      	ldr	r3, [pc, #244]	; (80014fc <main+0x224>)
 8001406:	681b      	ldr	r3, [r3, #0]
 8001408:	2b02      	cmp	r3, #2
 800140a:	d10a      	bne.n	8001422 <main+0x14a>
 800140c:	4b3f      	ldr	r3, [pc, #252]	; (800150c <main+0x234>)
 800140e:	681b      	ldr	r3, [r3, #0]
 8001410:	2b02      	cmp	r3, #2
 8001412:	d106      	bne.n	8001422 <main+0x14a>
 8001414:	4b39      	ldr	r3, [pc, #228]	; (80014fc <main+0x224>)
 8001416:	2202      	movs	r2, #2
 8001418:	601a      	str	r2, [r3, #0]
 800141a:	4b3c      	ldr	r3, [pc, #240]	; (800150c <main+0x234>)
 800141c:	2201      	movs	r2, #1
 800141e:	601a      	str	r2, [r3, #0]
 8001420:	e03a      	b.n	8001498 <main+0x1c0>
	  		else if 	(estado == ManSalAutCom && auxSalon==1) 	{estado = AutSalAutCom; auxSalon=0;}
 8001422:	4b36      	ldr	r3, [pc, #216]	; (80014fc <main+0x224>)
 8001424:	681b      	ldr	r3, [r3, #0]
 8001426:	2b02      	cmp	r3, #2
 8001428:	d10a      	bne.n	8001440 <main+0x168>
 800142a:	4b38      	ldr	r3, [pc, #224]	; (800150c <main+0x234>)
 800142c:	681b      	ldr	r3, [r3, #0]
 800142e:	2b01      	cmp	r3, #1
 8001430:	d106      	bne.n	8001440 <main+0x168>
 8001432:	4b32      	ldr	r3, [pc, #200]	; (80014fc <main+0x224>)
 8001434:	2200      	movs	r2, #0
 8001436:	601a      	str	r2, [r3, #0]
 8001438:	4b34      	ldr	r3, [pc, #208]	; (800150c <main+0x234>)
 800143a:	2200      	movs	r2, #0
 800143c:	601a      	str	r2, [r3, #0]
 800143e:	e02b      	b.n	8001498 <main+0x1c0>
	  		else if 	(estado == AutSalManCom && auxSalon==0) 	{estado = ManSalManCom; auxSalon=2;}
 8001440:	4b2e      	ldr	r3, [pc, #184]	; (80014fc <main+0x224>)
 8001442:	681b      	ldr	r3, [r3, #0]
 8001444:	2b01      	cmp	r3, #1
 8001446:	d10a      	bne.n	800145e <main+0x186>
 8001448:	4b30      	ldr	r3, [pc, #192]	; (800150c <main+0x234>)
 800144a:	681b      	ldr	r3, [r3, #0]
 800144c:	2b00      	cmp	r3, #0
 800144e:	d106      	bne.n	800145e <main+0x186>
 8001450:	4b2a      	ldr	r3, [pc, #168]	; (80014fc <main+0x224>)
 8001452:	2203      	movs	r2, #3
 8001454:	601a      	str	r2, [r3, #0]
 8001456:	4b2d      	ldr	r3, [pc, #180]	; (800150c <main+0x234>)
 8001458:	2202      	movs	r2, #2
 800145a:	601a      	str	r2, [r3, #0]
 800145c:	e01c      	b.n	8001498 <main+0x1c0>
	  		else if 	(estado == ManSalManCom && auxSalon==2) 	{estado = ManSalManCom; auxSalon=1;}
 800145e:	4b27      	ldr	r3, [pc, #156]	; (80014fc <main+0x224>)
 8001460:	681b      	ldr	r3, [r3, #0]
 8001462:	2b03      	cmp	r3, #3
 8001464:	d10a      	bne.n	800147c <main+0x1a4>
 8001466:	4b29      	ldr	r3, [pc, #164]	; (800150c <main+0x234>)
 8001468:	681b      	ldr	r3, [r3, #0]
 800146a:	2b02      	cmp	r3, #2
 800146c:	d106      	bne.n	800147c <main+0x1a4>
 800146e:	4b23      	ldr	r3, [pc, #140]	; (80014fc <main+0x224>)
 8001470:	2203      	movs	r2, #3
 8001472:	601a      	str	r2, [r3, #0]
 8001474:	4b25      	ldr	r3, [pc, #148]	; (800150c <main+0x234>)
 8001476:	2201      	movs	r2, #1
 8001478:	601a      	str	r2, [r3, #0]
 800147a:	e00d      	b.n	8001498 <main+0x1c0>
	  		else if 	(estado == ManSalManCom && auxSalon==1) 	{estado = AutSalManCom; auxSalon=0;}
 800147c:	4b1f      	ldr	r3, [pc, #124]	; (80014fc <main+0x224>)
 800147e:	681b      	ldr	r3, [r3, #0]
 8001480:	2b03      	cmp	r3, #3
 8001482:	d109      	bne.n	8001498 <main+0x1c0>
 8001484:	4b21      	ldr	r3, [pc, #132]	; (800150c <main+0x234>)
 8001486:	681b      	ldr	r3, [r3, #0]
 8001488:	2b01      	cmp	r3, #1
 800148a:	d105      	bne.n	8001498 <main+0x1c0>
 800148c:	4b1b      	ldr	r3, [pc, #108]	; (80014fc <main+0x224>)
 800148e:	2201      	movs	r2, #1
 8001490:	601a      	str	r2, [r3, #0]
 8001492:	4b1e      	ldr	r3, [pc, #120]	; (800150c <main+0x234>)
 8001494:	2200      	movs	r2, #0
 8001496:	601a      	str	r2, [r3, #0]
	  		}

	/*--------------- Funciones de Estados ---------------*/
	   switch (estado){
 8001498:	4b18      	ldr	r3, [pc, #96]	; (80014fc <main+0x224>)
 800149a:	681b      	ldr	r3, [r3, #0]
 800149c:	2b03      	cmp	r3, #3
 800149e:	f63f af25 	bhi.w	80012ec <main+0x14>
 80014a2:	a201      	add	r2, pc, #4	; (adr r2, 80014a8 <main+0x1d0>)
 80014a4:	f852 f023 	ldr.w	pc, [r2, r3, lsl #2]
 80014a8:	080014b9 	.word	0x080014b9
 80014ac:	080014c3 	.word	0x080014c3
 80014b0:	080014cd 	.word	0x080014cd
 80014b4:	080014d7 	.word	0x080014d7
	  	  case AutSalAutCom: LucesAutomaticasSalon(); LucesAutomaticasComedor();  break;
 80014b8:	f7ff fdb6 	bl	8001028 <LucesAutomaticasSalon>
 80014bc:	f7ff fe60 	bl	8001180 <LucesAutomaticasComedor>
 80014c0:	e00e      	b.n	80014e0 <main+0x208>
	  	  case AutSalManCom: LucesAutomaticasSalon(); LucesManualesComedor();	  break;
 80014c2:	f7ff fdb1 	bl	8001028 <LucesAutomaticasSalon>
 80014c6:	f7ff fd2b 	bl	8000f20 <LucesManualesComedor>
 80014ca:	e009      	b.n	80014e0 <main+0x208>
	  	  case ManSalAutCom: LucesManualesSalon();    LucesAutomaticasComedor();  break;
 80014cc:	f7ff fd6a 	bl	8000fa4 <LucesManualesSalon>
 80014d0:	f7ff fe56 	bl	8001180 <LucesAutomaticasComedor>
 80014d4:	e004      	b.n	80014e0 <main+0x208>
	  	  case ManSalManCom: LucesManualesSalon();    LucesManualesComedor();	  break;
 80014d6:	f7ff fd65 	bl	8000fa4 <LucesManualesSalon>
 80014da:	f7ff fd21 	bl	8000f20 <LucesManualesComedor>
 80014de:	bf00      	nop
	  HAL_ADC_Start_IT(&hadc1);
 80014e0:	e704      	b.n	80012ec <main+0x14>
 80014e2:	bf00      	nop
 80014e4:	20000070 	.word	0x20000070
 80014e8:	20000060 	.word	0x20000060
 80014ec:	20000064 	.word	0x20000064
 80014f0:	20000002 	.word	0x20000002
 80014f4:	40021000 	.word	0x40021000
 80014f8:	2000004c 	.word	0x2000004c
 80014fc:	20000048 	.word	0x20000048
 8001500:	20000058 	.word	0x20000058
 8001504:	20000000 	.word	0x20000000
 8001508:	20000050 	.word	0x20000050
 800150c:	2000005c 	.word	0x2000005c

08001510 <SystemClock_Config>:
/**
  * @brief System Clock Configuration
  * @retval None
  */
void SystemClock_Config(void)
{
 8001510:	b580      	push	{r7, lr}
 8001512:	b094      	sub	sp, #80	; 0x50
 8001514:	af00      	add	r7, sp, #0
  RCC_OscInitTypeDef RCC_OscInitStruct = {0};
 8001516:	f107 0320 	add.w	r3, r7, #32
 800151a:	2230      	movs	r2, #48	; 0x30
 800151c:	2100      	movs	r1, #0
 800151e:	4618      	mov	r0, r3
 8001520:	f001 ff6e 	bl	8003400 <memset>
  RCC_ClkInitTypeDef RCC_ClkInitStruct = {0};
 8001524:	f107 030c 	add.w	r3, r7, #12
 8001528:	2200      	movs	r2, #0
 800152a:	601a      	str	r2, [r3, #0]
 800152c:	605a      	str	r2, [r3, #4]
 800152e:	609a      	str	r2, [r3, #8]
 8001530:	60da      	str	r2, [r3, #12]
 8001532:	611a      	str	r2, [r3, #16]

  /** Configure the main internal regulator output voltage
  */
  __HAL_RCC_PWR_CLK_ENABLE();
 8001534:	2300      	movs	r3, #0
 8001536:	60bb      	str	r3, [r7, #8]
 8001538:	4b27      	ldr	r3, [pc, #156]	; (80015d8 <SystemClock_Config+0xc8>)
 800153a:	6c1b      	ldr	r3, [r3, #64]	; 0x40
 800153c:	4a26      	ldr	r2, [pc, #152]	; (80015d8 <SystemClock_Config+0xc8>)
 800153e:	f043 5380 	orr.w	r3, r3, #268435456	; 0x10000000
 8001542:	6413      	str	r3, [r2, #64]	; 0x40
 8001544:	4b24      	ldr	r3, [pc, #144]	; (80015d8 <SystemClock_Config+0xc8>)
 8001546:	6c1b      	ldr	r3, [r3, #64]	; 0x40
 8001548:	f003 5380 	and.w	r3, r3, #268435456	; 0x10000000
 800154c:	60bb      	str	r3, [r7, #8]
 800154e:	68bb      	ldr	r3, [r7, #8]
  __HAL_PWR_VOLTAGESCALING_CONFIG(PWR_REGULATOR_VOLTAGE_SCALE1);
 8001550:	2300      	movs	r3, #0
 8001552:	607b      	str	r3, [r7, #4]
 8001554:	4b21      	ldr	r3, [pc, #132]	; (80015dc <SystemClock_Config+0xcc>)
 8001556:	681b      	ldr	r3, [r3, #0]
 8001558:	4a20      	ldr	r2, [pc, #128]	; (80015dc <SystemClock_Config+0xcc>)
 800155a:	f443 4380 	orr.w	r3, r3, #16384	; 0x4000
 800155e:	6013      	str	r3, [r2, #0]
 8001560:	4b1e      	ldr	r3, [pc, #120]	; (80015dc <SystemClock_Config+0xcc>)
 8001562:	681b      	ldr	r3, [r3, #0]
 8001564:	f403 4380 	and.w	r3, r3, #16384	; 0x4000
 8001568:	607b      	str	r3, [r7, #4]
 800156a:	687b      	ldr	r3, [r7, #4]
  /** Initializes the RCC Oscillators according to the specified parameters
  * in the RCC_OscInitTypeDef structure.
  */
  RCC_OscInitStruct.OscillatorType = RCC_OSCILLATORTYPE_HSI;
 800156c:	2302      	movs	r3, #2
 800156e:	623b      	str	r3, [r7, #32]
  RCC_OscInitStruct.HSIState = RCC_HSI_ON;
 8001570:	2301      	movs	r3, #1
 8001572:	62fb      	str	r3, [r7, #44]	; 0x2c
  RCC_OscInitStruct.HSICalibrationValue = RCC_HSICALIBRATION_DEFAULT;
 8001574:	2310      	movs	r3, #16
 8001576:	633b      	str	r3, [r7, #48]	; 0x30
  RCC_OscInitStruct.PLL.PLLState = RCC_PLL_ON;
 8001578:	2302      	movs	r3, #2
 800157a:	63bb      	str	r3, [r7, #56]	; 0x38
  RCC_OscInitStruct.PLL.PLLSource = RCC_PLLSOURCE_HSI;
 800157c:	2300      	movs	r3, #0
 800157e:	63fb      	str	r3, [r7, #60]	; 0x3c
  RCC_OscInitStruct.PLL.PLLM = 8;
 8001580:	2308      	movs	r3, #8
 8001582:	643b      	str	r3, [r7, #64]	; 0x40
  RCC_OscInitStruct.PLL.PLLN = 50;
 8001584:	2332      	movs	r3, #50	; 0x32
 8001586:	647b      	str	r3, [r7, #68]	; 0x44
  RCC_OscInitStruct.PLL.PLLP = RCC_PLLP_DIV2;
 8001588:	2302      	movs	r3, #2
 800158a:	64bb      	str	r3, [r7, #72]	; 0x48
  RCC_OscInitStruct.PLL.PLLQ = 4;
 800158c:	2304      	movs	r3, #4
 800158e:	64fb      	str	r3, [r7, #76]	; 0x4c
  if (HAL_RCC_OscConfig(&RCC_OscInitStruct) != HAL_OK)
 8001590:	f107 0320 	add.w	r3, r7, #32
 8001594:	4618      	mov	r0, r3
 8001596:	f001 fae1 	bl	8002b5c <HAL_RCC_OscConfig>
 800159a:	4603      	mov	r3, r0
 800159c:	2b00      	cmp	r3, #0
 800159e:	d001      	beq.n	80015a4 <SystemClock_Config+0x94>
  {
    Error_Handler();
 80015a0:	f000 f938 	bl	8001814 <Error_Handler>
  }
  /** Initializes the CPU, AHB and APB buses clocks
  */
  RCC_ClkInitStruct.ClockType = RCC_CLOCKTYPE_HCLK|RCC_CLOCKTYPE_SYSCLK
 80015a4:	230f      	movs	r3, #15
 80015a6:	60fb      	str	r3, [r7, #12]
                              |RCC_CLOCKTYPE_PCLK1|RCC_CLOCKTYPE_PCLK2;
  RCC_ClkInitStruct.SYSCLKSource = RCC_SYSCLKSOURCE_PLLCLK;
 80015a8:	2302      	movs	r3, #2
 80015aa:	613b      	str	r3, [r7, #16]
  RCC_ClkInitStruct.AHBCLKDivider = RCC_SYSCLK_DIV1;
 80015ac:	2300      	movs	r3, #0
 80015ae:	617b      	str	r3, [r7, #20]
  RCC_ClkInitStruct.APB1CLKDivider = RCC_HCLK_DIV2;
 80015b0:	f44f 5380 	mov.w	r3, #4096	; 0x1000
 80015b4:	61bb      	str	r3, [r7, #24]
  RCC_ClkInitStruct.APB2CLKDivider = RCC_HCLK_DIV1;
 80015b6:	2300      	movs	r3, #0
 80015b8:	61fb      	str	r3, [r7, #28]

  if (HAL_RCC_ClockConfig(&RCC_ClkInitStruct, FLASH_LATENCY_1) != HAL_OK)
 80015ba:	f107 030c 	add.w	r3, r7, #12
 80015be:	2101      	movs	r1, #1
 80015c0:	4618      	mov	r0, r3
 80015c2:	f001 fd3b 	bl	800303c <HAL_RCC_ClockConfig>
 80015c6:	4603      	mov	r3, r0
 80015c8:	2b00      	cmp	r3, #0
 80015ca:	d001      	beq.n	80015d0 <SystemClock_Config+0xc0>
  {
    Error_Handler();
 80015cc:	f000 f922 	bl	8001814 <Error_Handler>
  }
}
 80015d0:	bf00      	nop
 80015d2:	3750      	adds	r7, #80	; 0x50
 80015d4:	46bd      	mov	sp, r7
 80015d6:	bd80      	pop	{r7, pc}
 80015d8:	40023800 	.word	0x40023800
 80015dc:	40007000 	.word	0x40007000

080015e0 <MX_ADC1_Init>:
  * @brief ADC1 Initialization Function
  * @param None
  * @retval None
  */
static void MX_ADC1_Init(void)
{
 80015e0:	b580      	push	{r7, lr}
 80015e2:	b084      	sub	sp, #16
 80015e4:	af00      	add	r7, sp, #0

  /* USER CODE BEGIN ADC1_Init 0 */

  /* USER CODE END ADC1_Init 0 */

  ADC_ChannelConfTypeDef sConfig = {0};
 80015e6:	463b      	mov	r3, r7
 80015e8:	2200      	movs	r2, #0
 80015ea:	601a      	str	r2, [r3, #0]
 80015ec:	605a      	str	r2, [r3, #4]
 80015ee:	609a      	str	r2, [r3, #8]
 80015f0:	60da      	str	r2, [r3, #12]
  /* USER CODE BEGIN ADC1_Init 1 */

  /* USER CODE END ADC1_Init 1 */
  /** Configure the global features of the ADC (Clock, Resolution, Data Alignment and number of conversion)
  */
  hadc1.Instance = ADC1;
 80015f2:	4b21      	ldr	r3, [pc, #132]	; (8001678 <MX_ADC1_Init+0x98>)
 80015f4:	4a21      	ldr	r2, [pc, #132]	; (800167c <MX_ADC1_Init+0x9c>)
 80015f6:	601a      	str	r2, [r3, #0]
  hadc1.Init.ClockPrescaler = ADC_CLOCK_SYNC_PCLK_DIV2;
 80015f8:	4b1f      	ldr	r3, [pc, #124]	; (8001678 <MX_ADC1_Init+0x98>)
 80015fa:	2200      	movs	r2, #0
 80015fc:	605a      	str	r2, [r3, #4]
  hadc1.Init.Resolution = ADC_RESOLUTION_8B;
 80015fe:	4b1e      	ldr	r3, [pc, #120]	; (8001678 <MX_ADC1_Init+0x98>)
 8001600:	f04f 7200 	mov.w	r2, #33554432	; 0x2000000
 8001604:	609a      	str	r2, [r3, #8]
  hadc1.Init.ScanConvMode = DISABLE;
 8001606:	4b1c      	ldr	r3, [pc, #112]	; (8001678 <MX_ADC1_Init+0x98>)
 8001608:	2200      	movs	r2, #0
 800160a:	611a      	str	r2, [r3, #16]
  hadc1.Init.ContinuousConvMode = DISABLE;
 800160c:	4b1a      	ldr	r3, [pc, #104]	; (8001678 <MX_ADC1_Init+0x98>)
 800160e:	2200      	movs	r2, #0
 8001610:	761a      	strb	r2, [r3, #24]
  hadc1.Init.DiscontinuousConvMode = DISABLE;
 8001612:	4b19      	ldr	r3, [pc, #100]	; (8001678 <MX_ADC1_Init+0x98>)
 8001614:	2200      	movs	r2, #0
 8001616:	f883 2020 	strb.w	r2, [r3, #32]
  hadc1.Init.ExternalTrigConvEdge = ADC_EXTERNALTRIGCONVEDGE_NONE;
 800161a:	4b17      	ldr	r3, [pc, #92]	; (8001678 <MX_ADC1_Init+0x98>)
 800161c:	2200      	movs	r2, #0
 800161e:	62da      	str	r2, [r3, #44]	; 0x2c
  hadc1.Init.ExternalTrigConv = ADC_SOFTWARE_START;
 8001620:	4b15      	ldr	r3, [pc, #84]	; (8001678 <MX_ADC1_Init+0x98>)
 8001622:	4a17      	ldr	r2, [pc, #92]	; (8001680 <MX_ADC1_Init+0xa0>)
 8001624:	629a      	str	r2, [r3, #40]	; 0x28
  hadc1.Init.DataAlign = ADC_DATAALIGN_RIGHT;
 8001626:	4b14      	ldr	r3, [pc, #80]	; (8001678 <MX_ADC1_Init+0x98>)
 8001628:	2200      	movs	r2, #0
 800162a:	60da      	str	r2, [r3, #12]
  hadc1.Init.NbrOfConversion = 1;
 800162c:	4b12      	ldr	r3, [pc, #72]	; (8001678 <MX_ADC1_Init+0x98>)
 800162e:	2201      	movs	r2, #1
 8001630:	61da      	str	r2, [r3, #28]
  hadc1.Init.DMAContinuousRequests = DISABLE;
 8001632:	4b11      	ldr	r3, [pc, #68]	; (8001678 <MX_ADC1_Init+0x98>)
 8001634:	2200      	movs	r2, #0
 8001636:	f883 2030 	strb.w	r2, [r3, #48]	; 0x30
  hadc1.Init.EOCSelection = ADC_EOC_SINGLE_CONV;
 800163a:	4b0f      	ldr	r3, [pc, #60]	; (8001678 <MX_ADC1_Init+0x98>)
 800163c:	2201      	movs	r2, #1
 800163e:	615a      	str	r2, [r3, #20]
  if (HAL_ADC_Init(&hadc1) != HAL_OK)
 8001640:	480d      	ldr	r0, [pc, #52]	; (8001678 <MX_ADC1_Init+0x98>)
 8001642:	f000 faa3 	bl	8001b8c <HAL_ADC_Init>
 8001646:	4603      	mov	r3, r0
 8001648:	2b00      	cmp	r3, #0
 800164a:	d001      	beq.n	8001650 <MX_ADC1_Init+0x70>
  {
    Error_Handler();
 800164c:	f000 f8e2 	bl	8001814 <Error_Handler>
  }
  /** Configure for the selected ADC regular channel its corresponding rank in the sequencer and its sample time.
  */
  sConfig.Channel = ADC_CHANNEL_1;
 8001650:	2301      	movs	r3, #1
 8001652:	603b      	str	r3, [r7, #0]
  sConfig.Rank = 1;
 8001654:	2301      	movs	r3, #1
 8001656:	607b      	str	r3, [r7, #4]
  sConfig.SamplingTime = ADC_SAMPLETIME_3CYCLES;
 8001658:	2300      	movs	r3, #0
 800165a:	60bb      	str	r3, [r7, #8]
  if (HAL_ADC_ConfigChannel(&hadc1, &sConfig) != HAL_OK)
 800165c:	463b      	mov	r3, r7
 800165e:	4619      	mov	r1, r3
 8001660:	4805      	ldr	r0, [pc, #20]	; (8001678 <MX_ADC1_Init+0x98>)
 8001662:	f000 fbb5 	bl	8001dd0 <HAL_ADC_ConfigChannel>
 8001666:	4603      	mov	r3, r0
 8001668:	2b00      	cmp	r3, #0
 800166a:	d001      	beq.n	8001670 <MX_ADC1_Init+0x90>
  {
    Error_Handler();
 800166c:	f000 f8d2 	bl	8001814 <Error_Handler>
  }
  /* USER CODE BEGIN ADC1_Init 2 */

  /* USER CODE END ADC1_Init 2 */

}
 8001670:	bf00      	nop
 8001672:	3710      	adds	r7, #16
 8001674:	46bd      	mov	sp, r7
 8001676:	bd80      	pop	{r7, pc}
 8001678:	20000070 	.word	0x20000070
 800167c:	40012000 	.word	0x40012000
 8001680:	0f000001 	.word	0x0f000001

08001684 <MX_GPIO_Init>:
  * @brief GPIO Initialization Function
  * @param None
  * @retval None
  */
static void MX_GPIO_Init(void)
{
 8001684:	b580      	push	{r7, lr}
 8001686:	b08a      	sub	sp, #40	; 0x28
 8001688:	af00      	add	r7, sp, #0
  GPIO_InitTypeDef GPIO_InitStruct = {0};
 800168a:	f107 0314 	add.w	r3, r7, #20
 800168e:	2200      	movs	r2, #0
 8001690:	601a      	str	r2, [r3, #0]
 8001692:	605a      	str	r2, [r3, #4]
 8001694:	609a      	str	r2, [r3, #8]
 8001696:	60da      	str	r2, [r3, #12]
 8001698:	611a      	str	r2, [r3, #16]

  /* GPIO Ports Clock Enable */
  __HAL_RCC_GPIOE_CLK_ENABLE();
 800169a:	2300      	movs	r3, #0
 800169c:	613b      	str	r3, [r7, #16]
 800169e:	4b58      	ldr	r3, [pc, #352]	; (8001800 <MX_GPIO_Init+0x17c>)
 80016a0:	6b1b      	ldr	r3, [r3, #48]	; 0x30
 80016a2:	4a57      	ldr	r2, [pc, #348]	; (8001800 <MX_GPIO_Init+0x17c>)
 80016a4:	f043 0310 	orr.w	r3, r3, #16
 80016a8:	6313      	str	r3, [r2, #48]	; 0x30
 80016aa:	4b55      	ldr	r3, [pc, #340]	; (8001800 <MX_GPIO_Init+0x17c>)
 80016ac:	6b1b      	ldr	r3, [r3, #48]	; 0x30
 80016ae:	f003 0310 	and.w	r3, r3, #16
 80016b2:	613b      	str	r3, [r7, #16]
 80016b4:	693b      	ldr	r3, [r7, #16]
  __HAL_RCC_GPIOH_CLK_ENABLE();
 80016b6:	2300      	movs	r3, #0
 80016b8:	60fb      	str	r3, [r7, #12]
 80016ba:	4b51      	ldr	r3, [pc, #324]	; (8001800 <MX_GPIO_Init+0x17c>)
 80016bc:	6b1b      	ldr	r3, [r3, #48]	; 0x30
 80016be:	4a50      	ldr	r2, [pc, #320]	; (8001800 <MX_GPIO_Init+0x17c>)
 80016c0:	f043 0380 	orr.w	r3, r3, #128	; 0x80
 80016c4:	6313      	str	r3, [r2, #48]	; 0x30
 80016c6:	4b4e      	ldr	r3, [pc, #312]	; (8001800 <MX_GPIO_Init+0x17c>)
 80016c8:	6b1b      	ldr	r3, [r3, #48]	; 0x30
 80016ca:	f003 0380 	and.w	r3, r3, #128	; 0x80
 80016ce:	60fb      	str	r3, [r7, #12]
 80016d0:	68fb      	ldr	r3, [r7, #12]
  __HAL_RCC_GPIOA_CLK_ENABLE();
 80016d2:	2300      	movs	r3, #0
 80016d4:	60bb      	str	r3, [r7, #8]
 80016d6:	4b4a      	ldr	r3, [pc, #296]	; (8001800 <MX_GPIO_Init+0x17c>)
 80016d8:	6b1b      	ldr	r3, [r3, #48]	; 0x30
 80016da:	4a49      	ldr	r2, [pc, #292]	; (8001800 <MX_GPIO_Init+0x17c>)
 80016dc:	f043 0301 	orr.w	r3, r3, #1
 80016e0:	6313      	str	r3, [r2, #48]	; 0x30
 80016e2:	4b47      	ldr	r3, [pc, #284]	; (8001800 <MX_GPIO_Init+0x17c>)
 80016e4:	6b1b      	ldr	r3, [r3, #48]	; 0x30
 80016e6:	f003 0301 	and.w	r3, r3, #1
 80016ea:	60bb      	str	r3, [r7, #8]
 80016ec:	68bb      	ldr	r3, [r7, #8]
  __HAL_RCC_GPIOD_CLK_ENABLE();
 80016ee:	2300      	movs	r3, #0
 80016f0:	607b      	str	r3, [r7, #4]
 80016f2:	4b43      	ldr	r3, [pc, #268]	; (8001800 <MX_GPIO_Init+0x17c>)
 80016f4:	6b1b      	ldr	r3, [r3, #48]	; 0x30
 80016f6:	4a42      	ldr	r2, [pc, #264]	; (8001800 <MX_GPIO_Init+0x17c>)
 80016f8:	f043 0308 	orr.w	r3, r3, #8
 80016fc:	6313      	str	r3, [r2, #48]	; 0x30
 80016fe:	4b40      	ldr	r3, [pc, #256]	; (8001800 <MX_GPIO_Init+0x17c>)
 8001700:	6b1b      	ldr	r3, [r3, #48]	; 0x30
 8001702:	f003 0308 	and.w	r3, r3, #8
 8001706:	607b      	str	r3, [r7, #4]
 8001708:	687b      	ldr	r3, [r7, #4]
  __HAL_RCC_GPIOC_CLK_ENABLE();
 800170a:	2300      	movs	r3, #0
 800170c:	603b      	str	r3, [r7, #0]
 800170e:	4b3c      	ldr	r3, [pc, #240]	; (8001800 <MX_GPIO_Init+0x17c>)
 8001710:	6b1b      	ldr	r3, [r3, #48]	; 0x30
 8001712:	4a3b      	ldr	r2, [pc, #236]	; (8001800 <MX_GPIO_Init+0x17c>)
 8001714:	f043 0304 	orr.w	r3, r3, #4
 8001718:	6313      	str	r3, [r2, #48]	; 0x30
 800171a:	4b39      	ldr	r3, [pc, #228]	; (8001800 <MX_GPIO_Init+0x17c>)
 800171c:	6b1b      	ldr	r3, [r3, #48]	; 0x30
 800171e:	f003 0304 	and.w	r3, r3, #4
 8001722:	603b      	str	r3, [r7, #0]
 8001724:	683b      	ldr	r3, [r7, #0]

  /*Configure GPIO pin Output Level */
  HAL_GPIO_WritePin(GPIOE, GPIO_PIN_10|GPIO_PIN_11|GPIO_PIN_12|GPIO_PIN_13
 8001726:	2200      	movs	r2, #0
 8001728:	f44f 417c 	mov.w	r1, #64512	; 0xfc00
 800172c:	4835      	ldr	r0, [pc, #212]	; (8001804 <MX_GPIO_Init+0x180>)
 800172e:	f001 f9c9 	bl	8002ac4 <HAL_GPIO_WritePin>
                          |GPIO_PIN_14|GPIO_PIN_15, GPIO_PIN_RESET);

  /*Configure GPIO pin Output Level */
  HAL_GPIO_WritePin(GPIOD, GPIO_PIN_12|GPIO_PIN_13|GPIO_PIN_14|GPIO_PIN_15, GPIO_PIN_RESET);
 8001732:	2200      	movs	r2, #0
 8001734:	f44f 4170 	mov.w	r1, #61440	; 0xf000
 8001738:	4833      	ldr	r0, [pc, #204]	; (8001808 <MX_GPIO_Init+0x184>)
 800173a:	f001 f9c3 	bl	8002ac4 <HAL_GPIO_WritePin>

  /*Configure GPIO pin Output Level */
  HAL_GPIO_WritePin(GPIOC, GPIO_PIN_6|GPIO_PIN_8, GPIO_PIN_RESET);
 800173e:	2200      	movs	r2, #0
 8001740:	f44f 71a0 	mov.w	r1, #320	; 0x140
 8001744:	4831      	ldr	r0, [pc, #196]	; (800180c <MX_GPIO_Init+0x188>)
 8001746:	f001 f9bd 	bl	8002ac4 <HAL_GPIO_WritePin>

  /*Configure GPIO pins : PE2 PE3 */
  GPIO_InitStruct.Pin = GPIO_PIN_2|GPIO_PIN_3;
 800174a:	230c      	movs	r3, #12
 800174c:	617b      	str	r3, [r7, #20]
  GPIO_InitStruct.Mode = GPIO_MODE_IT_FALLING;
 800174e:	4b30      	ldr	r3, [pc, #192]	; (8001810 <MX_GPIO_Init+0x18c>)
 8001750:	61bb      	str	r3, [r7, #24]
  GPIO_InitStruct.Pull = GPIO_PULLUP;
 8001752:	2301      	movs	r3, #1
 8001754:	61fb      	str	r3, [r7, #28]
  HAL_GPIO_Init(GPIOE, &GPIO_InitStruct);
 8001756:	f107 0314 	add.w	r3, r7, #20
 800175a:	4619      	mov	r1, r3
 800175c:	4829      	ldr	r0, [pc, #164]	; (8001804 <MX_GPIO_Init+0x180>)
 800175e:	f000 ffff 	bl	8002760 <HAL_GPIO_Init>

  /*Configure GPIO pins : PE10 PE11 PE12 PE13
                           PE14 PE15 */
  GPIO_InitStruct.Pin = GPIO_PIN_10|GPIO_PIN_11|GPIO_PIN_12|GPIO_PIN_13
 8001762:	f44f 437c 	mov.w	r3, #64512	; 0xfc00
 8001766:	617b      	str	r3, [r7, #20]
                          |GPIO_PIN_14|GPIO_PIN_15;
  GPIO_InitStruct.Mode = GPIO_MODE_OUTPUT_PP;
 8001768:	2301      	movs	r3, #1
 800176a:	61bb      	str	r3, [r7, #24]
  GPIO_InitStruct.Pull = GPIO_NOPULL;
 800176c:	2300      	movs	r3, #0
 800176e:	61fb      	str	r3, [r7, #28]
  GPIO_InitStruct.Speed = GPIO_SPEED_FREQ_LOW;
 8001770:	2300      	movs	r3, #0
 8001772:	623b      	str	r3, [r7, #32]
  HAL_GPIO_Init(GPIOE, &GPIO_InitStruct);
 8001774:	f107 0314 	add.w	r3, r7, #20
 8001778:	4619      	mov	r1, r3
 800177a:	4822      	ldr	r0, [pc, #136]	; (8001804 <MX_GPIO_Init+0x180>)
 800177c:	f000 fff0 	bl	8002760 <HAL_GPIO_Init>

  /*Configure GPIO pins : PD12 PD13 PD14 PD15 */
  GPIO_InitStruct.Pin = GPIO_PIN_12|GPIO_PIN_13|GPIO_PIN_14|GPIO_PIN_15;
 8001780:	f44f 4370 	mov.w	r3, #61440	; 0xf000
 8001784:	617b      	str	r3, [r7, #20]
  GPIO_InitStruct.Mode = GPIO_MODE_OUTPUT_PP;
 8001786:	2301      	movs	r3, #1
 8001788:	61bb      	str	r3, [r7, #24]
  GPIO_InitStruct.Pull = GPIO_NOPULL;
 800178a:	2300      	movs	r3, #0
 800178c:	61fb      	str	r3, [r7, #28]
  GPIO_InitStruct.Speed = GPIO_SPEED_FREQ_LOW;
 800178e:	2300      	movs	r3, #0
 8001790:	623b      	str	r3, [r7, #32]
  HAL_GPIO_Init(GPIOD, &GPIO_InitStruct);
 8001792:	f107 0314 	add.w	r3, r7, #20
 8001796:	4619      	mov	r1, r3
 8001798:	481b      	ldr	r0, [pc, #108]	; (8001808 <MX_GPIO_Init+0x184>)
 800179a:	f000 ffe1 	bl	8002760 <HAL_GPIO_Init>

  /*Configure GPIO pins : PC6 PC8 */
  GPIO_InitStruct.Pin = GPIO_PIN_6|GPIO_PIN_8;
 800179e:	f44f 73a0 	mov.w	r3, #320	; 0x140
 80017a2:	617b      	str	r3, [r7, #20]
  GPIO_InitStruct.Mode = GPIO_MODE_OUTPUT_PP;
 80017a4:	2301      	movs	r3, #1
 80017a6:	61bb      	str	r3, [r7, #24]
  GPIO_InitStruct.Pull = GPIO_NOPULL;
 80017a8:	2300      	movs	r3, #0
 80017aa:	61fb      	str	r3, [r7, #28]
  GPIO_InitStruct.Speed = GPIO_SPEED_FREQ_LOW;
 80017ac:	2300      	movs	r3, #0
 80017ae:	623b      	str	r3, [r7, #32]
  HAL_GPIO_Init(GPIOC, &GPIO_InitStruct);
 80017b0:	f107 0314 	add.w	r3, r7, #20
 80017b4:	4619      	mov	r1, r3
 80017b6:	4815      	ldr	r0, [pc, #84]	; (800180c <MX_GPIO_Init+0x188>)
 80017b8:	f000 ffd2 	bl	8002760 <HAL_GPIO_Init>

  /*Configure GPIO pins : PC7 PC9 */
  GPIO_InitStruct.Pin = GPIO_PIN_7|GPIO_PIN_9;
 80017bc:	f44f 7320 	mov.w	r3, #640	; 0x280
 80017c0:	617b      	str	r3, [r7, #20]
  GPIO_InitStruct.Mode = GPIO_MODE_INPUT;
 80017c2:	2300      	movs	r3, #0
 80017c4:	61bb      	str	r3, [r7, #24]
  GPIO_InitStruct.Pull = GPIO_NOPULL;
 80017c6:	2300      	movs	r3, #0
 80017c8:	61fb      	str	r3, [r7, #28]
  HAL_GPIO_Init(GPIOC, &GPIO_InitStruct);
 80017ca:	f107 0314 	add.w	r3, r7, #20
 80017ce:	4619      	mov	r1, r3
 80017d0:	480e      	ldr	r0, [pc, #56]	; (800180c <MX_GPIO_Init+0x188>)
 80017d2:	f000 ffc5 	bl	8002760 <HAL_GPIO_Init>

  /* EXTI interrupt init*/
  HAL_NVIC_SetPriority(EXTI2_IRQn, 0, 0);
 80017d6:	2200      	movs	r2, #0
 80017d8:	2100      	movs	r1, #0
 80017da:	2008      	movs	r0, #8
 80017dc:	f000 fdf1 	bl	80023c2 <HAL_NVIC_SetPriority>
  HAL_NVIC_EnableIRQ(EXTI2_IRQn);
 80017e0:	2008      	movs	r0, #8
 80017e2:	f000 fe0a 	bl	80023fa <HAL_NVIC_EnableIRQ>

  HAL_NVIC_SetPriority(EXTI3_IRQn, 0, 0);
 80017e6:	2200      	movs	r2, #0
 80017e8:	2100      	movs	r1, #0
 80017ea:	2009      	movs	r0, #9
 80017ec:	f000 fde9 	bl	80023c2 <HAL_NVIC_SetPriority>
  HAL_NVIC_EnableIRQ(EXTI3_IRQn);
 80017f0:	2009      	movs	r0, #9
 80017f2:	f000 fe02 	bl	80023fa <HAL_NVIC_EnableIRQ>

}
 80017f6:	bf00      	nop
 80017f8:	3728      	adds	r7, #40	; 0x28
 80017fa:	46bd      	mov	sp, r7
 80017fc:	bd80      	pop	{r7, pc}
 80017fe:	bf00      	nop
 8001800:	40023800 	.word	0x40023800
 8001804:	40021000 	.word	0x40021000
 8001808:	40020c00 	.word	0x40020c00
 800180c:	40020800 	.word	0x40020800
 8001810:	10210000 	.word	0x10210000

08001814 <Error_Handler>:
/**
  * @brief  This function is executed in case of error occurrence.
  * @retval None
  */
void Error_Handler(void)
{
 8001814:	b480      	push	{r7}
 8001816:	af00      	add	r7, sp, #0
  /* USER CODE BEGIN Error_Handler_Debug */
  /* User can add his own implementation to report the HAL error return state */

  /* USER CODE END Error_Handler_Debug */
}
 8001818:	bf00      	nop
 800181a:	46bd      	mov	sp, r7
 800181c:	f85d 7b04 	ldr.w	r7, [sp], #4
 8001820:	4770      	bx	lr
	...

08001824 <HAL_MspInit>:
/* USER CODE END 0 */
/**
  * Initializes the Global MSP.
  */
void HAL_MspInit(void)
{
 8001824:	b580      	push	{r7, lr}
 8001826:	b082      	sub	sp, #8
 8001828:	af00      	add	r7, sp, #0
  /* USER CODE BEGIN MspInit 0 */

  /* USER CODE END MspInit 0 */

  __HAL_RCC_SYSCFG_CLK_ENABLE();
 800182a:	2300      	movs	r3, #0
 800182c:	607b      	str	r3, [r7, #4]
 800182e:	4b1f      	ldr	r3, [pc, #124]	; (80018ac <HAL_MspInit+0x88>)
 8001830:	6c5b      	ldr	r3, [r3, #68]	; 0x44
 8001832:	4a1e      	ldr	r2, [pc, #120]	; (80018ac <HAL_MspInit+0x88>)
 8001834:	f443 4380 	orr.w	r3, r3, #16384	; 0x4000
 8001838:	6453      	str	r3, [r2, #68]	; 0x44
 800183a:	4b1c      	ldr	r3, [pc, #112]	; (80018ac <HAL_MspInit+0x88>)
 800183c:	6c5b      	ldr	r3, [r3, #68]	; 0x44
 800183e:	f403 4380 	and.w	r3, r3, #16384	; 0x4000
 8001842:	607b      	str	r3, [r7, #4]
 8001844:	687b      	ldr	r3, [r7, #4]
  __HAL_RCC_PWR_CLK_ENABLE();
 8001846:	2300      	movs	r3, #0
 8001848:	603b      	str	r3, [r7, #0]
 800184a:	4b18      	ldr	r3, [pc, #96]	; (80018ac <HAL_MspInit+0x88>)
 800184c:	6c1b      	ldr	r3, [r3, #64]	; 0x40
 800184e:	4a17      	ldr	r2, [pc, #92]	; (80018ac <HAL_MspInit+0x88>)
 8001850:	f043 5380 	orr.w	r3, r3, #268435456	; 0x10000000
 8001854:	6413      	str	r3, [r2, #64]	; 0x40
 8001856:	4b15      	ldr	r3, [pc, #84]	; (80018ac <HAL_MspInit+0x88>)
 8001858:	6c1b      	ldr	r3, [r3, #64]	; 0x40
 800185a:	f003 5380 	and.w	r3, r3, #268435456	; 0x10000000
 800185e:	603b      	str	r3, [r7, #0]
 8001860:	683b      	ldr	r3, [r7, #0]

  /* System interrupt init*/

  /* Peripheral interrupt init */
  /* PVD_IRQn interrupt configuration */
  HAL_NVIC_SetPriority(PVD_IRQn, 0, 0);
 8001862:	2200      	movs	r2, #0
 8001864:	2100      	movs	r1, #0
 8001866:	2001      	movs	r0, #1
 8001868:	f000 fdab 	bl	80023c2 <HAL_NVIC_SetPriority>
  HAL_NVIC_EnableIRQ(PVD_IRQn);
 800186c:	2001      	movs	r0, #1
 800186e:	f000 fdc4 	bl	80023fa <HAL_NVIC_EnableIRQ>
  /* FLASH_IRQn interrupt configuration */
  HAL_NVIC_SetPriority(FLASH_IRQn, 0, 0);
 8001872:	2200      	movs	r2, #0
 8001874:	2100      	movs	r1, #0
 8001876:	2004      	movs	r0, #4
 8001878:	f000 fda3 	bl	80023c2 <HAL_NVIC_SetPriority>
  HAL_NVIC_EnableIRQ(FLASH_IRQn);
 800187c:	2004      	movs	r0, #4
 800187e:	f000 fdbc 	bl	80023fa <HAL_NVIC_EnableIRQ>
  /* RCC_IRQn interrupt configuration */
  HAL_NVIC_SetPriority(RCC_IRQn, 0, 0);
 8001882:	2200      	movs	r2, #0
 8001884:	2100      	movs	r1, #0
 8001886:	2005      	movs	r0, #5
 8001888:	f000 fd9b 	bl	80023c2 <HAL_NVIC_SetPriority>
  HAL_NVIC_EnableIRQ(RCC_IRQn);
 800188c:	2005      	movs	r0, #5
 800188e:	f000 fdb4 	bl	80023fa <HAL_NVIC_EnableIRQ>
  /* FPU_IRQn interrupt configuration */
  HAL_NVIC_SetPriority(FPU_IRQn, 0, 0);
 8001892:	2200      	movs	r2, #0
 8001894:	2100      	movs	r1, #0
 8001896:	2051      	movs	r0, #81	; 0x51
 8001898:	f000 fd93 	bl	80023c2 <HAL_NVIC_SetPriority>
  HAL_NVIC_EnableIRQ(FPU_IRQn);
 800189c:	2051      	movs	r0, #81	; 0x51
 800189e:	f000 fdac 	bl	80023fa <HAL_NVIC_EnableIRQ>

  /* USER CODE BEGIN MspInit 1 */

  /* USER CODE END MspInit 1 */
}
 80018a2:	bf00      	nop
 80018a4:	3708      	adds	r7, #8
 80018a6:	46bd      	mov	sp, r7
 80018a8:	bd80      	pop	{r7, pc}
 80018aa:	bf00      	nop
 80018ac:	40023800 	.word	0x40023800

080018b0 <HAL_ADC_MspInit>:
* This function configures the hardware resources used in this example
* @param hadc: ADC handle pointer
* @retval None
*/
void HAL_ADC_MspInit(ADC_HandleTypeDef* hadc)
{
 80018b0:	b580      	push	{r7, lr}
 80018b2:	b08a      	sub	sp, #40	; 0x28
 80018b4:	af00      	add	r7, sp, #0
 80018b6:	6078      	str	r0, [r7, #4]
  GPIO_InitTypeDef GPIO_InitStruct = {0};
 80018b8:	f107 0314 	add.w	r3, r7, #20
 80018bc:	2200      	movs	r2, #0
 80018be:	601a      	str	r2, [r3, #0]
 80018c0:	605a      	str	r2, [r3, #4]
 80018c2:	609a      	str	r2, [r3, #8]
 80018c4:	60da      	str	r2, [r3, #12]
 80018c6:	611a      	str	r2, [r3, #16]
  if(hadc->Instance==ADC1)
 80018c8:	687b      	ldr	r3, [r7, #4]
 80018ca:	681b      	ldr	r3, [r3, #0]
 80018cc:	4a17      	ldr	r2, [pc, #92]	; (800192c <HAL_ADC_MspInit+0x7c>)
 80018ce:	4293      	cmp	r3, r2
 80018d0:	d127      	bne.n	8001922 <HAL_ADC_MspInit+0x72>
  {
  /* USER CODE BEGIN ADC1_MspInit 0 */

  /* USER CODE END ADC1_MspInit 0 */
    /* Peripheral clock enable */
    __HAL_RCC_ADC1_CLK_ENABLE();
 80018d2:	2300      	movs	r3, #0
 80018d4:	613b      	str	r3, [r7, #16]
 80018d6:	4b16      	ldr	r3, [pc, #88]	; (8001930 <HAL_ADC_MspInit+0x80>)
 80018d8:	6c5b      	ldr	r3, [r3, #68]	; 0x44
 80018da:	4a15      	ldr	r2, [pc, #84]	; (8001930 <HAL_ADC_MspInit+0x80>)
 80018dc:	f443 7380 	orr.w	r3, r3, #256	; 0x100
 80018e0:	6453      	str	r3, [r2, #68]	; 0x44
 80018e2:	4b13      	ldr	r3, [pc, #76]	; (8001930 <HAL_ADC_MspInit+0x80>)
 80018e4:	6c5b      	ldr	r3, [r3, #68]	; 0x44
 80018e6:	f403 7380 	and.w	r3, r3, #256	; 0x100
 80018ea:	613b      	str	r3, [r7, #16]
 80018ec:	693b      	ldr	r3, [r7, #16]

    __HAL_RCC_GPIOA_CLK_ENABLE();
 80018ee:	2300      	movs	r3, #0
 80018f0:	60fb      	str	r3, [r7, #12]
 80018f2:	4b0f      	ldr	r3, [pc, #60]	; (8001930 <HAL_ADC_MspInit+0x80>)
 80018f4:	6b1b      	ldr	r3, [r3, #48]	; 0x30
 80018f6:	4a0e      	ldr	r2, [pc, #56]	; (8001930 <HAL_ADC_MspInit+0x80>)
 80018f8:	f043 0301 	orr.w	r3, r3, #1
 80018fc:	6313      	str	r3, [r2, #48]	; 0x30
 80018fe:	4b0c      	ldr	r3, [pc, #48]	; (8001930 <HAL_ADC_MspInit+0x80>)
 8001900:	6b1b      	ldr	r3, [r3, #48]	; 0x30
 8001902:	f003 0301 	and.w	r3, r3, #1
 8001906:	60fb      	str	r3, [r7, #12]
 8001908:	68fb      	ldr	r3, [r7, #12]
    /**ADC1 GPIO Configuration
    PA1     ------> ADC1_IN1
    */
    GPIO_InitStruct.Pin = GPIO_PIN_1;
 800190a:	2302      	movs	r3, #2
 800190c:	617b      	str	r3, [r7, #20]
    GPIO_InitStruct.Mode = GPIO_MODE_ANALOG;
 800190e:	2303      	movs	r3, #3
 8001910:	61bb      	str	r3, [r7, #24]
    GPIO_InitStruct.Pull = GPIO_NOPULL;
 8001912:	2300      	movs	r3, #0
 8001914:	61fb      	str	r3, [r7, #28]
    HAL_GPIO_Init(GPIOA, &GPIO_InitStruct);
 8001916:	f107 0314 	add.w	r3, r7, #20
 800191a:	4619      	mov	r1, r3
 800191c:	4805      	ldr	r0, [pc, #20]	; (8001934 <HAL_ADC_MspInit+0x84>)
 800191e:	f000 ff1f 	bl	8002760 <HAL_GPIO_Init>
  /* USER CODE BEGIN ADC1_MspInit 1 */

  /* USER CODE END ADC1_MspInit 1 */
  }

}
 8001922:	bf00      	nop
 8001924:	3728      	adds	r7, #40	; 0x28
 8001926:	46bd      	mov	sp, r7
 8001928:	bd80      	pop	{r7, pc}
 800192a:	bf00      	nop
 800192c:	40012000 	.word	0x40012000
 8001930:	40023800 	.word	0x40023800
 8001934:	40020000 	.word	0x40020000

08001938 <NMI_Handler>:
/******************************************************************************/
/**
  * @brief This function handles Non maskable interrupt.
  */
void NMI_Handler(void)
{
 8001938:	b480      	push	{r7}
 800193a:	af00      	add	r7, sp, #0

  /* USER CODE END NonMaskableInt_IRQn 0 */
  /* USER CODE BEGIN NonMaskableInt_IRQn 1 */

  /* USER CODE END NonMaskableInt_IRQn 1 */
}
 800193c:	bf00      	nop
 800193e:	46bd      	mov	sp, r7
 8001940:	f85d 7b04 	ldr.w	r7, [sp], #4
 8001944:	4770      	bx	lr

08001946 <HardFault_Handler>:

/**
  * @brief This function handles Hard fault interrupt.
  */
void HardFault_Handler(void)
{
 8001946:	b480      	push	{r7}
 8001948:	af00      	add	r7, sp, #0
  /* USER CODE BEGIN HardFault_IRQn 0 */

  /* USER CODE END HardFault_IRQn 0 */
  while (1)
 800194a:	e7fe      	b.n	800194a <HardFault_Handler+0x4>

0800194c <MemManage_Handler>:

/**
  * @brief This function handles Memory management fault.
  */
void MemManage_Handler(void)
{
 800194c:	b480      	push	{r7}
 800194e:	af00      	add	r7, sp, #0
  /* USER CODE BEGIN MemoryManagement_IRQn 0 */

  /* USER CODE END MemoryManagement_IRQn 0 */
  while (1)
 8001950:	e7fe      	b.n	8001950 <MemManage_Handler+0x4>

08001952 <BusFault_Handler>:

/**
  * @brief This function handles Pre-fetch fault, memory access fault.
  */
void BusFault_Handler(void)
{
 8001952:	b480      	push	{r7}
 8001954:	af00      	add	r7, sp, #0
  /* USER CODE BEGIN BusFault_IRQn 0 */

  /* USER CODE END BusFault_IRQn 0 */
  while (1)
 8001956:	e7fe      	b.n	8001956 <BusFault_Handler+0x4>

08001958 <UsageFault_Handler>:

/**
  * @brief This function handles Undefined instruction or illegal state.
  */
void UsageFault_Handler(void)
{
 8001958:	b480      	push	{r7}
 800195a:	af00      	add	r7, sp, #0
  /* USER CODE BEGIN UsageFault_IRQn 0 */

  /* USER CODE END UsageFault_IRQn 0 */
  while (1)
 800195c:	e7fe      	b.n	800195c <UsageFault_Handler+0x4>

0800195e <SVC_Handler>:

/**
  * @brief This function handles System service call via SWI instruction.
  */
void SVC_Handler(void)
{
 800195e:	b480      	push	{r7}
 8001960:	af00      	add	r7, sp, #0

  /* USER CODE END SVCall_IRQn 0 */
  /* USER CODE BEGIN SVCall_IRQn 1 */

  /* USER CODE END SVCall_IRQn 1 */
}
 8001962:	bf00      	nop
 8001964:	46bd      	mov	sp, r7
 8001966:	f85d 7b04 	ldr.w	r7, [sp], #4
 800196a:	4770      	bx	lr

0800196c <DebugMon_Handler>:

/**
  * @brief This function handles Debug monitor.
  */
void DebugMon_Handler(void)
{
 800196c:	b480      	push	{r7}
 800196e:	af00      	add	r7, sp, #0

  /* USER CODE END DebugMonitor_IRQn 0 */
  /* USER CODE BEGIN DebugMonitor_IRQn 1 */

  /* USER CODE END DebugMonitor_IRQn 1 */
}
 8001970:	bf00      	nop
 8001972:	46bd      	mov	sp, r7
 8001974:	f85d 7b04 	ldr.w	r7, [sp], #4
 8001978:	4770      	bx	lr

0800197a <PendSV_Handler>:

/**
  * @brief This function handles Pendable request for system service.
  */
void PendSV_Handler(void)
{
 800197a:	b480      	push	{r7}
 800197c:	af00      	add	r7, sp, #0

  /* USER CODE END PendSV_IRQn 0 */
  /* USER CODE BEGIN PendSV_IRQn 1 */

  /* USER CODE END PendSV_IRQn 1 */
}
 800197e:	bf00      	nop
 8001980:	46bd      	mov	sp, r7
 8001982:	f85d 7b04 	ldr.w	r7, [sp], #4
 8001986:	4770      	bx	lr

08001988 <SysTick_Handler>:

/**
  * @brief This function handles System tick timer.
  */
void SysTick_Handler(void)
{
 8001988:	b580      	push	{r7, lr}
 800198a:	af00      	add	r7, sp, #0
  /* USER CODE BEGIN SysTick_IRQn 0 */

  /* USER CODE END SysTick_IRQn 0 */
  HAL_IncTick();
 800198c:	f000 f8bc 	bl	8001b08 <HAL_IncTick>
  /* USER CODE BEGIN SysTick_IRQn 1 */

  /* USER CODE END SysTick_IRQn 1 */
}
 8001990:	bf00      	nop
 8001992:	bd80      	pop	{r7, pc}

08001994 <PVD_IRQHandler>:

/**
  * @brief This function handles PVD interrupt through EXTI line 16.
  */
void PVD_IRQHandler(void)
{
 8001994:	b580      	push	{r7, lr}
 8001996:	af00      	add	r7, sp, #0
  /* USER CODE BEGIN PVD_IRQn 0 */

  /* USER CODE END PVD_IRQn 0 */
  HAL_PWR_PVD_IRQHandler();
 8001998:	f001 f8c6 	bl	8002b28 <HAL_PWR_PVD_IRQHandler>
  /* USER CODE BEGIN PVD_IRQn 1 */

  /* USER CODE END PVD_IRQn 1 */
}
 800199c:	bf00      	nop
 800199e:	bd80      	pop	{r7, pc}

080019a0 <FLASH_IRQHandler>:

/**
  * @brief This function handles Flash global interrupt.
  */
void FLASH_IRQHandler(void)
{
 80019a0:	b580      	push	{r7, lr}
 80019a2:	af00      	add	r7, sp, #0
  /* USER CODE BEGIN FLASH_IRQn 0 */

  /* USER CODE END FLASH_IRQn 0 */
  HAL_FLASH_IRQHandler();
 80019a4:	f000 fd44 	bl	8002430 <HAL_FLASH_IRQHandler>
  /* USER CODE BEGIN FLASH_IRQn 1 */

  /* USER CODE END FLASH_IRQn 1 */
}
 80019a8:	bf00      	nop
 80019aa:	bd80      	pop	{r7, pc}

080019ac <RCC_IRQHandler>:

/**
  * @brief This function handles RCC global interrupt.
  */
void RCC_IRQHandler(void)
{
 80019ac:	b480      	push	{r7}
 80019ae:	af00      	add	r7, sp, #0

  /* USER CODE END RCC_IRQn 0 */
  /* USER CODE BEGIN RCC_IRQn 1 */

  /* USER CODE END RCC_IRQn 1 */
}
 80019b0:	bf00      	nop
 80019b2:	46bd      	mov	sp, r7
 80019b4:	f85d 7b04 	ldr.w	r7, [sp], #4
 80019b8:	4770      	bx	lr

080019ba <EXTI2_IRQHandler>:

/**
  * @brief This function handles EXTI line2 interrupt.
  */
void EXTI2_IRQHandler(void)
{
 80019ba:	b580      	push	{r7, lr}
 80019bc:	af00      	add	r7, sp, #0
  /* USER CODE BEGIN EXTI2_IRQn 0 */

  /* USER CODE END EXTI2_IRQn 0 */
  HAL_GPIO_EXTI_IRQHandler(GPIO_PIN_2);
 80019be:	2004      	movs	r0, #4
 80019c0:	f001 f89a 	bl	8002af8 <HAL_GPIO_EXTI_IRQHandler>
  /* USER CODE BEGIN EXTI2_IRQn 1 */

  /* USER CODE END EXTI2_IRQn 1 */
}
 80019c4:	bf00      	nop
 80019c6:	bd80      	pop	{r7, pc}

080019c8 <EXTI3_IRQHandler>:

/**
  * @brief This function handles EXTI line3 interrupt.
  */
void EXTI3_IRQHandler(void)
{
 80019c8:	b580      	push	{r7, lr}
 80019ca:	af00      	add	r7, sp, #0
  /* USER CODE BEGIN EXTI3_IRQn 0 */

  /* USER CODE END EXTI3_IRQn 0 */
  HAL_GPIO_EXTI_IRQHandler(GPIO_PIN_3);
 80019cc:	2008      	movs	r0, #8
 80019ce:	f001 f893 	bl	8002af8 <HAL_GPIO_EXTI_IRQHandler>
  /* USER CODE BEGIN EXTI3_IRQn 1 */

  /* USER CODE END EXTI3_IRQn 1 */
}
 80019d2:	bf00      	nop
 80019d4:	bd80      	pop	{r7, pc}

080019d6 <FPU_IRQHandler>:

/**
  * @brief This function handles FPU global interrupt.
  */
void FPU_IRQHandler(void)
{
 80019d6:	b480      	push	{r7}
 80019d8:	af00      	add	r7, sp, #0

  /* USER CODE END FPU_IRQn 0 */
  /* USER CODE BEGIN FPU_IRQn 1 */

  /* USER CODE END FPU_IRQn 1 */
}
 80019da:	bf00      	nop
 80019dc:	46bd      	mov	sp, r7
 80019de:	f85d 7b04 	ldr.w	r7, [sp], #4
 80019e2:	4770      	bx	lr

080019e4 <SystemInit>:
  *         configuration.
  * @param  None
  * @retval None
  */
void SystemInit(void)
{
 80019e4:	b480      	push	{r7}
 80019e6:	af00      	add	r7, sp, #0
  /* FPU settings ------------------------------------------------------------*/
  #if (__FPU_PRESENT == 1) && (__FPU_USED == 1)
    SCB->CPACR |= ((3UL << 10*2)|(3UL << 11*2));  /* set CP10 and CP11 Full Access */
 80019e8:	4b08      	ldr	r3, [pc, #32]	; (8001a0c <SystemInit+0x28>)
 80019ea:	f8d3 3088 	ldr.w	r3, [r3, #136]	; 0x88
 80019ee:	4a07      	ldr	r2, [pc, #28]	; (8001a0c <SystemInit+0x28>)
 80019f0:	f443 0370 	orr.w	r3, r3, #15728640	; 0xf00000
 80019f4:	f8c2 3088 	str.w	r3, [r2, #136]	; 0x88

  /* Configure the Vector Table location add offset address ------------------*/
#ifdef VECT_TAB_SRAM
  SCB->VTOR = SRAM_BASE | VECT_TAB_OFFSET; /* Vector Table Relocation in Internal SRAM */
#else
  SCB->VTOR = FLASH_BASE | VECT_TAB_OFFSET; /* Vector Table Relocation in Internal FLASH */
 80019f8:	4b04      	ldr	r3, [pc, #16]	; (8001a0c <SystemInit+0x28>)
 80019fa:	f04f 6200 	mov.w	r2, #134217728	; 0x8000000
 80019fe:	609a      	str	r2, [r3, #8]
#endif
}
 8001a00:	bf00      	nop
 8001a02:	46bd      	mov	sp, r7
 8001a04:	f85d 7b04 	ldr.w	r7, [sp], #4
 8001a08:	4770      	bx	lr
 8001a0a:	bf00      	nop
 8001a0c:	e000ed00 	.word	0xe000ed00

08001a10 <Reset_Handler>:

    .section  .text.Reset_Handler
  .weak  Reset_Handler
  .type  Reset_Handler, %function
Reset_Handler:  
  ldr   sp, =_estack     /* set stack pointer */
 8001a10:	f8df d034 	ldr.w	sp, [pc, #52]	; 8001a48 <LoopFillZerobss+0x14>

/* Copy the data segment initializers from flash to SRAM */  
  movs  r1, #0
 8001a14:	2100      	movs	r1, #0
  b  LoopCopyDataInit
 8001a16:	e003      	b.n	8001a20 <LoopCopyDataInit>

08001a18 <CopyDataInit>:

CopyDataInit:
  ldr  r3, =_sidata
 8001a18:	4b0c      	ldr	r3, [pc, #48]	; (8001a4c <LoopFillZerobss+0x18>)
  ldr  r3, [r3, r1]
 8001a1a:	585b      	ldr	r3, [r3, r1]
  str  r3, [r0, r1]
 8001a1c:	5043      	str	r3, [r0, r1]
  adds  r1, r1, #4
 8001a1e:	3104      	adds	r1, #4

08001a20 <LoopCopyDataInit>:
    
LoopCopyDataInit:
  ldr  r0, =_sdata
 8001a20:	480b      	ldr	r0, [pc, #44]	; (8001a50 <LoopFillZerobss+0x1c>)
  ldr  r3, =_edata
 8001a22:	4b0c      	ldr	r3, [pc, #48]	; (8001a54 <LoopFillZerobss+0x20>)
  adds  r2, r0, r1
 8001a24:	1842      	adds	r2, r0, r1
  cmp  r2, r3
 8001a26:	429a      	cmp	r2, r3
  bcc  CopyDataInit
 8001a28:	d3f6      	bcc.n	8001a18 <CopyDataInit>
  ldr  r2, =_sbss
 8001a2a:	4a0b      	ldr	r2, [pc, #44]	; (8001a58 <LoopFillZerobss+0x24>)
  b  LoopFillZerobss
 8001a2c:	e002      	b.n	8001a34 <LoopFillZerobss>

08001a2e <FillZerobss>:
/* Zero fill the bss segment. */  
FillZerobss:
  movs  r3, #0
 8001a2e:	2300      	movs	r3, #0
  str  r3, [r2], #4
 8001a30:	f842 3b04 	str.w	r3, [r2], #4

08001a34 <LoopFillZerobss>:
    
LoopFillZerobss:
  ldr  r3, = _ebss
 8001a34:	4b09      	ldr	r3, [pc, #36]	; (8001a5c <LoopFillZerobss+0x28>)
  cmp  r2, r3
 8001a36:	429a      	cmp	r2, r3
  bcc  FillZerobss
 8001a38:	d3f9      	bcc.n	8001a2e <FillZerobss>

/* Call the clock system intitialization function.*/
  bl  SystemInit   
 8001a3a:	f7ff ffd3 	bl	80019e4 <SystemInit>
/* Call static constructors */
    bl __libc_init_array
 8001a3e:	f001 fcbb 	bl	80033b8 <__libc_init_array>
/* Call the application's entry point.*/
  bl  main
 8001a42:	f7ff fc49 	bl	80012d8 <main>
  bx  lr    
 8001a46:	4770      	bx	lr
  ldr   sp, =_estack     /* set stack pointer */
 8001a48:	20020000 	.word	0x20020000
  ldr  r3, =_sidata
 8001a4c:	08003448 	.word	0x08003448
  ldr  r0, =_sdata
 8001a50:	20000000 	.word	0x20000000
  ldr  r3, =_edata
 8001a54:	2000002c 	.word	0x2000002c
  ldr  r2, =_sbss
 8001a58:	2000002c 	.word	0x2000002c
  ldr  r3, = _ebss
 8001a5c:	200000dc 	.word	0x200000dc

08001a60 <ADC_IRQHandler>:
 * @retval None       
*/
    .section  .text.Default_Handler,"ax",%progbits
Default_Handler:
Infinite_Loop:
  b  Infinite_Loop
 8001a60:	e7fe      	b.n	8001a60 <ADC_IRQHandler>
	...

08001a64 <HAL_Init>:
  *         need to ensure that the SysTick time base is always set to 1 millisecond
  *         to have correct HAL operation.
  * @retval HAL status
  */
HAL_StatusTypeDef HAL_Init(void)
{
 8001a64:	b580      	push	{r7, lr}
 8001a66:	af00      	add	r7, sp, #0
  /* Configure Flash prefetch, Instruction cache, Data cache */ 
#if (INSTRUCTION_CACHE_ENABLE != 0U)
  __HAL_FLASH_INSTRUCTION_CACHE_ENABLE();
 8001a68:	4b0e      	ldr	r3, [pc, #56]	; (8001aa4 <HAL_Init+0x40>)
 8001a6a:	681b      	ldr	r3, [r3, #0]
 8001a6c:	4a0d      	ldr	r2, [pc, #52]	; (8001aa4 <HAL_Init+0x40>)
 8001a6e:	f443 7300 	orr.w	r3, r3, #512	; 0x200
 8001a72:	6013      	str	r3, [r2, #0]
#endif /* INSTRUCTION_CACHE_ENABLE */

#if (DATA_CACHE_ENABLE != 0U)
  __HAL_FLASH_DATA_CACHE_ENABLE();
 8001a74:	4b0b      	ldr	r3, [pc, #44]	; (8001aa4 <HAL_Init+0x40>)
 8001a76:	681b      	ldr	r3, [r3, #0]
 8001a78:	4a0a      	ldr	r2, [pc, #40]	; (8001aa4 <HAL_Init+0x40>)
 8001a7a:	f443 6380 	orr.w	r3, r3, #1024	; 0x400
 8001a7e:	6013      	str	r3, [r2, #0]
#endif /* DATA_CACHE_ENABLE */

#if (PREFETCH_ENABLE != 0U)
  __HAL_FLASH_PREFETCH_BUFFER_ENABLE();
 8001a80:	4b08      	ldr	r3, [pc, #32]	; (8001aa4 <HAL_Init+0x40>)
 8001a82:	681b      	ldr	r3, [r3, #0]
 8001a84:	4a07      	ldr	r2, [pc, #28]	; (8001aa4 <HAL_Init+0x40>)
 8001a86:	f443 7380 	orr.w	r3, r3, #256	; 0x100
 8001a8a:	6013      	str	r3, [r2, #0]
#endif /* PREFETCH_ENABLE */

  /* Set Interrupt Group Priority */
  HAL_NVIC_SetPriorityGrouping(NVIC_PRIORITYGROUP_4);
 8001a8c:	2003      	movs	r0, #3
 8001a8e:	f000 fc8d 	bl	80023ac <HAL_NVIC_SetPriorityGrouping>

  /* Use systick as time base source and configure 1ms tick (default clock after Reset is HSI) */
  HAL_InitTick(TICK_INT_PRIORITY);
 8001a92:	2000      	movs	r0, #0
 8001a94:	f000 f808 	bl	8001aa8 <HAL_InitTick>

  /* Init the low level hardware */
  HAL_MspInit();
 8001a98:	f7ff fec4 	bl	8001824 <HAL_MspInit>

  /* Return function status */
  return HAL_OK;
 8001a9c:	2300      	movs	r3, #0
}
 8001a9e:	4618      	mov	r0, r3
 8001aa0:	bd80      	pop	{r7, pc}
 8001aa2:	bf00      	nop
 8001aa4:	40023c00 	.word	0x40023c00

08001aa8 <HAL_InitTick>:
  *       implementation  in user file.
  * @param TickPriority Tick interrupt priority.
  * @retval HAL status
  */
__weak HAL_StatusTypeDef HAL_InitTick(uint32_t TickPriority)
{
 8001aa8:	b580      	push	{r7, lr}
 8001aaa:	b082      	sub	sp, #8
 8001aac:	af00      	add	r7, sp, #0
 8001aae:	6078      	str	r0, [r7, #4]
  /* Configure the SysTick to have interrupt in 1ms time basis*/
  if (HAL_SYSTICK_Config(SystemCoreClock / (1000U / uwTickFreq)) > 0U)
 8001ab0:	4b12      	ldr	r3, [pc, #72]	; (8001afc <HAL_InitTick+0x54>)
 8001ab2:	681a      	ldr	r2, [r3, #0]
 8001ab4:	4b12      	ldr	r3, [pc, #72]	; (8001b00 <HAL_InitTick+0x58>)
 8001ab6:	781b      	ldrb	r3, [r3, #0]
 8001ab8:	4619      	mov	r1, r3
 8001aba:	f44f 737a 	mov.w	r3, #1000	; 0x3e8
 8001abe:	fbb3 f3f1 	udiv	r3, r3, r1
 8001ac2:	fbb2 f3f3 	udiv	r3, r2, r3
 8001ac6:	4618      	mov	r0, r3
 8001ac8:	f000 fca5 	bl	8002416 <HAL_SYSTICK_Config>
 8001acc:	4603      	mov	r3, r0
 8001ace:	2b00      	cmp	r3, #0
 8001ad0:	d001      	beq.n	8001ad6 <HAL_InitTick+0x2e>
  {
    return HAL_ERROR;
 8001ad2:	2301      	movs	r3, #1
 8001ad4:	e00e      	b.n	8001af4 <HAL_InitTick+0x4c>
  }

  /* Configure the SysTick IRQ priority */
  if (TickPriority < (1UL << __NVIC_PRIO_BITS))
 8001ad6:	687b      	ldr	r3, [r7, #4]
 8001ad8:	2b0f      	cmp	r3, #15
 8001ada:	d80a      	bhi.n	8001af2 <HAL_InitTick+0x4a>
  {
    HAL_NVIC_SetPriority(SysTick_IRQn, TickPriority, 0U);
 8001adc:	2200      	movs	r2, #0
 8001ade:	6879      	ldr	r1, [r7, #4]
 8001ae0:	f04f 30ff 	mov.w	r0, #4294967295
 8001ae4:	f000 fc6d 	bl	80023c2 <HAL_NVIC_SetPriority>
    uwTickPrio = TickPriority;
 8001ae8:	4a06      	ldr	r2, [pc, #24]	; (8001b04 <HAL_InitTick+0x5c>)
 8001aea:	687b      	ldr	r3, [r7, #4]
 8001aec:	6013      	str	r3, [r2, #0]
  {
    return HAL_ERROR;
  }

  /* Return function status */
  return HAL_OK;
 8001aee:	2300      	movs	r3, #0
 8001af0:	e000      	b.n	8001af4 <HAL_InitTick+0x4c>
    return HAL_ERROR;
 8001af2:	2301      	movs	r3, #1
}
 8001af4:	4618      	mov	r0, r3
 8001af6:	3708      	adds	r7, #8
 8001af8:	46bd      	mov	sp, r7
 8001afa:	bd80      	pop	{r7, pc}
 8001afc:	20000020 	.word	0x20000020
 8001b00:	20000028 	.word	0x20000028
 8001b04:	20000024 	.word	0x20000024

08001b08 <HAL_IncTick>:
 * @note This function is declared as __weak to be overwritten in case of other 
  *      implementations in user file.
  * @retval None
  */
__weak void HAL_IncTick(void)
{
 8001b08:	b480      	push	{r7}
 8001b0a:	af00      	add	r7, sp, #0
  uwTick += uwTickFreq;
 8001b0c:	4b06      	ldr	r3, [pc, #24]	; (8001b28 <HAL_IncTick+0x20>)
 8001b0e:	781b      	ldrb	r3, [r3, #0]
 8001b10:	461a      	mov	r2, r3
 8001b12:	4b06      	ldr	r3, [pc, #24]	; (8001b2c <HAL_IncTick+0x24>)
 8001b14:	681b      	ldr	r3, [r3, #0]
 8001b16:	4413      	add	r3, r2
 8001b18:	4a04      	ldr	r2, [pc, #16]	; (8001b2c <HAL_IncTick+0x24>)
 8001b1a:	6013      	str	r3, [r2, #0]
}
 8001b1c:	bf00      	nop
 8001b1e:	46bd      	mov	sp, r7
 8001b20:	f85d 7b04 	ldr.w	r7, [sp], #4
 8001b24:	4770      	bx	lr
 8001b26:	bf00      	nop
 8001b28:	20000028 	.word	0x20000028
 8001b2c:	200000b8 	.word	0x200000b8

08001b30 <HAL_GetTick>:
  * @note This function is declared as __weak to be overwritten in case of other 
  *       implementations in user file.
  * @retval tick value
  */
__weak uint32_t HAL_GetTick(void)
{
 8001b30:	b480      	push	{r7}
 8001b32:	af00      	add	r7, sp, #0
  return uwTick;
 8001b34:	4b03      	ldr	r3, [pc, #12]	; (8001b44 <HAL_GetTick+0x14>)
 8001b36:	681b      	ldr	r3, [r3, #0]
}
 8001b38:	4618      	mov	r0, r3
 8001b3a:	46bd      	mov	sp, r7
 8001b3c:	f85d 7b04 	ldr.w	r7, [sp], #4
 8001b40:	4770      	bx	lr
 8001b42:	bf00      	nop
 8001b44:	200000b8 	.word	0x200000b8

08001b48 <HAL_Delay>:
  *       implementations in user file.
  * @param Delay specifies the delay time length, in milliseconds.
  * @retval None
  */
__weak void HAL_Delay(uint32_t Delay)
{
 8001b48:	b580      	push	{r7, lr}
 8001b4a:	b084      	sub	sp, #16
 8001b4c:	af00      	add	r7, sp, #0
 8001b4e:	6078      	str	r0, [r7, #4]
  uint32_t tickstart = HAL_GetTick();
 8001b50:	f7ff ffee 	bl	8001b30 <HAL_GetTick>
 8001b54:	60b8      	str	r0, [r7, #8]
  uint32_t wait = Delay;
 8001b56:	687b      	ldr	r3, [r7, #4]
 8001b58:	60fb      	str	r3, [r7, #12]

  /* Add a freq to guarantee minimum wait */
  if (wait < HAL_MAX_DELAY)
 8001b5a:	68fb      	ldr	r3, [r7, #12]
 8001b5c:	f1b3 3fff 	cmp.w	r3, #4294967295
 8001b60:	d005      	beq.n	8001b6e <HAL_Delay+0x26>
  {
    wait += (uint32_t)(uwTickFreq);
 8001b62:	4b09      	ldr	r3, [pc, #36]	; (8001b88 <HAL_Delay+0x40>)
 8001b64:	781b      	ldrb	r3, [r3, #0]
 8001b66:	461a      	mov	r2, r3
 8001b68:	68fb      	ldr	r3, [r7, #12]
 8001b6a:	4413      	add	r3, r2
 8001b6c:	60fb      	str	r3, [r7, #12]
  }

  while((HAL_GetTick() - tickstart) < wait)
 8001b6e:	bf00      	nop
 8001b70:	f7ff ffde 	bl	8001b30 <HAL_GetTick>
 8001b74:	4602      	mov	r2, r0
 8001b76:	68bb      	ldr	r3, [r7, #8]
 8001b78:	1ad3      	subs	r3, r2, r3
 8001b7a:	68fa      	ldr	r2, [r7, #12]
 8001b7c:	429a      	cmp	r2, r3
 8001b7e:	d8f7      	bhi.n	8001b70 <HAL_Delay+0x28>
  {
  }
}
 8001b80:	bf00      	nop
 8001b82:	3710      	adds	r7, #16
 8001b84:	46bd      	mov	sp, r7
 8001b86:	bd80      	pop	{r7, pc}
 8001b88:	20000028 	.word	0x20000028

08001b8c <HAL_ADC_Init>:
  * @param  hadc pointer to a ADC_HandleTypeDef structure that contains
  *         the configuration information for the specified ADC.  
  * @retval HAL status
  */
HAL_StatusTypeDef HAL_ADC_Init(ADC_HandleTypeDef* hadc)
{
 8001b8c:	b580      	push	{r7, lr}
 8001b8e:	b084      	sub	sp, #16
 8001b90:	af00      	add	r7, sp, #0
 8001b92:	6078      	str	r0, [r7, #4]
  HAL_StatusTypeDef tmp_hal_status = HAL_OK;
 8001b94:	2300      	movs	r3, #0
 8001b96:	73fb      	strb	r3, [r7, #15]
  
  /* Check ADC handle */
  if(hadc == NULL)
 8001b98:	687b      	ldr	r3, [r7, #4]
 8001b9a:	2b00      	cmp	r3, #0
 8001b9c:	d101      	bne.n	8001ba2 <HAL_ADC_Init+0x16>
  {
    return HAL_ERROR;
 8001b9e:	2301      	movs	r3, #1
 8001ba0:	e033      	b.n	8001c0a <HAL_ADC_Init+0x7e>
  if(hadc->Init.ExternalTrigConv != ADC_SOFTWARE_START)
  {
    assert_param(IS_ADC_EXT_TRIG_EDGE(hadc->Init.ExternalTrigConvEdge));
  }
  
  if(hadc->State == HAL_ADC_STATE_RESET)
 8001ba2:	687b      	ldr	r3, [r7, #4]
 8001ba4:	6c1b      	ldr	r3, [r3, #64]	; 0x40
 8001ba6:	2b00      	cmp	r3, #0
 8001ba8:	d109      	bne.n	8001bbe <HAL_ADC_Init+0x32>

    /* Init the low level hardware */
    hadc->MspInitCallback(hadc);
#else
    /* Init the low level hardware */
    HAL_ADC_MspInit(hadc);
 8001baa:	6878      	ldr	r0, [r7, #4]
 8001bac:	f7ff fe80 	bl	80018b0 <HAL_ADC_MspInit>
#endif /* USE_HAL_ADC_REGISTER_CALLBACKS */

    /* Initialize ADC error code */
    ADC_CLEAR_ERRORCODE(hadc);
 8001bb0:	687b      	ldr	r3, [r7, #4]
 8001bb2:	2200      	movs	r2, #0
 8001bb4:	645a      	str	r2, [r3, #68]	; 0x44
    
    /* Allocate lock resource and initialize it */
    hadc->Lock = HAL_UNLOCKED;
 8001bb6:	687b      	ldr	r3, [r7, #4]
 8001bb8:	2200      	movs	r2, #0
 8001bba:	f883 203c 	strb.w	r2, [r3, #60]	; 0x3c
  }
  
  /* Configuration of ADC parameters if previous preliminary actions are      */ 
  /* correctly completed.                                                     */
  if (HAL_IS_BIT_CLR(hadc->State, HAL_ADC_STATE_ERROR_INTERNAL))
 8001bbe:	687b      	ldr	r3, [r7, #4]
 8001bc0:	6c1b      	ldr	r3, [r3, #64]	; 0x40
 8001bc2:	f003 0310 	and.w	r3, r3, #16
 8001bc6:	2b00      	cmp	r3, #0
 8001bc8:	d118      	bne.n	8001bfc <HAL_ADC_Init+0x70>
  {
    /* Set ADC state */
    ADC_STATE_CLR_SET(hadc->State,
 8001bca:	687b      	ldr	r3, [r7, #4]
 8001bcc:	6c1b      	ldr	r3, [r3, #64]	; 0x40
 8001bce:	f423 5388 	bic.w	r3, r3, #4352	; 0x1100
 8001bd2:	f023 0302 	bic.w	r3, r3, #2
 8001bd6:	f043 0202 	orr.w	r2, r3, #2
 8001bda:	687b      	ldr	r3, [r7, #4]
 8001bdc:	641a      	str	r2, [r3, #64]	; 0x40
                      HAL_ADC_STATE_REG_BUSY | HAL_ADC_STATE_INJ_BUSY,
                      HAL_ADC_STATE_BUSY_INTERNAL);
    
    /* Set ADC parameters */
    ADC_Init(hadc);
 8001bde:	6878      	ldr	r0, [r7, #4]
 8001be0:	f000 fa18 	bl	8002014 <ADC_Init>
    
    /* Set ADC error code to none */
    ADC_CLEAR_ERRORCODE(hadc);
 8001be4:	687b      	ldr	r3, [r7, #4]
 8001be6:	2200      	movs	r2, #0
 8001be8:	645a      	str	r2, [r3, #68]	; 0x44
    
    /* Set the ADC state */
    ADC_STATE_CLR_SET(hadc->State,
 8001bea:	687b      	ldr	r3, [r7, #4]
 8001bec:	6c1b      	ldr	r3, [r3, #64]	; 0x40
 8001bee:	f023 0303 	bic.w	r3, r3, #3
 8001bf2:	f043 0201 	orr.w	r2, r3, #1
 8001bf6:	687b      	ldr	r3, [r7, #4]
 8001bf8:	641a      	str	r2, [r3, #64]	; 0x40
 8001bfa:	e001      	b.n	8001c00 <HAL_ADC_Init+0x74>
                      HAL_ADC_STATE_BUSY_INTERNAL,
                      HAL_ADC_STATE_READY);
  }
  else
  {
    tmp_hal_status = HAL_ERROR;
 8001bfc:	2301      	movs	r3, #1
 8001bfe:	73fb      	strb	r3, [r7, #15]
  }
  
  /* Release Lock */
  __HAL_UNLOCK(hadc);
 8001c00:	687b      	ldr	r3, [r7, #4]
 8001c02:	2200      	movs	r2, #0
 8001c04:	f883 203c 	strb.w	r2, [r3, #60]	; 0x3c

  /* Return function status */
  return tmp_hal_status;
 8001c08:	7bfb      	ldrb	r3, [r7, #15]
}
 8001c0a:	4618      	mov	r0, r3
 8001c0c:	3710      	adds	r7, #16
 8001c0e:	46bd      	mov	sp, r7
 8001c10:	bd80      	pop	{r7, pc}
	...

08001c14 <HAL_ADC_Start_IT>:
  * @param  hadc pointer to a ADC_HandleTypeDef structure that contains
  *         the configuration information for the specified ADC.
  * @retval HAL status.
  */
HAL_StatusTypeDef HAL_ADC_Start_IT(ADC_HandleTypeDef* hadc)
{
 8001c14:	b480      	push	{r7}
 8001c16:	b085      	sub	sp, #20
 8001c18:	af00      	add	r7, sp, #0
 8001c1a:	6078      	str	r0, [r7, #4]
  __IO uint32_t counter = 0U;
 8001c1c:	2300      	movs	r3, #0
 8001c1e:	60bb      	str	r3, [r7, #8]
  /* Check the parameters */
  assert_param(IS_FUNCTIONAL_STATE(hadc->Init.ContinuousConvMode));
  assert_param(IS_ADC_EXT_TRIG_EDGE(hadc->Init.ExternalTrigConvEdge)); 
  
  /* Process locked */
  __HAL_LOCK(hadc);
 8001c20:	687b      	ldr	r3, [r7, #4]
 8001c22:	f893 303c 	ldrb.w	r3, [r3, #60]	; 0x3c
 8001c26:	2b01      	cmp	r3, #1
 8001c28:	d101      	bne.n	8001c2e <HAL_ADC_Start_IT+0x1a>
 8001c2a:	2302      	movs	r3, #2
 8001c2c:	e0b0      	b.n	8001d90 <HAL_ADC_Start_IT+0x17c>
 8001c2e:	687b      	ldr	r3, [r7, #4]
 8001c30:	2201      	movs	r2, #1
 8001c32:	f883 203c 	strb.w	r2, [r3, #60]	; 0x3c
  
  /* Enable the ADC peripheral */
  /* Check if ADC peripheral is disabled in order to enable it and wait during 
  Tstab time the ADC's stabilization */
  if((hadc->Instance->CR2 & ADC_CR2_ADON) != ADC_CR2_ADON)
 8001c36:	687b      	ldr	r3, [r7, #4]
 8001c38:	681b      	ldr	r3, [r3, #0]
 8001c3a:	689b      	ldr	r3, [r3, #8]
 8001c3c:	f003 0301 	and.w	r3, r3, #1
 8001c40:	2b01      	cmp	r3, #1
 8001c42:	d018      	beq.n	8001c76 <HAL_ADC_Start_IT+0x62>
  {  
    /* Enable the Peripheral */
    __HAL_ADC_ENABLE(hadc);
 8001c44:	687b      	ldr	r3, [r7, #4]
 8001c46:	681b      	ldr	r3, [r3, #0]
 8001c48:	689a      	ldr	r2, [r3, #8]
 8001c4a:	687b      	ldr	r3, [r7, #4]
 8001c4c:	681b      	ldr	r3, [r3, #0]
 8001c4e:	f042 0201 	orr.w	r2, r2, #1
 8001c52:	609a      	str	r2, [r3, #8]
    
    /* Delay for ADC stabilization time */
    /* Compute number of CPU cycles to wait for */
    counter = (ADC_STAB_DELAY_US * (SystemCoreClock / 1000000U));
 8001c54:	4b51      	ldr	r3, [pc, #324]	; (8001d9c <HAL_ADC_Start_IT+0x188>)
 8001c56:	681b      	ldr	r3, [r3, #0]
 8001c58:	4a51      	ldr	r2, [pc, #324]	; (8001da0 <HAL_ADC_Start_IT+0x18c>)
 8001c5a:	fba2 2303 	umull	r2, r3, r2, r3
 8001c5e:	0c9a      	lsrs	r2, r3, #18
 8001c60:	4613      	mov	r3, r2
 8001c62:	005b      	lsls	r3, r3, #1
 8001c64:	4413      	add	r3, r2
 8001c66:	60bb      	str	r3, [r7, #8]
    while(counter != 0U)
 8001c68:	e002      	b.n	8001c70 <HAL_ADC_Start_IT+0x5c>
    {
      counter--;
 8001c6a:	68bb      	ldr	r3, [r7, #8]
 8001c6c:	3b01      	subs	r3, #1
 8001c6e:	60bb      	str	r3, [r7, #8]
    while(counter != 0U)
 8001c70:	68bb      	ldr	r3, [r7, #8]
 8001c72:	2b00      	cmp	r3, #0
 8001c74:	d1f9      	bne.n	8001c6a <HAL_ADC_Start_IT+0x56>
    }
  }
  
  /* Start conversion if ADC is effectively enabled */
  if(HAL_IS_BIT_SET(hadc->Instance->CR2, ADC_CR2_ADON))
 8001c76:	687b      	ldr	r3, [r7, #4]
 8001c78:	681b      	ldr	r3, [r3, #0]
 8001c7a:	689b      	ldr	r3, [r3, #8]
 8001c7c:	f003 0301 	and.w	r3, r3, #1
 8001c80:	2b01      	cmp	r3, #1
 8001c82:	f040 8084 	bne.w	8001d8e <HAL_ADC_Start_IT+0x17a>
  {
    /* Set ADC state                                                          */
    /* - Clear state bitfield related to regular group conversion results     */
    /* - Set state bitfield related to regular group operation                */
    ADC_STATE_CLR_SET(hadc->State,
 8001c86:	687b      	ldr	r3, [r7, #4]
 8001c88:	6c1b      	ldr	r3, [r3, #64]	; 0x40
 8001c8a:	f423 63e0 	bic.w	r3, r3, #1792	; 0x700
 8001c8e:	f023 0301 	bic.w	r3, r3, #1
 8001c92:	f443 7280 	orr.w	r2, r3, #256	; 0x100
 8001c96:	687b      	ldr	r3, [r7, #4]
 8001c98:	641a      	str	r2, [r3, #64]	; 0x40
                      HAL_ADC_STATE_READY | HAL_ADC_STATE_REG_EOC | HAL_ADC_STATE_REG_OVR,
                      HAL_ADC_STATE_REG_BUSY);
    
    /* If conversions on group regular are also triggering group injected,    */
    /* update ADC state.                                                      */
    if (READ_BIT(hadc->Instance->CR1, ADC_CR1_JAUTO) != RESET)
 8001c9a:	687b      	ldr	r3, [r7, #4]
 8001c9c:	681b      	ldr	r3, [r3, #0]
 8001c9e:	685b      	ldr	r3, [r3, #4]
 8001ca0:	f403 6380 	and.w	r3, r3, #1024	; 0x400
 8001ca4:	2b00      	cmp	r3, #0
 8001ca6:	d007      	beq.n	8001cb8 <HAL_ADC_Start_IT+0xa4>
    {
      ADC_STATE_CLR_SET(hadc->State, HAL_ADC_STATE_INJ_EOC, HAL_ADC_STATE_INJ_BUSY);  
 8001ca8:	687b      	ldr	r3, [r7, #4]
 8001caa:	6c1b      	ldr	r3, [r3, #64]	; 0x40
 8001cac:	f423 5340 	bic.w	r3, r3, #12288	; 0x3000
 8001cb0:	f443 5280 	orr.w	r2, r3, #4096	; 0x1000
 8001cb4:	687b      	ldr	r3, [r7, #4]
 8001cb6:	641a      	str	r2, [r3, #64]	; 0x40
    }
    
    /* State machine update: Check if an injected conversion is ongoing */
    if (HAL_IS_BIT_SET(hadc->State, HAL_ADC_STATE_INJ_BUSY))
 8001cb8:	687b      	ldr	r3, [r7, #4]
 8001cba:	6c1b      	ldr	r3, [r3, #64]	; 0x40
 8001cbc:	f403 5380 	and.w	r3, r3, #4096	; 0x1000
 8001cc0:	f5b3 5f80 	cmp.w	r3, #4096	; 0x1000
 8001cc4:	d106      	bne.n	8001cd4 <HAL_ADC_Start_IT+0xc0>
    {
      /* Reset ADC error code fields related to conversions on group regular */
      CLEAR_BIT(hadc->ErrorCode, (HAL_ADC_ERROR_OVR | HAL_ADC_ERROR_DMA));         
 8001cc6:	687b      	ldr	r3, [r7, #4]
 8001cc8:	6c5b      	ldr	r3, [r3, #68]	; 0x44
 8001cca:	f023 0206 	bic.w	r2, r3, #6
 8001cce:	687b      	ldr	r3, [r7, #4]
 8001cd0:	645a      	str	r2, [r3, #68]	; 0x44
 8001cd2:	e002      	b.n	8001cda <HAL_ADC_Start_IT+0xc6>
    }
    else
    {
      /* Reset ADC all error code fields */
      ADC_CLEAR_ERRORCODE(hadc);
 8001cd4:	687b      	ldr	r3, [r7, #4]
 8001cd6:	2200      	movs	r2, #0
 8001cd8:	645a      	str	r2, [r3, #68]	; 0x44
    }

    /* Process unlocked */
    /* Unlock before starting ADC conversions: in case of potential           */
    /* interruption, to let the process to ADC IRQ Handler.                   */
    __HAL_UNLOCK(hadc);
 8001cda:	687b      	ldr	r3, [r7, #4]
 8001cdc:	2200      	movs	r2, #0
 8001cde:	f883 203c 	strb.w	r2, [r3, #60]	; 0x3c

    /* Pointer to the common control register to which is belonging hadc    */
    /* (Depending on STM32F4 product, there may be up to 3 ADCs and 1 common */
    /* control register)                                                    */
    tmpADC_Common = ADC_COMMON_REGISTER(hadc);
 8001ce2:	4b30      	ldr	r3, [pc, #192]	; (8001da4 <HAL_ADC_Start_IT+0x190>)
 8001ce4:	60fb      	str	r3, [r7, #12]

    /* Clear regular group conversion flag and overrun flag */
    /* (To ensure of no unknown state from potential previous ADC operations) */
    __HAL_ADC_CLEAR_FLAG(hadc, ADC_FLAG_EOC | ADC_FLAG_OVR);
 8001ce6:	687b      	ldr	r3, [r7, #4]
 8001ce8:	681b      	ldr	r3, [r3, #0]
 8001cea:	f06f 0222 	mvn.w	r2, #34	; 0x22
 8001cee:	601a      	str	r2, [r3, #0]
    
    /* Enable end of conversion interrupt for regular group */
    __HAL_ADC_ENABLE_IT(hadc, (ADC_IT_EOC | ADC_IT_OVR));
 8001cf0:	687b      	ldr	r3, [r7, #4]
 8001cf2:	681b      	ldr	r3, [r3, #0]
 8001cf4:	685b      	ldr	r3, [r3, #4]
 8001cf6:	687a      	ldr	r2, [r7, #4]
 8001cf8:	6812      	ldr	r2, [r2, #0]
 8001cfa:	f043 6380 	orr.w	r3, r3, #67108864	; 0x4000000
 8001cfe:	f043 0320 	orr.w	r3, r3, #32
 8001d02:	6053      	str	r3, [r2, #4]
    
    /* Check if Multimode enabled */
    if(HAL_IS_BIT_CLR(tmpADC_Common->CCR, ADC_CCR_MULTI))
 8001d04:	68fb      	ldr	r3, [r7, #12]
 8001d06:	685b      	ldr	r3, [r3, #4]
 8001d08:	f003 031f 	and.w	r3, r3, #31
 8001d0c:	2b00      	cmp	r3, #0
 8001d0e:	d12a      	bne.n	8001d66 <HAL_ADC_Start_IT+0x152>
    {
#if defined(ADC2) && defined(ADC3)
      if((hadc->Instance == ADC1) || ((hadc->Instance == ADC2) && ((ADC->CCR & ADC_CCR_MULTI_Msk) < ADC_CCR_MULTI_0)) \
 8001d10:	687b      	ldr	r3, [r7, #4]
 8001d12:	681b      	ldr	r3, [r3, #0]
 8001d14:	4a24      	ldr	r2, [pc, #144]	; (8001da8 <HAL_ADC_Start_IT+0x194>)
 8001d16:	4293      	cmp	r3, r2
 8001d18:	d015      	beq.n	8001d46 <HAL_ADC_Start_IT+0x132>
 8001d1a:	687b      	ldr	r3, [r7, #4]
 8001d1c:	681b      	ldr	r3, [r3, #0]
 8001d1e:	4a23      	ldr	r2, [pc, #140]	; (8001dac <HAL_ADC_Start_IT+0x198>)
 8001d20:	4293      	cmp	r3, r2
 8001d22:	d105      	bne.n	8001d30 <HAL_ADC_Start_IT+0x11c>
 8001d24:	4b1f      	ldr	r3, [pc, #124]	; (8001da4 <HAL_ADC_Start_IT+0x190>)
 8001d26:	685b      	ldr	r3, [r3, #4]
 8001d28:	f003 031f 	and.w	r3, r3, #31
 8001d2c:	2b00      	cmp	r3, #0
 8001d2e:	d00a      	beq.n	8001d46 <HAL_ADC_Start_IT+0x132>
                                  || ((hadc->Instance == ADC3) && ((ADC->CCR & ADC_CCR_MULTI_Msk) < ADC_CCR_MULTI_4)))
 8001d30:	687b      	ldr	r3, [r7, #4]
 8001d32:	681b      	ldr	r3, [r3, #0]
 8001d34:	4a1e      	ldr	r2, [pc, #120]	; (8001db0 <HAL_ADC_Start_IT+0x19c>)
 8001d36:	4293      	cmp	r3, r2
 8001d38:	d129      	bne.n	8001d8e <HAL_ADC_Start_IT+0x17a>
 8001d3a:	4b1a      	ldr	r3, [pc, #104]	; (8001da4 <HAL_ADC_Start_IT+0x190>)
 8001d3c:	685b      	ldr	r3, [r3, #4]
 8001d3e:	f003 031f 	and.w	r3, r3, #31
 8001d42:	2b0f      	cmp	r3, #15
 8001d44:	d823      	bhi.n	8001d8e <HAL_ADC_Start_IT+0x17a>
      {
#endif /* ADC2 || ADC3 */
        /* if no external trigger present enable software conversion of regular channels */
        if((hadc->Instance->CR2 & ADC_CR2_EXTEN) == RESET) 
 8001d46:	687b      	ldr	r3, [r7, #4]
 8001d48:	681b      	ldr	r3, [r3, #0]
 8001d4a:	689b      	ldr	r3, [r3, #8]
 8001d4c:	f003 5340 	and.w	r3, r3, #805306368	; 0x30000000
 8001d50:	2b00      	cmp	r3, #0
 8001d52:	d11c      	bne.n	8001d8e <HAL_ADC_Start_IT+0x17a>
        {
          /* Enable the selected ADC software conversion for regular group */
          hadc->Instance->CR2 |= (uint32_t)ADC_CR2_SWSTART;
 8001d54:	687b      	ldr	r3, [r7, #4]
 8001d56:	681b      	ldr	r3, [r3, #0]
 8001d58:	689a      	ldr	r2, [r3, #8]
 8001d5a:	687b      	ldr	r3, [r7, #4]
 8001d5c:	681b      	ldr	r3, [r3, #0]
 8001d5e:	f042 4280 	orr.w	r2, r2, #1073741824	; 0x40000000
 8001d62:	609a      	str	r2, [r3, #8]
 8001d64:	e013      	b.n	8001d8e <HAL_ADC_Start_IT+0x17a>
#endif /* ADC2 || ADC3 */
    }
    else
    {
      /* if instance of handle correspond to ADC1 and  no external trigger present enable software conversion of regular channels */
      if((hadc->Instance == ADC1) && ((hadc->Instance->CR2 & ADC_CR2_EXTEN) == RESET))
 8001d66:	687b      	ldr	r3, [r7, #4]
 8001d68:	681b      	ldr	r3, [r3, #0]
 8001d6a:	4a0f      	ldr	r2, [pc, #60]	; (8001da8 <HAL_ADC_Start_IT+0x194>)
 8001d6c:	4293      	cmp	r3, r2
 8001d6e:	d10e      	bne.n	8001d8e <HAL_ADC_Start_IT+0x17a>
 8001d70:	687b      	ldr	r3, [r7, #4]
 8001d72:	681b      	ldr	r3, [r3, #0]
 8001d74:	689b      	ldr	r3, [r3, #8]
 8001d76:	f003 5340 	and.w	r3, r3, #805306368	; 0x30000000
 8001d7a:	2b00      	cmp	r3, #0
 8001d7c:	d107      	bne.n	8001d8e <HAL_ADC_Start_IT+0x17a>
      {
        /* Enable the selected ADC software conversion for regular group */
          hadc->Instance->CR2 |= (uint32_t)ADC_CR2_SWSTART;
 8001d7e:	687b      	ldr	r3, [r7, #4]
 8001d80:	681b      	ldr	r3, [r3, #0]
 8001d82:	689a      	ldr	r2, [r3, #8]
 8001d84:	687b      	ldr	r3, [r7, #4]
 8001d86:	681b      	ldr	r3, [r3, #0]
 8001d88:	f042 4280 	orr.w	r2, r2, #1073741824	; 0x40000000
 8001d8c:	609a      	str	r2, [r3, #8]
      }
    }
  }
  
  /* Return function status */
  return HAL_OK;
 8001d8e:	2300      	movs	r3, #0
}
 8001d90:	4618      	mov	r0, r3
 8001d92:	3714      	adds	r7, #20
 8001d94:	46bd      	mov	sp, r7
 8001d96:	f85d 7b04 	ldr.w	r7, [sp], #4
 8001d9a:	4770      	bx	lr
 8001d9c:	20000020 	.word	0x20000020
 8001da0:	431bde83 	.word	0x431bde83
 8001da4:	40012300 	.word	0x40012300
 8001da8:	40012000 	.word	0x40012000
 8001dac:	40012100 	.word	0x40012100
 8001db0:	40012200 	.word	0x40012200

08001db4 <HAL_ADC_GetValue>:
  * @param  hadc pointer to a ADC_HandleTypeDef structure that contains
  *         the configuration information for the specified ADC.
  * @retval Converted value
  */
uint32_t HAL_ADC_GetValue(ADC_HandleTypeDef* hadc)
{       
 8001db4:	b480      	push	{r7}
 8001db6:	b083      	sub	sp, #12
 8001db8:	af00      	add	r7, sp, #0
 8001dba:	6078      	str	r0, [r7, #4]
  /* Return the selected ADC converted value */ 
  return hadc->Instance->DR;
 8001dbc:	687b      	ldr	r3, [r7, #4]
 8001dbe:	681b      	ldr	r3, [r3, #0]
 8001dc0:	6cdb      	ldr	r3, [r3, #76]	; 0x4c
}
 8001dc2:	4618      	mov	r0, r3
 8001dc4:	370c      	adds	r7, #12
 8001dc6:	46bd      	mov	sp, r7
 8001dc8:	f85d 7b04 	ldr.w	r7, [sp], #4
 8001dcc:	4770      	bx	lr
	...

08001dd0 <HAL_ADC_ConfigChannel>:
  *         the configuration information for the specified ADC.
  * @param  sConfig ADC configuration structure. 
  * @retval HAL status
  */
HAL_StatusTypeDef HAL_ADC_ConfigChannel(ADC_HandleTypeDef* hadc, ADC_ChannelConfTypeDef* sConfig)
{
 8001dd0:	b480      	push	{r7}
 8001dd2:	b085      	sub	sp, #20
 8001dd4:	af00      	add	r7, sp, #0
 8001dd6:	6078      	str	r0, [r7, #4]
 8001dd8:	6039      	str	r1, [r7, #0]
  __IO uint32_t counter = 0U;
 8001dda:	2300      	movs	r3, #0
 8001ddc:	60bb      	str	r3, [r7, #8]
  assert_param(IS_ADC_CHANNEL(sConfig->Channel));
  assert_param(IS_ADC_REGULAR_RANK(sConfig->Rank));
  assert_param(IS_ADC_SAMPLE_TIME(sConfig->SamplingTime));
  
  /* Process locked */
  __HAL_LOCK(hadc);
 8001dde:	687b      	ldr	r3, [r7, #4]
 8001de0:	f893 303c 	ldrb.w	r3, [r3, #60]	; 0x3c
 8001de4:	2b01      	cmp	r3, #1
 8001de6:	d101      	bne.n	8001dec <HAL_ADC_ConfigChannel+0x1c>
 8001de8:	2302      	movs	r3, #2
 8001dea:	e105      	b.n	8001ff8 <HAL_ADC_ConfigChannel+0x228>
 8001dec:	687b      	ldr	r3, [r7, #4]
 8001dee:	2201      	movs	r2, #1
 8001df0:	f883 203c 	strb.w	r2, [r3, #60]	; 0x3c
    
  /* if ADC_Channel_10 ... ADC_Channel_18 is selected */
  if (sConfig->Channel > ADC_CHANNEL_9)
 8001df4:	683b      	ldr	r3, [r7, #0]
 8001df6:	681b      	ldr	r3, [r3, #0]
 8001df8:	2b09      	cmp	r3, #9
 8001dfa:	d925      	bls.n	8001e48 <HAL_ADC_ConfigChannel+0x78>
  {
    /* Clear the old sample time */
    hadc->Instance->SMPR1 &= ~ADC_SMPR1(ADC_SMPR1_SMP10, sConfig->Channel);
 8001dfc:	687b      	ldr	r3, [r7, #4]
 8001dfe:	681b      	ldr	r3, [r3, #0]
 8001e00:	68d9      	ldr	r1, [r3, #12]
 8001e02:	683b      	ldr	r3, [r7, #0]
 8001e04:	681b      	ldr	r3, [r3, #0]
 8001e06:	b29b      	uxth	r3, r3
 8001e08:	461a      	mov	r2, r3
 8001e0a:	4613      	mov	r3, r2
 8001e0c:	005b      	lsls	r3, r3, #1
 8001e0e:	4413      	add	r3, r2
 8001e10:	3b1e      	subs	r3, #30
 8001e12:	2207      	movs	r2, #7
 8001e14:	fa02 f303 	lsl.w	r3, r2, r3
 8001e18:	43da      	mvns	r2, r3
 8001e1a:	687b      	ldr	r3, [r7, #4]
 8001e1c:	681b      	ldr	r3, [r3, #0]
 8001e1e:	400a      	ands	r2, r1
 8001e20:	60da      	str	r2, [r3, #12]
    
    /* Set the new sample time */
    hadc->Instance->SMPR1 |= ADC_SMPR1(sConfig->SamplingTime, sConfig->Channel);
 8001e22:	687b      	ldr	r3, [r7, #4]
 8001e24:	681b      	ldr	r3, [r3, #0]
 8001e26:	68d9      	ldr	r1, [r3, #12]
 8001e28:	683b      	ldr	r3, [r7, #0]
 8001e2a:	689a      	ldr	r2, [r3, #8]
 8001e2c:	683b      	ldr	r3, [r7, #0]
 8001e2e:	681b      	ldr	r3, [r3, #0]
 8001e30:	b29b      	uxth	r3, r3
 8001e32:	4618      	mov	r0, r3
 8001e34:	4603      	mov	r3, r0
 8001e36:	005b      	lsls	r3, r3, #1
 8001e38:	4403      	add	r3, r0
 8001e3a:	3b1e      	subs	r3, #30
 8001e3c:	409a      	lsls	r2, r3
 8001e3e:	687b      	ldr	r3, [r7, #4]
 8001e40:	681b      	ldr	r3, [r3, #0]
 8001e42:	430a      	orrs	r2, r1
 8001e44:	60da      	str	r2, [r3, #12]
 8001e46:	e022      	b.n	8001e8e <HAL_ADC_ConfigChannel+0xbe>
  }
  else /* ADC_Channel include in ADC_Channel_[0..9] */
  {
    /* Clear the old sample time */
    hadc->Instance->SMPR2 &= ~ADC_SMPR2(ADC_SMPR2_SMP0, sConfig->Channel);
 8001e48:	687b      	ldr	r3, [r7, #4]
 8001e4a:	681b      	ldr	r3, [r3, #0]
 8001e4c:	6919      	ldr	r1, [r3, #16]
 8001e4e:	683b      	ldr	r3, [r7, #0]
 8001e50:	681b      	ldr	r3, [r3, #0]
 8001e52:	b29b      	uxth	r3, r3
 8001e54:	461a      	mov	r2, r3
 8001e56:	4613      	mov	r3, r2
 8001e58:	005b      	lsls	r3, r3, #1
 8001e5a:	4413      	add	r3, r2
 8001e5c:	2207      	movs	r2, #7
 8001e5e:	fa02 f303 	lsl.w	r3, r2, r3
 8001e62:	43da      	mvns	r2, r3
 8001e64:	687b      	ldr	r3, [r7, #4]
 8001e66:	681b      	ldr	r3, [r3, #0]
 8001e68:	400a      	ands	r2, r1
 8001e6a:	611a      	str	r2, [r3, #16]
    
    /* Set the new sample time */
    hadc->Instance->SMPR2 |= ADC_SMPR2(sConfig->SamplingTime, sConfig->Channel);
 8001e6c:	687b      	ldr	r3, [r7, #4]
 8001e6e:	681b      	ldr	r3, [r3, #0]
 8001e70:	6919      	ldr	r1, [r3, #16]
 8001e72:	683b      	ldr	r3, [r7, #0]
 8001e74:	689a      	ldr	r2, [r3, #8]
 8001e76:	683b      	ldr	r3, [r7, #0]
 8001e78:	681b      	ldr	r3, [r3, #0]
 8001e7a:	b29b      	uxth	r3, r3
 8001e7c:	4618      	mov	r0, r3
 8001e7e:	4603      	mov	r3, r0
 8001e80:	005b      	lsls	r3, r3, #1
 8001e82:	4403      	add	r3, r0
 8001e84:	409a      	lsls	r2, r3
 8001e86:	687b      	ldr	r3, [r7, #4]
 8001e88:	681b      	ldr	r3, [r3, #0]
 8001e8a:	430a      	orrs	r2, r1
 8001e8c:	611a      	str	r2, [r3, #16]
  }
  
  /* For Rank 1 to 6 */
  if (sConfig->Rank < 7U)
 8001e8e:	683b      	ldr	r3, [r7, #0]
 8001e90:	685b      	ldr	r3, [r3, #4]
 8001e92:	2b06      	cmp	r3, #6
 8001e94:	d824      	bhi.n	8001ee0 <HAL_ADC_ConfigChannel+0x110>
  {
    /* Clear the old SQx bits for the selected rank */
    hadc->Instance->SQR3 &= ~ADC_SQR3_RK(ADC_SQR3_SQ1, sConfig->Rank);
 8001e96:	687b      	ldr	r3, [r7, #4]
 8001e98:	681b      	ldr	r3, [r3, #0]
 8001e9a:	6b59      	ldr	r1, [r3, #52]	; 0x34
 8001e9c:	683b      	ldr	r3, [r7, #0]
 8001e9e:	685a      	ldr	r2, [r3, #4]
 8001ea0:	4613      	mov	r3, r2
 8001ea2:	009b      	lsls	r3, r3, #2
 8001ea4:	4413      	add	r3, r2
 8001ea6:	3b05      	subs	r3, #5
 8001ea8:	221f      	movs	r2, #31
 8001eaa:	fa02 f303 	lsl.w	r3, r2, r3
 8001eae:	43da      	mvns	r2, r3
 8001eb0:	687b      	ldr	r3, [r7, #4]
 8001eb2:	681b      	ldr	r3, [r3, #0]
 8001eb4:	400a      	ands	r2, r1
 8001eb6:	635a      	str	r2, [r3, #52]	; 0x34
    
    /* Set the SQx bits for the selected rank */
    hadc->Instance->SQR3 |= ADC_SQR3_RK(sConfig->Channel, sConfig->Rank);
 8001eb8:	687b      	ldr	r3, [r7, #4]
 8001eba:	681b      	ldr	r3, [r3, #0]
 8001ebc:	6b59      	ldr	r1, [r3, #52]	; 0x34
 8001ebe:	683b      	ldr	r3, [r7, #0]
 8001ec0:	681b      	ldr	r3, [r3, #0]
 8001ec2:	b29b      	uxth	r3, r3
 8001ec4:	4618      	mov	r0, r3
 8001ec6:	683b      	ldr	r3, [r7, #0]
 8001ec8:	685a      	ldr	r2, [r3, #4]
 8001eca:	4613      	mov	r3, r2
 8001ecc:	009b      	lsls	r3, r3, #2
 8001ece:	4413      	add	r3, r2
 8001ed0:	3b05      	subs	r3, #5
 8001ed2:	fa00 f203 	lsl.w	r2, r0, r3
 8001ed6:	687b      	ldr	r3, [r7, #4]
 8001ed8:	681b      	ldr	r3, [r3, #0]
 8001eda:	430a      	orrs	r2, r1
 8001edc:	635a      	str	r2, [r3, #52]	; 0x34
 8001ede:	e04c      	b.n	8001f7a <HAL_ADC_ConfigChannel+0x1aa>
  }
  /* For Rank 7 to 12 */
  else if (sConfig->Rank < 13U)
 8001ee0:	683b      	ldr	r3, [r7, #0]
 8001ee2:	685b      	ldr	r3, [r3, #4]
 8001ee4:	2b0c      	cmp	r3, #12
 8001ee6:	d824      	bhi.n	8001f32 <HAL_ADC_ConfigChannel+0x162>
  {
    /* Clear the old SQx bits for the selected rank */
    hadc->Instance->SQR2 &= ~ADC_SQR2_RK(ADC_SQR2_SQ7, sConfig->Rank);
 8001ee8:	687b      	ldr	r3, [r7, #4]
 8001eea:	681b      	ldr	r3, [r3, #0]
 8001eec:	6b19      	ldr	r1, [r3, #48]	; 0x30
 8001eee:	683b      	ldr	r3, [r7, #0]
 8001ef0:	685a      	ldr	r2, [r3, #4]
 8001ef2:	4613      	mov	r3, r2
 8001ef4:	009b      	lsls	r3, r3, #2
 8001ef6:	4413      	add	r3, r2
 8001ef8:	3b23      	subs	r3, #35	; 0x23
 8001efa:	221f      	movs	r2, #31
 8001efc:	fa02 f303 	lsl.w	r3, r2, r3
 8001f00:	43da      	mvns	r2, r3
 8001f02:	687b      	ldr	r3, [r7, #4]
 8001f04:	681b      	ldr	r3, [r3, #0]
 8001f06:	400a      	ands	r2, r1
 8001f08:	631a      	str	r2, [r3, #48]	; 0x30
    
    /* Set the SQx bits for the selected rank */
    hadc->Instance->SQR2 |= ADC_SQR2_RK(sConfig->Channel, sConfig->Rank);
 8001f0a:	687b      	ldr	r3, [r7, #4]
 8001f0c:	681b      	ldr	r3, [r3, #0]
 8001f0e:	6b19      	ldr	r1, [r3, #48]	; 0x30
 8001f10:	683b      	ldr	r3, [r7, #0]
 8001f12:	681b      	ldr	r3, [r3, #0]
 8001f14:	b29b      	uxth	r3, r3
 8001f16:	4618      	mov	r0, r3
 8001f18:	683b      	ldr	r3, [r7, #0]
 8001f1a:	685a      	ldr	r2, [r3, #4]
 8001f1c:	4613      	mov	r3, r2
 8001f1e:	009b      	lsls	r3, r3, #2
 8001f20:	4413      	add	r3, r2
 8001f22:	3b23      	subs	r3, #35	; 0x23
 8001f24:	fa00 f203 	lsl.w	r2, r0, r3
 8001f28:	687b      	ldr	r3, [r7, #4]
 8001f2a:	681b      	ldr	r3, [r3, #0]
 8001f2c:	430a      	orrs	r2, r1
 8001f2e:	631a      	str	r2, [r3, #48]	; 0x30
 8001f30:	e023      	b.n	8001f7a <HAL_ADC_ConfigChannel+0x1aa>
  }
  /* For Rank 13 to 16 */
  else
  {
    /* Clear the old SQx bits for the selected rank */
    hadc->Instance->SQR1 &= ~ADC_SQR1_RK(ADC_SQR1_SQ13, sConfig->Rank);
 8001f32:	687b      	ldr	r3, [r7, #4]
 8001f34:	681b      	ldr	r3, [r3, #0]
 8001f36:	6ad9      	ldr	r1, [r3, #44]	; 0x2c
 8001f38:	683b      	ldr	r3, [r7, #0]
 8001f3a:	685a      	ldr	r2, [r3, #4]
 8001f3c:	4613      	mov	r3, r2
 8001f3e:	009b      	lsls	r3, r3, #2
 8001f40:	4413      	add	r3, r2
 8001f42:	3b41      	subs	r3, #65	; 0x41
 8001f44:	221f      	movs	r2, #31
 8001f46:	fa02 f303 	lsl.w	r3, r2, r3
 8001f4a:	43da      	mvns	r2, r3
 8001f4c:	687b      	ldr	r3, [r7, #4]
 8001f4e:	681b      	ldr	r3, [r3, #0]
 8001f50:	400a      	ands	r2, r1
 8001f52:	62da      	str	r2, [r3, #44]	; 0x2c
    
    /* Set the SQx bits for the selected rank */
    hadc->Instance->SQR1 |= ADC_SQR1_RK(sConfig->Channel, sConfig->Rank);
 8001f54:	687b      	ldr	r3, [r7, #4]
 8001f56:	681b      	ldr	r3, [r3, #0]
 8001f58:	6ad9      	ldr	r1, [r3, #44]	; 0x2c
 8001f5a:	683b      	ldr	r3, [r7, #0]
 8001f5c:	681b      	ldr	r3, [r3, #0]
 8001f5e:	b29b      	uxth	r3, r3
 8001f60:	4618      	mov	r0, r3
 8001f62:	683b      	ldr	r3, [r7, #0]
 8001f64:	685a      	ldr	r2, [r3, #4]
 8001f66:	4613      	mov	r3, r2
 8001f68:	009b      	lsls	r3, r3, #2
 8001f6a:	4413      	add	r3, r2
 8001f6c:	3b41      	subs	r3, #65	; 0x41
 8001f6e:	fa00 f203 	lsl.w	r2, r0, r3
 8001f72:	687b      	ldr	r3, [r7, #4]
 8001f74:	681b      	ldr	r3, [r3, #0]
 8001f76:	430a      	orrs	r2, r1
 8001f78:	62da      	str	r2, [r3, #44]	; 0x2c
  }

    /* Pointer to the common control register to which is belonging hadc    */
    /* (Depending on STM32F4 product, there may be up to 3 ADCs and 1 common */
    /* control register)                                                    */
    tmpADC_Common = ADC_COMMON_REGISTER(hadc);
 8001f7a:	4b22      	ldr	r3, [pc, #136]	; (8002004 <HAL_ADC_ConfigChannel+0x234>)
 8001f7c:	60fb      	str	r3, [r7, #12]

  /* if ADC1 Channel_18 is selected for VBAT Channel ennable VBATE */
  if ((hadc->Instance == ADC1) && (sConfig->Channel == ADC_CHANNEL_VBAT))
 8001f7e:	687b      	ldr	r3, [r7, #4]
 8001f80:	681b      	ldr	r3, [r3, #0]
 8001f82:	4a21      	ldr	r2, [pc, #132]	; (8002008 <HAL_ADC_ConfigChannel+0x238>)
 8001f84:	4293      	cmp	r3, r2
 8001f86:	d109      	bne.n	8001f9c <HAL_ADC_ConfigChannel+0x1cc>
 8001f88:	683b      	ldr	r3, [r7, #0]
 8001f8a:	681b      	ldr	r3, [r3, #0]
 8001f8c:	2b12      	cmp	r3, #18
 8001f8e:	d105      	bne.n	8001f9c <HAL_ADC_ConfigChannel+0x1cc>
    if ((uint16_t)ADC_CHANNEL_TEMPSENSOR == (uint16_t)ADC_CHANNEL_VBAT)
    {
      tmpADC_Common->CCR &= ~ADC_CCR_TSVREFE;
    }
    /* Enable the VBAT channel*/
    tmpADC_Common->CCR |= ADC_CCR_VBATE;
 8001f90:	68fb      	ldr	r3, [r7, #12]
 8001f92:	685b      	ldr	r3, [r3, #4]
 8001f94:	f443 0280 	orr.w	r2, r3, #4194304	; 0x400000
 8001f98:	68fb      	ldr	r3, [r7, #12]
 8001f9a:	605a      	str	r2, [r3, #4]
  }
  
  /* if ADC1 Channel_16 or Channel_18 is selected for Temperature sensor or 
     Channel_17 is selected for VREFINT enable TSVREFE */
  if ((hadc->Instance == ADC1) && ((sConfig->Channel == ADC_CHANNEL_TEMPSENSOR) || (sConfig->Channel == ADC_CHANNEL_VREFINT)))
 8001f9c:	687b      	ldr	r3, [r7, #4]
 8001f9e:	681b      	ldr	r3, [r3, #0]
 8001fa0:	4a19      	ldr	r2, [pc, #100]	; (8002008 <HAL_ADC_ConfigChannel+0x238>)
 8001fa2:	4293      	cmp	r3, r2
 8001fa4:	d123      	bne.n	8001fee <HAL_ADC_ConfigChannel+0x21e>
 8001fa6:	683b      	ldr	r3, [r7, #0]
 8001fa8:	681b      	ldr	r3, [r3, #0]
 8001faa:	2b10      	cmp	r3, #16
 8001fac:	d003      	beq.n	8001fb6 <HAL_ADC_ConfigChannel+0x1e6>
 8001fae:	683b      	ldr	r3, [r7, #0]
 8001fb0:	681b      	ldr	r3, [r3, #0]
 8001fb2:	2b11      	cmp	r3, #17
 8001fb4:	d11b      	bne.n	8001fee <HAL_ADC_ConfigChannel+0x21e>
    if ((uint16_t)ADC_CHANNEL_TEMPSENSOR == (uint16_t)ADC_CHANNEL_VBAT)
    {
      tmpADC_Common->CCR &= ~ADC_CCR_VBATE;
    }
    /* Enable the Temperature sensor and VREFINT channel*/
    tmpADC_Common->CCR |= ADC_CCR_TSVREFE;
 8001fb6:	68fb      	ldr	r3, [r7, #12]
 8001fb8:	685b      	ldr	r3, [r3, #4]
 8001fba:	f443 0200 	orr.w	r2, r3, #8388608	; 0x800000
 8001fbe:	68fb      	ldr	r3, [r7, #12]
 8001fc0:	605a      	str	r2, [r3, #4]
    
    if((sConfig->Channel == ADC_CHANNEL_TEMPSENSOR))
 8001fc2:	683b      	ldr	r3, [r7, #0]
 8001fc4:	681b      	ldr	r3, [r3, #0]
 8001fc6:	2b10      	cmp	r3, #16
 8001fc8:	d111      	bne.n	8001fee <HAL_ADC_ConfigChannel+0x21e>
    {
      /* Delay for temperature sensor stabilization time */
      /* Compute number of CPU cycles to wait for */
      counter = (ADC_TEMPSENSOR_DELAY_US * (SystemCoreClock / 1000000U));
 8001fca:	4b10      	ldr	r3, [pc, #64]	; (800200c <HAL_ADC_ConfigChannel+0x23c>)
 8001fcc:	681b      	ldr	r3, [r3, #0]
 8001fce:	4a10      	ldr	r2, [pc, #64]	; (8002010 <HAL_ADC_ConfigChannel+0x240>)
 8001fd0:	fba2 2303 	umull	r2, r3, r2, r3
 8001fd4:	0c9a      	lsrs	r2, r3, #18
 8001fd6:	4613      	mov	r3, r2
 8001fd8:	009b      	lsls	r3, r3, #2
 8001fda:	4413      	add	r3, r2
 8001fdc:	005b      	lsls	r3, r3, #1
 8001fde:	60bb      	str	r3, [r7, #8]
      while(counter != 0U)
 8001fe0:	e002      	b.n	8001fe8 <HAL_ADC_ConfigChannel+0x218>
      {
        counter--;
 8001fe2:	68bb      	ldr	r3, [r7, #8]
 8001fe4:	3b01      	subs	r3, #1
 8001fe6:	60bb      	str	r3, [r7, #8]
      while(counter != 0U)
 8001fe8:	68bb      	ldr	r3, [r7, #8]
 8001fea:	2b00      	cmp	r3, #0
 8001fec:	d1f9      	bne.n	8001fe2 <HAL_ADC_ConfigChannel+0x212>
      }
    }
  }
  
  /* Process unlocked */
  __HAL_UNLOCK(hadc);
 8001fee:	687b      	ldr	r3, [r7, #4]
 8001ff0:	2200      	movs	r2, #0
 8001ff2:	f883 203c 	strb.w	r2, [r3, #60]	; 0x3c
  
  /* Return function status */
  return HAL_OK;
 8001ff6:	2300      	movs	r3, #0
}
 8001ff8:	4618      	mov	r0, r3
 8001ffa:	3714      	adds	r7, #20
 8001ffc:	46bd      	mov	sp, r7
 8001ffe:	f85d 7b04 	ldr.w	r7, [sp], #4
 8002002:	4770      	bx	lr
 8002004:	40012300 	.word	0x40012300
 8002008:	40012000 	.word	0x40012000
 800200c:	20000020 	.word	0x20000020
 8002010:	431bde83 	.word	0x431bde83

08002014 <ADC_Init>:
  * @param  hadc pointer to a ADC_HandleTypeDef structure that contains
  *         the configuration information for the specified ADC.  
  * @retval None
  */
static void ADC_Init(ADC_HandleTypeDef* hadc)
{
 8002014:	b480      	push	{r7}
 8002016:	b085      	sub	sp, #20
 8002018:	af00      	add	r7, sp, #0
 800201a:	6078      	str	r0, [r7, #4]
  
  /* Set ADC parameters */
  /* Pointer to the common control register to which is belonging hadc    */
  /* (Depending on STM32F4 product, there may be up to 3 ADCs and 1 common */
  /* control register)                                                    */
  tmpADC_Common = ADC_COMMON_REGISTER(hadc);
 800201c:	4b79      	ldr	r3, [pc, #484]	; (8002204 <ADC_Init+0x1f0>)
 800201e:	60fb      	str	r3, [r7, #12]
  
  /* Set the ADC clock prescaler */
  tmpADC_Common->CCR &= ~(ADC_CCR_ADCPRE);
 8002020:	68fb      	ldr	r3, [r7, #12]
 8002022:	685b      	ldr	r3, [r3, #4]
 8002024:	f423 3240 	bic.w	r2, r3, #196608	; 0x30000
 8002028:	68fb      	ldr	r3, [r7, #12]
 800202a:	605a      	str	r2, [r3, #4]
  tmpADC_Common->CCR |=  hadc->Init.ClockPrescaler;
 800202c:	68fb      	ldr	r3, [r7, #12]
 800202e:	685a      	ldr	r2, [r3, #4]
 8002030:	687b      	ldr	r3, [r7, #4]
 8002032:	685b      	ldr	r3, [r3, #4]
 8002034:	431a      	orrs	r2, r3
 8002036:	68fb      	ldr	r3, [r7, #12]
 8002038:	605a      	str	r2, [r3, #4]
  
  /* Set ADC scan mode */
  hadc->Instance->CR1 &= ~(ADC_CR1_SCAN);
 800203a:	687b      	ldr	r3, [r7, #4]
 800203c:	681b      	ldr	r3, [r3, #0]
 800203e:	685a      	ldr	r2, [r3, #4]
 8002040:	687b      	ldr	r3, [r7, #4]
 8002042:	681b      	ldr	r3, [r3, #0]
 8002044:	f422 7280 	bic.w	r2, r2, #256	; 0x100
 8002048:	605a      	str	r2, [r3, #4]
  hadc->Instance->CR1 |=  ADC_CR1_SCANCONV(hadc->Init.ScanConvMode);
 800204a:	687b      	ldr	r3, [r7, #4]
 800204c:	681b      	ldr	r3, [r3, #0]
 800204e:	6859      	ldr	r1, [r3, #4]
 8002050:	687b      	ldr	r3, [r7, #4]
 8002052:	691b      	ldr	r3, [r3, #16]
 8002054:	021a      	lsls	r2, r3, #8
 8002056:	687b      	ldr	r3, [r7, #4]
 8002058:	681b      	ldr	r3, [r3, #0]
 800205a:	430a      	orrs	r2, r1
 800205c:	605a      	str	r2, [r3, #4]
  
  /* Set ADC resolution */
  hadc->Instance->CR1 &= ~(ADC_CR1_RES);
 800205e:	687b      	ldr	r3, [r7, #4]
 8002060:	681b      	ldr	r3, [r3, #0]
 8002062:	685a      	ldr	r2, [r3, #4]
 8002064:	687b      	ldr	r3, [r7, #4]
 8002066:	681b      	ldr	r3, [r3, #0]
 8002068:	f022 7240 	bic.w	r2, r2, #50331648	; 0x3000000
 800206c:	605a      	str	r2, [r3, #4]
  hadc->Instance->CR1 |=  hadc->Init.Resolution;
 800206e:	687b      	ldr	r3, [r7, #4]
 8002070:	681b      	ldr	r3, [r3, #0]
 8002072:	6859      	ldr	r1, [r3, #4]
 8002074:	687b      	ldr	r3, [r7, #4]
 8002076:	689a      	ldr	r2, [r3, #8]
 8002078:	687b      	ldr	r3, [r7, #4]
 800207a:	681b      	ldr	r3, [r3, #0]
 800207c:	430a      	orrs	r2, r1
 800207e:	605a      	str	r2, [r3, #4]
  
  /* Set ADC data alignment */
  hadc->Instance->CR2 &= ~(ADC_CR2_ALIGN);
 8002080:	687b      	ldr	r3, [r7, #4]
 8002082:	681b      	ldr	r3, [r3, #0]
 8002084:	689a      	ldr	r2, [r3, #8]
 8002086:	687b      	ldr	r3, [r7, #4]
 8002088:	681b      	ldr	r3, [r3, #0]
 800208a:	f422 6200 	bic.w	r2, r2, #2048	; 0x800
 800208e:	609a      	str	r2, [r3, #8]
  hadc->Instance->CR2 |= hadc->Init.DataAlign;
 8002090:	687b      	ldr	r3, [r7, #4]
 8002092:	681b      	ldr	r3, [r3, #0]
 8002094:	6899      	ldr	r1, [r3, #8]
 8002096:	687b      	ldr	r3, [r7, #4]
 8002098:	68da      	ldr	r2, [r3, #12]
 800209a:	687b      	ldr	r3, [r7, #4]
 800209c:	681b      	ldr	r3, [r3, #0]
 800209e:	430a      	orrs	r2, r1
 80020a0:	609a      	str	r2, [r3, #8]
  /* Enable external trigger if trigger selection is different of software  */
  /* start.                                                                 */
  /* Note: This configuration keeps the hardware feature of parameter       */
  /*       ExternalTrigConvEdge "trigger edge none" equivalent to           */
  /*       software start.                                                  */
  if(hadc->Init.ExternalTrigConv != ADC_SOFTWARE_START)
 80020a2:	687b      	ldr	r3, [r7, #4]
 80020a4:	6a9b      	ldr	r3, [r3, #40]	; 0x28
 80020a6:	4a58      	ldr	r2, [pc, #352]	; (8002208 <ADC_Init+0x1f4>)
 80020a8:	4293      	cmp	r3, r2
 80020aa:	d022      	beq.n	80020f2 <ADC_Init+0xde>
  {
    /* Select external trigger to start conversion */
    hadc->Instance->CR2 &= ~(ADC_CR2_EXTSEL);
 80020ac:	687b      	ldr	r3, [r7, #4]
 80020ae:	681b      	ldr	r3, [r3, #0]
 80020b0:	689a      	ldr	r2, [r3, #8]
 80020b2:	687b      	ldr	r3, [r7, #4]
 80020b4:	681b      	ldr	r3, [r3, #0]
 80020b6:	f022 6270 	bic.w	r2, r2, #251658240	; 0xf000000
 80020ba:	609a      	str	r2, [r3, #8]
    hadc->Instance->CR2 |= hadc->Init.ExternalTrigConv;
 80020bc:	687b      	ldr	r3, [r7, #4]
 80020be:	681b      	ldr	r3, [r3, #0]
 80020c0:	6899      	ldr	r1, [r3, #8]
 80020c2:	687b      	ldr	r3, [r7, #4]
 80020c4:	6a9a      	ldr	r2, [r3, #40]	; 0x28
 80020c6:	687b      	ldr	r3, [r7, #4]
 80020c8:	681b      	ldr	r3, [r3, #0]
 80020ca:	430a      	orrs	r2, r1
 80020cc:	609a      	str	r2, [r3, #8]
    
    /* Select external trigger polarity */
    hadc->Instance->CR2 &= ~(ADC_CR2_EXTEN);
 80020ce:	687b      	ldr	r3, [r7, #4]
 80020d0:	681b      	ldr	r3, [r3, #0]
 80020d2:	689a      	ldr	r2, [r3, #8]
 80020d4:	687b      	ldr	r3, [r7, #4]
 80020d6:	681b      	ldr	r3, [r3, #0]
 80020d8:	f022 5240 	bic.w	r2, r2, #805306368	; 0x30000000
 80020dc:	609a      	str	r2, [r3, #8]
    hadc->Instance->CR2 |= hadc->Init.ExternalTrigConvEdge;
 80020de:	687b      	ldr	r3, [r7, #4]
 80020e0:	681b      	ldr	r3, [r3, #0]
 80020e2:	6899      	ldr	r1, [r3, #8]
 80020e4:	687b      	ldr	r3, [r7, #4]
 80020e6:	6ada      	ldr	r2, [r3, #44]	; 0x2c
 80020e8:	687b      	ldr	r3, [r7, #4]
 80020ea:	681b      	ldr	r3, [r3, #0]
 80020ec:	430a      	orrs	r2, r1
 80020ee:	609a      	str	r2, [r3, #8]
 80020f0:	e00f      	b.n	8002112 <ADC_Init+0xfe>
  }
  else
  {
    /* Reset the external trigger */
    hadc->Instance->CR2 &= ~(ADC_CR2_EXTSEL);
 80020f2:	687b      	ldr	r3, [r7, #4]
 80020f4:	681b      	ldr	r3, [r3, #0]
 80020f6:	689a      	ldr	r2, [r3, #8]
 80020f8:	687b      	ldr	r3, [r7, #4]
 80020fa:	681b      	ldr	r3, [r3, #0]
 80020fc:	f022 6270 	bic.w	r2, r2, #251658240	; 0xf000000
 8002100:	609a      	str	r2, [r3, #8]
    hadc->Instance->CR2 &= ~(ADC_CR2_EXTEN);
 8002102:	687b      	ldr	r3, [r7, #4]
 8002104:	681b      	ldr	r3, [r3, #0]
 8002106:	689a      	ldr	r2, [r3, #8]
 8002108:	687b      	ldr	r3, [r7, #4]
 800210a:	681b      	ldr	r3, [r3, #0]
 800210c:	f022 5240 	bic.w	r2, r2, #805306368	; 0x30000000
 8002110:	609a      	str	r2, [r3, #8]
  }
  
  /* Enable or disable ADC continuous conversion mode */
  hadc->Instance->CR2 &= ~(ADC_CR2_CONT);
 8002112:	687b      	ldr	r3, [r7, #4]
 8002114:	681b      	ldr	r3, [r3, #0]
 8002116:	689a      	ldr	r2, [r3, #8]
 8002118:	687b      	ldr	r3, [r7, #4]
 800211a:	681b      	ldr	r3, [r3, #0]
 800211c:	f022 0202 	bic.w	r2, r2, #2
 8002120:	609a      	str	r2, [r3, #8]
  hadc->Instance->CR2 |= ADC_CR2_CONTINUOUS((uint32_t)hadc->Init.ContinuousConvMode);
 8002122:	687b      	ldr	r3, [r7, #4]
 8002124:	681b      	ldr	r3, [r3, #0]
 8002126:	6899      	ldr	r1, [r3, #8]
 8002128:	687b      	ldr	r3, [r7, #4]
 800212a:	7e1b      	ldrb	r3, [r3, #24]
 800212c:	005a      	lsls	r2, r3, #1
 800212e:	687b      	ldr	r3, [r7, #4]
 8002130:	681b      	ldr	r3, [r3, #0]
 8002132:	430a      	orrs	r2, r1
 8002134:	609a      	str	r2, [r3, #8]
  
  if(hadc->Init.DiscontinuousConvMode != DISABLE)
 8002136:	687b      	ldr	r3, [r7, #4]
 8002138:	f893 3020 	ldrb.w	r3, [r3, #32]
 800213c:	2b00      	cmp	r3, #0
 800213e:	d01b      	beq.n	8002178 <ADC_Init+0x164>
  {
    assert_param(IS_ADC_REGULAR_DISC_NUMBER(hadc->Init.NbrOfDiscConversion));
  
    /* Enable the selected ADC regular discontinuous mode */
    hadc->Instance->CR1 |= (uint32_t)ADC_CR1_DISCEN;
 8002140:	687b      	ldr	r3, [r7, #4]
 8002142:	681b      	ldr	r3, [r3, #0]
 8002144:	685a      	ldr	r2, [r3, #4]
 8002146:	687b      	ldr	r3, [r7, #4]
 8002148:	681b      	ldr	r3, [r3, #0]
 800214a:	f442 6200 	orr.w	r2, r2, #2048	; 0x800
 800214e:	605a      	str	r2, [r3, #4]
    
    /* Set the number of channels to be converted in discontinuous mode */
    hadc->Instance->CR1 &= ~(ADC_CR1_DISCNUM);
 8002150:	687b      	ldr	r3, [r7, #4]
 8002152:	681b      	ldr	r3, [r3, #0]
 8002154:	685a      	ldr	r2, [r3, #4]
 8002156:	687b      	ldr	r3, [r7, #4]
 8002158:	681b      	ldr	r3, [r3, #0]
 800215a:	f422 4260 	bic.w	r2, r2, #57344	; 0xe000
 800215e:	605a      	str	r2, [r3, #4]
    hadc->Instance->CR1 |=  ADC_CR1_DISCONTINUOUS(hadc->Init.NbrOfDiscConversion);
 8002160:	687b      	ldr	r3, [r7, #4]
 8002162:	681b      	ldr	r3, [r3, #0]
 8002164:	6859      	ldr	r1, [r3, #4]
 8002166:	687b      	ldr	r3, [r7, #4]
 8002168:	6a5b      	ldr	r3, [r3, #36]	; 0x24
 800216a:	3b01      	subs	r3, #1
 800216c:	035a      	lsls	r2, r3, #13
 800216e:	687b      	ldr	r3, [r7, #4]
 8002170:	681b      	ldr	r3, [r3, #0]
 8002172:	430a      	orrs	r2, r1
 8002174:	605a      	str	r2, [r3, #4]
 8002176:	e007      	b.n	8002188 <ADC_Init+0x174>
  }
  else
  {
    /* Disable the selected ADC regular discontinuous mode */
    hadc->Instance->CR1 &= ~(ADC_CR1_DISCEN);
 8002178:	687b      	ldr	r3, [r7, #4]
 800217a:	681b      	ldr	r3, [r3, #0]
 800217c:	685a      	ldr	r2, [r3, #4]
 800217e:	687b      	ldr	r3, [r7, #4]
 8002180:	681b      	ldr	r3, [r3, #0]
 8002182:	f422 6200 	bic.w	r2, r2, #2048	; 0x800
 8002186:	605a      	str	r2, [r3, #4]
  }
  
  /* Set ADC number of conversion */
  hadc->Instance->SQR1 &= ~(ADC_SQR1_L);
 8002188:	687b      	ldr	r3, [r7, #4]
 800218a:	681b      	ldr	r3, [r3, #0]
 800218c:	6ada      	ldr	r2, [r3, #44]	; 0x2c
 800218e:	687b      	ldr	r3, [r7, #4]
 8002190:	681b      	ldr	r3, [r3, #0]
 8002192:	f422 0270 	bic.w	r2, r2, #15728640	; 0xf00000
 8002196:	62da      	str	r2, [r3, #44]	; 0x2c
  hadc->Instance->SQR1 |=  ADC_SQR1(hadc->Init.NbrOfConversion);
 8002198:	687b      	ldr	r3, [r7, #4]
 800219a:	681b      	ldr	r3, [r3, #0]
 800219c:	6ad9      	ldr	r1, [r3, #44]	; 0x2c
 800219e:	687b      	ldr	r3, [r7, #4]
 80021a0:	69db      	ldr	r3, [r3, #28]
 80021a2:	3b01      	subs	r3, #1
 80021a4:	051a      	lsls	r2, r3, #20
 80021a6:	687b      	ldr	r3, [r7, #4]
 80021a8:	681b      	ldr	r3, [r3, #0]
 80021aa:	430a      	orrs	r2, r1
 80021ac:	62da      	str	r2, [r3, #44]	; 0x2c
  
  /* Enable or disable ADC DMA continuous request */
  hadc->Instance->CR2 &= ~(ADC_CR2_DDS);
 80021ae:	687b      	ldr	r3, [r7, #4]
 80021b0:	681b      	ldr	r3, [r3, #0]
 80021b2:	689a      	ldr	r2, [r3, #8]
 80021b4:	687b      	ldr	r3, [r7, #4]
 80021b6:	681b      	ldr	r3, [r3, #0]
 80021b8:	f422 7200 	bic.w	r2, r2, #512	; 0x200
 80021bc:	609a      	str	r2, [r3, #8]
  hadc->Instance->CR2 |= ADC_CR2_DMAContReq((uint32_t)hadc->Init.DMAContinuousRequests);
 80021be:	687b      	ldr	r3, [r7, #4]
 80021c0:	681b      	ldr	r3, [r3, #0]
 80021c2:	6899      	ldr	r1, [r3, #8]
 80021c4:	687b      	ldr	r3, [r7, #4]
 80021c6:	f893 3030 	ldrb.w	r3, [r3, #48]	; 0x30
 80021ca:	025a      	lsls	r2, r3, #9
 80021cc:	687b      	ldr	r3, [r7, #4]
 80021ce:	681b      	ldr	r3, [r3, #0]
 80021d0:	430a      	orrs	r2, r1
 80021d2:	609a      	str	r2, [r3, #8]
  
  /* Enable or disable ADC end of conversion selection */
  hadc->Instance->CR2 &= ~(ADC_CR2_EOCS);
 80021d4:	687b      	ldr	r3, [r7, #4]
 80021d6:	681b      	ldr	r3, [r3, #0]
 80021d8:	689a      	ldr	r2, [r3, #8]
 80021da:	687b      	ldr	r3, [r7, #4]
 80021dc:	681b      	ldr	r3, [r3, #0]
 80021de:	f422 6280 	bic.w	r2, r2, #1024	; 0x400
 80021e2:	609a      	str	r2, [r3, #8]
  hadc->Instance->CR2 |= ADC_CR2_EOCSelection(hadc->Init.EOCSelection);
 80021e4:	687b      	ldr	r3, [r7, #4]
 80021e6:	681b      	ldr	r3, [r3, #0]
 80021e8:	6899      	ldr	r1, [r3, #8]
 80021ea:	687b      	ldr	r3, [r7, #4]
 80021ec:	695b      	ldr	r3, [r3, #20]
 80021ee:	029a      	lsls	r2, r3, #10
 80021f0:	687b      	ldr	r3, [r7, #4]
 80021f2:	681b      	ldr	r3, [r3, #0]
 80021f4:	430a      	orrs	r2, r1
 80021f6:	609a      	str	r2, [r3, #8]
}
 80021f8:	bf00      	nop
 80021fa:	3714      	adds	r7, #20
 80021fc:	46bd      	mov	sp, r7
 80021fe:	f85d 7b04 	ldr.w	r7, [sp], #4
 8002202:	4770      	bx	lr
 8002204:	40012300 	.word	0x40012300
 8002208:	0f000001 	.word	0x0f000001

0800220c <__NVIC_SetPriorityGrouping>:
           In case of a conflict between priority grouping and available
           priority bits (__NVIC_PRIO_BITS), the smallest possible priority group is set.
  \param [in]      PriorityGroup  Priority grouping field.
 */
__STATIC_INLINE void __NVIC_SetPriorityGrouping(uint32_t PriorityGroup)
{
 800220c:	b480      	push	{r7}
 800220e:	b085      	sub	sp, #20
 8002210:	af00      	add	r7, sp, #0
 8002212:	6078      	str	r0, [r7, #4]
  uint32_t reg_value;
  uint32_t PriorityGroupTmp = (PriorityGroup & (uint32_t)0x07UL);             /* only values 0..7 are used          */
 8002214:	687b      	ldr	r3, [r7, #4]
 8002216:	f003 0307 	and.w	r3, r3, #7
 800221a:	60fb      	str	r3, [r7, #12]

  reg_value  =  SCB->AIRCR;                                                   /* read old register configuration    */
 800221c:	4b0c      	ldr	r3, [pc, #48]	; (8002250 <__NVIC_SetPriorityGrouping+0x44>)
 800221e:	68db      	ldr	r3, [r3, #12]
 8002220:	60bb      	str	r3, [r7, #8]
  reg_value &= ~((uint32_t)(SCB_AIRCR_VECTKEY_Msk | SCB_AIRCR_PRIGROUP_Msk)); /* clear bits to change               */
 8002222:	68ba      	ldr	r2, [r7, #8]
 8002224:	f64f 03ff 	movw	r3, #63743	; 0xf8ff
 8002228:	4013      	ands	r3, r2
 800222a:	60bb      	str	r3, [r7, #8]
  reg_value  =  (reg_value                                   |
                ((uint32_t)0x5FAUL << SCB_AIRCR_VECTKEY_Pos) |
                (PriorityGroupTmp << SCB_AIRCR_PRIGROUP_Pos)  );              /* Insert write key and priority group */
 800222c:	68fb      	ldr	r3, [r7, #12]
 800222e:	021a      	lsls	r2, r3, #8
                ((uint32_t)0x5FAUL << SCB_AIRCR_VECTKEY_Pos) |
 8002230:	68bb      	ldr	r3, [r7, #8]
 8002232:	4313      	orrs	r3, r2
  reg_value  =  (reg_value                                   |
 8002234:	f043 63bf 	orr.w	r3, r3, #100139008	; 0x5f80000
 8002238:	f443 3300 	orr.w	r3, r3, #131072	; 0x20000
 800223c:	60bb      	str	r3, [r7, #8]
  SCB->AIRCR =  reg_value;
 800223e:	4a04      	ldr	r2, [pc, #16]	; (8002250 <__NVIC_SetPriorityGrouping+0x44>)
 8002240:	68bb      	ldr	r3, [r7, #8]
 8002242:	60d3      	str	r3, [r2, #12]
}
 8002244:	bf00      	nop
 8002246:	3714      	adds	r7, #20
 8002248:	46bd      	mov	sp, r7
 800224a:	f85d 7b04 	ldr.w	r7, [sp], #4
 800224e:	4770      	bx	lr
 8002250:	e000ed00 	.word	0xe000ed00

08002254 <__NVIC_GetPriorityGrouping>:
  \brief   Get Priority Grouping
  \details Reads the priority grouping field from the NVIC Interrupt Controller.
  \return                Priority grouping field (SCB->AIRCR [10:8] PRIGROUP field).
 */
__STATIC_INLINE uint32_t __NVIC_GetPriorityGrouping(void)
{
 8002254:	b480      	push	{r7}
 8002256:	af00      	add	r7, sp, #0
  return ((uint32_t)((SCB->AIRCR & SCB_AIRCR_PRIGROUP_Msk) >> SCB_AIRCR_PRIGROUP_Pos));
 8002258:	4b04      	ldr	r3, [pc, #16]	; (800226c <__NVIC_GetPriorityGrouping+0x18>)
 800225a:	68db      	ldr	r3, [r3, #12]
 800225c:	0a1b      	lsrs	r3, r3, #8
 800225e:	f003 0307 	and.w	r3, r3, #7
}
 8002262:	4618      	mov	r0, r3
 8002264:	46bd      	mov	sp, r7
 8002266:	f85d 7b04 	ldr.w	r7, [sp], #4
 800226a:	4770      	bx	lr
 800226c:	e000ed00 	.word	0xe000ed00

08002270 <__NVIC_EnableIRQ>:
  \details Enables a device specific interrupt in the NVIC interrupt controller.
  \param [in]      IRQn  Device specific interrupt number.
  \note    IRQn must not be negative.
 */
__STATIC_INLINE void __NVIC_EnableIRQ(IRQn_Type IRQn)
{
 8002270:	b480      	push	{r7}
 8002272:	b083      	sub	sp, #12
 8002274:	af00      	add	r7, sp, #0
 8002276:	4603      	mov	r3, r0
 8002278:	71fb      	strb	r3, [r7, #7]
  if ((int32_t)(IRQn) >= 0)
 800227a:	f997 3007 	ldrsb.w	r3, [r7, #7]
 800227e:	2b00      	cmp	r3, #0
 8002280:	db0b      	blt.n	800229a <__NVIC_EnableIRQ+0x2a>
  {
    NVIC->ISER[(((uint32_t)IRQn) >> 5UL)] = (uint32_t)(1UL << (((uint32_t)IRQn) & 0x1FUL));
 8002282:	79fb      	ldrb	r3, [r7, #7]
 8002284:	f003 021f 	and.w	r2, r3, #31
 8002288:	4907      	ldr	r1, [pc, #28]	; (80022a8 <__NVIC_EnableIRQ+0x38>)
 800228a:	f997 3007 	ldrsb.w	r3, [r7, #7]
 800228e:	095b      	lsrs	r3, r3, #5
 8002290:	2001      	movs	r0, #1
 8002292:	fa00 f202 	lsl.w	r2, r0, r2
 8002296:	f841 2023 	str.w	r2, [r1, r3, lsl #2]
  }
}
 800229a:	bf00      	nop
 800229c:	370c      	adds	r7, #12
 800229e:	46bd      	mov	sp, r7
 80022a0:	f85d 7b04 	ldr.w	r7, [sp], #4
 80022a4:	4770      	bx	lr
 80022a6:	bf00      	nop
 80022a8:	e000e100 	.word	0xe000e100

080022ac <__NVIC_SetPriority>:
  \param [in]      IRQn  Interrupt number.
  \param [in]  priority  Priority to set.
  \note    The priority cannot be set for every processor exception.
 */
__STATIC_INLINE void __NVIC_SetPriority(IRQn_Type IRQn, uint32_t priority)
{
 80022ac:	b480      	push	{r7}
 80022ae:	b083      	sub	sp, #12
 80022b0:	af00      	add	r7, sp, #0
 80022b2:	4603      	mov	r3, r0
 80022b4:	6039      	str	r1, [r7, #0]
 80022b6:	71fb      	strb	r3, [r7, #7]
  if ((int32_t)(IRQn) >= 0)
 80022b8:	f997 3007 	ldrsb.w	r3, [r7, #7]
 80022bc:	2b00      	cmp	r3, #0
 80022be:	db0a      	blt.n	80022d6 <__NVIC_SetPriority+0x2a>
  {
    NVIC->IP[((uint32_t)IRQn)]               = (uint8_t)((priority << (8U - __NVIC_PRIO_BITS)) & (uint32_t)0xFFUL);
 80022c0:	683b      	ldr	r3, [r7, #0]
 80022c2:	b2da      	uxtb	r2, r3
 80022c4:	490c      	ldr	r1, [pc, #48]	; (80022f8 <__NVIC_SetPriority+0x4c>)
 80022c6:	f997 3007 	ldrsb.w	r3, [r7, #7]
 80022ca:	0112      	lsls	r2, r2, #4
 80022cc:	b2d2      	uxtb	r2, r2
 80022ce:	440b      	add	r3, r1
 80022d0:	f883 2300 	strb.w	r2, [r3, #768]	; 0x300
  }
  else
  {
    SCB->SHP[(((uint32_t)IRQn) & 0xFUL)-4UL] = (uint8_t)((priority << (8U - __NVIC_PRIO_BITS)) & (uint32_t)0xFFUL);
  }
}
 80022d4:	e00a      	b.n	80022ec <__NVIC_SetPriority+0x40>
    SCB->SHP[(((uint32_t)IRQn) & 0xFUL)-4UL] = (uint8_t)((priority << (8U - __NVIC_PRIO_BITS)) & (uint32_t)0xFFUL);
 80022d6:	683b      	ldr	r3, [r7, #0]
 80022d8:	b2da      	uxtb	r2, r3
 80022da:	4908      	ldr	r1, [pc, #32]	; (80022fc <__NVIC_SetPriority+0x50>)
 80022dc:	79fb      	ldrb	r3, [r7, #7]
 80022de:	f003 030f 	and.w	r3, r3, #15
 80022e2:	3b04      	subs	r3, #4
 80022e4:	0112      	lsls	r2, r2, #4
 80022e6:	b2d2      	uxtb	r2, r2
 80022e8:	440b      	add	r3, r1
 80022ea:	761a      	strb	r2, [r3, #24]
}
 80022ec:	bf00      	nop
 80022ee:	370c      	adds	r7, #12
 80022f0:	46bd      	mov	sp, r7
 80022f2:	f85d 7b04 	ldr.w	r7, [sp], #4
 80022f6:	4770      	bx	lr
 80022f8:	e000e100 	.word	0xe000e100
 80022fc:	e000ed00 	.word	0xe000ed00

08002300 <NVIC_EncodePriority>:
  \param [in]   PreemptPriority  Preemptive priority value (starting from 0).
  \param [in]       SubPriority  Subpriority value (starting from 0).
  \return                        Encoded priority. Value can be used in the function \ref NVIC_SetPriority().
 */
__STATIC_INLINE uint32_t NVIC_EncodePriority (uint32_t PriorityGroup, uint32_t PreemptPriority, uint32_t SubPriority)
{
 8002300:	b480      	push	{r7}
 8002302:	b089      	sub	sp, #36	; 0x24
 8002304:	af00      	add	r7, sp, #0
 8002306:	60f8      	str	r0, [r7, #12]
 8002308:	60b9      	str	r1, [r7, #8]
 800230a:	607a      	str	r2, [r7, #4]
  uint32_t PriorityGroupTmp = (PriorityGroup & (uint32_t)0x07UL);   /* only values 0..7 are used          */
 800230c:	68fb      	ldr	r3, [r7, #12]
 800230e:	f003 0307 	and.w	r3, r3, #7
 8002312:	61fb      	str	r3, [r7, #28]
  uint32_t PreemptPriorityBits;
  uint32_t SubPriorityBits;

  PreemptPriorityBits = ((7UL - PriorityGroupTmp) > (uint32_t)(__NVIC_PRIO_BITS)) ? (uint32_t)(__NVIC_PRIO_BITS) : (uint32_t)(7UL - PriorityGroupTmp);
 8002314:	69fb      	ldr	r3, [r7, #28]
 8002316:	f1c3 0307 	rsb	r3, r3, #7
 800231a:	2b04      	cmp	r3, #4
 800231c:	bf28      	it	cs
 800231e:	2304      	movcs	r3, #4
 8002320:	61bb      	str	r3, [r7, #24]
  SubPriorityBits     = ((PriorityGroupTmp + (uint32_t)(__NVIC_PRIO_BITS)) < (uint32_t)7UL) ? (uint32_t)0UL : (uint32_t)((PriorityGroupTmp - 7UL) + (uint32_t)(__NVIC_PRIO_BITS));
 8002322:	69fb      	ldr	r3, [r7, #28]
 8002324:	3304      	adds	r3, #4
 8002326:	2b06      	cmp	r3, #6
 8002328:	d902      	bls.n	8002330 <NVIC_EncodePriority+0x30>
 800232a:	69fb      	ldr	r3, [r7, #28]
 800232c:	3b03      	subs	r3, #3
 800232e:	e000      	b.n	8002332 <NVIC_EncodePriority+0x32>
 8002330:	2300      	movs	r3, #0
 8002332:	617b      	str	r3, [r7, #20]

  return (
           ((PreemptPriority & (uint32_t)((1UL << (PreemptPriorityBits)) - 1UL)) << SubPriorityBits) |
 8002334:	f04f 32ff 	mov.w	r2, #4294967295
 8002338:	69bb      	ldr	r3, [r7, #24]
 800233a:	fa02 f303 	lsl.w	r3, r2, r3
 800233e:	43da      	mvns	r2, r3
 8002340:	68bb      	ldr	r3, [r7, #8]
 8002342:	401a      	ands	r2, r3
 8002344:	697b      	ldr	r3, [r7, #20]
 8002346:	409a      	lsls	r2, r3
           ((SubPriority     & (uint32_t)((1UL << (SubPriorityBits    )) - 1UL)))
 8002348:	f04f 31ff 	mov.w	r1, #4294967295
 800234c:	697b      	ldr	r3, [r7, #20]
 800234e:	fa01 f303 	lsl.w	r3, r1, r3
 8002352:	43d9      	mvns	r1, r3
 8002354:	687b      	ldr	r3, [r7, #4]
 8002356:	400b      	ands	r3, r1
           ((PreemptPriority & (uint32_t)((1UL << (PreemptPriorityBits)) - 1UL)) << SubPriorityBits) |
 8002358:	4313      	orrs	r3, r2
         );
}
 800235a:	4618      	mov	r0, r3
 800235c:	3724      	adds	r7, #36	; 0x24
 800235e:	46bd      	mov	sp, r7
 8002360:	f85d 7b04 	ldr.w	r7, [sp], #4
 8002364:	4770      	bx	lr
	...

08002368 <SysTick_Config>:
  \note    When the variable <b>__Vendor_SysTickConfig</b> is set to 1, then the
           function <b>SysTick_Config</b> is not included. In this case, the file <b><i>device</i>.h</b>
           must contain a vendor-specific implementation of this function.
 */
__STATIC_INLINE uint32_t SysTick_Config(uint32_t ticks)
{
 8002368:	b580      	push	{r7, lr}
 800236a:	b082      	sub	sp, #8
 800236c:	af00      	add	r7, sp, #0
 800236e:	6078      	str	r0, [r7, #4]
  if ((ticks - 1UL) > SysTick_LOAD_RELOAD_Msk)
 8002370:	687b      	ldr	r3, [r7, #4]
 8002372:	3b01      	subs	r3, #1
 8002374:	f1b3 7f80 	cmp.w	r3, #16777216	; 0x1000000
 8002378:	d301      	bcc.n	800237e <SysTick_Config+0x16>
  {
    return (1UL);                                                   /* Reload value impossible */
 800237a:	2301      	movs	r3, #1
 800237c:	e00f      	b.n	800239e <SysTick_Config+0x36>
  }

  SysTick->LOAD  = (uint32_t)(ticks - 1UL);                         /* set reload register */
 800237e:	4a0a      	ldr	r2, [pc, #40]	; (80023a8 <SysTick_Config+0x40>)
 8002380:	687b      	ldr	r3, [r7, #4]
 8002382:	3b01      	subs	r3, #1
 8002384:	6053      	str	r3, [r2, #4]
  NVIC_SetPriority (SysTick_IRQn, (1UL << __NVIC_PRIO_BITS) - 1UL); /* set Priority for Systick Interrupt */
 8002386:	210f      	movs	r1, #15
 8002388:	f04f 30ff 	mov.w	r0, #4294967295
 800238c:	f7ff ff8e 	bl	80022ac <__NVIC_SetPriority>
  SysTick->VAL   = 0UL;                                             /* Load the SysTick Counter Value */
 8002390:	4b05      	ldr	r3, [pc, #20]	; (80023a8 <SysTick_Config+0x40>)
 8002392:	2200      	movs	r2, #0
 8002394:	609a      	str	r2, [r3, #8]
  SysTick->CTRL  = SysTick_CTRL_CLKSOURCE_Msk |
 8002396:	4b04      	ldr	r3, [pc, #16]	; (80023a8 <SysTick_Config+0x40>)
 8002398:	2207      	movs	r2, #7
 800239a:	601a      	str	r2, [r3, #0]
                   SysTick_CTRL_TICKINT_Msk   |
                   SysTick_CTRL_ENABLE_Msk;                         /* Enable SysTick IRQ and SysTick Timer */
  return (0UL);                                                     /* Function successful */
 800239c:	2300      	movs	r3, #0
}
 800239e:	4618      	mov	r0, r3
 80023a0:	3708      	adds	r7, #8
 80023a2:	46bd      	mov	sp, r7
 80023a4:	bd80      	pop	{r7, pc}
 80023a6:	bf00      	nop
 80023a8:	e000e010 	.word	0xe000e010

080023ac <HAL_NVIC_SetPriorityGrouping>:
  * @note   When the NVIC_PriorityGroup_0 is selected, IRQ preemption is no more possible. 
  *         The pending IRQ priority will be managed only by the subpriority. 
  * @retval None
  */
void HAL_NVIC_SetPriorityGrouping(uint32_t PriorityGroup)
{
 80023ac:	b580      	push	{r7, lr}
 80023ae:	b082      	sub	sp, #8
 80023b0:	af00      	add	r7, sp, #0
 80023b2:	6078      	str	r0, [r7, #4]
  /* Check the parameters */
  assert_param(IS_NVIC_PRIORITY_GROUP(PriorityGroup));
  
  /* Set the PRIGROUP[10:8] bits according to the PriorityGroup parameter value */
  NVIC_SetPriorityGrouping(PriorityGroup);
 80023b4:	6878      	ldr	r0, [r7, #4]
 80023b6:	f7ff ff29 	bl	800220c <__NVIC_SetPriorityGrouping>
}
 80023ba:	bf00      	nop
 80023bc:	3708      	adds	r7, #8
 80023be:	46bd      	mov	sp, r7
 80023c0:	bd80      	pop	{r7, pc}

080023c2 <HAL_NVIC_SetPriority>:
  *         This parameter can be a value between 0 and 15
  *         A lower priority value indicates a higher priority.          
  * @retval None
  */
void HAL_NVIC_SetPriority(IRQn_Type IRQn, uint32_t PreemptPriority, uint32_t SubPriority)
{ 
 80023c2:	b580      	push	{r7, lr}
 80023c4:	b086      	sub	sp, #24
 80023c6:	af00      	add	r7, sp, #0
 80023c8:	4603      	mov	r3, r0
 80023ca:	60b9      	str	r1, [r7, #8]
 80023cc:	607a      	str	r2, [r7, #4]
 80023ce:	73fb      	strb	r3, [r7, #15]
  uint32_t prioritygroup = 0x00U;
 80023d0:	2300      	movs	r3, #0
 80023d2:	617b      	str	r3, [r7, #20]
  
  /* Check the parameters */
  assert_param(IS_NVIC_SUB_PRIORITY(SubPriority));
  assert_param(IS_NVIC_PREEMPTION_PRIORITY(PreemptPriority));
  
  prioritygroup = NVIC_GetPriorityGrouping();
 80023d4:	f7ff ff3e 	bl	8002254 <__NVIC_GetPriorityGrouping>
 80023d8:	6178      	str	r0, [r7, #20]
  
  NVIC_SetPriority(IRQn, NVIC_EncodePriority(prioritygroup, PreemptPriority, SubPriority));
 80023da:	687a      	ldr	r2, [r7, #4]
 80023dc:	68b9      	ldr	r1, [r7, #8]
 80023de:	6978      	ldr	r0, [r7, #20]
 80023e0:	f7ff ff8e 	bl	8002300 <NVIC_EncodePriority>
 80023e4:	4602      	mov	r2, r0
 80023e6:	f997 300f 	ldrsb.w	r3, [r7, #15]
 80023ea:	4611      	mov	r1, r2
 80023ec:	4618      	mov	r0, r3
 80023ee:	f7ff ff5d 	bl	80022ac <__NVIC_SetPriority>
}
 80023f2:	bf00      	nop
 80023f4:	3718      	adds	r7, #24
 80023f6:	46bd      	mov	sp, r7
 80023f8:	bd80      	pop	{r7, pc}

080023fa <HAL_NVIC_EnableIRQ>:
  *         This parameter can be an enumerator of IRQn_Type enumeration
  *         (For the complete STM32 Devices IRQ Channels list, please refer to the appropriate CMSIS device file (stm32f4xxxx.h))
  * @retval None
  */
void HAL_NVIC_EnableIRQ(IRQn_Type IRQn)
{
 80023fa:	b580      	push	{r7, lr}
 80023fc:	b082      	sub	sp, #8
 80023fe:	af00      	add	r7, sp, #0
 8002400:	4603      	mov	r3, r0
 8002402:	71fb      	strb	r3, [r7, #7]
  /* Check the parameters */
  assert_param(IS_NVIC_DEVICE_IRQ(IRQn));
  
  /* Enable interrupt */
  NVIC_EnableIRQ(IRQn);
 8002404:	f997 3007 	ldrsb.w	r3, [r7, #7]
 8002408:	4618      	mov	r0, r3
 800240a:	f7ff ff31 	bl	8002270 <__NVIC_EnableIRQ>
}
 800240e:	bf00      	nop
 8002410:	3708      	adds	r7, #8
 8002412:	46bd      	mov	sp, r7
 8002414:	bd80      	pop	{r7, pc}

08002416 <HAL_SYSTICK_Config>:
  * @param  TicksNumb Specifies the ticks Number of ticks between two interrupts.
  * @retval status:  - 0  Function succeeded.
  *                  - 1  Function failed.
  */
uint32_t HAL_SYSTICK_Config(uint32_t TicksNumb)
{
 8002416:	b580      	push	{r7, lr}
 8002418:	b082      	sub	sp, #8
 800241a:	af00      	add	r7, sp, #0
 800241c:	6078      	str	r0, [r7, #4]
   return SysTick_Config(TicksNumb);
 800241e:	6878      	ldr	r0, [r7, #4]
 8002420:	f7ff ffa2 	bl	8002368 <SysTick_Config>
 8002424:	4603      	mov	r3, r0
}
 8002426:	4618      	mov	r0, r3
 8002428:	3708      	adds	r7, #8
 800242a:	46bd      	mov	sp, r7
 800242c:	bd80      	pop	{r7, pc}
	...

08002430 <HAL_FLASH_IRQHandler>:
/**
  * @brief This function handles FLASH interrupt request.
  * @retval None
  */
void HAL_FLASH_IRQHandler(void)
{
 8002430:	b580      	push	{r7, lr}
 8002432:	b082      	sub	sp, #8
 8002434:	af00      	add	r7, sp, #0
  uint32_t addresstmp = 0U;
 8002436:	2300      	movs	r3, #0
 8002438:	607b      	str	r3, [r7, #4]
  /* Check FLASH operation error flags */
#if defined(FLASH_SR_RDERR) 
  if(__HAL_FLASH_GET_FLAG((FLASH_FLAG_OPERR | FLASH_FLAG_WRPERR | FLASH_FLAG_PGAERR | \
    FLASH_FLAG_PGPERR | FLASH_FLAG_PGSERR | FLASH_FLAG_RDERR)) != RESET)
#else
  if(__HAL_FLASH_GET_FLAG((FLASH_FLAG_OPERR | FLASH_FLAG_WRPERR | FLASH_FLAG_PGAERR | \
 800243a:	4b4b      	ldr	r3, [pc, #300]	; (8002568 <HAL_FLASH_IRQHandler+0x138>)
 800243c:	68db      	ldr	r3, [r3, #12]
 800243e:	f003 03f2 	and.w	r3, r3, #242	; 0xf2
 8002442:	2b00      	cmp	r3, #0
 8002444:	d020      	beq.n	8002488 <HAL_FLASH_IRQHandler+0x58>
    FLASH_FLAG_PGPERR | FLASH_FLAG_PGSERR)) != RESET)
#endif /* FLASH_SR_RDERR */
  {
    if(pFlash.ProcedureOnGoing == FLASH_PROC_SECTERASE)
 8002446:	4b49      	ldr	r3, [pc, #292]	; (800256c <HAL_FLASH_IRQHandler+0x13c>)
 8002448:	781b      	ldrb	r3, [r3, #0]
 800244a:	b2db      	uxtb	r3, r3
 800244c:	2b01      	cmp	r3, #1
 800244e:	d107      	bne.n	8002460 <HAL_FLASH_IRQHandler+0x30>
    {
      /*return the faulty sector*/
      addresstmp = pFlash.Sector;
 8002450:	4b46      	ldr	r3, [pc, #280]	; (800256c <HAL_FLASH_IRQHandler+0x13c>)
 8002452:	68db      	ldr	r3, [r3, #12]
 8002454:	607b      	str	r3, [r7, #4]
      pFlash.Sector = 0xFFFFFFFFU;
 8002456:	4b45      	ldr	r3, [pc, #276]	; (800256c <HAL_FLASH_IRQHandler+0x13c>)
 8002458:	f04f 32ff 	mov.w	r2, #4294967295
 800245c:	60da      	str	r2, [r3, #12]
 800245e:	e00b      	b.n	8002478 <HAL_FLASH_IRQHandler+0x48>
    }
    else if(pFlash.ProcedureOnGoing == FLASH_PROC_MASSERASE)
 8002460:	4b42      	ldr	r3, [pc, #264]	; (800256c <HAL_FLASH_IRQHandler+0x13c>)
 8002462:	781b      	ldrb	r3, [r3, #0]
 8002464:	b2db      	uxtb	r3, r3
 8002466:	2b02      	cmp	r3, #2
 8002468:	d103      	bne.n	8002472 <HAL_FLASH_IRQHandler+0x42>
    {
      /*return the faulty bank*/
      addresstmp = pFlash.Bank;
 800246a:	4b40      	ldr	r3, [pc, #256]	; (800256c <HAL_FLASH_IRQHandler+0x13c>)
 800246c:	691b      	ldr	r3, [r3, #16]
 800246e:	607b      	str	r3, [r7, #4]
 8002470:	e002      	b.n	8002478 <HAL_FLASH_IRQHandler+0x48>
    }
    else
    {
      /*return the faulty address*/
      addresstmp = pFlash.Address;
 8002472:	4b3e      	ldr	r3, [pc, #248]	; (800256c <HAL_FLASH_IRQHandler+0x13c>)
 8002474:	695b      	ldr	r3, [r3, #20]
 8002476:	607b      	str	r3, [r7, #4]
    }
    
    /*Save the Error code*/
    FLASH_SetErrorCode();
 8002478:	f000 f88e 	bl	8002598 <FLASH_SetErrorCode>
    
    /* FLASH error interrupt user callback */
    HAL_FLASH_OperationErrorCallback(addresstmp);
 800247c:	6878      	ldr	r0, [r7, #4]
 800247e:	f000 f881 	bl	8002584 <HAL_FLASH_OperationErrorCallback>
    
    /*Stop the procedure ongoing*/
    pFlash.ProcedureOnGoing = FLASH_PROC_NONE;
 8002482:	4b3a      	ldr	r3, [pc, #232]	; (800256c <HAL_FLASH_IRQHandler+0x13c>)
 8002484:	2200      	movs	r2, #0
